:100000000C94E3000C9414010C9414010C9414014E
:100010000C9414010C9414010C9414010C9414010C
:100020000C9414010C9414010C9414010C941401FC
:100030000C9414010C9414010C9414010C941401EC
:100040000C9414010C9414010C9414010C941401DC
:100050000C9414010C9414010C9414010C94790266
:100060000C9414010C94ED020C94C3020C94140132
:100070000C9414010C9414010C9414010C941401AC
:100080000C9414010C9414010C9414010C9414019C
:100090000C9414010C9414010C9414010C9414018C
:1000A0000C9414010C9414010C9414010C9414017C
:1000B0000C9414010C9414010C9414010C9414016C
:1000C0000C9414010C9414010C9414010C9414015C
:1000D0000C9414010C9414010C9414010C9414014C
:1000E0000C9414010C9490010C94D1030C947C0199
:1000F0000C941C020C94D5010C943E010C946D01DF
:100100000C949E0100002200250028002B002E00E8
:100110003100340002010000050108010B0100005C
:100120002100240027002A002D00300033000101A7
:100130000000040107010A01050505050705080877
:100140000808020202020A0A080804040404010161
:100150000101010101010303030303030303040776
:1001600007070C0C0C0C0C0C0C0C0202020206060D
:100170000606060606060B0B0B0B0B0B0B0B010200
:1001800010202008081020401020408002010201A9
:100190000804020101020408102040808040201061
:1001A00008040201800402018040201008040201BA
:1001B0000804020101020408102040800102040822
:1001C00010204080D10311241FBECFEFD1E2DEBF4B
:1001D000CDBF00E00CBF12E0A0E0B2E0EAE1F8E041
:1001E00000E00BBF02C007900D92A231B107D9F712
:1001F00022E0A2E1B2E001C01D92A83BB207E1F704
:1002000010E0C3EED0E000E006C021970109802F86
:10021000FE010E94FE03C23ED10780E00807A9F755
:100220000E9423030C940B040C940000CF93DF93E3
:1002300090E0FC01E258FE4F2491FC01E85CFE4F87
:1002400084918823C1F090E0880F991FFC01E25E41
:10025000FE4FC591D491FC01EC5FFE4FA591B49186
:100260009FB7F8948881E22FE0958E2388838C9144
:10027000E823EC939FBFDF91CF910895CF92DF9257
:10028000EF92FF920F931F93CF93DF936C017A014C
:100290008B01C0E0D0E0CE15DF0589F0D8016D916B
:1002A0008D01D601ED91FC910190F081E02DC60108
:1002B0001995892B11F47E0102C02196ECCFC7015C
:1002C000DF91CF911F910F91FF90EF90DF90CF9032
:1002D0000895089580E090E00895FC01538D448DC9
:1002E000252F30E0842F90E0821B930B541710F0E1
:1002F000CF96089501970895FC01918D828D9817EE
:1003000061F0828DDF01A80FB11D5D968C91928DF9
:100310009F5F9F73928F90E008958FEF9FEF0895F6
:10032000FC01918D828D981731F0828DE80FF11DBF
:10033000858D90E008958FEF9FEF0895FC01918DDA
:10034000228D892F90E0805C9F4F821B91098F73D3
:100350009927089582E192E00E949E0121E0892B75
:1003600009F420E0822F0895FC01848DDF01A80F9D
:10037000B11DA35ABF4F2C91848D90E001968F73CD
:100380009927848FA689B7892C93A089B1898C91EC
:1003900080648C93938D848D981306C00288F389B2
:1003A000E02D80818F7D80830895EF92FF920F93DF
:1003B0001F93CF93DF93EC0181E0888F9B8D8C8D11
:1003C000981305C0E889F989808185FD24C0F62E3F
:1003D0000B8D10E00F5F1F4F0F731127E02E8C8DD8
:1003E000E8120CC00FB607FCFACFE889F9898081C2
:1003F00085FFF5CFCE010E94B401F1CF8B8DFE01B8
:10040000E80FF11DE35AFF4FF0820B8FEA89FB8959
:100410008081806207C0EE89FF896083E889F9895D
:1004200080818064808381E090E0DF91CF911F9193
:100430000F91FF90EF900895CF93DF93EC01888D9B
:100440008823C9F0EA89FB89808185FD05C0A889D8
:10045000B9898C9186FD0FC00FB607FCF5CF80815E
:1004600085FFF2CFA889B9898C9185FFEDCFCE01A8
:100470000E94B401E7CFDF91CF91089580E090E032
:10048000892B21F00E94AA01811125C080E090E013
:10049000892B41F080E090E0892B21F00E94000040
:1004A00081111CC080E090E0892B41F080E090E059
:1004B000892B21F00E940000811113C080E090E0A0
:1004C000892BA1F080E090E0892B81F00E94000050
:1004D00081110AC008950E940000D8CF0E94000038
:1004E000E1CF0E940000EACF0C94000008950E9422
:1004F00006041F920F920FB60F9211242F933F9371
:100500008F939F93AF93BF938091B4029091B50264
:10051000A091B602B091B7023091B30223E0230F4D
:100520002D3720F40196A11DB11D05C026E8230F2B
:100530000296A11DB11D2093B3028093B402909343
:10054000B502A093B602B093B7028091AF0290912A
:10055000B002A091B102B091B2020196A11DB11DED
:100560008093AF029093B002A093B102B093B20215
:10057000BF91AF919F918F913F912F910F900FBE9F
:100580000F901F9018951F920F920FB60F92112483
:100590000BB60F922F933F934F935F936F937F937D
:1005A0008F939F93AF93BF93EF93FF9382E192E07A
:1005B0000E94B401FF91EF91BF91AF919F918F91F4
:1005C0007F916F915F914F913F912F910F900BBE53
:1005D0000F900FBE0F901F9018951F920F920FB69D
:1005E0000F9211240BB60F922F938F939F93EF933B
:1005F000FF93E0912202F09123028081E091280292
:10060000F091290282FD12C0908180912B028F5FB0
:100610008F7320912C02821751F0E0912B02F0E0B1
:10062000EE5EFD4F958F80932B0201C08081FF917C
:10063000EF919F918F912F910F900BBE0F900FBE56
:100640000F901F901895789484B5826084BD84B50E
:10065000816084BD85B5826085BD85B5816085BDBD
:1006600080916E00816080936E0010928100809175
:1006700081008260809381008091810081608093FD
:100680008100809180008160809380008091B10022
:1006900084608093B1008091B00081608093B0004D
:1006A000809191008260809391008091910081609F
:1006B0008093910080919000816080939000809160
:1006C000A10082608093A1008091A100816080934D
:1006D000A1008091A00081608093A0008091210101
:1006E00082608093210180912101816080932101AA
:1006F0008091200181608093200180917A00846044
:1007000080937A0080917A00826080937A00809151
:100710007A00816080937A0080917A00806880936B
:100720007A001092C100E0912202F091230282E04F
:100730008083E0911E02F0911F021082E09120025E
:10074000F09121028FEC808310922A02E091260220
:10075000F091270286E08083E0912402F091250247
:10076000808180618083E0912402F0912502808164
:1007700088608083E0912402F09125028081806866
:100780008083E0912402F091250280818F7D808317
:1007900082E00E94160183E00E9416010E943E0240
:1007A000FDCFE2E1F2E01382128288EE93E0A0E056
:1007B000B0E084839583A683B78384E092E091833D
:1007C000808385EC90E09587848784EC90E0978720
:1007D000868780EC90E0918B808B81EC90E0938B0E
:1007E000828B82EC90E0958B848B86EC90E0978BEB
:1007F000868B118E128E138E148E0895EE0FFF1FAE
:10080000881F8BBF0790F691E02D199481E090E04E
:0A081000F8940C940B04F894FFCF49
:10081A0000000000D5013E016D011C029E017C0111
:02082A0090013B
:00000001FF
