:100000000C9466010C94390A0C940E0A0C94E309C2
:100010000C94B8090C948D090C9462090C9437095E
:100020000C940C090C9497010C9497010C94970173
:100030000C9497010C9497010C9497010C949701E0
:100040000C9497010C9497010C9497010C949701D0
:100050000C94A1060C9497010C9497010C94C2087F
:100060000C9497010C9494040C946A040C949701DA
:100070000C9497010C9497010C9497010C949701A0
:100080000C9497010C9497010C9497010C94970190
:100090000C9497010C9497010C9497010C94CA044A
:1000A0000C9497010C9497010C9497010C94970170
:1000B0000C9497010C9497010C9497010C94970160
:1000C0000C9497010C9497010C9497010C94970150
:1000D0000C9497010C9497010C9497010C94970140
:1000E0000C94970127072A0719071D0723076107A3
:1000F0002E07320738073C07400746074A074E07D6
:100100006107540758075C070C949B060C94320750
:100110000C9438070C94F2020C943C070C9448029F
:100120000C9458070C9440070C942E070C949C02D6
:100130000C9473130C9423070C9422030C941D0746
:100140000C9405040C9461070C94C2020C9487076C
:100150000C94CA030C94BC010C9499010C948F0765
:100160000C9401020C9446070C944E070C9419074A
:100170000C944A070C949D020C945C070C94CA01E1
:100180000C9421030C94AB020C94A8010C9425034D
:100190000C942A070C9479130C9427070C944203AF
:1001A0000C9454070C94BA0200002100240027008C
:1001B0002A002D0030003300010100000401070176
:1001C0000A0100002200250028002B002E0031002B
:1001D000340002010000050108010B0100002000AD
:1001E0002300260029002C002F003200000100000F
:1001F00003010601090105050505070508080808AA
:10020000020202020A0A08080404040401010101AE
:1002100001010101030303030303030304070707A9
:100220000C0C0C0C0C0C0C0C02020202060606064E
:10023000060606060B0B0B0B0B0B0B0B010210201B
:10024000200808102040102040800201020108040C
:1002500002010102040810204080804020100804A0
:1002600002018004020180402010080402010804F9
:10027000020101020408102040800102040810203D
:10028000408000000A0B02090C0D0E080703040150
:10029000000000000000000000000000000000005E
:1002A000000000000000000000000000000012112B
:1002B000100000000000000000000000000000002E
:1002C00000000000000000007913731311241FBE0A
:1002D000CFEFD1E2DEBFCDBF00E00CBF25E0ACE642
:1002E000B3E001C01D92A530B207E1F713E0A0E032
:1002F000B2E0EAEFF0E300E00BBF02C007900D921E
:10030000AC36B107D9F711E0C5E6D1E000E006C090
:1003100021970109802FFE010E942F16C436D107B4
:1003200080E00807A9F70E947B0C0C946B180C94D2
:100330000000FC01538D448D252F30E0842F90E088
:10034000821B930B541710F0CF96089501970895D0
:10035000FC01918D828D981761F0828DDF01A80FCD
:10036000B11D5D968C91928D9F5F9F73928F90E0EF
:1003700008958FEF9FEF0895FC01918D828D98175E
:1003800031F0828DE80FF11D858D90E008958FEF9B
:100390009FEF0895FC01918D228D892F90E0805C64
:1003A0009F4F821B91098F73992708958DE394E0E5
:1003B0000E94CA0121E0892B09F420E0822F0895D0
:1003C000FC01848DDF01A80FB11DA35ABF4F2C91F2
:1003D000848D90E001968F739927848FA689B789C1
:1003E0002C93A089B1898C9180648C93938D848D9A
:1003F000981306C00288F389E02D80818F7D808369
:100400000895EF92FF920F931F93CF93DF93EC0128
:1004100081E0888F9B8D8C8D981305C0E889F989C0
:10042000808185FD24C0F62E0B8D10E00F5F1F4FDD
:100430000F731127E02E8C8DE8120CC00FB607FC4D
:10044000FACFE889F989808185FFF5CFCE010E9436
:10045000E001F1CF8B8DFE01E80FF11DE35AFF4F54
:10046000F0820B8FEA89FB898081806207C0EE8968
:10047000FF896083E889F98980818064808381E0D5
:1004800090E0DF91CF911F910F91FF90EF90089531
:10049000CF93DF93EC01888D8823C9F0EA89FB892B
:1004A000808185FD05C0A889B9898C9186FD0FC022
:1004B0000FB607FCF5CF808185FFF2CFA889B989F7
:1004C0008C9185FFEDCFCE010E94E001E7CFDF9157
:1004D000CF91089585ED8093BC008091BC0084FD90
:1004E000FCCF10926E0308954091F403262F30E064
:1004F000240F311D21323105DCF420916E032430AC
:10050000C9F4FC0180E090E0861758F43091F403C0
:100510002191DC01AE52BC4FA30FB11D2C9301966B
:10052000F3CF8091F403680F6093F40380E00895A3
:1005300081E0089582E00895089581E090E030918F
:10054000720320917103321710F480E090E09195CE
:100550008195910908958091720390917103891793
:1005600030F48F5F8093720380E090E008958FEF06
:100570009FEF08958091710390E020917203821B98
:1005800091090895CF92DF92EF92FF920F931F93FC
:10059000CF93DF937C01262F972F8A018091D1037F
:1005A000882391F0C62FD72F6E01C40ED51ECC150F
:1005B000DD0571F06991D701ED91FC910190F08119
:1005C000E02DC7011995F3CF642F822F0E9474028A
:1005D000C801DF91CF911F910F91FF90EF90DF90B5
:1005E000CF900895CF93DF931F92CDB7DEB7698385
:1005F0002091D1032223D1F020916F03203240F0CB
:1006000021E030E0FC013383228380E090E015C0DC
:1006100080917003E82FF0E0EF54FC4F99819083B4
:100620008F5F8093700380936F0305C061E0CE01FC
:1006300001960E94740281E090E00F90DF91CF91CB
:100640000895089580E090E0089580917D03909151
:100650007E03019690937E0380937D0380917903BE
:1006600090917A03A0917B03B0917C030196A11D28
:10067000B11D8093790390937A03A0937B03B09389
:100680007C0308950E944D18FF920F931F93CF9300
:10069000DF931F921F92CDB7DEB78DE394E00E94E7
:1006A000CA01892BD1F18DE394E00E94A801F82EB4
:1006B00089831A820091EA041091EB040F5F1F4FA7
:1006C000B80186EE94E00E94830A882399F0209175
:1006D000E6043091E7048091EA049091EB04BE01B6
:1006E0006F5F7F4F820F931F0E9464181093EB047B
:1006F0000093EA048DE0F81204C081E08093AF0318
:100700000CC080E2F81209C00F900F90DF91CF91DA
:100710001F910F91FF900C94D50A0F900F90DF91CD
:10072000CF911F910F91FF9008950E94D6018111E2
:1007300025C080E090E0892B41F080E090E0892B9B
:1007400021F00E94000081111CC080E090E0892B04
:1007500041F080E090E0892B21F00E94000081119F
:1007600013C080E090E0892BA1F080E090E0892B1D
:1007700081F00E94000081110AC008950E94440384
:10078000D8CF0E940000E1CF0E940000EACF0C9475
:100790000000089583E00E94F30721E0892B09F40B
:1007A00020E02093AE038091AE03882369F180B1ED
:1007B00085FB882780F98093AD038091AD0381117B
:1007C00003C081E090E002C08FEF9FEF40917F0374
:1007D000509180036091810370918203092E000C77
:1007E000AA0BBB0B840F951FA61FB71F80937F0317
:1007F00090938003A0938103B09382039091870329
:1008000081E089278093870308950F931F9382E0E7
:100810000E94F30721E0892B09F420E02093AE0326
:100820008091AE03882309F452C080B183FB8827EE
:1008300080F98093AC038091AC03811103C081E007
:1008400090E002C08FEF9FEF4091830350918403AB
:100850006091850370918603092E000CAA0BBB0BD7
:100860008A019B01081B190B2A0B3B0B0093830386
:100870001093840320938503309386038091AC0307
:10088000811103C081E090E002C08FEF9FEF4091A3
:100890007503509176036091770370917803092E68
:1008A000000CAA0BBB0B8A019B01081B190B2A0B1E
:1008B0003B0B0093750310937603209377033093DB
:1008C00078039091880381E08927809388031F91A2
:1008D0000F9108951F920F920FB60F9211240BB62D
:1008E0000F922F933F934F935F936F937F938F93C9
:1008F0009F93AF93BF93EF93FF938DE394E00E9498
:10090000E001FF91EF91BF91AF919F918F917F9106
:100910006F915F914F913F912F910F900BBE0F9070
:100920000FBE0F901F9018951F920F920FB60F9247
:1009300011240BB60F922F938F939F93EF93FF93F6
:10094000E0914D04F0914E048081E0915304F091C8
:10095000540482FD12C09081809156048F5F8F7382
:1009600020915704821751F0E0915604F0E0E35CC7
:10097000FB4F958F8093560401C08081FF91EF91CA
:100980009F918F912F910F900BBE0F900FBE0F90E4
:100990001F9018951F920F920FB60F9211240BB64D
:1009A0000F922F933F934F935F936F937F938F9308
:1009B0009F93AF93BF93EF93FF938091B900887F8C
:1009C000803609F49CC068F5883209F45BC090F465
:1009D000803109F454C038F4882309F4F6C0883013
:1009E00009F44DC0F6C0883109F44CC0803209F4D6
:1009F0005DC0EFC0803409F468C048F4803309F466
:100A000055C0883309F0E5C080931904D8C08035FB
:100A100009F44FC0883509F45DC0883409F0D9C0A5
:100A2000D6C0883909F4C7C0A8F4883709F467C06C
:100A300038F4883609F463C0803709F460C0C9C04F
:100A4000883809F4B8C0803909F45FC0803809F0EB
:100A5000C0C05BC0803B09F486C038F4803A09F41A
:100A600066C0883A09F47FC0B4C0803C09F4A7C0CE
:100A7000883C09F4A4C0883B09F48AC0AAC08091CC
:100A80003C0410C090913B0480913A04981770F593
:100A9000E0913B0481E08E0F80933B04F0E0E65E42
:100AA000FB4F80818093BB0085EC86C08093190446
:100AB0008EC0E0913B0481E08E0F80933B048091D7
:100AC000BB00F0E0E65EFB4F808390913B04809199
:100AD0003A046EC0E0913B0481E08E0F80933B04AA
:100AE0008091BB00F0E0E65EFB4F808380916D0358
:100AF00081116DC081E080936C0384EA61C083E062
:100B000080936E0310921804CFCF80911804803226
:100B100008F051C0E091180481E08E0F8093180412
:100B20008091BB00F0E0E850FC4F8083BDCF85ECA6
:100B30008093BC0010926E0380911804803230F4D0
:100B4000E0911804F0E0E850FC4F10826091180426
:100B500070E0E091F603F091F70388EF93E01995C8
:100B60001092180436C084E080936E031092F5034F
:100B70001092F403E091F203F091F3031995809140
:100B8000F403811105C081E08093F4031092D20335
:100B9000E091F50381E08E0F8093F503F0E0EE52D3
:100BA000FC4F80818093BB009091F5038091F4030A
:100BB000981708F479CF85E88093BC000AC085ECCB
:100BC0008093BC0010926E0304C0109219040E941E
:100BD0006A02FF91EF91BF91AF919F918F917F91A9
:100BE0006F915F914F913F912F910F900BBE0F909E
:100BF0000FBE0F901F901895CF93FC01C48121E088
:100C00002093D103C093B0031092700310926F032E
:100C10008385682B8AED94E00E94F20280916F0335
:100C2000813208F046C090916E039111FCCF92E0A2
:100C300090936E0391E090936D039FEF909319044E
:100C400010923B0480933A04A1EBB3E02AE134E034
:100C5000F9019E2F921B981718F49D919193F9CF4B
:100C600010923C0480913C04CC0FC82BC0933C04F0
:100C700080916C03813061F410926C0380913C048C
:100C80008093BB008091BC0083FDF8CF85EC01C050
:100C900085EE8093BC0080916E038230E1F38091F9
:100CA00019048F3F31F080911904803211F0809146
:100CB00019041092700310926F031092D103CF9118
:100CC00008950F931F93CF938C01C62F0E94FC05AC
:100CD0006C2F6460C8010E94FC056C2F6B7FC801FB
:100CE0000E94FC0583EC90E00197F1F7CF911F91F2
:100CF0000F910895FF920F931F93CF93DF931F924D
:100D0000CDB7DEB78C01F62E962F907F692F642B1E
:100D1000C80149830E94610680E1F89EB001112458
:100D20004981642BC8010F90DF91CF911F910F91E2
:100D3000FF900C94610641E00E947A0681E090E009
:100D400008951F920F920FB60F9211240BB60F92B7
:100D50002F933F934F935F936F937F938F939F93C3
:100D6000AF93BF93EF93FF93E0917303F0917403FC
:100D70001995FF91EF91BF91AF919F918F917F91C5
:100D80006F915F914F913F912F910F900BBE0F90FC
:100D90000FBE0F901F90189560E08BE00E941C081A
:100DA00060E085E20E941C0860E084E20E941C086A
:100DB00060E08CE00E941C0860E087E20E941C0852
:100DC00060E086E20C941C0861E08BE00E941C0845
:100DD00061E08CE00E941C0860E084E20E941C0834
:100DE00061E087E20E941C0861E08FE20C941C081D
:100DF00061E08BE00E941C0861E084E20E941C0814
:100E000061E086E20E941C0861E08CE00E941C0800
:100E100060E08FE20C941C0890E0FC013197E23115
:100E2000F10508F04EC08827EE58FF4F8F4F0C9405
:100E30002F16809180008F7703C0809180008F7D76
:100E400080938000089580918000877FF9CF84B5DA
:100E50008F7702C084B58F7D84BD08958091B000E6
:100E60008F7703C08091B0008F7D8093B00008958C
:100E7000809190008F7707C0809190008F7D03C094
:100E800080919000877F8093900008958091A000CA
:100E90008F7707C08091A0008F7D03C08091A00054
:100EA000877F8093A0000895809120018F7707C0ED
:100EB000809120018F7D03C080912001877F8093E6
:100EC000200108953FB7F8948091FD049091FE04AD
:100ED000A091FF04B091000526B5A89B05C02F3F47
:100EE00019F00196A11DB11D3FBFBA2FA92F982F50
:100EF0008827820F911DA11DB11DBC01CD0142E0CB
:100F0000660F771F881F991F4A95D1F70895089596
:100F1000DC01ED91FC910190F081E02D1994CF92CC
:100F2000DF92EF92FF920F931F93CF93DF936C01A9
:100F30007A018B01C0E0D0E0CE15DF0589F0D80141
:100F40006D918D01D601ED91FC910190F081E02D24
:100F5000C6011995892B11F47E0102C02196ECCFB0
:100F6000C701DF91CF911F910F91FF90EF90DF901C
:100F7000CF900895CF93DF93CDB7DEB728970FB604
:100F8000F894DEBF0FBECDBF98E0E7E8F2E0DE01E7
:100F9000119601900D929A95E1F79091F5049817AA
:100FA00010F48FEF890FFE013196E80FF11DE80F65
:100FB000F11D6081606840E08CEE94E028960FB6E9
:100FC000F894DEBF0FBECDBFDF91CF910C947A06AF
:100FD00040E061E08CEE94E00E947A068BE39FE1B2
:100FE0000197F1F70895CF93DF93282F30E0F901AF
:100FF000EE57FD4F8491F901E45CFD4FD491F90166
:10100000EA50FE4FC491CC2391F081110E940C074D
:10101000EC2FF0E0EE0FFF1FE452FE4FA591B491CC
:10102000EC91ED2381E090E021F480E002C080E0CB
:1010300090E0DF91CF9108951F93CF93DF93282FF6
:1010400030E0F901EE57FD4F8491F901E45CFD4F6A
:10105000D491F901EA50FE4FC491CC23C9F0162F68
:1010600081110E940C07EC2FF0E0EE0FFF1FEE53F2
:10107000FE4FA591B4918FB7F894111105C09C91C2
:10108000ED2FE095E92302C0EC91ED2BEC938FBF9F
:10109000DF91CF911F910895CF93DF9390E0FC01F2
:1010A000E45CFD4F2491FC01EA50FE4F84918823BB
:1010B00061F190E0880F991FFC01E855FE4FC59142
:1010C000D491FC01EE53FE4FA591B491611109C07A
:1010D0009FB7F8948881209582238883EC912E23F2
:1010E0000BC0623061F49FB7F8943881822F8095ED
:1010F00083238883EC912E2B2C939FBF06C08FB740
:10110000F894E8812E2B28838FBFDF91CF9108952B
:101110008F929F92AF92BF92CF92DF92EF92FF9207
:101120006B017C010E9462074B015C01C114D10478
:10113000E104F104F1F00E946207DC01CB0188199F
:101140009909AA09BB09883E9340A105B10570F32E
:1011500021E0C21AD108E108F10888EE880E83E088
:10116000981EA11CB11CC114D104E104F10419F7AB
:10117000DDCFFF90EF90DF90CF90BF90AF909F902A
:101180008F9008951F920F920FB60F9211242F93F4
:101190003F938F939F93AF93BF938091F904909166
:1011A000FA04A091FB04B091FC043091F80423E010
:1011B000230F2D3720F40196A11DB11D05C026E88F
:1011C000230F0296A11DB11D2093F8048093F9040A
:1011D0009093FA04A093FB04B093FC048091FD0467
:1011E0009091FE04A091FF04B09100050196A11D0D
:1011F000B11D8093FD049093FE04A093FF04B0936F
:101200000005BF91AF919F918F913F912F910F90CA
:101210000FBE0F901F9018951F920F920FB60F924E
:1012200011240BB60F922F933F934F935F936F93BD
:101230007F938F939F93AF93BF93EF93FF93E0912F
:101240001302F09114021995FF91EF91BF91AF91A4
:101250009F918F917F916F915F914F913F912F91CE
:101260000F900BBE0F900FBE0F901F9018951F92FE
:101270000F920FB60F9211240BB60F922F933F933C
:101280004F935F936F937F938F939F93AF93BF938E
:10129000EF93FF93E0911102F09112021995FF91E3
:1012A000EF91BF91AF919F918F917F916F915F91DE
:1012B0004F913F912F910F900BBE0F900FBE0F904B
:1012C0001F9018951F920F920FB60F9211240BB614
:1012D0000F922F933F934F935F936F937F938F93CF
:1012E0009F93AF93BF93EF93FF93E0910702F09129
:1012F00008021995FF91EF91BF91AF919F918F9146
:101300007F916F915F914F913F912F910F900BBE05
:101310000F900FBE0F901F9018951F920F920FB64F
:101320000F9211240BB60F922F933F934F935F931D
:101330006F937F938F939F93AF93BF93EF93FF939D
:10134000E0910502F09106021995FF91EF91BF918E
:10135000AF919F918F917F916F915F914F913F914D
:101360002F910F900BBE0F900FBE0F901F901895EE
:101370001F920F920FB60F9211240BB60F922F935C
:101380003F934F935F936F937F938F939F93AF930D
:10139000BF93EF93FF93E0910F02F0911002199524
:1013A000FF91EF91BF91AF919F918F917F916F913D
:1013B0005F914F913F912F910F900BBE0F900FBEF9
:1013C0000F901F9018951F920F920FB60F92112435
:1013D0000BB60F922F933F934F935F936F937F932F
:1013E0008F939F93AF93BF93EF93FF93E0910D0281
:1013F000F0910E021995FF91EF91BF91AF919F91DE
:101400008F917F916F915F914F913F912F910F90AD
:101410000BBE0F900FBE0F901F9018951F920F924A
:101420000FB60F9211240BB60F922F933F934F9349
:101430005F936F937F938F939F93AF93BF93EF933C
:10144000FF93E0910B02F0910C021995FF91EF913F
:10145000BF91AF919F918F917F916F915F914F91CC
:101460003F912F910F900BBE0F900FBE0F901F90CA
:1014700018951F920F920FB60F9211240BB60F9270
:101480002F933F934F935F936F937F938F939F938C
:10149000AF93BF93EF93FF93E0910902F0910A029B
:1014A0001995FF91EF91BF91AF919F918F917F918E
:1014B0006F915F914F913F912F910F900BBE0F90C5
:1014C0000FBE0F901F901895FC0124813581232BAE
:1014D00031F421E061157105A1F0FB0108C0FC01A8
:1014E000808191816115710531F421E0FC018081D9
:1014F000882339F005C00E945B1821E0892B09F090
:1015000020E0822F08950F931F93CF93DF93EC0178
:1015100088819981009729F02A813B812617370716
:1015200088F48B016F5F7F4F0E946417009761F012
:10153000998388831B830A832C813D81232B11F49B
:10154000FC01108281E001C080E0DF91CF911F910A
:101550000F910895EF92FF920F931F93CF93DF9314
:10156000EC017B018A01BA010E94830A288139813A
:1015700081110DC02115310519F0C9010E94CC1649
:10158000198218821D821C821B821A8206C01D834A
:101590000C83B701C9010E946418CE01DF91CF917D
:1015A0001F910F91FF90EF90089540E050E068ED9B
:1015B00072E086EE94E00E94AA0A86EE94E0089516
:1015C0006115710579F0FB0101900020E9F7319771
:1015D000AF01461B570BDC01ED91FC910280F381BA
:1015E000E02D199480E090E00895CF93DF93BC0143
:1015F0008DE394E00E94E00AEC0166ED72E08DE379
:1016000094E00E94E00A8C0F9D1FDF91CF91089516
:101610004F925F926F927F92EF92FF920F931F9380
:10162000CF93DF93CDB7DEB7A1970FB6F894DEBFA7
:101630000FBECDBF7C01FA01CB0119A2223008F404
:101640002AE08E010F5D1F4F422E512C612C712C10
:10165000BF01A30192010E940D16F901CA010150B8
:1016600011096A3014F4605D01C0695CD8016C93A3
:10167000232B242B252B61F7B801C7010E94E00A18
:10168000A1960FB6F894DEBF0FBECDBFDF91CF910C
:101690001F910F91FF90EF907F906F905F904F9010
:1016A0000895CF92DF92EF92FF920F931F93CF9303
:1016B000DF9377FF1DC06A017B01EC016DE20E94A0
:1016C00088078C0144275527BA014C195D096E091A
:1016D0007F092AE0CE010E94080B800F911FDF9145
:1016E000CF911F910F91FF90EF90DF90CF900895D1
:1016F0002AE0DF91CF911F910F91FF90EF90DF9043
:10170000CF900C94080BCF93DF93AB01BC018DE31A
:1017100094E00E94510BEC0166ED72E08DE394E0E1
:101720000E94E00A8C0F9D1FDF91CF9108954F9288
:101730005F926F927F928F929F92AF92BF92CF9261
:10174000DF92EF92FF92CF93DF93EC016A017B016E
:10175000B22E9A01AB01C701B6010E940816882378
:1017600019F060E673E027C026013701E89477F8A6
:101770002FEF3FEF4FE75FE7C301B2010E9408166A
:1017800081110DC02FEF3FEF4FE75FE7C301B201BB
:101790000E94D11318161CF464E673E00CC02FEFFE
:1017A0003FEF4FE75FE4C701B6010E94031618162A
:1017B0009CF468E673E0CE01DF91CF91FF90EF904B
:1017C000DF90CF90BF90AF909F908F907F906F9061
:1017D0005F904F900C94E00A2FEF3FEF4FE75FECE4
:1017E000C701B6010E94D11387FDE3CF20E030E0AE
:1017F000A901C701B6010E94D11387FF0AC06DE29B
:10180000CE010E9488074C01F7FAF094F7F8F094A3
:1018100002C0812C912CA12C60E070E080E09FE35D
:10182000AB1441F020E030E040E251E40E94621548
:10183000A394F6CF9B01AC01C701B6010E94F61438
:101840002B013C010E94D4156B017C010E94D61330
:101850009B01AC01C301B2010E94F5142B013C01B4
:101860002AE0B701A601CE010E94080B7C01E80C1A
:10187000F91CBB2031F06EE2CE010E948807E80E11
:10188000F91EDB2CDD2029F120E030E040E251E4BC
:10189000C301B2010E9437142B013C010E94D415F0
:1018A0004B01A12CB12C2AE0B501A401CE010E946C
:1018B000080BE80EF91EC501B4010E94D6139B0166
:1018C000AC01C301B2010E94F5142B013C01DA9472
:1018D000D9CFC701DF91CF91FF90EF90DF90CF90EC
:1018E000BF90AF909F908F907F906F905F904F9040
:1018F00008950C94E00ACF93DF93CDB7DEB72A9713
:101900000FB6F894DEBF0FBECDBF789484B5826069
:1019100084BD84B5816084BD85B5826085BD85B593
:10192000816085BD80916E00816080936E00109211
:10193000810080918100826080938100809181008C
:10194000816080938100809180008160809380001D
:101950008091B10084608093B1008091B00081607B
:101960008093B0008091910082608093910080917B
:1019700091008160809391008091900081608093BC
:1019800090008091A10082608093A1008091A100CD
:1019900081608093A1008091A00081608093A0006D
:1019A00080912101826080932101809121018160D9
:1019B000809321018091200181608093200180919A
:1019C0007A00846080937A0080917A0082608093AC
:1019D0007A0080917A00816080937A0080917A0009
:1019E000806880937A001092C100E0914D04F091DC
:1019F0004E0482E08083E0914904F0914A04108211
:101A0000E0914B04F0914C048FEC808310925504CC
:101A1000E0915104F091520486E08083E0914F04FC
:101A2000F0915004808180618083E0914F04F091B7
:101A30005004808188608083E0914F04F0915004CD
:101A4000808180688083E0914F04F0915004808110
:101A50008F7D80838BEC92E00E94F50A2AE04BE1B7
:101A600050E060E070E08DE394E00E94080B66EDCA
:101A700072E08DE394E00E94E00A8BE190E09093A5
:101A800094038093930310929703109296031092FD
:101A90009B0310929A0340E050E080919A0390914A
:101AA0009B034B9708F5E0919A03F0919B03EE0F8F
:101AB000FF1FE55EFD4F808191814817590750F463
:101AC000E0919A03F0919B03EE0FFF1FE55EFD4F3F
:101AD0004081518180919A0390919B03019690934C
:101AE0009B0380939A03D9CF509397034093960317
:101AF00060E070E02AE08DE394E00E94080B66ED60
:101B000072E08DE394E00E94E00A10929B03109231
:101B10009A0380E1809381001092800081E080939D
:101B2000900320E43FE130938F0320938E033093A2
:101B300087002093860091E19093810025E233E0B5
:101B4000309374032093730380936F001092720399
:101B5000109271031092700310926F0310926E0333
:101B600080936D0310926C0361E084E10E941C0875
:101B700061E085E10E941C088091B9008E7F80930E
:101B8000B9008091B9008D7F8093B90088E480937B
:101B9000B80085E48093BC001092F1048091F504B4
:101BA000823018F098E09093F1049091F604992314
:101BB00039F0813029F48091F10484608093F1043C
:101BC00062E370E080E090E00E9488086091F70492
:101BD0008CEE94E00E94FC0568EE73E080E090E0FB
:101BE0000E94880860E38CEE94E00E9461060BE49A
:101BF00016E4C8010197F1F760E38CEE94E00E94CF
:101C00006106C8010197F1F760E38CEE94E00E9451
:101C1000610683E592E00197F1F760E28CEE94E0D3
:101C20000E9461066091F104606240E08CEE94E0F5
:101C30000E947A0684E08093F20440E06CE08CEE2F
:101C400094E00E947A060E94E80782E08093F30401
:101C500040E066E08CEE94E00E947A0640E062E0AC
:101C60008CEE94E00E947A068BE39FE10197F1F7F6
:101C70001092790310927A0310927B0310927C03E6
:101C800068EC70E086EE94E00E94830A84EF91E0B5
:101C900090938D0380938C0390938B0380938A039E
:101CA00060E088E10E944C0860E088E10E941C0826
:101CB00060E089E10E944C0860E089E10E941C0814
:101CC00085E094E0909306028093050280916A007B
:101CD000836080936A00EC9A60E08AE10E944C087D
:101CE00060E08AE10E941C0860E08BE10E944C08E1
:101CF00060E08BE10E941C088AEC93E0909308025C
:101D00008093070280916A008C6080936A00ED9A4C
:101D100061E082E20E944C0860E082E20E941C08BE
:101D200061E083E20E944C0860E083E20E941C08AC
:101D300061E086E20E944C0860E086E20E941C0896
:101D400061E08FE20E944C0860E08FE20E941C0874
:101D500061E08CE00E944C0860E08CE00E941C086E
:101D600061E08BE00E944C0860E08BE00E941C0860
:101D700061E087E20E944C0860E087E20E941C0854
:101D800061E084E20E944C0860E084E20E941C084A
:101D900061E085E20E944C0860E085E20E941C0838
:101DA00010928803109287031092890380E00E94AA
:101DB000BA0769ED72E08CEE94E00E94790C81E044
:101DC0000E94BA076BEC72E08CEE94E00E94790CF2
:101DD00060ED77E080E090E00E9488080E94E807CC
:101DE00060918303709184038091850390918603B1
:101DF00020910102309102024091030250910402AD
:101E00002F83388749875A870E94D8132F813885B6
:101E100049855A850E9437146093A0037093A103EB
:101E20008093A2039093A30380E00E94BA0740919D
:101E3000A0035091A1036091A2037091A30322E03B
:101E40008CEE94E00E94970B6BEE72E08CEE94E0C7
:101E50000E94790C81E00E94BA0740917F03509163
:101E6000800360918103709182038CEE94E00E9464
:101E7000510B81E08093000211E000E150E4E52E77
:101E80005FE1F52E61E1B62E74EFC72EDD24D39409
:101E90001A8219821C821B821E821D826091E604B6
:101EA0007091E7046115710541F04091EA04509189
:101EB000EB04CE0101960E94AA0A6EEE72E0CE01FA
:101EC00001960E94640A882321F0109300020E9468
:101ED000D50A64EF72E0CE0101960E94640A88235D
:101EE00021F0109200020E94D50A6BEF72E0CE0141
:101EF00001960E94640A81112AC06FEF72E0CE0140
:101F000001960E94640A882309F4C9C010928100D6
:101F100010928500109284008091900380618093DC
:101F2000810080E1809381001092800081E08093A5
:101F3000900380E49FE190938F0380938E039093AE
:101F400087008093860081E1809381009DC010927C
:101F5000810010928500109284008091900380612E
:101F60008093810000938100109280001093900371
:101F7000F0928F03E0928E03F0928700E092860049
:101F8000B09281008091790390917A03A0917B03B4
:101F9000B0917C03892B8A2B8B2B09F4AECF6091F7
:101FA000790370917A0380917B0390917C030E9466
:101FB000830B61E083E20E941C088091830390916F
:101FC0008403A0918503B09186038C399F4FAF4F56
:101FD000BF4FC1F60093810060E083E20E941C08BD
:101FE00060918303709184038091850390918603AF
:101FF00020910102309102024091030250910402AB
:102000002F83388749875A870E94D8132F813885B4
:1020100049855A850E9437146093A0037093A103E9
:102020008093A2039093A3034091A0035091A10336
:102030006091A2037091A30322E08DE394E00E94DB
:10204000970B66ED72E08DE394E00E94E00A6091E8
:10205000790370917A0380917B0390917C030E94B5
:10206000830B1092790310927A0310927B031092E3
:102070007C031092830310928403109285031092C4
:1020800086030E94D50A7ECF6091790370917A030E
:1020900080917B0390917C030E94830BF5CF64E0D9
:1020A00073E0CE0101960E94640A882309F446C0B9
:1020B000D0928D03C0928C03D0928B03C0928A037E
:1020C0004091EA045091EB046091E6047091E704BA
:1020D0008DE394E00E948F0766ED72E08DE394E05B
:1020E0000E94E00A69E073E08DE394E00E94790CBD
:1020F00040918C0350918D03052E000C660B770BDD
:102100008DE394E00E94510B69E073E08DE394E06D
:102110000E94790C40918A0350918B03052E000C8C
:10212000660B770B8DE394E00E94510B69E073E03E
:102130008DE394E00E94790C0E94D50A6CE073E074
:10214000CE0101960E94640A882309F463C061E00D
:1021500085E20E941C0861E086E20E941C0868E893
:1021600073E180E090E00E94880860E086E20E94CF
:102170001C0860E085E20E941C080E94E80760914C
:10218000830370918403809185039091860320914D
:1021900001023091020240910302509104022F8308
:1021A000388749875A870E94D8132F8138854985F7
:1021B0005A850E9437146093A0037093A103809303
:1021C000A2039093A30380E00E94BA074091A0036A
:1021D0005091A1036091A2037091A30322E08CEEC1
:1021E00094E00E94970B6BEE72E08CEE94E00E94FC
:1021F000790C81E00E94BA0740917F0350918003DF
:1022000060918103709182038CEE94E00E94510BE7
:102210000E94D50A89819A810E94CC168091A403DC
:102220008091880381110CC280918703811108C2BB
:1022300061E173E086EE94E00E94640A8823D1F1A4
:102240008EE193E00E94F50A1092000210939F0322
:1022500010939E0310927E0310927D0310927903D7
:1022600010927A0310927B0310927C031092A003C9
:102270001092A1031092A2031092A303109387035C
:1022800010928303109284031092850310928603A8
:1022900010927503109276031092770310927803D0
:1022A00010929D0310929C0310929B0310929A032C
:1022B0000E94D50A6DE273E086EE94E00E94640A03
:1022C0008823F1F18BE393E00E94F50A109200025B
:1022D00010939F031093990310929B0310929A03FB
:1022E00010927E0310927D031092790310927A036C
:1022F00010927B0310927C0310929D0310929C031A
:102300001092A0031092A1031092A2031092A303B3
:102310001093870310928303109284031092850315
:102320001092860310927503109276031092770331
:102330001092780310929D0310929C030E94D50A7C
:1023400080919F03882309F43FC020917D03309141
:102350007E03E0919A03F0919B03EE0FFF1FE55E71
:10236000FD4F808191818217930770F520919A0328
:1023700030919B0380919303909194032817390720
:1023800018F580919A0390919B03019690939B037B
:1023900080939A03109395031092790310927A0315
:1023A00010927B0310927C0380919903882341F063
:1023B0001092830310928403109285031092860377
:1023C00061E085E20E941C0880919A0390919B0332
:1023D000209193033091940382179307F8F4DC0162
:1023E000AA0FBB1FAD5ABD4F880F991FFC01EF5AB2
:1023F000FD4F8D919C9120813181821B930B909395
:10240000920380939103181619061CF410929803F6
:102410000BC0892B49F01093980306C010929903C2
:102420001092980310929E0380919903882309F4D7
:102430009FC08091980390919503992309F496C0C9
:10244000882349F069E473E08DE394E00E94790CFD
:102450000E94F80608C06FE473E08DE394E00E94E8
:10246000790C0E94E4068091830390918403A091EB
:102470008503B0918603181619061A061B0674F414
:102480008091830390918403A0918503B09186038A
:10249000181619061A061B0684F06AC08091830379
:1024A00090918403A0918503B091860318161906B4
:1024B0001A061B0609F00CF45BC00E94CC061092B1
:1024C00095038091830390918403A0918503B0913B
:1024D0008603181619061A061B064CF4809183030E
:1024E00090918403A0918503B09186030FC08091E1
:1024F000830390918403A0918503B0918603B095E6
:10250000A095909581959F4FAF4FBF4F0297A10522
:10251000B10574F120919C0330919D038091830358
:1025200090918403A0918503B09186031816190633
:102530001A061B064CF48091830390918403A091AA
:102540008503B09186030BC080918303909184032F
:10255000A0918503B0918603919581959109820F91
:10256000931F90939D0380939C0302C00E94CC060E
:1025700080919E03882349F180919803909195035F
:10258000992309F1882349F069E473E08DE394E02D
:102590000E94790C0E94F80608C06FE473E08DE396
:1025A00094E00E94790C0E94E40680917903909156
:1025B0007A03A0917B03B0917C038D97A105B105AF
:1025C00024F0109295030E94CC0620917D03309157
:1025D0007E0380919603909197038217930720F5CD
:1025E00010927E0310927D0310929F031092990324
:1025F00010929E0360E08FE20E941C0885E593E044
:102600000E94F50A40919C0350919D03052E000CF9
:10261000660B770B8DE394E00E94510B66ED72E040
:102620008DE394E00E94E00A80919903811105C036
:1026300080919E03882309F453C00E94950328CCFF
:102640000E94E80760918303709184038091850361
:102650009091860320910102309102024091030281
:10266000509104022F83388749875A870E94D813D4
:102670002F81388549855A850E9437146093A003BD
:102680007093A1038093A2039093A30380E00E9420
:10269000BA074091A0035091A1036091A2037091E9
:1026A000A30322E08CEE94E00E94970B6BEE72E0A5
:1026B0008CEE94E00E94790C81E00E94BA07409170
:1026C0007F035091800360918103709182038CEEAF
:1026D00094E00E94510B1092880310928703A8CDBA
:1026E0000E94CC06AACF8091E6049091E7040C9456
:1026F000CC16EDE3F4E01382128288EE93E0A0E0C2
:10270000B0E084839583A683B78323E932E03183E5
:10271000208325EC30E03587248724EC30E03787B0
:10272000268720EC30E0318B208B21EC30E0338B9E
:10273000228B22EC30E0358B248B26EC30E0378B7B
:10274000268B118E128E138E148EEAEDF4E0138216
:10275000128284839583A683B78385EA92E091836E
:102760008083ECEEF4E01382128287EB92E0918397
:10277000808387E2848384E1808784E08187128676
:1027800088E08387E6EEF4E01182108213821282E1
:102790001582148240E050E068ED72E0CF010C94A5
:1027A000AA0A0E94131408F481E00895E89409C06D
:1027B00097FB3EF490958095709561957F4F8F4F74
:1027C0009F4F9923A9F0F92F96E9BB279395F6958A
:1027D000879577956795B795F111F8CFFAF4BB0F08
:1027E00011F460FF1BC06F5F7F4F8F4F9F4F16C06C
:1027F000882311F096E911C0772321F09EE8872FF6
:10280000762F05C0662371F096E8862F70E060E0B1
:102810002AF09A95660F771F881FDAF7880F96952A
:10282000879597F90895990F0008550FAA0BE0E8CE
:10283000FEEF16161706E807F907C0F01216130682
:10284000E407F50798F0621B730B840B950B39F4C2
:102850000A2661F0232B242B252B21F408950A2628
:1028600009F4A140A6958FEF811D811D08950E9456
:102870004A140C94BB140E94AD1438F00E94B41496
:1028800020F0952311F00C94A4140C94AA14112494
:102890000C94EF140E94CC1470F3959FC1F3950F24
:1028A00050E0551F629FF001729FBB27F00DB11DD4
:1028B000639FAA27F00DB11DAA1F649F6627B00D64
:1028C000A11D661F829F2227B00DA11D621F739F4D
:1028D000B00DA11D621F839FA00D611D221F749F5B
:1028E0003327A00D611D231F849F600D211D822FA2
:1028F000762F6A2F11249F5750409AF0F1F08823C9
:102900004AF0EE0FFF1FBB1F661F771F881F9150F5
:102910005040A9F79E3F510580F00C94A4140C94EC
:10292000EF145F3FE4F3983ED4F38695779567956F
:10293000B795F795E7959F5FC1F7FE2B880F911D1F
:102940009695879597F9089597F99F6780E870E0C5
:1029500060E008959FEF80EC089500240A94161615
:10296000170618060906089500240A94121613067D
:10297000140605060895092E0394000C11F488230B
:1029800052F0BB0F40F4BF2B11F460FF04C06F5F27
:102990007F4F8F4F9F4F089557FD9058440F551FFD
:1029A00059F05F3F71F04795880F97FB991F61F0D1
:1029B0009F3F79F087950895121613061406551F48
:1029C000F2CF4695F1DF08C0161617061806991FB4
:1029D000F1CF86957105610508940895E894BB27A9
:1029E00066277727CB0197F908955058BB27AA2768
:1029F0000E940D150C94BB140E94AD1438F00E9477
:102A0000B41420F039F49F3F19F426F40C94AA145E
:102A10000EF4E095E7FB0C94A414E92F0E94CC146B
:102A200058F3BA17620773078407950720F079F403
:102A3000A6F50C94EE140EF4E0950B2EBA2FA02DF3
:102A40000B01B90190010C01CA01A0011124FF275B
:102A5000591B99F0593F50F4503E68F11A16F04056
:102A6000A22F232F342F4427585FF3CF4695379555
:102A70002795A795F0405395C9F77EF41F16BA0B1A
:102A8000620B730B840BBAF09150A1F0FF0FBB1FC8
:102A9000661F771F881FC2F70EC0BA0F621F731F11
:102AA000841F48F4879577956795B795F7959E3F6E
:102AB00008F0B0CF9395880F08F09927EE0F9795FF
:102AC000879508950E9476150C94BB140E94B41447
:102AD00058F00E94AD1440F029F45F3F29F00C94A7
:102AE000A41451110C94EF140C94AA140E94CC1449
:102AF00068F39923B1F3552391F3951B550BBB272D
:102B0000AA2762177307840738F09F5F5F4F220F71
:102B1000331F441FAA1FA9F335D00E2E3AF0E0E868
:102B200032D091505040E695001CCAF72BD0FE2FB2
:102B300029D0660F771F881FBB1F26173707480746
:102B4000AB07B0E809F0BB0B802DBF01FF279358FE
:102B50005F4F3AF09E3F510578F00C94A4140C940A
:102B6000EF145F3FE4F3983ED4F38695779567952D
:102B7000B795F7959F5FC9F7880F911D9695879533
:102B800097F90895E1E0660F771F881FBB1F621752
:102B900073078407BA0720F0621B730B840BBA0B10
:102BA000EE1F88F7E09508950E94D41488F09F578F
:102BB00098F0B92F9927B751B0F0E1F0660F771F61
:102BC000881F991F1AF0BA95C9F714C0B13091F057
:102BD0000E94EE14B1E008950C94EE14672F782F44
:102BE0008827B85F39F0B93FCCF38695779567951C
:102BF000B395D9F73EF490958095709561957F4F88
:102C00008F4F9F4F08950E94131408F48FEF08957B
:102C10000E941314880B990B0895A1E21A2EAA1B87
:102C2000BB1BFD010DC0AA1FBB1FEE1FFF1FA2177C
:102C3000B307E407F50720F0A21BB30BE40BF50B79
:102C4000661F771F881F991F1A9469F76095709502
:102C5000809590959B01AC01BD01CF010895EE0FC9
:102C6000FF1F881F8BBF0790F691E02D1994CF931B
:102C7000DF938230910510F482E090E0E09103054B
:102C8000F091040520E030E0C0E0D0E0309711F191
:102C90004081518148175907C0F04817590761F41E
:102CA00082819381209719F09B838A832BC0909314
:102CB00004058093030526C02115310519F042173C
:102CC000530718F49A01BE01DF01EF010280F3817E
:102CD000E02DDCCF2115310509F1281B390B2430FB
:102CE000310590F412968D919C91139761157105A1
:102CF00021F0FB019383828304C0909304058093A9
:102D00000305FD01329644C0FD01E20FF31F8193DC
:102D10009193225031092D933C933AC020910105A3
:102D200030910205232B41F42091170230911802B3
:102D3000309302052093010520911502309116026F
:102D40002115310541F42DB73EB74091190250913C
:102D50001A02241B350BE0910105F0910205E217E0
:102D6000F307A0F42E1B3F0B2817390778F0AC01AE
:102D70004E5F5F4F2417350748F04E0F5F1F50938B
:102D80000205409301058193919302C0E0E0F0E0D9
:102D9000CF01DF91CF9108950F931F93CF93DF93CE
:102DA000009709F48CC0FC013297138212820091C3
:102DB0000305109104050115110581F4208131816D
:102DC000820F931F209101053091020528173907C2
:102DD00079F5F0930205E093010571C0D80140E058
:102DE00050E0AE17BF0750F412962D913C91139707
:102DF000AD012115310509F1D901F3CF9D01DA01AA
:102E00003383228360817181860F971F8217930716
:102E100069F4EC0128813981260F371F2E5F3F4F5F
:102E2000318320838A819B8193838283452B29F47C
:102E3000F0930405E093030542C01396FC93EE93D0
:102E40001297ED01499159919E01240F351FE21708
:102E5000F30771F480819181840F951F029611967A
:102E60009C938E938281938113969C938E93129759
:102E7000E0E0F0E0D80112968D919C9113970097B5
:102E800019F0F8018C01F6CF8D919C9198012E5F7D
:102E90003F4F820F931F20910105309102052817A3
:102EA000390769F4309729F410920405109203054C
:102EB00002C0138212821093020500930105DF9174
:102EC000CF911F910F9108956F927F928F929F9251
:102ED000AF92BF92CF92DF92EF92FF920F931F9328
:102EE000CF93DF93EC01009789F4CB01DF91CF9171
:102EF0001F910F91FF90EF90DF90CF90BF90AF9018
:102F00009F908F907F906F900C943716FC01E60F86
:102F1000F71F9C0122503109E217F30708F4ACC0F7
:102F2000D9010D911C91119706171707B0F00530C4
:102F3000110508F49FC0C80104978617970708F485
:102F400099C002501109061B170B019311936D9341
:102F50007C93CF010E94CC168DC05B01A01AB10AF0
:102F60004C01800E911EA0910305B091040540E034
:102F700050E0E12CF12C109709F44AC0A815B905CE
:102F8000D1F56D907C901197630182E0C80ED11C41
:102F9000CA14DB0480F1A3014A195B096A0182E0CB
:102FA000C80ED11C1296BC9012971396AC91B5E046
:102FB000CB16D10440F0B282A38351834083D90160
:102FC0006D937C930AC00E5F1F4FC301800F911F4A
:102FD000F90191838083EB2DFA2FE114F10431F094
:102FE000D7011396FC93EE93129744C0F093040517
:102FF000E09303053FC08D919C91119748175907A5
:1030000008F4AC017D0112960D90BC91A02DB3CFB8
:10301000809101059091020588159905E1F4461704
:103020005707C8F48091150290911602009741F459
:103030008DB79EB74091190250911A02841B950BCF
:10304000E817F907C8F4F0930205E0930105F901C8
:10305000718360830FC0CB010E9437167C010097FB
:1030600059F0A801BE010E945218CE010E94CC1650
:10307000C70104C0CE0102C080E090E0DF91CF9193
:103080001F910F91FF90EF90DF90CF90BF90AF9086
:103090009F908F907F906F90089581E090E0F894DA
:1030A0000C946B18FB01DC0102C001900D924150A1
:1030B0005040D8F70895FB01DC018D9101908019F3
:1030C0000110D9F3990B0895FB01DC0101900D92D9
:1030D0000020E1F7089511E0C5E6D1E000E006C068
:1030E000802FFE010E942F162196011DC636D107A2
:0A30F00080E00807A9F7F894FFCF6D
:1030FA000114AE273F870787078707870787078750
:10310A0007870787070000050580000000EC09A073
:10311A0012D917AB1C23214B2530290B2B9C2E00CF
:10312A00323F3564387A3EFE422249534CA34F1C43
:10313A0053C656B158B65C0561A865AC6A1E7034B0
:10314A00791E05D60684083C0AF40BA20D5A0F1202
:10315A0011C01278143016DE1796194E1B9619DE16
:10316A001730167814C01212115A0FA20DF40B3C24
:10317A000A8408D6061E0500004000140054000008
:10318A0000000001028F0799014802CA01A801BC88
:10319A000100000000F202C20222039C02BA02AB42
:1031AA00029D02000000009B068F072203210300F4
:1031BA0000000042038F07220321034269656E76ED
:1031CA00656E69646F000D0A0050726F6772616DF7
:1031DA006120526F6C61646F7261006D6D0070776F
:1031EA006D6F6E0070776D6F66660076656C007441
:1031FA00656D70006365726F000A0D007465737403
:10320A0000727574696E617469656D706F00436FE1
:10321A006D656E7A6F20527574696E61007275748D
:10322A00696E61656E636F64657200527574696E6A
:10323A0061456E636F64657200537562697200421C
:10324A00616A6172005465726D696E616D6F7300B7
:0C325A006E616E00696E66006F766600A3
:00000001FF
