:100000000C9459010C94D9090C94AE090C948309F1
:100010000C9458090C942D090C9402090C94D708DF
:100020000C94AC080C948A010C948A010C948A01FB
:100030000C948A010C948A010C948A010C948A0114
:100040000C948A010C948A010C948A010C948A0104
:100050000C94AE060C948A010C948A010C946208EC
:100060000C948A010C94BE020C9494020C948A01A4
:100070000C948A010C948A010C948A010C948A01D4
:100080000C948A010C948A010C948A010C948A01C4
:100090000C948A010C948A010C948A010C94D70464
:1000A0000C948A010C948A010C948A010C948A01A4
:1000B0000C948A010C948A010C948A010C948A0194
:1000C0000C948A010C948A010C948A010C948A0184
:1000D0000C948A010C948A010C948A010C948A0174
:1000E0000C948A019E07A107900794079807D807E8
:1000F000A507A907AF07B307B707BD07C107C5071E
:10010000D807CB07CF07D3070C9444030C94AF0157
:100110000C9426030C949E070C9490070C94750481
:100120000C9435030C949B010C94C1070C94901013
:100130000C94D3070C94AB030C948A100C9498077E
:100140000C947C030C9427030C94C5070C9494071F
:100150000C94BD010C94AF030C944C030C948C01D3
:100160000C94AF070C94D8070C940B070C94F40173
:100170000C944F040C94BD070C940A070C94B70719
:100180000C94A5070C94CB070C94A9070C9492022D
:100190000C94AC030C94A8060C94A1070C943B029D
:1001A0000C94B3070C94CF07000021002400270013
:1001B0002A002D0030003300010100000401070176
:1001C0000A0100002200250028002B002E0031002B
:1001D000340002010000050108010B0105050505B9
:1001E000070508080808020202020A0A08080404AF
:1001F00004040101010101010101030303030303DD
:100200000303040707070C0C0C0C0C0C0C0C02026B
:10021000020206060606060606060B0B0B0B0B0B68
:100220000B0B0102102020080810204010204080F5
:1002300002010201080402010102040810204080AA
:100240008040201008040201800402018040201038
:100250000804020108040201010204081020408081
:10026000010204081020408000000A0B02090C0D56
:100270000E08070304010000000000000000000059
:10028000000000000000000000000000000000006E
:10029000000000001211100000000000000000002B
:1002A00000000000000000000000000000009010AE
:1002B0008A1011241FBECFEFD1E2DEBFCDBF00E018
:1002C0000CBF24E0A8E0B3E001C01D92AB39B20737
:1002D000E1F713E0A0E0B2E0E6E1FBE200E00BBFF3
:1002E00002C007900D92A830B107D9F711E0C8E518
:1002F000D1E000E006C021970109802FFE010E9495
:100300004613C735D10780E00807A9F70E94C40B40
:100310000C9479150C940000FC01538D448D252F0D
:1003200030E0842F90E0821B930B541710F0CF968F
:10033000089501970895FC01918D828D981761F0C1
:10034000828DDF01A80FB11D5D968C91928D9F5F0C
:100350009F73928F90E008958FEF9FEF0895FC01B7
:10036000918D828D981731F0828DE80FF11D858D6A
:1003700090E008958FEF9FEF0895FC01918D228DFD
:10038000892F90E0805C9F4F821B91098F73992782
:10039000089587ED93E00E94BD0121E0892B09F4C7
:1003A00020E0822F0895FC01848DDF01A80FB11D8C
:1003B000A35ABF4F2C91848D90E001968F7399279B
:1003C000848FA689B7892C93A089B1898C91806488
:1003D0008C93938D848D981306C00288F389E02D49
:1003E00080818F7D80830895EF92FF920F931F93FA
:1003F000CF93DF93EC0181E0888F9B8D8C8D9813D8
:1004000005C0E889F989808185FD24C0F62E0B8D11
:1004100010E00F5F1F4F0F731127E02E8C8DE81235
:100420000CC00FB607FCFACFE889F989808185FFF7
:10043000F5CFCE010E94D301F1CF8B8DFE01E80FE5
:10044000F11DE35AFF4FF0820B8FEA89FB8980810F
:10045000806207C0EE89FF896083E889F98980811D
:100460008064808381E090E0DF91CF911F910F91B4
:10047000FF90EF900895CF93DF93EC01888D882350
:10048000C9F0EA89FB89808185FD05C0A889B98901
:100490008C9186FD0FC00FB607FCF5CF808185FFDC
:1004A000F2CFA889B9898C9185FFEDCFCE010E944A
:1004B000D301E7CFDF91CF9108950E94C901811147
:1004C00025C080E090E0892B41F080E090E0892B0E
:1004D00021F00E94000081111CC080E090E0892B77
:1004E00041F080E090E0892B21F00E940000811112
:1004F00013C080E090E0892BA1F080E090E0892B90
:1005000081F00E94000081110AC008950E947F04BA
:10051000D8CF0E940000E1CF0E940000EACF0C94E7
:10052000000008950E9464151F920F920FB60F925B
:1005300011240BB60F922F933F934F935F936F93BA
:100540007F938F939F93AF93BF93EF93FF9387ED29
:1005500093E00E94D301FF91EF91BF91AF919F91E2
:100560008F917F916F915F914F913F912F910F905C
:100570000BBE0F900FBE0F901F9018951F920F92F9
:100580000FB60F9211240BB60F922F938F939F9358
:10059000EF93FF93E091E703F091E8038081E0910E
:1005A000ED03F091EE0382FD12C090818091F00383
:1005B0008F5F8F732091F103821751F0E091F00368
:1005C000F0E0E952FC4F958F8093F00301C08081E9
:1005D000FF91EF919F918F912F910F900BBE0F90F4
:1005E0000FBE0F901F90189585ED8093BC008091F1
:1005F000BC0084FDFCCF10920A03089540918A0349
:10060000262F30E0240F311D21323105DCF42091FA
:100610000A032430C9F4FC0180E090E0861758F406
:1006200030918A032191DC01A859BC4FA30FB11D61
:100630002C930196F3CF80918A03680F60938A030D
:1006400080E0089581E0089582E00895089581E0B2
:1006500090E030910E0320910D03321710F480E0EA
:1006600090E0919581959109089580910E03909164
:100670000D03891730F48F5F80930E0380E090E0C4
:1006800008958FEF9FEF089580910D0390E02091E2
:100690000E03821B91090895CF92DF92EF92FF9291
:1006A0000F931F93CF93DF937C01262F972F8A01FF
:1006B00080916703882391F0C62FD72F6E01C40E57
:1006C000D51ECC15DD0571F06991D701ED91FC9136
:1006D0000190F081E02DC7011995F3CF642F822F8F
:1006E0000E94FE02C801DF91CF911F910F91FF90F0
:1006F000EF90DF90CF900895CF93DF931F92CDB707
:10070000DEB76983209167032223D1F020910B0388
:10071000203240F021E030E0FC013383228380E08E
:1007200090E015C080910C03E82FF0E0E95BFC4FEE
:10073000998190838F5F80930C0380930B0305C096
:1007400061E0CE0101960E94FE0281E090E00F90F0
:10075000DF91CF910895089580E090E008950F9380
:100760001F9382B385FB882780F9809344032FB7BA
:10077000F8948091D3039091D403A091D503B091C4
:10078000D6032FBF40914003509141036091420333
:1007900070914303841B950BA60BB70B80933C030E
:1007A00090933D03A0933E03B0933F032FB7F8947B
:1007B0008091D3039091D403A091D503B091D60337
:1007C0002FBF8093400390934103A0934203B093C3
:1007D000430380913C0390913D03A0913E03B0916F
:1007E0003F030397A105B10520F081E08093050246
:1007F00002C01092050280910502882309F44CC0C2
:1008000080914403811103C081E090E002C08FEF2A
:100810009FEF409116035091170360911803709158
:100820001903092E000CAA0BBB0B8A019B01081BA4
:10083000190B2A0B3B0B00931603109317032093FD
:1008400018033093190380914403811103C081E0A0
:1008500090E002C08FEF9FEF40911203509113037D
:100860006091140370911503092E000CAA0BBB0BA9
:100870008A019B01081B190B2A0B3B0B00931203E7
:1008800010931303209314033093150390911A03CC
:1008900081E0892780931A031F910F910895809119
:1008A00021039091220301969093220380932103C8
:1008B00080911B0390911C03A0911D03B0911E0316
:1008C0000196A11DB11D80931B0390931C03A0935F
:1008D0001D03B0931E0380911F0390912003019686
:1008E0009093200380931F0308958091040288232E
:1008F00029F081E080932303809311030895FF92F0
:100900000F931F93CF93DF931F921F92CDB7DEB744
:1009100087ED93E00E94BD01892B09F440C087ED6B
:1009200093E00E949B01F82E89831A82009184042F
:10093000109185040F5F1F4FB80180E894E00E947A
:10094000040A882399F020918004309181048091D9
:10095000840490918504BE016F5F7F4F820F931FC7
:100960000E94721510938504009384048DE0F812A0
:1009700004C081E08093450312C080E2F8120FC0EA
:1009800040E050E06BEF72E080E894E00F900F9051
:10099000DF91CF911F910F91FF900C942B0A0F9034
:1009A0000F90DF91CF911F910F91FF9008951F92AB
:1009B0000F920FB60F9211240BB60F922F933F9305
:1009C0004F935F936F937F938F939F93AF93BF9357
:1009D000EF93FF938091B900887F803609F49CC023
:1009E00068F5883209F45BC090F4803109F454C092
:1009F00038F4882309F4F6C0883009F44DC0F6C0F5
:100A0000883109F44CC0803209F45DC0EFC08034F5
:100A100009F468C048F4803309F455C0883309F0FC
:100A2000E5C08093AF03D8C0803509F44FC0883546
:100A300009F45DC0883409F0D9C0D6C0883909F4FA
:100A4000C7C0A8F4883709F467C038F4883609F4B9
:100A500063C0803709F460C0C9C0883809F4B8C0E1
:100A6000803909F45FC0803809F0C0C05BC0803BAA
:100A700009F486C038F4803A09F466C0883A09F46B
:100A80007FC0B4C0803C09F4A7C0883C09F4A4C06E
:100A9000883B09F48AC0AAC08091D20310C090910B
:100AA000D1038091D003981770F5E091D10381E0D4
:100AB0008E0F8093D103F0E0E055FC4F808180934E
:100AC000BB0085EC86C08093AF038EC0E091D1035C
:100AD00081E08E0F8093D1038091BB00F0E0E05560
:100AE000FC4F80839091D1038091D0036EC0E09140
:100AF000D10381E08E0F8093D1038091BB00F0E0A1
:100B0000E055FC4F80838091090381116DC081E025
:100B10008093080384EA61C083E080930A03109203
:100B2000AE03CFCF8091AE03803208F051C0E09188
:100B3000AE0381E08E0F8093AE038091BB00F0E0A6
:100B4000E257FC4F8083BDCF85EC8093BC001092B0
:100B50000A038091AE03803230F4E091AE03F0E0FE
:100B6000E257FC4F10826091AE0370E0E0918C037D
:100B7000F0918D038EE893E019951092AE0336C084
:100B800084E080930A0310928B0310928A03E09111
:100B90008803F0918903199580918A03811105C01A
:100BA00081E080938A0310926803E0918B0381E0D7
:100BB0008E0F80938B03F0E0E859FC4F8081809387
:100BC000BB0090918B0380918A03981708F479CF2A
:100BD00085E88093BC000AC085EC8093BC0010922D
:100BE0000A0304C01092AF030E94F402FF91EF9138
:100BF000BF91AF919F918F917F916F915F914F9135
:100C00003F912F910F900BBE0F900FBE0F901F9032
:100C10001895CF93FC01C48121E020936703C09312
:100C2000460310920C0310920B038385682B84E714
:100C300094E00E947C0380910B03813208F046C04F
:100C400090910A039111FCCF92E090930A0391E0F6
:100C5000909309039FEF9093AF031092D103809379
:100C6000D003A7E4B3E020EB33E0F9019E2F921B01
:100C7000981718F49D919193F9CF1092D203809117
:100C8000D203CC0FC82BC093D203809108038130CC
:100C900061F4109208038091D2038093BB0080918D
:100CA000BC0083FDF8CF85EC01C085EE8093BC00CD
:100CB00080910A038230E1F38091AF038F3F31F0DE
:100CC0008091AF03803211F08091AF0310920C033A
:100CD00010920B0310926703CF9108950F931F9307
:100CE000CF938C01C62F0E9409066C2F6460C80147
:100CF0000E9409066C2F6B7FC8010E94090683ECD5
:100D000090E00197F1F7CF911F910F910895FF9215
:100D10000F931F93CF93DF931F92CDB7DEB78C0154
:100D2000F62E962F907F692F642BC80149830E946D
:100D30006E0680E1F89EB00111244981642BC80140
:100D40000F90DF91CF911F910F91FF900C946E0641
:100D500041E00E94870681E090E008951F920F9283
:100D60000FB60F9211240BB60F922F933F934F9310
:100D70005F936F937F938F939F93AF93BF93EF9303
:100D8000FF93E0910F03F09110031995FF91EF91FC
:100D9000BF91AF919F918F917F916F915F914F9193
:100DA0003F912F910F900BBE0F900FBE0F901F9091
:100DB000189560E08AE20E946F0760E088E20E9476
:100DC0006F0760E08DE20C946F073FB7F894809155
:100DD000930490919404A0919504B091960426B543
:100DE000A89B05C02F3F19F00196A11DB11D3FBF63
:100DF000BA2FA92F982F8827820F911DA11DB11DF1
:100E0000BC01CD0142E0660F771F881F991F4A95EC
:100E1000D1F708950895CF92DF92EF92FF920F934A
:100E20001F93CF93DF936C017A018B01C0E0D0E078
:100E3000CE15DF0589F0D8016D918D01D601ED91B8
:100E4000FC910190F081E02DC6011995892B11F4D8
:100E50007E0102C02196ECCFC701DF91CF911F9197
:100E60000F91FF90EF90DF90CF900895CF93DF9395
:100E7000CDB7DEB728970FB6F894DEBF0FBECDBF53
:100E800098E0E8E4F2E0DE01119601900D929A9567
:100E9000E1F790918F04981710F48FEF890FFE01FE
:100EA0003196E80FF11DE80FF11D6081606840E0A8
:100EB00086E894E028960FB6F894DEBF0FBECDBF4B
:100EC000DF91CF910C94870640E061E086E894E0E2
:100ED0000E9487068BE39FE10197F1F70895362F73
:100EE00090E0FC01E859FD4F4491FC01EE5DFD4F9F
:100EF0002491FC01E452FE4F9491992309F46BC0B4
:100F0000442309F455C050E0FA013197E231F1056C
:100F100008F04EC08827EE58FF4F8F4F0C944613B1
:100F2000809180008F7707C0809180008F7D03C003
:100F300080918000877F809380003AC084B58F774E
:100F400002C084B58F7D84BD33C08091B0008F779F
:100F500003C08091B0008F7D8093B00029C0809144
:100F600090008F7707C0809190008F7D03C08091A3
:100F70009000877F809390001BC08091A0008F77A6
:100F800007C08091A0008F7D03C08091A000877F63
:100F90008093A0000DC0809120018F7707C08091C1
:100FA00020018F7D03C080912001877F80932001E5
:100FB000E92FF0E0EE0FFF1FEE53FE4FA591B49125
:100FC0008FB7F894EC91311103C020952E2301C006
:100FD0002E2B2C938FBF0895CF93DF9390E0FC01CD
:100FE000EE5DFD4F2491FC01E452FE4F8491882375
:100FF00061F190E0880F991FFC01E855FE4FC59103
:10100000D491FC01EE53FE4FA591B491611109C03A
:101010009FB7F8948881209582238883EC912E23B2
:101020000BC0623061F49FB7F8943881822F8095AD
:1010300083238883EC912E2B2C939FBF06C08FB700
:10104000F894E8812E2B28838FBFDF91CF910895EC
:101050008F929F92AF92BF92CF92DF92EF92FF92C8
:101060006B017C010E94E5064B015C01C114D104B7
:10107000E104F104F1F00E94E506DC01CB018819DE
:101080009909AA09BB09883E9340A105B10570F3EF
:1010900021E0C21AD108E108F10888EE880E83E049
:1010A000981EA11CB11CC114D104E104F10419F76C
:1010B000DDCFFF90EF90DF90CF90BF90AF909F90EB
:1010C0008F9008951F920F920FB60F9211242F93B5
:1010D0003F938F939F93AF93BF938091D30390914E
:1010E000D403A091D503B091D6033091920423E0AC
:1010F000230F2D3720F40196A11DB11D05C026E850
:10110000230F0296A11DB11D209392048093D30357
:101110009093D403A093D503B093D6038091930406
:1011200090919404A0919504B09196040196A11D0C
:10113000B11D8093930490939404A0939504B0936D
:101140009604BF91AF919F918F913F912F910F90F6
:101150000FBE0F901F9018951F920F920FB60F920F
:1011600011240BB60F922F933F934F935F936F937E
:101170007F938F939F93AF93BF93EF93FF93E091F0
:101180001402F09115021995FF91EF91BF91AF9163
:101190009F918F917F916F915F914F913F912F918F
:1011A0000F900BBE0F900FBE0F901F9018951F92BF
:1011B0000F920FB60F9211240BB60F922F933F93FD
:1011C0004F935F936F937F938F939F93AF93BF934F
:1011D000EF93FF93E0911202F09113021995FF91A2
:1011E000EF91BF91AF919F918F917F916F915F919F
:1011F0004F913F912F910F900BBE0F900FBE0F900C
:101200001F9018951F920F920FB60F9211240BB6D4
:101210000F922F933F934F935F936F937F938F938F
:101220009F93AF93BF93EF93FF93E0910802F091E8
:1012300009021995FF91EF91BF91AF919F918F9105
:101240007F916F915F914F913F912F910F900BBEC6
:101250000F900FBE0F901F9018951F920F920FB610
:101260000F9211240BB60F922F933F934F935F93DE
:101270006F937F938F939F93AF93BF93EF93FF935E
:10128000E0910602F09107021995FF91EF91BF914D
:10129000AF919F918F917F916F915F914F913F910E
:1012A0002F910F900BBE0F900FBE0F901F901895AF
:1012B0001F920F920FB60F9211240BB60F922F931D
:1012C0003F934F935F936F937F938F939F93AF93CE
:1012D000BF93EF93FF93E0911002F09111021995E3
:1012E000FF91EF91BF91AF919F918F917F916F91FE
:1012F0005F914F913F912F910F900BBE0F900FBEBA
:101300000F901F9018951F920F920FB60F921124F5
:101310000BB60F922F933F934F935F936F937F93EF
:101320008F939F93AF93BF93EF93FF93E0910E0240
:10133000F0910F021995FF91EF91BF91AF919F919D
:101340008F917F916F915F914F913F912F910F906E
:101350000BBE0F900FBE0F901F9018951F920F920B
:101360000FB60F9211240BB60F922F933F934F930A
:101370005F936F937F938F939F93AF93BF93EF93FD
:10138000FF93E0910C02F0910D021995FF91EF91FE
:10139000BF91AF919F918F917F916F915F914F918D
:1013A0003F912F910F900BBE0F900FBE0F901F908B
:1013B00018951F920F920FB60F9211240BB60F9231
:1013C0002F933F934F935F936F937F938F939F934D
:1013D000AF93BF93EF93FF93E0910A02F0910B025A
:1013E0001995FF91EF91BF91AF919F918F917F914F
:1013F0006F915F914F913F912F910F900BBE0F9086
:101400000FBE0F901F9018950F931F93CF93DF93EC
:10141000EC0188819981009729F02A813B81261768
:10142000370788F48B016F5F7F4F0E947B14009712
:1014300061F0998388831B830A832C813D81232B50
:1014400011F4FC01108281E001C080E0DF91CF91B6
:101450001F910F910895EF92FF920F931F93CF93D7
:10146000DF93EC017B018A01BA010E94040A288102
:10147000398181110DC02115310519F0C9010E9472
:10148000E313198218821D821C821B821A8206C0F5
:101490001D830C83B701C9010E947215CE01DF9133
:1014A000CF911F910F91FF90EF900895DC01ED9186
:1014B000FC910190F081E02D19946115710579F08E
:1014C000FB0101900020E9F73197AF01461B570B54
:1014D000DC01ED91FC910280F381E02D199480E014
:1014E00090E00895CF93DF93BC0187ED93E00E94D5
:1014F0005D0AEC0169EF72E087ED93E00E945D0AFE
:101500008C0F9D1FDF91CF9108954F925F926F9244
:101510007F92EF92FF920F931F93CF93DF93CDB7FC
:10152000DEB7A1970FB6F894DEBF0FBECDBF7C012A
:10153000FA01CB0119A2223008F42AE08E010F5DD6
:101540001F4F422E512C612C712CBF01A30192011F
:101550000E942413F901CA01015011096A3014F4E0
:10156000605D01C0695CD8016C93232B242B252B73
:1015700061F7B801C7010E945D0AA1960FB6F89401
:10158000DEBF0FBECDBFDF91CF911F910F91FF90B6
:10159000EF907F906F905F904F900895CF93DF937F
:1015A000AC0160E070E02AE087ED93E00E94850ADC
:1015B000EC0169EF72E087ED93E00E945D0A8C0F09
:1015C0009D1FDF91CF9108954F925F926F927F920E
:1015D0008F929F92AF92BF92CF92DF92EF92FF9243
:1015E0006B017C01B42E9B01AC010E941F13882368
:1015F00019F06CEF72E027C026013701E89477F804
:101600002FEF3FEF4FE75FE7C301B2010E941F13C7
:1016100081110DC02FEF3FEF4FE75FE7C301B2012C
:101620000E94E81018161CF460E073E00CC02FEF65
:101630003FEF4FE75FE4C701B6010E941A13181687
:1016400094F464E073E086E894E0FF90EF90DF901C
:10165000CF90BF90AF909F908F907F906F905F9052
:101660004F900C945D0A2FEF3FEF4FE75FECC701FF
:10167000B6010E94E81087FDE4CF20E030E0A90128
:10168000C701B6010E94E81087FF0BC06DE286E833
:1016900094E00E94560A4C01F7FAF094F7F8F0949F
:1016A00002C0812C912CA12C60E070E080E09FE3CF
:1016B000AB1441F020E030E040E251E40E947912A6
:1016C000A394F6CF9B01AC01C701B6010E940D1295
:1016D0002B013C010E94EB126B017C010E94ED107A
:1016E0009B01AC01C301B2010E940C122B013C0111
:1016F0002AE0B701A60186E894E00E94850A7C01F1
:10170000E80CF91CBB2039F06EE286E894E00E94F8
:10171000560AE80EF91EDB2CDD2031F120E030E026
:1017200040E251E4C301B2010E944E112B013C0181
:101730000E94EB124B01A12CB12C2AE0B501A401AF
:1017400086E894E00E94850AE80EF91EC501B401FE
:101750000E94ED109B01AC01C301B2010E940C126A
:101760002B013C01DA94D8CFC701FF90EF90DF90B6
:10177000CF90BF90AF909F908F907F906F905F9031
:101780004F9008950C945D0ACF93DF9300D01F9281
:10179000CDB7DEB7789484B5826084BD84B58160AE
:1017A00084BD85B5826085BD85B5816085BD80912C
:1017B0006E00816080936E001092810080918100A4
:1017C000826080938100809181008160809381009C
:1017D000809180008160809380008091B10084605E
:1017E0008093B1008091B00081608093B0008091BF
:1017F000910082608093910080919100816080933C
:101800009100809190008160809390008091A10070
:1018100082608093A1008091A10081608093A100EB
:101820008091A00081608093A0008091210182605E
:101830008093210180912101816080932101809119
:10184000200181608093200180917A0084608093E0
:101850007A0080917A00826080937A0080917A0089
:10186000816080937A0080917A00806880937A000A
:101870001092C100E091E703F091E80382E08083D9
:10188000E091E303F091E4031082E091E503F0912D
:10189000E6038FEC80831092EF03E091EB03F0916D
:1018A000EC0386E08083E091E903F091EA03808114
:1018B00080618083E091E903F091EA038081886090
:1018C0008083E091E903F091EA038081806880835E
:1018D000E091E903F091EA0380818F7D80838CE8B9
:1018E00092E00E94720A8BE090E00E94CE0A8BE0A8
:1018F00090E090932A038093290310922F03109273
:101900002E03109238031092370380E090E020916C
:101910003703309138032B30310510F5E091370350
:10192000F0913803EE0FFF1FEE5CFD4F20813181F7
:101930008217930750F4E0913703F0913803EE0FCC
:10194000FF1FEE5CFD4F8081918120913703309124
:1019500038032F5F3F4F3093380320933703D7CF9F
:1019600090932F0380932E030E94CE0A1092380387
:101970001092370380912E0390912F038053984F3C
:1019800090932D0380932C0380E18093810010922B
:10199000800011E01093260380E49FE190932503DB
:1019A00080932403909387008093860081E1809345
:1019B00081008FE494E09093100380930F031093C1
:1019C0006F0068EC70E080E894E00E94040A60E038
:1019D00084E00E94EC0760E084E00E946F078FEAD9
:1019E00093E0909309028093080280916A008C60D2
:1019F00080936A00ED9A85E794E0909307028093C4
:101A0000060280916A008C7F826080936A00EC9A63
:101A100061E089E20E94EC0760E089E20E946F07C2
:101A200061E087E20E94EC0760E087E20E946F07B6
:101A300061E08AE20E94EC0760E08AE20E946F07A0
:101A400061E08DE20E94EC0760E08DE20E946F078A
:101A500061E088E20E94EC0760E088E20E946F0784
:101A600010920E0310920D0310920C0310920B03B0
:101A700010920A03109309031092080361E084E1B5
:101A80000E946F0761E085E10E946F078091B900B5
:101A90008E7F8093B9008091B9008D7F8093B900CB
:101AA00088E48093B80085E48093BC0010928B0496
:101AB00080918F04823018F098E090938B0490917D
:101AC0009004992339F0813029F480918B0484604B
:101AD00080938B0462E370E080E090E00E9428082D
:101AE0006091910486E894E00E94090668EE73E034
:101AF00080E090E00E94280860E386E894E00E947D
:101B00006E060BE416E4C8010197F1F760E386E87E
:101B100094E00E946E06C8010197F1F760E386E841
:101B200094E00E946E0683E592E00197F1F760E28F
:101B300086E894E00E946E0660918B04606240E04B
:101B400086E894E00E94870684E080938C0440E05D
:101B50006CE086E894E00E9487060E94640782E0B9
:101B600080938D0440E066E086E894E00E9487065A
:101B700040E062E086E894E00E9487068BE39FE104
:101B80000197F1F710921A0380E00E94360767E987
:101B900072E086E894E00E94C20B81E00E94360762
:101BA0006CE872E086E894E00E94C20B60ED77E09A
:101BB00080E090E00E9428080E946407609116036C
:101BC00070911703809118039091190320910002DE
:101BD00030910102409102025091030229833A831D
:101BE0004B835C830E94EF1029813A814B815C8199
:101BF0000E944E116093310370933203809333033C
:101C00009093340380E00E94360760913103709115
:101C10003203809133039091340342E00E94E40A3E
:101C200069EA72E086E894E00E94C20B0FB6F8946D
:101C3000A895809160008861809360001092600098
:101C40000FBE99E288E10FB6F894A89580936000E2
:101C50000FBE9093600011E080912303882309F464
:101C60004BC080910402882309F446C010920402FC
:101C7000109223038CEA92E00E94720A10933A03B6
:101C800010933903109238031092370310922203F5
:101C9000109221031092200310921F0310921B0335
:101CA00010921C0310921D0310921E031092360313
:101CB00010923503109231031092320310923303C5
:101CC0001092340310931A03109216031092170304
:101CD000109218031092190310921203109213031A
:101CE00010921403109215031092360310923503CC
:101CF00061E087E20E946F0780911A03882309F44C
:101D00004FC00E9464076091120370911303809189
:101D1000140390911503209100023091010240912B
:101D200002025091030229833A834B835C830E9411
:101D3000EF1029813A814B815C810E944E116093A2
:101D4000310370933203809333039093340380E024
:101D50000E94360760913103709132038091330302
:101D60009091340342E00E94E40A69EA72E086E856
:101D700094E00E94C20B10921A03809111038823F1
:101D800031F081E00E9436076AEB72E005C081E025
:101D90000E94360765EC72E086E894E00E94C20B70
:101DA00080913A03882309F47FC020912103309168
:101DB0002203E0913703F0913803EE0FFF1FEE5C32
:101DC000FD4F808191818217930708F06DC080914B
:101DD0003703909138032091290330912A03281763
:101DE000390708F461C0809137039091380321507E
:101DF00031098217930708F08AC1DC01AA0FBB1FC3
:101E0000A25EBD4F880F991FFC01E45EFD4F8D91CE
:101E10009C9120813181821B930B909328038093A6
:101E20002703181619060CF06FC1109230036FECDF
:101E300072E087ED93E00E94C20B8091370390918E
:101E400038030E94CE0A63ED72E087ED93E00E94B2
:101E5000C20BE0913703F0913803EE0FFF1FEE5CE9
:101E6000FD4F808191810E94CE0A8091370390912D
:101E700038030196909338038093370310932B0314
:101E800010921B0310921C0310921D0310921E034C
:101E900080913903882341F01092160310921703A2
:101EA000109218031092190380913903882309F4C2
:101EB000D0C08091300390912B03992309F4C7C0BF
:101EC00061E08823A1F18AE20E946F0761E08DE260
:101ED0000E946F078091160390911703A091180339
:101EE000B0911903181619061A061B0674F480918E
:101EF000160390911703A0911803B09119031816B7
:101F000019061A061B0684F0A4C08091160390914E
:101F10001703A0911803B0911903181619061A0691
:101F20001B0609F00CF495C062EE72E033C08AE241
:101F30000E946F0761E088E20E946F07809116039C
:101F400090911703A0911803B09119031816190660
:101F50001A061B0674F48091160390911703A09142
:101F60001803B0911903181619061A061B0684F0F7
:101F700070C08091160390911703A0911803B0913F
:101F80001903181619061A061B0609F00CF461C08D
:101F900068EE72E087ED93E00E94C20B0E94D906C2
:101FA00010922B038091160390911703A0911803B0
:101FB000B0911903181619061A061B064CF48091E5
:101FC000160390911703A0911803B09119030FC045
:101FD0008091160390911703A0911803B0911903F3
:101FE000B095A095909581959F4FAF4FBF4F0297A9
:101FF000A105B10574F1209135033091360380912C
:10200000160390911703A0911803B09119031816A5
:1020100019061A061B064CF48091160390911703BB
:10202000A0911803B09119030BC0809116039091F1
:102030001703A0911803B091190391958195910907
:10204000820F931F909336038093350302C00E9442
:10205000D906209121033091220380912E03909183
:102060002F0382179307A8F51092220310922103E1
:1020700010923A03109239038EEE92E00E94720A97
:10208000C0903503D09036030D2C000CEE08FF08ED
:10209000F7FE0EC06DE287ED93E00E94560A4427DA
:1020A0005527BA014C195D096E097F092AE003C062
:1020B0002AE0B701A60187ED93E00E94850A69EF47
:1020C00072E087ED93E00E945D0A0E94D9061093AA
:1020D0001A0320911F033091200380912C039091CB
:1020E0002D038217930760F460E087E20E946F0778
:1020F000109304021092200310921F0310921103F8
:10210000A8950E945D02A8CD892B09F490CE10936A
:1021100030038DCE80918004909181040C94E31360
:10212000E7EDF3E01382128288EE93E0A0E0B0E0E6
:1021300084839583A683B78324E532E031832083AB
:1021400025EC30E03587248724EC30E0378726877C
:1021500020EC30E0318B208B21EC30E0338B228B74
:1021600022EC30E0358B248B26EC30E0378B268B4D
:10217000118E128E138E148EE4E7F4E01382128215
:1021800084839583A683B78386E692E091838083D8
:10219000E6E8F4E01382128288E792E0918380837C
:1021A00087E2848384E1808784E08187128688E0E7
:1021B0008387E0E8F4E01182108213821282158294
:1021C000148240E050E06BEF72E0CF010C942B0AD8
:1021D0000E942A1108F481E00895E89409C097FB51
:1021E0003EF490958095709561957F4F8F4F9F4FEE
:1021F0009923A9F0F92F96E9BB279395F695879532
:1022000077956795B795F111F8CFFAF4BB0F11F4F4
:1022100060FF1BC06F5F7F4F8F4F9F4F16C088239B
:1022200011F096E911C0772321F09EE8872F762FD1
:1022300005C0662371F096E8862F70E060E02AF012
:102240009A95660F771F881FDAF7880F96958795FE
:1022500097F90895990F0008550FAA0BE0E8FEEFD3
:1022600016161706E807F907C0F012161306E4075A
:10227000F50798F0621B730B840B950B39F40A2653
:1022800061F0232B242B252B21F408950A2609F431
:10229000A140A6958FEF811D811D08950E946111B7
:1022A0000C94D2110E94C41138F00E94CB1120F07E
:1022B000952311F00C94BB110C94C11111240C94B2
:1022C00006120E94E31170F3959FC1F3950F50E041
:1022D000551F629FF001729FBB27F00DB11D639FD8
:1022E000AA27F00DB11DAA1F649F6627B00DA11D7E
:1022F000661F829F2227B00DA11D621F739FB00D24
:10230000A11D621F839FA00D611D221F749F332793
:10231000A00D611D231F849F600D211D822F762F2C
:102320006A2F11249F5750409AF0F1F088234AF009
:10233000EE0FFF1FBB1F661F771F881F9150504075
:10234000A9F79E3F510580F00C94BB110C94061226
:102350005F3FE4F3983ED4F3869577956795B795FC
:10236000F795E7959F5FC1F7FE2B880F911D969516
:10237000879597F9089597F99F6780E870E060E086
:1023800008959FEF80EC089500240A94161617060E
:1023900018060906089500240A9412161306140656
:1023A00005060895092E0394000C11F4882352F0B9
:1023B000BB0F40F4BF2B11F460FF04C06F5F7F4F71
:1023C0008F4F9F4F089557FD9058440F551F59F058
:1023D0005F3F71F04795880F97FB991F61F09F3F12
:1023E00079F087950895121613061406551FF2CF3B
:1023F0004695F1DF08C0161617061806991FF1CF8B
:1024000086957105610508940895E894BB276627B1
:102410007727CB0197F908955058BB27AA270E9428
:1024200024120C94D2110E94C41138F00E94CB11D6
:1024300020F039F49F3F19F426F40C94C1110EF4E6
:10244000E095E7FB0C94BB11E92F0E94E31158F3D0
:10245000BA17620773078407950720F079F4A6F589
:102460000C9405120EF4E0950B2EBA2FA02D0B0143
:10247000B90190010C01CA01A0011124FF27591BC9
:1024800099F0593F50F4503E68F11A16F040A22FCF
:10249000232F342F4427585FF3CF46953795279540
:1024A000A795F0405395C9F77EF41F16BA0B620B3F
:1024B000730B840BBAF09150A1F0FF0FBB1F661F86
:1024C000771F881FC2F70EC0BA0F621F731F841FC9
:1024D00048F4879577956795B795F7959E3F08F0EF
:1024E000B0CF9395880F08F09927EE0F97958795B1
:1024F00008950E948D120C94D2110E94CB1158F0B5
:102500000E94C41140F029F45F3F29F00C94BB11E4
:1025100051110C9406120C94C1110E94E31168F33E
:102520009923B1F3552391F3951B550BBB27AA278C
:1025300062177307840738F09F5F5F4F220F331FC6
:10254000441FAA1FA9F335D00E2E3AF0E0E832D08E
:1025500091505040E695001CCAF72BD0FE2F29D091
:10256000660F771F881FBB1F261737074807AB0763
:10257000B0E809F0BB0B802DBF01FF2793585F4FD8
:102580003AF09E3F510578F00C94BB110C94061262
:102590005F3FE4F3983ED4F3869577956795B795BA
:1025A000F7959F5FC9F7880F911D9695879597F9C5
:1025B0000895E1E0660F771F881FBB1F621773073E
:1025C0008407BA0720F0621B730B840BBA0BEE1F53
:1025D00088F7E09508950E94EB1188F09F5798F0D6
:1025E000B92F9927B751B0F0E1F0660F771F881F18
:1025F000991F1AF0BA95C9F714C0B13091F00E9432
:102600000512B1E008950C940512672F782F8827E2
:10261000B85F39F0B93FCCF3869577956795B39558
:10262000D9F73EF490958095709561957F4F8F4FC7
:102630009F4F08950E942A1108F48FEF08950E9479
:102640002A11880B990B0895A1E21A2EAA1BBB1B15
:10265000FD010DC0AA1FBB1FEE1FFF1FA217B3076E
:10266000E407F50720F0A21BB30BE40BF50B661F84
:10267000771F881F991F1A9469F760957095809548
:1026800090959B01AC01BD01CF010895EE0FFF1F96
:10269000881F8BBF0790F691E02D1994CF93DF939D
:1026A0008230910510F482E090E0E0919904F0917D
:1026B0009A0420E030E0C0E0D0E0309711F1408192
:1026C000518148175907C0F04817590761F48281B2
:1026D0009381209719F09B838A832BC090939A044F
:1026E0008093990426C02115310519F0421753072C
:1026F00018F49A01BE01DF01EF010280F381E02DA1
:10270000DCCF2115310509F1281B390B24303105A7
:1027100090F412968D919C9113976115710521F09B
:10272000FB019383828304C090939A04809399045D
:10273000FD01329644C0FD01E20FF31F8193919396
:10274000225031092D933C933AC020919704309147
:102750009804232B41F420911802309119023093F0
:1027600098042093970420911602309117022115A6
:10277000310541F42DB73EB740911A0250911B022A
:10278000241B350BE0919704F0919804E217F307AE
:10279000A0F42E1B3F0B2817390778F0AC014E5FD1
:1027A0005F4F2417350748F04E0F5F1F5093980472
:1027B000409397048193919302C0E0E0F0E0CF0151
:1027C000DF91CF9108950F931F93CF93DF930097DD
:1027D00009F48CC0FC013297138212820091990493
:1027E00010919A040115110581F420813181820F25
:1027F000931F20919704309198042817390779F591
:10280000F0939804E093970471C0D80140E050E041
:10281000AE17BF0750F412962D913C911397AD015E
:102820002115310509F1D901F3CF9D01DA01338377
:10283000228360817181860F971F8217930769F445
:10284000EC0128813981260F371F2E5F3F4F3183DE
:1028500020838A819B8193838283452B29F4F09383
:102860009A04E093990442C01396FC93EE93129756
:10287000ED01499159919E01240F351FE217F3078D
:1028800071F480819181840F951F029611969C931B
:102890008E938281938113969C938E931297E0E09E
:1028A000F0E0D80112968D919C911397009719F042
:1028B000F8018C01F6CF8D919C9198012E5F3F4FCE
:1028C000820F931F2091970430919804281739079D
:1028D00069F4309729F410929A041092990402C076
:1028E000138212821093980400939704DF91CF9182
:1028F0001F910F9108956F927F928F929F92AF9246
:10290000BF92CF92DF92EF92FF920F931F93CF93DC
:10291000DF93EC01009789F4CB01DF91CF911F91F8
:102920000F91FF90EF90DF90CF90BF90AF909F906E
:102930008F907F906F900C944E13FC01E60FF71F61
:102940009C0122503109E217F30708F4ACC0D90109
:102950000D911C91119706171707B0F0053011055E
:1029600008F49FC0C80104978617970708F499C018
:1029700002501109061B170B019311936D937C9361
:10298000CF010E94E3138DC05B01A01AB10A4C0174
:10299000800E911EA0919904B0919A0440E050E0FD
:1029A000E12CF12C109709F44AC0A815B905D1F50E
:1029B0006D907C901197630182E0C80ED11CCA14FF
:1029C000DB0480F1A3014A195B096A0182E0C80EA9
:1029D000D11C1296BC9012971396AC91B5E0CB1611
:1029E000D10440F0B282A38351834083D9016D9317
:1029F0007C930AC00E5F1F4FC301800F911FF90126
:102A000091838083EB2DFA2FE114F10431F0D7018B
:102A10001396FC93EE93129744C0F0939A04E093BC
:102A200099043FC08D919C9111974817590708F45C
:102A3000AC017D0112960D90BC91A02DB3CF809179
:102A400097049091980488159905E1F44617570763
:102A5000C8F48091160290911702009741F48DB747
:102A60009EB740911A0250911B02841B950BE817E8
:102A7000F907C8F4F0939804E0939704F90171837F
:102A800060830FC0CB010E944E137C01009759F068
:102A9000A801BE010E946915CE010E94E313C7017F
:102AA00004C0CE0102C080E090E0DF91CF911F9181
:102AB0000F91FF90EF90DF90CF90BF90AF909F90DD
:102AC0008F907F906F90089581E090E0F8940C943F
:102AD0007915FB01DC0102C001900D92415050407C
:102AE000D8F70895FB01DC0101900D920020E1F779
:102AF000089511E0C8E5D1E000E006C0802FFE0196
:102B00000E9446132196011DC935D10780E00807B0
:062B1000A9F7F894FFCFC5
:102B160014AE273F01010A070A070A070A070A0730
:102B26000A070A070A0700009B04800000008F02BC
:102B36001E05AD073C0ACB0C3C0AAD071E058F02ED
:102B46000000000056136E233A2FBC39F244B85BDE
:102B56000C67C071D27D4E8E0000400014005400F8
:102B660000000000F4010B078C013B02BD019B0134
:102B7600AF01000000007C034C03AC0326034403B2
:102B86003503270300000000A8060B07AC03AB03C0
:102B96000000000092020B07AC03AB034269656EAE
:102BA60076656E69646F0050726F6772616D612041
:102BB600526F6C61646F7261006D6D00527574695D
:102BC6006E61456E636F64657200456A6563757410
:102BD600616E646F004573706572616E646F006943
:102BE6003D20005469656D706F41637475616C3D7D
:102BF600200053756269720042616A617200546511
:102C0600726D696E616D6F73000D0A006E616E0004
:082C1600696E66006F7666002E
:00000001FF
