:100000000C9466010C94E4090C94B9090C948E09C3
:100010000C9463090C9438090C940D090C94E208B3
:100020000C94B7080C9497010C9497010C949701C9
:100030000C9497010C9497010C9497010C949701E0
:100040000C9497010C9497010C9497010C949701D0
:100050000C948C060C9497010C9497010C946D08E9
:100060000C9497010C947F040C9455040C94970104
:100070000C9497010C9497010C9497010C949701A0
:100080000C9497010C9497010C9497010C94970190
:100090000C9497010C9497010C9497010C94B5045F
:1000A0000C9497010C9497010C9497010C94970170
:1000B0000C9497010C9497010C9497010C94970160
:1000C0000C9497010C9497010C9497010C94970150
:1000D0000C9497010C9497010C9497010C94970140
:1000E0000C949701D206D506C406C806CE060C07A6
:1000F000D906DD06E306E706EB06F106F506F90686
:100100000C07FF06030707070C94FF060C94F5067F
:100110000C94DD060C94C4060C94C6010C94D20613
:100120000C949D020C94D5060C9425030C940307A3
:100130000C9401020C949C020C94D4010C943A0788
:100140000C94E3060C94AB020C9442030C940C0741
:100150000C9432070C94EB060C94F1060C94C2023A
:100160000C94A3010C94E7060C94BA020C94B01101
:100170000C94CA030C94B6110C94B2010C940504AF
:100180000C94F2020C9422030C9407070C94C806FA
:100190000C9486060C94D9060C9421030C94CE067C
:1001A0000C9448020C94F90600002100240027005A
:1001B0002A002D0030003300010100000401070176
:1001C0000A0100002200250028002B002E0031002B
:1001D000340002010000050108010B0100002000AD
:1001E0002300260029002C002F003200000100000F
:1001F00003010601090105050505070508080808AA
:10020000020202020A0A08080404040401010101AE
:1002100001010101030303030303030304070707A9
:100220000C0C0C0C0C0C0C0C02020202060606064E
:10023000060606060B0B0B0B0B0B0B0B010210201B
:10024000200808102040102040800201020108040C
:1002500002010102040810204080804020100804A0
:1002600002018004020180402010080402010804F9
:10027000020101020408102040800102040810203D
:10028000408000000A0B02090C0D0E080703040150
:10029000000000000000000000000000000000005E
:1002A000000000000000000000000000000012112B
:1002B000100000000000000000000000000000002E
:1002C0000000000000000000B611B01111241FBE94
:1002D000CFEFD1E2DEBFCDBF00E00CBF24E0A4E44D
:1002E000B3E001C01D92A53DB207E1F713E0A0E025
:1002F000B2E0E4E7FDE200E00BBF02C007900D9220
:10030000A434B107D9F711E0C5E6D1E000E006C09A
:1003100021970109802FFE010E946C14C436D10779
:1003200080E00807A9F70E94260C0C94A8160C94EC
:1003300000008DE094E00E94D40121E0892B09F4B3
:1003400020E0822F0895FC01538D448D252F30E04D
:10035000842F90E0821B930B541710F0CF960895D2
:1003600001970895FC01918D828D981761F0828D1F
:10037000DF01A80FB11D5D968C91928D9F5F9F73D9
:10038000928F90E008958FEF9FEF0895FC01918D7B
:10039000828D981731F0828DE80FF11D858D90E0E8
:1003A00008958FEF9FEF0895FC01918D228D892F85
:1003B00090E0805C9F4F821B91098F73992708956D
:1003C000FC01848DDF01A80FB11DA35ABF4F2C91F2
:1003D000848D90E001968F739927848FA689B789C1
:1003E0002C93A089B1898C9180648C93938D848D9A
:1003F000981306C00288F389E02D80818F7D808369
:100400000895EF92FF920F931F93CF93DF93EC0128
:1004100081E0888F9B8D8C8D981305C0E889F989C0
:10042000808185FD24C0F62E0B8D10E00F5F1F4FDD
:100430000F731127E02E8C8DE8120CC00FB607FC4D
:10044000FACFE889F989808185FFF5CFCE010E9436
:10045000E001F1CF8B8DFE01E80FF11DE35AFF4F54
:10046000F0820B8FEA89FB898081806207C0EE8968
:10047000FF896083E889F98980818064808381E0D5
:1004800090E0DF91CF911F910F91FF90EF90089531
:10049000CF93DF93EC01888D8823C9F0EA89FB892B
:1004A000808185FD05C0A889B9898C9186FD0FC022
:1004B0000FB607FCF5CF808185FFF2CFA889B989F7
:1004C0008C9185FFEDCFCE010E94E001E7CFDF9157
:1004D000CF91089585ED8093BC008091BC0084FD90
:1004E000FCCF1092460308954091C403262F30E0BC
:1004F000240F311D21323105DCF4209146032430D4
:10050000C9F4FC0180E090E0861758F43091C403F0
:100510002191DC01AE55BC4FA30FB11D2C93019668
:10052000F3CF8091C403680F6093C40380E0089503
:1005300081E0089582E00895089581E090E030918F
:100540004A0320914903321710F480E090E091951E
:1005500081959109089580914A03909149038917E3
:1005600030F48F5F80934A0380E090E008958FEF2E
:100570009FEF08958091490390E020914A03821BE8
:1005800091090895CF92DF92EF92FF920F931F93FC
:10059000CF93DF937C01262F972F8A018091A103AF
:1005A000882391F0C62FD72F6E01C40ED51ECC150F
:1005B000DD0571F06991D701ED91FC910190F08119
:1005C000E02DC7011995F3CF642F822F0E9474028A
:1005D000C801DF91CF911F910F91FF90EF90DF90B5
:1005E000CF900895CF93DF931F92CDB7DEB7698385
:1005F0002091A1032223D1F020914703203240F023
:1006000021E030E0FC013383228380E090E015C0DC
:1006100080914803E82FF0E0EF57FC4F99819083D9
:100620008F5F809348038093470305C061E0CE014C
:1006300001960E94740281E090E00F90DF91CF91CB
:100640000895089580E090E008958091510390917D
:1006500052030196909352038093510380914D036E
:1006600090914E03A0914F03B09150030196A11DAC
:10067000B11D80934D0390934E03A0934F03B0930D
:10068000500308950E948A16FF920F931F93CF93F1
:10069000DF931F921F92CDB7DEB78DE094E00E94EA
:1006A000D401892BD1F18DE094E00E94B201F82EA3
:1006B00089831A820091BA041091BB040F5F1F4F07
:1006C000B80186EB94E00E942E0A882399F02091CD
:1006D000B6043091B7048091BA049091BB04BE0176
:1006E0006F5F7F4F820F931F0E94A1161093BB0470
:1006F0000093BA048DE0F81204C081E080937F0378
:100700000CC080E2F81209C00F900F90DF91CF91DA
:100710001F910F91FF900C94800A0F900F90DF9122
:10072000CF911F910F91FF9008950E94990181111F
:1007300025C080E090E0892B41F080E090E0892B9B
:1007400021F00E94000081111CC080E090E0892B04
:1007500041F080E090E0892B21F00E94000081119F
:1007600013C080E090E0892BA1F080E090E0892B1D
:1007700081F00E94000081110AC008950E94440384
:10078000D8CF0E940000E1CF0E940000EACF0C9475
:100790000000089583E00E949E0721E0892B09F460
:1007A00020E020937E0380917E03882369F180B14D
:1007B00085FB882780F980937D0380917D038111DB
:1007C00003C081E090E002C08FEF9FEF40915303A0
:1007D000509154036091550370915603092E000CFB
:1007E000AA0BBB0B840F951FA61FB71F8093530343
:1007F00090935403A0935503B093560390915B03D9
:1008000081E0892780935B0308950F931F9382E013
:100810000E949E0721E0892B09F420E020937E03AB
:1008200080917E038823F1F180B183FB882780F9D2
:1008300080937C0380917C03811103C081E090E070
:1008400002C08FEF9FEF4091570350915803609182
:10085000590370915A03092E000CAA0BBB0B8A0195
:100860009B01081B190B2A0B3B0B0093570310939A
:1008700058032093590330935A0390915C0381E00D
:10088000892780935C038091570390915803A0912E
:100890005903B0915A038C399F4FAF4FBF4F11F49A
:1008A000109204021F910F9108951F920F920FB69C
:1008B0000F9211240BB60F922F933F934F935F9398
:1008C0006F937F938F939F93AF93BF93EF93FF9318
:1008D0008DE094E00E94E001FF91EF91BF91AF9114
:1008E0009F918F917F916F915F914F913F912F9148
:1008F0000F900BBE0F900FBE0F901F9018951F9278
:100900000F920FB60F9211240BB60F922F938F9365
:100910009F93EF93FF93E0911D04F0911E0480815B
:10092000E0912304F091240482FD12C09081809113
:1009300026048F5F8F7320912704821751F0E09176
:100940002604F0E0E35FFB4F958F8093260401C0FF
:100950008081FF91EF919F918F912F910F900BBE0E
:100960000F900FBE0F901F9018951F920F920FB609
:100970000F9211240BB60F922F933F934F935F93D7
:100980006F937F938F939F93AF93BF93EF93FF9357
:100990008091B900887F803609F49CC068F5883260
:1009A00009F45BC090F4803109F454C038F4882312
:1009B00009F4F6C0883009F44DC0F6C0883109F456
:1009C0004CC0803209F45DC0EFC0803409F468C0C7
:1009D00048F4803309F455C0883309F0E5C08093AA
:1009E000E903D8C0803509F44FC0883509F45DC0EB
:1009F000883409F0D9C0D6C0883909F4C7C0A8F432
:100A0000883709F467C038F4883609F463C0803742
:100A100009F460C0C9C0883809F4B8C0803909F445
:100A20005FC0803809F0C0C05BC0803B09F486C05D
:100A300038F4803A09F466C0883A09F47FC0B4C03B
:100A4000803C09F4A7C0883C09F4A4C0883B09F4A1
:100A50008AC0AAC080910C0410C090910B048091B0
:100A60000A04981770F5E0910B0481E08E0F8093D3
:100A70000B04F0E0E651FC4F80818093BB0085ECD5
:100A800086C08093E9038EC0E0910B0481E08E0F55
:100A900080930B048091BB00F0E0E651FC4F808313
:100AA00090910B0480910A046EC0E0910B0481E0E8
:100AB0008E0F80930B048091BB00F0E0E651FC4F59
:100AC00080838091450381116DC081E08093440350
:100AD00084EA61C083E0809346031092E803CFCF9D
:100AE0008091E803803208F051C0E091E80381E092
:100AF0008E0F8093E8038091BB00F0E0E853FC4F39
:100B00008083BDCF85EC8093BC001092460380911A
:100B1000E803803230F4E091E803F0E0E853FC4F62
:100B200010826091E80370E0E091C603F091C70382
:100B300088EC93E019951092E80336C084E0809326
:100B400046031092C5031092C403E091C203F091D2
:100B5000C30319958091C403811105C081E080937E
:100B6000C4031092A203E091C50381E08E0F80932D
:100B7000C503F0E0EE55FC4F80818093BB0090915F
:100B8000C5038091C403981708F479CF85E8809352
:100B9000BC000AC085EC8093BC001092460304C0E0
:100BA0001092E9030E946A02FF91EF91BF91AF9109
:100BB0009F918F917F916F915F914F913F912F9175
:100BC0000F900BBE0F900FBE0F901F901895CF93F4
:100BD000FC01C48121E02093A103C0938003109203
:100BE0004803109247038385682B8AEA94E00E94A9
:100BF000F20280914703813208F046C0909146038B
:100C00009111FCCF92E09093460391E090934503BD
:100C10009FEF9093E90310920B0480930A04A1E8DC
:100C2000B3E02AEE33E0F9019E2F921B981718F4D7
:100C30009D919193F9CF10920C0480910C04CC0FEC
:100C4000C82BC0930C0480914403813061F410924E
:100C5000440380910C048093BB008091BC0083FD11
:100C6000F8CF85EC01C085EE8093BC0080914603EF
:100C70008230E1F38091E9038F3F31F08091E90305
:100C8000803211F08091E9031092480310924703DB
:100C90001092A103CF9108950F931F93CF938C01CE
:100CA000C62F0E94E7056C2F6460C8010E94E7050B
:100CB0006C2F6B7FC8010E94E70583EC90E00197E1
:100CC000F1F7CF911F910F910895FF920F931F930A
:100CD000CF93DF931F92CDB7DEB78C01F62E962F00
:100CE000907F692F642BC80149830E944C0680E1E4
:100CF000F89EB00111244981642BC8010F90DF9147
:100D0000CF911F910F91FF900C944C0641E00E94EF
:100D1000650681E090E008951F920F920FB60F9242
:100D200011240BB60F922F933F934F935F936F93C2
:100D30007F938F939F93AF93BF93EF93FF93E09134
:100D40004B03F0914C031995FF91EF91BF91AF9137
:100D50009F918F917F916F915F914F913F912F91D3
:100D60000F900BBE0F900FBE0F901F90189590E044
:100D7000FC013197E231F10508F04EC08827EE58AA
:100D8000FF4F8F4F0C946C14809180008F7703C0BD
:100D9000809180008F7D80938000089580918000F5
:100DA000877FF9CF84B58F7702C084B58F7D84BDEE
:100DB00008958091B0008F7703C08091B0008F7D3F
:100DC0008093B0000895809190008F7707C0809144
:100DD00090008F7D03C080919000877F809390006A
:100DE00008958091A0008F7707C08091A0008F7D2B
:100DF00003C08091A000877F8093A0000895809118
:100E000020018F7707C0809120018F7D03C08091E2
:100E10002001877F8093200108953FB7F894809147
:100E2000CD049091CE04A091CF04B091D00426B50A
:100E3000A89B05C02F3F19F00196A11DB11D3FBF12
:100E4000BA2FA92F982F8827820F911DA11DB11DA0
:100E5000BC01CD0142E0660F771F881F991F4A959C
:100E6000D1F708950895DC01ED91FC910190F08196
:100E7000E02D1994CF92DF92EF92FF920F931F9380
:100E8000CF93DF936C017A018B01C0E0D0E0CE15E7
:100E9000DF0589F0D8016D918D01D601ED91FC91AE
:100EA0000190F081E02DC6011995892B11F47E0186
:100EB00002C02196ECCFC701DF91CF911F910F9116
:100EC000FF90EF90DF90CF900895CF93DF93CDB751
:100ED000DEB728970FB6F894DEBF0FBECDBF98E0FF
:100EE000E7E8F2E0DE01119601900D929A95E1F7A4
:100EF0009091C504981710F48FEF890FFE01319679
:100F0000E80FF11DE80FF11D6081606840E08CEB97
:100F100094E028960FB6F894DEBF0FBECDBFDF91E8
:100F2000CF910C94650640E061E08CEB94E00E9468
:100F300065068BE39FE10197F1F70895CF93DF9367
:100F4000282F30E0F901EE57FD4F8491F901E45C60
:100F5000FD4FD491F901EA50FE4FC491CC2391F09A
:100F600081110E94B706EC2FF0E0EE0FFF1FE45254
:100F7000FE4FA591B491EC91ED2381E090E021F436
:100F800080E002C080E090E0DF91CF9108951F9350
:100F9000CF93DF93282F30E0F901EE57FD4F849176
:100FA000F901E45CFD4FD491F901EA50FE4FC49180
:100FB000CC23C9F0162F81110E94B706EC2FF0E068
:100FC000EE0FFF1FEE53FE4FA591B4918FB7F8942B
:100FD000111105C09C91ED2FE095E92302C0EC9121
:100FE000ED2BEC938FBFDF91CF911F910895CF939D
:100FF000DF9390E0FC01E45CFD4F2491FC01EA509A
:10100000FE4F8491882361F190E0880F991FFC01C5
:10101000E855FE4FC591D491FC01EE53FE4FA591CA
:10102000B491611109C09FB7F894888120958223FB
:101030008883EC912E230BC0623061F49FB7F89443
:101040003881822F809583238883EC912E2B2C93DB
:101050009FBF06C08FB7F894E8812E2B28838FBFDF
:10106000DF91CF9108958F929F92AF92BF92CF92CE
:10107000DF92EF92FF926B017C010E940D074B0102
:101080005C01C114D104E104F104F1F00E940D07E8
:10109000DC01CB0188199909AA09BB09883E934054
:1010A000A105B10570F321E0C21AD108E108F108E9
:1010B00088EE880E83E0981EA11CB11CC114D104D7
:1010C000E104F10419F7DDCFFF90EF90DF90CF90AE
:1010D000BF90AF909F908F9008951F920F920FB680
:1010E0000F9211242F933F938F939F93AF93BF93AE
:1010F0008091C9049091CA04A091CB04B091CC0412
:101100003091C80423E0230F2D3720F40196A11D50
:10111000B11D05C026E8230F0296A11DB11D209325
:10112000C8048093C9049093CA04A093CB04B093DD
:10113000CC048091CD049091CE04A091CF04B091C5
:10114000D0040196A11DB11D8093CD049093CE04CF
:10115000A093CF04B093D004BF91AF919F918F9192
:101160003F912F910F900FBE0F901F9018951F92D7
:101170000F920FB60F9211240BB60F922F933F933D
:101180004F935F936F937F938F939F93AF93BF938F
:10119000EF93FF93E0911302F09114021995FF91E0
:1011A000EF91BF91AF919F918F917F916F915F91DF
:1011B0004F913F912F910F900BBE0F900FBE0F904C
:1011C0001F9018951F920F920FB60F9211240BB615
:1011D0000F922F933F934F935F936F937F938F93D0
:1011E0009F93AF93BF93EF93FF93E0911102F09120
:1011F00012021995FF91EF91BF91AF919F918F913D
:101200007F916F915F914F913F912F910F900BBE06
:101210000F900FBE0F901F9018951F920F920FB650
:101220000F9211240BB60F922F933F934F935F931E
:101230006F937F938F939F93AF93BF93EF93FF939E
:10124000E0910702F09108021995FF91EF91BF918B
:10125000AF919F918F917F916F915F914F913F914E
:101260002F910F900BBE0F900FBE0F901F901895EF
:101270001F920F920FB60F9211240BB60F922F935D
:101280003F934F935F936F937F938F939F93AF930E
:10129000BF93EF93FF93E0910502F0910602199539
:1012A000FF91EF91BF91AF919F918F917F916F913E
:1012B0005F914F913F912F910F900BBE0F900FBEFA
:1012C0000F901F9018951F920F920FB60F92112436
:1012D0000BB60F922F933F934F935F936F937F9330
:1012E0008F939F93AF93BF93EF93FF93E0910F0280
:1012F000F09110021995FF91EF91BF91AF919F91DD
:101300008F917F916F915F914F913F912F910F90AE
:101310000BBE0F900FBE0F901F9018951F920F924B
:101320000FB60F9211240BB60F922F933F934F934A
:101330005F936F937F938F939F93AF93BF93EF933D
:10134000FF93E0910D02F0910E021995FF91EF913C
:10135000BF91AF919F918F917F916F915F914F91CD
:101360003F912F910F900BBE0F900FBE0F901F90CB
:1013700018951F920F920FB60F9211240BB60F9271
:101380002F933F934F935F936F937F938F939F938D
:10139000AF93BF93EF93FF93E0910B02F0910C0298
:1013A0001995FF91EF91BF91AF919F918F917F918F
:1013B0006F915F914F913F912F910F900BBE0F90C6
:1013C0000FBE0F901F9018951F920F920FB60F929D
:1013D00011240BB60F922F933F934F935F936F930C
:1013E0007F938F939F93AF93BF93EF93FF93E0917E
:1013F0000902F0910A021995FF91EF91BF91AF9107
:101400009F918F917F916F915F914F913F912F911C
:101410000F900BBE0F900FBE0F901F901895FC0100
:1014200024813581232B31F421E061157105A1F070
:10143000FB0108C0FC01808191816115710531F4C7
:1014400021E0FC018081882339F005C00E949816B4
:1014500021E0892B09F020E0822F08950F931F933C
:10146000CF93DF93EC0188819981009729F02A813D
:101470003B812617370788F48B016F5F7F4F0E94EF
:10148000A115009761F0998388831B830A832C81BF
:101490003D81232B11F4FC01108281E001C080E02A
:1014A000DF91CF911F910F910895EF92FF920F93CB
:1014B0001F93CF93DF93EC017B018A01BA010E9455
:1014C0002E0A2881398181110DC02115310519F0AD
:1014D000C9010E940915198218821D821C821B8273
:1014E0001A8206C01D830C83B701C9010E94A11690
:1014F000CE01DF91CF911F910F91FF90EF90089552
:1015000040E050E068ED72E086EB94E00E94550AFE
:1015100086EB94E008956115710579F0FB01019067
:101520000020E9F73197AF01461B570BDC01ED9125
:10153000FC910280F381E02D199480E090E0089501
:10154000CF93DF93BC018DE094E00E948B0AEC0105
:1015500066ED72E08DE094E00E948B0A8C0F9D1F77
:10156000DF91CF9108954F925F926F927F92EF92A9
:10157000FF920F931F93CF93DF93CDB7DEB7A19761
:101580000FB6F894DEBF0FBECDBF7C01FA01CB01D0
:1015900019A2223008F42AE08E010F5D1F4F422E5F
:1015A000512C612C712CBF01A30192010E944A149D
:1015B000F901CA01015011096A3014F4605D01C0DB
:1015C000695CD8016C93232B242B252B61F7B80180
:1015D000C7010E948B0AA1960FB6F894DEBF0FBE1A
:1015E000CDBFDF91CF911F910F91FF90EF907F9032
:1015F0006F905F904F900895CF92DF92EF92FF929D
:101600000F931F93CF93DF9377FF1DC06A017B0178
:10161000EC016DE20E9433078C0144275527BA0183
:101620004C195D096E097F092AE0CE010E94B30AB8
:10163000800F911FDF91CF911F910F91FF90EF903D
:10164000DF90CF9008952AE0DF91CF911F910F9105
:10165000FF90EF90DF90CF900C94B30ACF93DF937D
:10166000AB01BC018DE094E00E94FC0AEC0166ED48
:1016700072E08DE094E00E948B0A8C0F9D1FDF9139
:10168000CF9108954F925F926F927F928F929F9227
:10169000AF92BF92CF92DF92EF92FF92CF93DF9300
:1016A000EC016A017B01B22E9A01AB01C701B601C0
:1016B0000E944514882319F067E373E027C02601D0
:1016C0003701E89477F82FEF3FEF4FE75FE7C3016B
:1016D000B2010E94451481110DC02FEF3FEF4FE77B
:1016E0005FE7C301B2010E940E1218161CF46BE3EF
:1016F00073E00CC02FEF3FEF4FE75FE4C701B60187
:101700000E94401418169CF46FE373E0CE01DF9141
:10171000CF91FF90EF90DF90CF90BF90AF909F90D0
:101720008F907F906F905F904F900C948B0A2FEF6B
:101730003FEF4FE75FECC701B6010E940E1287FD35
:10174000E3CF20E030E0A901C701B6010E940E12EC
:1017500087FF0AC06DE2CE010E9433074C01F7FA01
:10176000F094F7F8F09402C0812C912CA12C60E049
:1017700070E080E09FE3AB1441F020E030E040E215
:1017800051E40E949F13A394F6CF9B01AC01C701C3
:10179000B6010E9433132B013C010E9411146B010E
:1017A0007C010E9413129B01AC01C301B2010E9493
:1017B00032132B013C012AE0B701A601CE010E94A1
:1017C000B30A7C01E80CF91CBB2031F06EE2CE01BB
:1017D0000E943307E80EF91EDB2CDD2029F120E002
:1017E00030E040E251E4C301B2010E9474122B01C7
:1017F0003C010E9411144B01A12CB12C2AE0B5012F
:10180000A401CE010E94B30AE80EF91EC501B4017D
:101810000E9413129B01AC01C301B2010E9432135A
:101820002B013C01DA94D9CFC701DF91CF91FF9012
:10183000EF90DF90CF90BF90AF909F908F907F9070
:101840006F905F904F9008950C948B0ACF93DF9325
:10185000CDB7DEB72A970FB6F894DEBF0FBECDBF67
:10186000789484B5826084BD84B5816084BD85B57B
:10187000826085BD85B5816085BD80916E00816087
:1018800080936E001092810080918100826080932D
:10189000810080918100816080938100809180002F
:1018A0008160809380008091B10084608093B1005A
:1018B0008091B00081608093B0008091910082603F
:1018C000809391008091910081608093910080913C
:1018D00090008160809390008091A100826080934D
:1018E000A1008091A10081608093A1008091A0005F
:1018F00081608093A000809121018260809321010A
:10190000809121018160809321018091200181607B
:101910008093200180917A00846080937A00809186
:101920007A00826080937A0080917A00816080934F
:101930007A0080917A00806880937A001092C100CA
:10194000E0911D04F0911E0482E08083E09119046F
:10195000F0911A041082E0911B04F0911C048FECAA
:10196000808310922504E0912104F091220486E006
:101970008083E0911F04F091200480818061808346
:10198000E0911F04F0912004808188608083E091C1
:101990001F04F0912004808180688083E0911F04FF
:1019A000F091200480818F7D80838BEC92E00E94F7
:1019B000A00A2AE04BE150E060E070E08DE094E0A6
:1019C0000E94B30A66ED72E08DE094E00E948B0AFB
:1019D0008BE190E0909368038093670310926B0310
:1019E00010926A0310926E0310926D0340E050E073
:1019F00080916D0390916E034B9708F5E0916D0314
:101A0000F0916E03EE0FFF1FEF5AFD4F8081918121
:101A10004817590750F4E0916D03F0916E03EE0FF3
:101A2000FF1FEF5AFD4F4081518180916D039091CE
:101A30006E03019690936E0380936D03D9CF5093FC
:101A40006B0340936A0360E070E02AE08DE094E06D
:101A50000E94B30A66ED72E08DE094E00E948B0A6A
:101A600010926E0310926D0380E1809381001092BA
:101A7000800081E08093640320E43FE130936303BE
:101A800020936203309387002093860091E1909326
:101A9000810025E233E030934C0320934B03809385
:101AA0006F0010924A03109249031092480310925B
:101AB000470310924603809345031092440361E06C
:101AC00084E10E94C70761E085E10E94C707809119
:101AD000B9008E7F8093B9008091B9008D7F80938B
:101AE000B90088E48093B80085E48093BC0010922C
:101AF000C1048091C504823018F098E09093C1042D
:101B00009091C604992339F0813029F48091C10461
:101B100084608093C10462E370E080E090E00E9402
:101B200033086091C7048CEB94E00E94E70568EEEF
:101B300073E080E090E00E94330860E38CEB94E077
:101B40000E944C060BE416E4C8010197F1F760E32C
:101B50008CEB94E00E944C06C8010197F1F760E31A
:101B60008CEB94E00E944C0683E592E00197F1F73C
:101B700060E28CEB94E00E944C066091C1046062CC
:101B800040E08CEB94E00E94650684E08093C20400
:101B900040E06CE08CEB94E00E9465060E949307A5
:101BA00082E08093C30440E066E08CEB94E00E9406
:101BB000650640E062E08CEB94E00E9465068BE3F2
:101BC0009FE10197F1F710924D0310924E0310928E
:101BD0004F031092500368EC70E086EB94E00E9493
:101BE0002E0A84EF91E090936103809360039093B9
:101BF0005F0380935E0360E088E10E94F70760E086
:101C000088E10E94C70760E089E10E94F70760E071
:101C100089E10E94C70785E094E0909306028093D3
:101C2000050280916A00836080936A00EC9A60E00C
:101C30008AE10E94F70760E08AE10E94C70760E03E
:101C40008BE10E94F70760E08BE10E94C7078AECF6
:101C500093E0909308028093070280916A008C6061
:101C600080936A00ED9A61E08CE10E94F70760E0E2
:101C70008CE10E94C70761E08DE10E94F70760E0F8
:101C80008DE10E94C70761E08EE10E94F70760E0E6
:101C90008EE10E94C70761E08FE10E94F70760E0D4
:101CA0008FE10E94C70761E088E20E94F70760E0C9
:101CB00088E20E94C70710925C0310925B031092A7
:101CC0005D0380E00E94650769ED72E08CEB94E0B3
:101CD0000E94240C81E00E9465076BEC72E08CEBA3
:101CE00094E00E94240C60ED77E080E090E00E9498
:101CF00033080E94930760915703709158038091B5
:101D0000590390915A0320910002309101024091B1
:101D10000202509103022F83388749875A870E9415
:101D200015122F81388549855A850E947412609357
:101D3000700370937103809372039093730380E038
:101D40000E94650740917003509171036091720386
:101D50007091730322E08CEB94E00E94420B6BEED7
:101D600072E08CEB94E00E94240C81E00E946507F5
:101D70004091530350915403609155037091560361
:101D80008CEB94E00E94FC0A70E1C72EDD24D39412
:101D900000E41FE1E1E1BE2EF4EFEF2EFF24F39407
:101DA0001A8219821C821B821E821D826091B604D7
:101DB0007091B7046115710541F04091BA045091DA
:101DC000BB04CE0101960E94550A6EEE72E0CE0170
:101DD00001960E940F0A81112AC062EF72E0CE01C3
:101DE00001960E940F0A882309F4C9C0109281004D
:101DF000109285001092840080916403806180932A
:101E0000810080E1809381001092800081E08093C6
:101E1000640380E49FE19093630380936203909353
:101E200087008093860081E1809381009DC010929D
:101E3000810010928500109284008091640380617B
:101E400080938100C092810010928000D092640340
:101E5000109363030093620310938700009386003E
:101E6000B092810080914D0390914E03A0914F0359
:101E7000B0915003892B8A2B8B2B09F4AECF609144
:101E80004D0370914E0380914F03909150030E9437
:101E90002E0B61E08DE10E94C7078091570390915E
:101EA0005803A0915903B0915A038C399F4FAF4FFB
:101EB000BF4FC1F6C092810060E08DE10E94C7076C
:101EC00060915703709158038091590390915A0380
:101ED00020910002309101024091020250910302D0
:101EE0002F83388749875A870E9415122F8138859A
:101EF00049855A850E947412609370037093710330
:101F00008093720390937303409170035091710317
:101F1000609172037091730322E08DE094E00E945F
:101F2000420B66ED72E08DE094E00E948B0A6091B6
:101F30004D0370914E0380914F03909150030E9486
:101F40002E0B10924D0310924E0310924F031092DD
:101F50005003109257031092580310925903109295
:101F60005A030E94800A7ECF60914D0370914E0308
:101F700080914F03909150030E942E0BF5CF67EF95
:101F800072E0CE0101960E940F0A882309F446C030
:101F9000F0926103E0926003F0925F03E0925E03CF
:101FA0004091BA045091BB046091B6047091B7049B
:101FB0008DE094E00E943A0766ED72E08DE094E0D7
:101FC0000E948B0A6CEF72E08DE094E00E94240C7A
:101FD0004091600350916103052E000C660B770B56
:101FE0008DE094E00E94FC0A6CEF72E08DE094E0DA
:101FF0000E94240C40915E0350915F03052E000C5B
:10200000660B770B8DE094E00E94FC0A6CEF72E0A7
:102010008DE094E00E94240C0E94800A6FEF72E031
:10202000CE0101960E940F0A882309F463C061E083
:1020300088E20E94C70761E08EE10E94C70768E856
:1020400073E180E090E00E94330860E08EE10E943E
:10205000C70760E088E20E94C7070E94930760916B
:102060005703709158038091590390915A0320911E
:1020700000023091010240910202509103022F832D
:10208000388749875A870E9415122F8138854985DC
:102090005A850E9474126093700370937103809349
:1020A00072039093730380E00E9465074091700370
:1020B00050917103609172037091730322E08CEB75
:1020C00094E00E94420B6BEE72E08CEB94E00E9475
:1020D000240C81E00E946507409153035091540302
:1020E00060915503709156038CEB94E00E94FC0ABA
:1020F0000E94800A89819A810E9409158091740347
:1021000080915C038111C8C080915B038111C4C0C0
:1021100064E073E086EB94E00E940F0A8823C1F02C
:1021200081E193E00E94A00AD0926F0310925203C3
:102130001092510310924D0310924E0310924F03D0
:102140001092500310926E0310926D030E94800A49
:1021500080916D0390916E03209167033091680325
:1021600082179307E0F4DC01AA0FBB1FA35EBD4FEB
:10217000880F991FFC01E55EFD4F8D919C91408178
:102180005181841B950B9093660380936503181609
:1021900019061CF410926C0304C0892B11F0D09224
:1021A0006C0380916F038823C9F080915103909153
:1021B0005203E0916D03F0916E03EE0FFF1FEF5A93
:1021C000FD4F408151814817590740F480916D03BC
:1021D00090916E038217930708F4AEC080916C0350
:1021E00090916903992381F1882369F060E273E09B
:1021F0008DE094E00E94240C61E088E20E94C70711
:1022000061E08EE10CC066E273E08DE094E00E9434
:10221000240C61E088E20E94C70761E08FE10E9420
:10222000C70761E08DE10E94C70780914D0390913F
:102230004E03A0914F03B09150038D97A105B105B6
:102240009CF01092690310C060E088E20E94C7070A
:1022500060E08FE10E94C70760E08CE10E94C70741
:1022600060E08EE10E94C707209151033091520334
:1022700080916A0390916B038217930750F4109238
:1022800052031092510310926F038CE293E00E946C
:10229000A00A0E94950384CD0E9493076091570382
:1022A000709158038091590390915A032091000234
:1022B0003091010240910202509103022F8338872E
:1022C00049875A870E9415122F81388549855A857A
:1022D0000E94741260937003709371038093720371
:1022E0009093730380E00E946507409170035091C2
:1022F0007103609172037091730322E08CEB94E0A0
:102300000E94420B6BEE72E08CEB94E00E94240C76
:1023100081E00E94650740915303509154036091FE
:102320005503709156038CEB94E00E94FC0A1092C6
:102330005C0310925B03ECCE80916D0390916E0371
:10234000019690936E0380936D03D092690310926F
:102350004D0310924E0310924F03109250033ECF44
:102360008091B6049091B7040C940915EDE0F4E067
:102370001382128288EE93E0A0E0B0E0848395831C
:10238000A683B78323E932E03183208325EC30E054
:102390003587248724EC30E03787268720EC30E02F
:1023A000318B208B21EC30E0338B228B22EC30E020
:1023B000358B248B26EC30E0378B268B118E128EDA
:1023C000138E148EEAEAF4E01382128284839583DA
:1023D000A683B78385EA92E091838083ECEBF4E0F7
:1023E0001382128287EB92E09183808387E2848359
:1023F00084E1808784E08187128688E08387E6EB2A
:10240000F4E011821082138212821582148240E05D
:1024100050E068ED72E0CF010C94550A0E94501212
:1024200008F481E00895E89409C097FB3EF4909584
:102430008095709561957F4F8F4F9F4F9923A9F09D
:10244000F92F96E9BB279395F6958795779567952C
:10245000B795F111F8CFFAF4BB0F11F460FF1BC070
:102460006F5F7F4F8F4F9F4F16C0882311F096E903
:1024700011C0772321F09EE8872F762F05C06623B1
:1024800071F096E8862F70E060E02AF09A95660F6A
:10249000771F881FDAF7880F9695879597F9089523
:1024A000990F0008550FAA0BE0E8FEEF1616170665
:1024B000E807F907C0F012161306E407F50798F0CD
:1024C000621B730B840B950B39F40A2661F0232BE6
:1024D000242B252B21F408950A2609F4A140A69562
:1024E0008FEF811D811D08950E9487120C94F812B0
:1024F0000E94EA1238F00E94F11220F0952311F0A8
:102500000C94E1120C94E71211240C942C130E94E9
:10251000091370F3959FC1F3950F50E0551F629F0B
:10252000F001729FBB27F00DB11D639FAA27F00D2C
:10253000B11DAA1F649F6627B00DA11D661F829F53
:102540002227B00DA11D621F739FB00DA11D621F38
:10255000839FA00D611D221F749F3327A00D611D55
:10256000231F849F600D211D822F762F6A2F112437
:102570009F5750409AF0F1F088234AF0EE0FFF1F6A
:10258000BB1F661F771F881F91505040A9F79E3FC1
:10259000510580F00C94E1120C942C135F3FE4F38E
:1025A000983ED4F3869577956795B795F795E79517
:1025B0009F5FC1F7FE2B880F911D9695879597F920
:1025C000089597F99F6780E870E060E008959FEFB5
:1025D00080EC089500240A941616170618060906BA
:1025E000089500240A941216130614060506089589
:1025F000092E0394000C11F4882352F0BB0F40F411
:10260000BF2B11F460FF04C06F5F7F4F8F4F9F4F50
:10261000089557FD9058440F551F59F05F3F71F0D2
:102620004795880F97FB991F61F09F3F79F0879539
:102630000895121613061406551FF2CF4695F1DFC2
:1026400008C0161617061806991FF1CF8695710552
:10265000610508940895E894BB2766277727CB0186
:1026600097F908955058BB27AA270E944A130C9443
:10267000F8120E94EA1238F00E94F11220F039F4A8
:102680009F3F19F426F40C94E7120EF4E095E7FB53
:102690000C94E112E92F0E94091358F3BA1762074C
:1026A00073078407950720F079F4A6F50C942B1393
:1026B0000EF4E0950B2EBA2FA02D0B01B90190015D
:1026C0000C01CA01A0011124FF27591B99F0593FA1
:1026D00050F4503E68F11A16F040A22F232F342FE9
:1026E0004427585FF3CF469537952795A795F04037
:1026F0005395C9F77EF41F16BA0B620B730B840B4C
:10270000BAF09150A1F0FF0FBB1F661F771F881F03
:10271000C2F70EC0BA0F621F731F841F48F487955B
:1027200077956795B795F7959E3F08F0B0CF93954D
:10273000880F08F09927EE0F9795879508950E94C6
:10274000B3130C94F8120E94F11258F00E94EA128E
:1027500040F029F45F3F29F00C94E11251110C94E0
:102760002C130C94E7120E94091368F39923B1F318
:10277000552391F3951B550BBB27AA2762177307A7
:10278000840738F09F5F5F4F220F331F441FAA1F3B
:10279000A9F335D00E2E3AF0E0E832D091505040F7
:1027A000E695001CCAF72BD0FE2F29D0660F771FA5
:1027B000881FBB1F261737074807AB07B0E809F08B
:1027C000BB0B802DBF01FF2793585F4F3AF09E3F10
:1027D000510578F00C94E1120C942C135F3FE4F354
:1027E000983ED4F3869577956795B795F7959F5F53
:1027F000C9F7880F911D9695879597F90895E1E09F
:10280000660F771F881FBB1F621773078407BA07FD
:1028100020F0621B730B840BBA0BEE1F88F7E09558
:1028200008950E94111388F09F5798F0B92F9927A7
:10283000B751B0F0E1F0660F771F881F991F1AF0AB
:10284000BA95C9F714C0B13091F00E942B13B1E0D2
:1028500008950C942B13672F782F8827B85F39F0D1
:10286000B93FCCF3869577956795B395D9F73EF444
:1028700090958095709561957F4F8F4F9F4F0895EC
:102880000E94501208F48FEF08950E945012880B96
:10289000990B0895A1E21A2EAA1BBB1BFD010DC0C6
:1028A000AA1FBB1FEE1FFF1FA217B307E407F50700
:1028B00020F0A21BB30BE40BF50B661F771F881FDC
:1028C000991F1A9469F760957095809590959B0172
:1028D000AC01BD01CF010895EE0FFF1F881F8BBF14
:1028E0000790F691E02D1994CF93DF9382309105F4
:1028F00010F482E090E0E091D304F091D40420E061
:1029000030E0C0E0D0E0309711F1408151814817AC
:102910005907C0F04817590761F4828193812097C5
:1029200019F09B838A832BC09093D4048093D304A3
:1029300026C02115310519F04217530718F49A01E2
:10294000BE01DF01EF010280F381E02DDCCF211514
:10295000310509F1281B390B2430310590F412960A
:102960008D919C9113976115710521F0FB01938363
:10297000828304C09093D4048093D304FD013296E3
:1029800044C0FD01E20FF31F81939193225031095E
:102990002D933C933AC02091D1043091D204232B43
:1029A00041F420911702309118023093D204209301
:1029B000D10420911502309116022115310541F400
:1029C0002DB73EB74091190250911A02241B350BC6
:1029D000E091D104F091D204E217F307A0F42E1B8A
:1029E0003F0B2817390778F0AC014E5F5F4F241773
:1029F000350748F04E0F5F1F5093D2044093D10427
:102A00008193919302C0E0E0F0E0CF01DF91CF919C
:102A100008950F931F93CF93DF93009709F48CC011
:102A2000FC013297138212820091D3041091D404D6
:102A30000115110581F420813181820F931F2091AE
:102A4000D1043091D2042817390779F5F093D204D4
:102A5000E093D10471C0D80140E050E0AE17BF0749
:102A600050F412962D913C911397AD01211531052B
:102A700009F1D901F3CF9D01DA013383228360810B
:102A80007181860F971F8217930769F4EC012881E3
:102A90003981260F371F2E5F3F4F318320838A8174
:102AA0009B8193838283452B29F4F093D404E09394
:102AB000D30442C01396FC93EE931297ED01499113
:102AC00059919E01240F351FE217F30771F480819D
:102AD0009181840F951F029611969C938E9382810B
:102AE000938113969C938E931297E0E0F0E0D801C7
:102AF00012968D919C911397009719F0F8018C0113
:102B0000F6CF8D919C9198012E5F3F4F820F931FBE
:102B10002091D1043091D2042817390769F43097F5
:102B200029F41092D4041092D30402C013821282AA
:102B30001093D2040093D104DF91CF911F910F9194
:102B400008956F927F928F929F92AF92BF92CF9291
:102B5000DF92EF92FF920F931F93CF93DF93EC01DD
:102B6000009789F4CB01DF91CF911F910F91FF90D6
:102B7000EF90DF90CF90BF90AF909F908F907F901D
:102B80006F900C947414FC01E60FF71F9C01225007
:102B90003109E217F30708F4ACC0D9010D911C917B
:102BA000119706171707B0F00530110508F49FC0FC
:102BB000C80104978617970708F499C002501109B5
:102BC000061B170B019311936D937C93CF010E9409
:102BD00009158DC05B01A01AB10A4C01800E911E2F
:102BE000A091D304B091D40440E050E0E12CF12C4A
:102BF000109709F44AC0A815B905D1F56D907C90DD
:102C00001197630182E0C80ED11CCA14DB0480F165
:102C1000A3014A195B096A0182E0C80ED11C129611
:102C2000BC9012971396AC91B5E0CB16D10440F04E
:102C3000B282A38351834083D9016D937C930AC0F0
:102C40000E5F1F4FC301800F911FF9019183808395
:102C5000EB2DFA2FE114F10431F0D7011396FC9318
:102C6000EE93129744C0F093D404E093D3043FC092
:102C70008D919C9111974817590708F4AC017D017B
:102C800012960D90BC91A02DB3CF8091D10490915C
:102C9000D20488159905E1F446175707C8F48091C6
:102CA000150290911602009741F48DB79EB740919E
:102CB000190250911A02841B950BE817F907C8F402
:102CC000F093D204E093D104F901718360830FC0C3
:102CD000CB010E9474147C01009759F0A801BE0139
:102CE0000E948F16CE010E940915C70104C0CE01B3
:102CF00002C080E090E0DF91CF911F910F91FF9093
:102D0000EF90DF90CF90BF90AF909F908F907F908B
:102D10006F90089581E090E0F8940C94A816FB0160
:102D2000DC0102C001900D9241505040D8F7089547
:102D3000FB01DC018D91019080190110D9F3990BF1
:102D40000895FB01DC0101900D920020E1F7089548
:102D500011E0C5E6D1E000E006C0802FFE010E9430
:102D60006C142196011DC636D10780E00807A9F72B
:042D7000F894FFCF05
:102D74005F0C153F01320732073207320732073240
:102D840007320732070000D50480001E05D60684EA
:102D9400083C0AF40BA20D5A0F1211C01278143019
:102DA40016DE1796194E1B9619DE1730167814C0C6
:102DB4001212115A0FA20DF40B3C0A8408D6061EF7
:102DC400050000EC09A012D917AB1C23214B2530B8
:102DD400290B2B9C2E00323F3564387A3EFE42226A
:102DE40049534CA34F1C53C656B158B65C0561A851
:102DF40065AC6A1E70347900004000140054000071
:102E040000000001023A07A3014802D401B201C63E
:102E14000100000000F202C20222039C02BA02ABCB
:102E2400029D020000000086063A072203210300E7
:102E340000000042033A07220321034269656E76CB
:102E4400656E69646F000D0A0050726F6772616D80
:102E54006120526F6C61646F7261006D6D00766504
:102E64006C0074656D70006365726F000A0D007408
:102E740065737400727574696E617469656D706FE1
:102E840000436F6D656E7A6F20527574696E6100D0
:102E940053756269720042616A6172005465726DB1
:102EA400696E616D6F73006E616E00696E66006FAE
:042EB400766600003E
:00000001FF
