:100000000C9459010C94B7090C948C090C94610957
:100010000C9436090C940B090C94E0080C94B50868
:100020000C948A080C948A010C948A010C948A011D
:100030000C948A010C948A010C948A010C948A0114
:100040000C948A010C948A010C948A010C948A0104
:100050000C9498060C948A010C948A010C94400824
:100060000C948A010C9409050C94DF040C948A0109
:100070000C948A010C948A010C948A010C948A01D4
:100080000C948A010C948A010C948A010C948A01C4
:100090000C948A010C948A010C948A010C943F05FB
:1000A0000C948A010C948A010C948A010C948A01A4
:1000B0000C948A010C948A010C948A010C948A0194
:1000C0000C948A010C948A010C948A010C948A0184
:1000D0000C948A010C948A010C948A010C948A0174
:1000E0000C948A017C077F076E0772077607B607B4
:1000F000830787078D07910795079B079F07A3072E
:10010000B607A907AD07B1070C94AD070C94090217
:100110000C946C030C945D100C948D070C943602B7
:100120000C9472070C9416030C94B1070C944402BF
:100130000C947C070C94A9070C9463100C9419047C
:100140000C94E8060C94B6070C949F070C947B0261
:100150000C9422020C949B070C9434030C945004CE
:100160000C94B2010C9495070C94A3070C94E90627
:100170000C948C010C9476070C9417030C941302C6
:100180000C9425030C947F070C943C030C94830778
:100190000C9487070C9492060C946E070C94C20280
:1001A0000C941A040C9491070000210024002700ED
:1001B0002A002D0030003300010100000401070176
:1001C0000A0100002200250028002B002E0031002B
:1001D000340002010000050108010B0105050505B9
:1001E000070508080808020202020A0A08080404AF
:1001F00004040101010101010101030303030303DD
:100200000303040707070C0C0C0C0C0C0C0C02026B
:10021000020206060606060606060B0B0B0B0B0B68
:100220000B0B0102102020080810204010204080F5
:1002300002010201080402010102040810204080AA
:100240008040201008040201800402018040201038
:100250000804020108040201010204081020408081
:10026000010204081020408000000A0B02090C0D56
:100270000E08070304010000000000000000000059
:10028000000000000000000000000000000000006E
:10029000000000001211100000000000000000002B
:1002A00000000000000000000000000000006310DB
:1002B0005D1011241FBECFEFD1E2DEBFCDBF00E045
:1002C0000CBF24E0A8E0B3E001C01D92AB39B20737
:1002D000E1F713E0A0E0B2E0ECEBFAE200E00BBFE4
:1002E00002C007900D92A830B107D9F711E0C8E518
:1002F000D1E000E006C021970109802FFE010E9495
:100300001913C735D10780E00807A9F70E94A20B8F
:100310000C944C150C9400008091CC039091CD036B
:1003200001969093CD038093CC038091C603909166
:10033000C703A091C803B091C9030196A11DB11DC7
:100340008093C6039093C703A093C803B093C903D7
:100350008091CA039091CB0301969093CB03809335
:10036000CA0308950F931F9382B385FB882780F9F2
:100370008093130380911303811103C081E090E007
:1003800002C08FEF9FEF4091BB035091BC0360917F
:10039000BD037091BE03092E000CAA0BBB0B8A0192
:1003A0009B01081B190B2A0B3B0B0093BB031093FB
:1003B000BC032093BD033093BE03809113038111CE
:1003C00003C081E090E002C08FEF9FEF4091B70340
:1003D0005091B8036091B9037091BA03092E000CD3
:1003E000AA0BBB0B8A019B01081B190B2A0B3B0BA9
:1003F0000093B7031093B8032093B9033093BA0363
:100400009091BF0381E089278093BF031F910F91D3
:10041000089580910502882329F081E08093D2031A
:100420008093B1030895FC01538D448D252F30E056
:10043000842F90E0821B930B541710F0CF960895F1
:1004400001970895FC01918D828D981761F0828D3E
:10045000DF01A80FB11D5D968C91928D9F5F9F73F8
:10046000928F90E008958FEF9FEF0895FC01918D9A
:10047000828D981731F0828DE80FF11D858D90E007
:1004800008958FEF9FEF0895FC01918D228D892FA4
:1004900090E0805C9F4F821B91098F73992708958C
:1004A00083ED93E00E94440221E0892B09F420E0CF
:1004B000822F0895FC01848DDF01A80FB11DA35A7E
:1004C000BF4F2C91848D90E001968F739927848F74
:1004D000A689B7892C93A089B1898C9180648C936B
:1004E000938D848D981306C00288F389E02D808156
:1004F0008F7D80830895EF92FF920F931F93CF9388
:10050000DF93EC0181E0888F9B8D8C8D981305C063
:10051000E889F989808185FD24C0F62E0B8D10E0D5
:100520000F5F1F4F0F731127E02E8C8DE8120CC048
:100530000FB607FCFACFE889F989808185FFF5CFEE
:10054000CE010E945A02F1CF8B8DFE01E80FF11D02
:10055000E35AFF4FF0820B8FEA89FB89808180622A
:1005600007C0EE89FF896083E889F989808180640A
:10057000808381E090E0DF91CF911F910F91FF90F8
:10058000EF900895CF93DF93EC01888D8823C9F015
:10059000EA89FB89808185FD05C0A889B9898C918C
:1005A00086FD0FC00FB607FCF5CF808185FFF2CF27
:1005B000A889B9898C9185FFEDCFCE010E945A029E
:1005C000E7CFDF91CF91089585ED8093BC008091B6
:1005D000BC0084FDFCCF1092A40308954091590300
:1005E000262F30E0240F311D21323105DCF420911B
:1005F000A4032430C9F4FC0180E090E0861758F48D
:10060000309159032191DC01A95CBC4FA30FB11DAE
:100610002C930196F3CF80915903680F609359038F
:1006200080E0089581E0089582E00895089581E0D2
:1006300090E03091A8032091A703321710F480E0D6
:1006400090E091958195910908958091A8039091EA
:10065000A703891730F48F5F8093A80380E090E0B0
:1006600008958FEF9FEF08958091A70390E0209168
:10067000A803821B91090895CF92DF92EF92FF9217
:100680000F931F93CF93DF937C01262F972F8A011F
:1006900080913603882391F0C62FD72F6E01C40EA8
:1006A000D51ECC15DD0571F06991D701ED91FC9156
:1006B0000190F081E02DC7011995F3CF642F822FAF
:1006C0000E94EE02C801DF91CF911F910F91FF9020
:1006D000EF90DF90CF900895CF93DF931F92CDB727
:1006E000DEB76983209136032223D1F02091A50340
:1006F000203240F021E030E0FC013383228380E0AF
:1007000090E015C08091A603E82FF0E0EA5EFC4F70
:10071000998190838F5F8093A6038093A50305C082
:1007200061E0CE0101960E94EE0281E090E00F9020
:10073000DF91CF910895CF93FC01C48121E02093F4
:100740003603C09315031092A6031092A503838568
:10075000682B80E794E00E946C038091A5038132AE
:1007600008F046C09091A4039111FCCF92E09093C1
:10077000A40391E09093A3039FEF90937E031092C4
:10078000A00380939F03A6E1B3E02FE733E0F901D4
:100790009E2F921B981718F49D919193F9CF109268
:1007A000A1038091A103CC0FC82BC093A10380911A
:1007B000A203813061F41092A2038091A10380937F
:1007C000BB008091BC0083FDF8CF85EC01C085EEB5
:1007D0008093BC008091A4038230E1F380917E037A
:1007E0008F3F31F080917E03803211F080917E0343
:1007F0001092A6031092A50310923603CF9108958C
:100800000F931F93CF938C01C62F0E949B036C2FD5
:100810006460C8010E949B036C2F6B7FC8010E941B
:100820009B0383EC90E00197F1F7CF911F910F911B
:100830000895089580E090E008952091AE033091EE
:10084000AF0382179307E0F4DC01AA0FBB1FA25E7F
:10085000BD4F880F991FFC01E45EFD4F8D919C9167
:1008600020813181821B930B90931203809311039B
:10087000181619061CF41092B6030895892B19F066
:1008800081E08093B603089560E08AE20E944D07FC
:1008900060E088E20E944D0760E08DE20C944D0715
:1008A0000E943715FF920F931F93CF93DF931F92F0
:1008B0001F92CDB7DEB783ED93E00E944402892BEF
:1008C00009F440C083ED93E00E942202F82E898350
:1008D0001A8200918004109181040F5F1F4FB801AC
:1008E0008CE794E00E94E209882399F020917C042F
:1008F00030917D048091800490918104BE016F5FEE
:100900007F4F820F931F0E9445151093810400931F
:1009100080048DE0F81204C081E08093140312C0BB
:1009200080E2F8120FC040E050E068EE72E08CE721
:1009300094E00F900F90DF91CF911F910F91FF9056
:100940000C94090A0F900F90DF91CF911F910F9196
:10095000FF9008950E945002811125C080E090E030
:10096000892B41F080E090E0892B21F00E9400006B
:1009700081111CC080E090E0892B41F080E090E084
:10098000892B21F00E940000811113C080E090E0CB
:10099000892BA1F080E090E0892B81F00E9400007B
:1009A00081110AC008950E945204D8CF0E9400000D
:1009B000E1CF0E940000EACF0C94000008951F923E
:1009C0000F920FB60F9211240BB60F922F933F93F5
:1009D0004F935F936F937F938F939F93AF93BF9347
:1009E000EF93FF9383ED93E00E945A02FF91EF9102
:1009F000BF91AF919F918F917F916F915F914F9137
:100A00003F912F910F900BBE0F900FBE0F901F9034
:100A100018951F920F920FB60F9211240BB60F92DA
:100A20002F938F939F93EF93FF93E091E303F091C4
:100A3000E4038081E091E903F091EA0382FD12C0B2
:100A400090818091EC038F5F8F732091ED0382176B
:100A500051F0E091EC03F0E0ED52FC4F958F809364
:100A6000EC0301C08081FF91EF919F918F912F91B5
:100A70000F900BBE0F900FBE0F901F9018951F92F6
:100A80000F920FB60F9211240BB60F922F933F9334
:100A90004F935F936F937F938F939F93AF93BF9386
:100AA000EF93FF938091B900887F803609F49CC052
:100AB00068F5883209F45BC090F4803109F454C0C1
:100AC00038F4882309F4F6C0883009F44DC0F6C024
:100AD000883109F44CC0803209F45DC0EFC0803425
:100AE00009F468C048F4803309F455C0883309F02C
:100AF000E5C080937E03D8C0803509F44FC08835A7
:100B000009F45DC0883409F0D9C0D6C0883909F429
:100B1000C7C0A8F4883709F467C038F4883609F4E8
:100B200063C0803709F460C0C9C0883809F4B8C010
:100B3000803909F45FC0803809F0C0C05BC0803BD9
:100B400009F486C038F4803A09F466C0883A09F49A
:100B50007FC0B4C0803C09F4A7C0883C09F4A4C09D
:100B6000883B09F48AC0AAC08091A10310C090916B
:100B7000A00380919F03981770F5E091A00381E096
:100B80008E0F8093A003F0E0E158FC4F80818093AA
:100B9000BB0085EC86C080937E038EC0E091A003ED
:100BA00081E08E0F8093A0038091BB00F0E0E158BC
:100BB000FC4F80839091A00380919F036EC0E091D1
:100BC000A00381E08E0F8093A0038091BB00F0E032
:100BD000E158FC4F80838091A30381116DC081E0B7
:100BE0008093A20384EA61C083E08093A4031092FF
:100BF0007D03CFCF80917D03803208F051C0E0911A
:100C00007D0381E08E0F80937D038091BB00F0E037
:100C1000E35AFC4F8083BDCF85EC8093BC001092DB
:100C2000A40380917D03803230F4E0917D03F0E0F5
:100C3000E35AFC4F108260917D0370E0E0915B030A
:100C4000F0915C038DE593E0199510927D0336C019
:100C500084E08093A40310925A0310925903E09108
:100C60005703F0915803199580915903811105C0DC
:100C700081E08093590310923703E0915A0381E099
:100C80008E0F80935A03F0E0E95CFC4F80818093E3
:100C9000BB0090915A0380915903981708F479CFBB
:100CA00085E88093BC000AC085EC8093BC0010925C
:100CB000A40304C010927E030E94E402FF91EF910E
:100CC000BF91AF919F918F917F916F915F914F9164
:100CD0003F912F910F900BBE0F900FBE0F901F9062
:100CE0001895FF920F931F93CF93DF931F92CDB769
:100CF000DEB78C01F62E962F907F692F642BC801EA
:100D000049830E94000480E1F89EB00111244981CA
:100D1000642BC8010F90DF91CF911F910F91FF902D
:100D20000C94000441E00E94710681E090E0089577
:100D30001F920F920FB60F9211240BB60F922F93A2
:100D40003F934F935F936F937F938F939F93AF9353
:100D5000BF93EF93FF93E091A903F091AA03199534
:100D6000FF91EF91BF91AF919F918F917F916F9183
:100D70005F914F913F912F910F900BBE0F900FBE3F
:100D80000F901F9018953FB7F8948091930490911D
:100D90009404A0919504B091960426B5A89B05C033
:100DA0002F3F19F00196A11DB11D3FBFBA2FA92FEA
:100DB000982F8827820F911DA11DB11DBC01CD0167
:100DC00042E0660F771F881F991F4A95D1F7089553
:100DD0000895CF92DF92EF92FF920F931F93CF93DC
:100DE000DF936C017A018B01C0E0D0E0CE15DF0506
:100DF00089F0D8016D918D01D601ED91FC910190A2
:100E0000F081E02DC6011995892B11F47E0102C0F5
:100E10002196ECCFC701DF91CF911F910F91FF90E9
:100E2000EF90DF90CF900895CF93DF93CDB7DEB7EB
:100E300028970FB6F894DEBF0FBECDBF98E0E8E468
:100E4000F2E0DE01119601900D929A95E1F79091F2
:100E50008B04981710F48FEF890FFE013196E80F7D
:100E6000F11DE80FF11D6081606840E082E894E0C8
:100E700028960FB6F894DEBF0FBECDBFDF91CF919D
:100E80000C94710640E061E082E894E00E947106F3
:100E90008BE39FE10197F1F70895362F90E0FC0175
:100EA000E859FD4F4491FC01EE5DFD4F2491FC019A
:100EB000E452FE4F9491992309F46BC0442309F442
:100EC00055C050E0FA013197E231F10508F04EC00B
:100ED0008827EE58FF4F8F4F0C9419138091800094
:100EE0008F7707C0809180008F7D03C08091800044
:100EF000877F809380003AC084B58F7702C084B525
:100F00008F7D84BD33C08091B0008F7703C0809106
:100F1000B0008F7D8093B00029C0809190008F77C2
:100F200007C0809190008F7D03C080919000877FE3
:100F3000809390001BC08091A0008F7707C08091A4
:100F4000A0008F7D03C08091A000877F8093A000C8
:100F50000DC0809120018F7707C0809120018F7D87
:100F600003C080912001877F80932001E92FF0E06A
:100F7000EE0FFF1FEE53FE4FA591B4918FB7F8947B
:100F8000EC91311103C020952E2301C02E2B2C9300
:100F90008FBF0895CF93DF9390E0FC01EE5DFD4F8E
:100FA0002491FC01E452FE4F8491882361F190E08A
:100FB000880F991FFC01E855FE4FC591D491FC01A3
:100FC000EE53FE4FA591B491611109C09FB7F894FB
:100FD0008881209582238883EC912E230BC0623078
:100FE00061F49FB7F8943881822F8095832388839A
:100FF000EC912E2B2C939FBF06C08FB7F894E881FD
:101000002E2B28838FBFDF91CF9108958F929F92CF
:10101000AF92BF92CF92DF92EF92FF926B017C0171
:101020000E94C3064B015C01C114D104E104F10428
:10103000F1F00E94C306DC01CB0188199909AA09C5
:10104000BB09883E9340A105B10570F321E0C21AA7
:10105000D108E108F10888EE880E83E0981EA11CF3
:10106000B11CC114D104E104F10419F7DDCFFF90E4
:10107000EF90DF90CF90BF90AF909F908F900895AA
:101080001F920F920FB60F9211242F933F938F93BD
:101090009F93AF93BF9380918F0490919004A09100
:1010A0009104B091920430918E0423E0230F2D37E8
:1010B00020F40196A11DB11D05C026E8230F02965C
:1010C000A11DB11D20938E0480938F0490939004F2
:1010D000A0939104B093920480919304909194040E
:1010E000A0919504B09196040196A11DB11D809325
:1010F000930490939404A0939504B0939604BF91A5
:10110000AF919F918F913F912F910F900FBE0F90B4
:101110001F9018951F920F920FB60F9211240BB6C5
:101120000F922F933F934F935F936F937F938F9380
:101130009F93AF93BF93EF93FF93E0911402F091CD
:1011400015021995FF91EF91BF91AF919F918F91EA
:101150007F916F915F914F913F912F910F900BBEB7
:101160000F900FBE0F901F9018951F920F920FB601
:101170000F9211240BB60F922F933F934F935F93CF
:101180006F937F938F939F93AF93BF93EF93FF934F
:10119000E0911202F09113021995FF91EF91BF9126
:1011A000AF919F918F917F916F915F914F913F91FF
:1011B0002F910F900BBE0F900FBE0F901F901895A0
:1011C0001F920F920FB60F9211240BB60F922F930E
:1011D0003F934F935F936F937F938F939F93AF93BF
:1011E000BF93EF93FF93E0910802F09109021995E4
:1011F000FF91EF91BF91AF919F918F917F916F91EF
:101200005F914F913F912F910F900BBE0F900FBEAA
:101210000F901F9018951F920F920FB60F921124E6
:101220000BB60F922F933F934F935F936F937F93E0
:101230008F939F93AF93BF93EF93FF93E091060239
:10124000F09107021995FF91EF91BF91AF919F9196
:101250008F917F916F915F914F913F912F910F905F
:101260000BBE0F900FBE0F901F9018951F920F92FC
:101270000FB60F9211240BB60F922F933F934F93FB
:101280005F936F937F938F939F93AF93BF93EF93EE
:10129000FF93E0911002F09111021995FF91EF91E7
:1012A000BF91AF919F918F917F916F915F914F917E
:1012B0003F912F910F900BBE0F900FBE0F901F907C
:1012C00018951F920F920FB60F9211240BB60F9222
:1012D0002F933F934F935F936F937F938F939F933E
:1012E000AF93BF93EF93FF93E0910E02F0910F0243
:1012F0001995FF91EF91BF91AF919F918F917F9140
:101300006F915F914F913F912F910F900BBE0F9076
:101310000FBE0F901F9018951F920F920FB60F924D
:1013200011240BB60F922F933F934F935F936F93BC
:101330007F938F939F93AF93BF93EF93FF93E0912E
:101340000C02F0910D021995FF91EF91BF91AF91B1
:101350009F918F917F916F915F914F913F912F91CD
:101360000F900BBE0F900FBE0F901F9018951F92FD
:101370000F920FB60F9211240BB60F922F933F933B
:101380004F935F936F937F938F939F93AF93BF938D
:10139000EF93FF93E0910A02F0910B021995FF91F0
:1013A000EF91BF91AF919F918F917F916F915F91DD
:1013B0004F913F912F910F900BBE0F900FBE0F904A
:1013C0001F9018950F931F93CF93DF93EC018881A3
:1013D0009981009729F02A813B812617370788F4E5
:1013E0008B016F5F7F4F0E944E14009761F09983CD
:1013F00088831B830A832C813D81232B11F4FC01FC
:10140000108281E001C080E0DF91CF911F910F91A8
:101410000895EF92FF920F931F93CF93DF93EC0108
:101420007B018A01BA010E94E20928813981811178
:101430000DC02115310519F0C9010E94B61319829A
:1014400018821D821C821B821A8206C01D830C8397
:10145000B701C9010E944515CE01DF91CF911F91BF
:101460000F91FF90EF900895DC01ED91FC910190B8
:10147000F081E02D19946115710579F0FB0101905F
:101480000020E9F73197AF01461B570BDC01ED91C6
:10149000FC910280F381E02D199480E090E00895A2
:1014A000CF93DF93BC0183ED93E00E943B0AEC01F4
:1014B00066EE72E083ED93E00E943B0A8C0F9D1F65
:1014C000DF91CF9108954F925F926F927F92EF924A
:1014D000FF920F931F93CF93DF93CDB7DEB7A19702
:1014E0000FB6F894DEBF0FBECDBF7C01FA01CB0171
:1014F00019A2223008F42AE08E010F5D1F4F422E00
:10150000512C612C712CBF01A30192010E94F71292
:10151000F901CA01015011096A3014F4605D01C07B
:10152000695CD8016C93232B242B252B61F7B80120
:10153000C7010E943B0AA1960FB6F894DEBF0FBE0A
:10154000CDBFDF91CF911F910F91FF90EF907F90D2
:101550006F905F904F9008954F925F926F927F923D
:101560008F929F92AF92BF92CF92DF92EF92FF92B3
:101570006B017C01B42E9B01AC010E94F212882306
:1015800019F06CEF72E027C026013701E89477F874
:101590002FEF3FEF4FE75FE7C301B2010E94F21266
:1015A00081110DC02FEF3FEF4FE75FE7C301B2019D
:1015B0000E94BB1018161CF460E073E00CC02FEF03
:1015C0003FEF4FE75FE4C701B6010E94ED12181626
:1015D00094F464E073E082E894E0FF90EF90DF9091
:1015E000CF90BF90AF909F908F907F906F905F90C3
:1015F0004F900C943B0A2FEF3FEF4FE75FECC70192
:10160000B6010E94BB1087FDE4CF20E030E0A901C5
:10161000C701B6010E94BB1087FF0BC06DE282E8D4
:1016200094E00E94340A4C01F7FAF094F7F8F09431
:1016300002C0812C912CA12C60E070E080E09FE33F
:10164000AB1441F020E030E040E251E40E944C1243
:10165000A394F6CF9B01AC01C701B6010E94E01133
:101660002B013C010E94BE126B017C010E94C01044
:101670009B01AC01C301B2010E94DF112B013C01AF
:101680002AE0B701A60182E894E00E94630A7C0187
:10169000E80CF91CBB2039F06EE282E894E00E946D
:1016A000340AE80EF91EDB2CDD2031F120E030E0B9
:1016B00040E251E4C301B2010E9421112B013C011F
:1016C0000E94BE124B01A12CB12C2AE0B501A4014D
:1016D00082E894E00E94630AE80EF91EC501B40195
:1016E0000E94C0109B01AC01C301B2010E94DF1136
:1016F0002B013C01DA94D8CFC701FF90EF90DF9027
:10170000CF90BF90AF909F908F907F906F905F90A1
:101710004F900895CF93DF93AC0160E070E02AE032
:1017200083ED93E00E94630AEC0166EE72E083EDC4
:1017300093E00E943B0A8C0F9D1FDF91CF9108958B
:101740000C943B0ACF93DF9300D01F92CDB7DEB746
:10175000789484B5826084BD84B5816084BD85B58C
:10176000826085BD85B5816085BD80916E00816098
:1017700080936E001092810080918100826080933E
:101780008100809181008160809381008091800040
:101790008160809380008091B10084608093B1006B
:1017A0008091B00081608093B00080919100826050
:1017B000809391008091910081608093910080914D
:1017C00090008160809390008091A100826080935E
:1017D000A1008091A10081608093A1008091A00070
:1017E00081608093A000809121018260809321011B
:1017F000809121018160809321018091200181608D
:101800008093200180917A00846080937A00809197
:101810007A00826080937A0080917A008160809360
:101820007A0080917A00806880937A001092C100DB
:10183000E091E303F091E40382E08083E091DF0331
:10184000F091E0031082E091E103F091E2038FEC6C
:1018500080831092EB03E091E703F091E80386E0C8
:101860008083E091E503F091E603808180618083CD
:10187000E091E503F091E603808188608083E09148
:10188000E503F091E603808180688083E091E503C1
:10189000F091E60380818F7D80838CE892E00E9446
:1018A000500A8BE090E00E948A0B8BE090E09093CE
:1018B000AF038093AE031092B5031092B40310925D
:1018C000CF031092CE0380E090E02091CE033091C0
:1018D000CF032B30310510F5E091CE03F091CF030B
:1018E000EE0FFF1FEE5CFD4F2081318182179307C1
:1018F00050F4E091CE03F091CF03EE0FFF1FEE5CAA
:10190000FD4F808191812091CE033091CF032F5FD5
:101910003F4F3093CF032093CE03D7CF9093B5039F
:101920008093B4030E948A0B1092CF031092CE03CF
:101930008091B4039091B5038053984F9093B30373
:101940008093B20380E1809381001092800011E0C7
:101950001093AD0380E49FE19093AC038093AB03BD
:10196000909387008093860081E1809381008CE8CA
:1019700091E09093AA038093A90310936F0068EC01
:1019800070E08CE794E00E94E20960E084E00E944D
:10199000CA0760E084E00E944D0782EB91E09093DB
:1019A00009028093080280916A008C6080936A002B
:1019B000ED9A89E092E0909307028093060280916D
:1019C0006A008C7F826080936A00EC9A61E089E211
:1019D0000E94CA0760E089E20E944D0761E087E249
:1019E0000E94CA0760E087E20E944D0761E08AE238
:1019F0000E94CA0760E08AE20E944D0761E08DE222
:101A00000E94CA0760E08DE20E944D0761E088E213
:101A10000E94CA0760E088E20E944D071092A80366
:101A20001092A7031092A6031092A5031092A4038C
:101A30001093A3031092A20361E084E10E944D077A
:101A400061E085E10E944D078091B9008E7F80930F
:101A5000B9008091B9008D7F8093B90088E48093AC
:101A6000B80085E48093BC001092870480918B04B9
:101A7000823018F098E09093870490918C04992319
:101A800039F0813029F48091870484608093870441
:101A900062E370E080E090E00E94060860918D04AF
:101AA00082E894E00E949B0368EE73E080E090E09F
:101AB0000E94060860E382E894E00E9400040BE4C0
:101AC00016E4C8010197F1F760E382E894E00E9410
:101AD0000004C8010197F1F760E382E894E00E94F6
:101AE000000483E592E00197F1F760E282E894E078
:101AF0000E94000460918704606240E082E894E004
:101B00000E94710684E08093880440E06CE082E8E3
:101B100094E00E9471060E94420782E0809389044B
:101B200040E066E082E894E00E94710640E062E0F6
:101B300082E894E00E9471068BE39FE10197F1F740
:101B40001092BF0380E00E94140767E972E082E808
:101B500094E00E94A00B81E00E9414076CE872E000
:101B600082E894E00E94A00B60ED77E080E090E0D6
:101B70000E9406080E9442076091BB037091BC035B
:101B80008091BD039091BE03209101023091020229
:101B9000409103025091040229833A834B835C8372
:101BA0000E94C21029813A814B815C810E942111DF
:101BB0006093C0037093C1038093C2039093C303E7
:101BC00080E00E9414076091C0037091C10380916E
:101BD000C2039091C30342E00E94AC0A69EA72E03A
:101BE00082E894E00E94A00B81E00E9414076CEA56
:101BF00072E082E894E00E94A00B0FB6F894A895DA
:101C000080916000886180936000109260000FBE38
:101C100099E288E10FB6F894A895809360000FBE12
:101C20009093600011E08091D203882309F44BC0A7
:101C300080910502882309F446C010920502109293
:101C4000D20386EB92E00E94500A1093D1031093C6
:101C5000D0031092CF031092CE031092CD031092B6
:101C6000CC031092CB031092CA031092C6031092B9
:101C7000C7031092C8031092C9031092C5031092B3
:101C8000C4031092C0031092C1031092C2031092B9
:101C9000C3031093BF031092BB031092BC031092B6
:101CA000BD031092BE031092B7031092B8031092B6
:101CB000B9031092BA031092C5031092C40361E0F5
:101CC00087E20E944D078091BF03882309F44FC02B
:101CD0000E9442076091B7037091B8038091B903E5
:101CE0009091BA03209101023091020240910302C7
:101CF0005091040229833A834B835C830E94C21073
:101D000029813A814B815C810E9421116093C0033B
:101D10007093C1038093C2039093C30380E00E9439
:101D200014076091C0037091C1038091C203909128
:101D3000C30342E00E94AC0A69EA72E082E894E0E0
:101D40000E94A00B1092BF038091B103882331F051
:101D500081E00E94140764EC72E005C081E00E94FB
:101D600014076CEA72E082E894E00E94A00B809174
:101D7000D003882331F08091CE039091CF030E944D
:101D80001D048091D103882309F461C02091CC0304
:101D90003091CD03E091CE03F091CF03EE0FFF1F02
:101DA000EE5CFD4F808191818217930708F04FC050
:101DB0002091CE033091CF038091AE039091AF0379
:101DC0008217930708F443C08091CE039091CF030C
:101DD0000E941D0469EE72E083ED93E00E94A00B67
:101DE0008091CE039091CF030E948A0B6DEE72E03A
:101DF00083ED93E00E94A00BE091CE03F091CF031E
:101E0000EE0FFF1FEE5CFD4F808191810E948A0BD7
:101E10008091CE039091CF0301969093CF0380934E
:101E2000CE031093B0031092C6031092C703109212
:101E3000C8031092C9038091D003882341F0109207
:101E4000BB031092BC031092BD031092BE0380919D
:101E5000D003882309F4D6C08091B6039091B003D3
:101E6000992309F4CDC061E08823E1F18AE20E9460
:101E70004D0761E08DE20E944D078091BB03909178
:101E8000BC03A091BD03B091BE03181619061A0633
:101E90001B064CF48091BB039091BC03A091BD0341
:101EA000B091BE030FC08091BB039091BC03A09181
:101EB000BD03B091BE03B095A095909581959F4FBD
:101EC000AF4FBF4F0297A105B1050CF49BC0109214
:101ED000BB031092BC031092BD031092BE038FECA3
:101EE00092E033C08AE20E944D0761E088E20E94DE
:101EF0004D078091BB039091BC03A091BD03B091AD
:101F0000BE03181619061A061B064CF48091BB0373
:101F10009091BC03A091BD03B091BE030FC080910E
:101F2000BB039091BC03A091BD03B091BE03B095DB
:101F3000A095909581959F4FAF4FBF4F0297A105F8
:101F4000B1050CF45FC085ED92E00E94500A0E943A
:101F500044041092B0038091BB039091BC03A09104
:101F6000BD03B091BE03181619061A061B064CF4E1
:101F70008091BB039091BC03A091BD03B091BE03BF
:101F80000FC08091BB039091BC03A091BD03B091A1
:101F9000BE03B095A095909581959F4FAF4FBF4FD1
:101FA0000397A105B10574F12091C4033091C503D5
:101FB0008091BB039091BC03A091BD03B091BE037F
:101FC000181619061A061B064CF48091BB03909153
:101FD000BC03A091BD03B091BE030BC08091BB03B5
:101FE0009091BC03A091BD03B091BE0391958195E2
:101FF0009109820F931F9093C5038093C40302C07D
:102000000E9444042091CC033091CD038091B4030D
:102010009091B50382179307A8F51092CD03109203
:10202000CC031092D1031092D0038BED92E00E946A
:10203000500AC090C403D090C5030D2C000CEE08CC
:10204000FF08F7FE0EC06DE283ED93E00E94340AB4
:1020500044275527BA014C195D096E097F092AE00A
:1020600003C02AE0B701A60183ED93E00E94630A52
:1020700066EE72E083ED93E00E943B0A0E94440406
:102080001093BF032091CA033091CB038091B20318
:102090009091B3038217930760F460E087E20E9497
:1020A0004D07109305021092CB031092CA031092B1
:1020B000B103A8950E94AA04B6CD80917C049091AA
:1020C0007D040C94B613E3EDF3E01382128288EEE4
:1020D00093E0A0E0B0E084839583A683B78324E5F2
:1020E00032E03183208325EC30E03587248724ECEF
:1020F00030E03787268720EC30E0318B208B21ECD5
:1021000030E0338B228B22EC30E0358B248B26ECB5
:1021100030E0378B268B118E128E138E148EE0E7F3
:10212000F4E01382128284839583A683B78386E6C4
:1021300092E091838083E2E8F4E01382128288E7E0
:1021400092E09183808387E2848384E1808784E0C6
:102150008187128688E08387ECE7F4E011821082A1
:10216000138212821582148240E050E068EE72E021
:10217000CF010C94090A0E94FD1008F481E0089533
:10218000E89409C097FB3EF4909580957095619511
:102190007F4F8F4F9F4F9923A9F0F92F96E9BB27C7
:1021A0009395F695879577956795B795F111F8CF43
:1021B000FAF4BB0F11F460FF1BC06F5F7F4F8F4FAE
:1021C0009F4F16C0882311F096E911C0772321F0A4
:1021D0009EE8872F762F05C0662371F096E8862F3C
:1021E00070E060E02AF09A95660F771F881FDAF793
:1021F000880F9695879597F90895990F0008550FC0
:10220000AA0BE0E8FEEF16161706E807F907C0F07C
:1022100012161306E407F50798F0621B730B840B84
:10222000950B39F40A2661F0232B242B252B21F45E
:1022300008950A2609F4A140A6958FEF811D811DFE
:1022400008950E9434110C94A5110E94971138F042
:102250000E949E1120F0952311F00C948E110C9485
:10226000941111240C94D9110E94B61170F3959F0A
:10227000C1F3950F50E0551F629FF001729FBB277D
:10228000F00DB11D639FAA27F00DB11DAA1F649F19
:102290006627B00DA11D661F829F2227B00DA11DCC
:1022A000621F739FB00DA11D621F839FA00D611D52
:1022B000221F749F3327A00D611D231F849F600D73
:1022C000211D822F762F6A2F11249F5750409AF09C
:1022D000F1F088234AF0EE0FFF1FBB1F661F771F28
:1022E000881F91505040A9F79E3F510580F00C94F3
:1022F0008E110C94D9115F3FE4F3983ED4F3869588
:1023000077956795B795F795E7959F5FC1F7FE2B92
:10231000880F911D9695879597F9089597F99F676E
:1023200080E870E060E008959FEF80EC089500245D
:102330000A941616170618060906089500240A942A
:1023400012161306140605060895092E0394000CB0
:1023500011F4882352F0BB0F40F4BF2B11F460FF3F
:1023600004C06F5F7F4F8F4F9F4F089557FD905868
:10237000440F551F59F05F3F71F04795880F97FB49
:10238000991F61F09F3F79F0879508951216130603
:102390001406551FF2CF4695F1DF08C01616170632
:1023A0001806991FF1CF8695710561050894089567
:1023B000E894BB2766277727CB0197F908955058F3
:1023C000BB27AA270E94F7110C94A5110E94971110
:1023D00038F00E949E1120F039F49F3F19F426F442
:1023E0000C9494110EF4E095E7FB0C948E11E92FF8
:1023F0000E94B61158F3BA1762077307840795074E
:1024000020F079F4A6F50C94D8110EF4E0950B2E7B
:10241000BA2FA02D0B01B90190010C01CA01A00136
:102420001124FF27591B99F0593F50F4503E68F191
:102430001A16F040A22F232F342F4427585FF3CFD2
:10244000469537952795A795F0405395C9F77EF4A3
:102450001F16BA0B620B730B840BBAF09150A1F0EC
:10246000FF0FBB1F661F771F881FC2F70EC0BA0F72
:10247000621F731F841F48F4879577956795B795FA
:10248000F7959E3F08F0B0CF9395880F08F09927F5
:10249000EE0F9795879508950E9460120C94A511F0
:1024A0000E949E1158F00E94971140F029F45F3F5E
:1024B00029F00C948E1151110C94D9110C94941193
:1024C0000E94B61168F39923B1F3552391F3951B3C
:1024D000550BBB27AA2762177307840738F09F5F45
:1024E0005F4F220F331F441FAA1FA9F335D00E2EB2
:1024F0003AF0E0E832D091505040E695001CCAF71F
:102500002BD0FE2F29D0660F771F881FBB1F2617E1
:1025100037074807AB07B0E809F0BB0B802DBF01B8
:10252000FF2793585F4F3AF09E3F510578F00C9487
:102530008E110C94D9115F3FE4F3983ED4F3869545
:1025400077956795B795F7959F5FC9F7880F911DA8
:102550009695879597F90895E1E0660F771F881F94
:10256000BB1F621773078407BA0720F0621B730B47
:10257000840BBA0BEE1F88F7E09508950E94BE11F8
:1025800088F09F5798F0B92F9927B751B0F0E1F034
:10259000660F771F881F991F1AF0BA95C9F714C0E4
:1025A000B13091F00E94D811B1E008950C94D81187
:1025B000672F782F8827B85F39F0B93FCCF386951D
:1025C00077956795B395D9F73EF49095809570957A
:1025D00061957F4F8F4F9F4F08950E94FD1008F423
:1025E0008FEF08950E94FD10880B990B0895A1E2CA
:1025F0001A2EAA1BBB1BFD010DC0AA1FBB1FEE1F7D
:10260000FF1FA217B307E407F50720F0A21BB30BC7
:10261000E40BF50B661F771F881F991F1A9469F743
:1026200060957095809590959B01AC01BD01CF019F
:102630000895EE0FFF1F881F8BBF0790F691E02DC6
:102640001994CF93DF938230910510F482E090E0EB
:10265000E0919904F0919A0420E030E0C0E0D0E0ED
:10266000309711F14081518148175907C0F0481740
:10267000590761F482819381209719F09B838A83A3
:102680002BC090939A048093990426C0211531059C
:1026900019F04217530718F49A01BE01DF01EF0148
:1026A0000280F381E02DDCCF2115310509F1281BD3
:1026B000390B2430310590F412968D919C9113972B
:1026C0006115710521F0FB019383828304C090930F
:1026D0009A0480939904FD01329644C0FD01E20FF3
:1026E000F31F81939193225031092D933C933AC06B
:1026F0002091970430919804232B41F420911802E3
:102700003091190230939804209397042091160277
:10271000309117022115310541F42DB73EB7409194
:102720001A0250911B02241B350BE0919704F09183
:102730009804E217F307A0F42E1B3F0B2817390764
:1027400078F0AC014E5F5F4F2417350748F04E0F0D
:102750005F1F50939804409397048193919302C014
:10276000E0E0F0E0CF01DF91CF9108950F931F9348
:10277000CF93DF93009709F48CC0FC01329713824A
:1027800012820091990410919A040115110581F4A7
:1027900020813181820F931F2091970430919804FA
:1027A0002817390779F5F0939804E093970471C0DE
:1027B000D80140E050E0AE17BF0750F412962D91BB
:1027C0003C911397AD012115310509F1D901F3CFE2
:1027D0009D01DA013383228360817181860F971F07
:1027E0008217930769F4EC0128813981260F371F7E
:1027F0002E5F3F4F318320838A819B819383828325
:10280000452B29F4F0939A04E093990442C013965F
:10281000FC93EE931297ED01499159919E01240F7B
:10282000351FE217F30771F480819181840F951FA2
:10283000029611969C938E938281938113969C931A
:102840008E931297E0E0F0E0D80112968D919C9162
:102850001397009719F0F8018C01F6CF8D919C9198
:1028600098012E5F3F4F820F931F20919704309164
:1028700098042817390769F4309729F410929A04BC
:102880001092990402C0138212821093980400934C
:102890009704DF91CF911F910F9108956F927F92CE
:1028A0008F929F92AF92BF92CF92DF92EF92FF9260
:1028B0000F931F93CF93DF93EC01009789F4CB0123
:1028C000DF91CF911F910F91FF90EF90DF90CF900C
:1028D000BF90AF909F908F907F906F900C9421133A
:1028E000FC01E60FF71F9C0122503109E217F307A4
:1028F00008F4ACC0D9010D911C9111970617170768
:10290000B0F00530110508F49FC0C8010497861780
:10291000970708F499C002501109061B170B019381
:1029200011936D937C93CF010E94B6138DC05B0110
:10293000A01AB10A4C01800E911EA0919904B09189
:102940009A0440E050E0E12CF12C109709F44AC0C1
:10295000A815B905D1F56D907C901197630182E0BF
:10296000C80ED11CCA14DB0480F1A3014A195B090B
:102970006A0182E0C80ED11C1296BC901297139681
:10298000AC91B5E0CB16D10440F0B282A383518361
:102990004083D9016D937C930AC00E5F1F4FC30122
:1029A000800F911FF90191838083EB2DFA2FE114A1
:1029B000F10431F0D7011396FC93EE93129744C0C3
:1029C000F0939A04E09399043FC08D919C911197E4
:1029D0004817590708F4AC017D0112960D90BC917F
:1029E000A02DB3CF809197049091980488159905F4
:1029F000E1F446175707C8F4809116029091170228
:102A0000009741F48DB79EB740911A0250911B0276
:102A1000841B950BE817F907C8F4F0939804E0932A
:102A20009704F901718360830FC0CB010E942113C9
:102A30007C01009759F0A801BE010E943C15CE010F
:102A40000E94B613C70104C0CE0102C080E090E02E
:102A5000DF91CF911F910F91FF90EF90DF90CF907A
:102A6000BF90AF909F908F907F906F90089581E07E
:102A700090E0F8940C944C15FB01DC0102C001902D
:102A80000D9241505040D8F70895FB01DC010190B0
:102A90000D920020E1F7089511E0C8E5D1E000E0D3
:102AA00006C0802FFE010E9419132196011DC93511
:0C2AB000D10780E00807A9F7F894FFCFD9
:102ABC000194D9A03E01E806E806E806E806E80617
:102ACC00E806E806E80600009B04800000008F0280
:102ADC001E05AD073C0ACB0C3C0AAD071E058F0248
:102AEC000000000056136E233A2FBC39F244B85B39
:102AFC000C67C071D27D4E8E000040001400540053
:102B0C00000000007B02E9061302C202440222020A
:102B1C003602000000006C033C031A041603340355
:102B2C0025031703000000009206E9061A04190495
:102B3C00000000005004E9061A0419044269656E8D
:102B4C0076656E69646F0050726F6772616D61209B
:102B5C00526F6C61646F7261006D6D0045737065CE
:102B6C0072616E646F00527574696E61456E636F4D
:102B7C0064657200456A65637574616E646F0053B9
:102B8C00756269720042616A6172005465726D69A6
:102B9C006E616D6F73000D0A00693D20005469650C
:102BAC006D706F41637475616C3D20006E616E00D9
:082BBC00696E66006F76660089
:00000001FF
