:100000000C9466010C94E4090C94B9090C948E09C3
:100010000C9463090C9438090C940D090C94E208B3
:100020000C94B7080C9497010C9497010C949701C9
:100030000C9497010C9497010C9497010C949701E0
:100040000C9497010C9497010C9497010C949701D0
:100050000C948C060C9497010C9497010C946D08E9
:100060000C9497010C947F040C9455040C94970104
:100070000C9497010C9497010C9497010C949701A0
:100080000C9497010C9497010C9497010C94970190
:100090000C9497010C9497010C9497010C94B5045F
:1000A0000C9497010C9497010C9497010C94970170
:1000B0000C9497010C9497010C9497010C94970160
:1000C0000C9497010C9497010C9497010C94970150
:1000D0000C9497010C9497010C9497010C94970140
:1000E0000C949701D206D506C406C806CE060C07A6
:1000F000D906DD06E306E706EB06F106F506F90686
:100100000C07FF06030707070C94F9060C9422035B
:100110000C94F2020C94D2060C940C070C949D02E1
:100120000C94D5060C94DD060C94C4060C940307BD
:100130000C94D0100C94D6100C9425030C94CA0384
:100140000C94E7060C94BA020C94CE060C94860626
:100150000C94C8060C9407070C94AB020C94CA01CB
:100160000C9421030C9442030C94F1060C949C0211
:100170000C9499010C94EB060C9448020C94BC016D
:100180000C94A8010C94FF060C94D9060C9401025F
:100190000C94C2020C9405040C943A070C94320798
:1001A0000C94E3060C94F5060000210024002700BF
:1001B0002A002D0030003300010100000401070176
:1001C0000A0100002200250028002B002E0031002B
:1001D000340002010000050108010B0100002000AD
:1001E0002300260029002C002F003200000100000F
:1001F00003010601090105050505070508080808AA
:10020000020202020A0A08080404040401010101AE
:1002100001010101030303030303030304070707A9
:100220000C0C0C0C0C0C0C0C02020202060606064E
:10023000060606060B0B0B0B0B0B0B0B010210201B
:10024000200808102040102040800201020108040C
:1002500002010102040810204080804020100804A0
:1002600002018004020180402010080402010804F9
:10027000020101020408102040800102040810203D
:10028000408000000A0B02090C0D0E080703040150
:10029000000000000000000000000000000000005E
:1002A000000000000000000000000000000012112B
:1002B000100000000000000000000000000000002E
:1002C0000000000000000000D610D01011241FBE56
:1002D000CFEFD1E2DEBFCDBF00E00CBF24E0AAED3E
:1002E000B2E001C01D92A736B207E1F712E0A0E02C
:1002F000B2E0E4EBFBE200E00BBF02C007900D921E
:10030000AA3DB107D9F711E0C5E6D1E000E006C08B
:1003100021970109802FFE010E948C13C436D1075A
:1003200080E00807A9F70E94130C0C94C8150C94E0
:100330000000FC01538D448D252F30E0842F90E088
:10034000821B930B541710F0CF96089501970895D0
:10035000FC01918D828D981761F0828DDF01A80FCD
:10036000B11D5D968C91928D9F5F9F73928F90E0EF
:1003700008958FEF9FEF0895FC01918D828D98175E
:1003800031F0828DE80FF11D858D90E008958FEF9B
:100390009FEF0895FC01918D228D892F90E0805C64
:1003A0009F4F821B91098F73992708958FE993E0DE
:1003B0000E94CA0121E0892B09F420E0822F0895D0
:1003C000FC01848DDF01A80FB11DA35ABF4F2C91F2
:1003D000848D90E001968F739927848FA689B789C1
:1003E0002C93A089B1898C9180648C93938D848D9A
:1003F000981306C00288F389E02D80818F7D808369
:100400000895EF92FF920F931F93CF93DF93EC0128
:1004100081E0888F9B8D8C8D981305C0E889F989C0
:10042000808185FD24C0F62E0B8D10E00F5F1F4FDD
:100430000F731127E02E8C8DE8120CC00FB607FC4D
:10044000FACFE889F989808185FFF5CFCE010E9436
:10045000E001F1CF8B8DFE01E80FF11DE35AFF4F54
:10046000F0820B8FEA89FB898081806207C0EE8968
:10047000FF896083E889F98980818064808381E0D5
:1004800090E0DF91CF911F910F91FF90EF90089531
:10049000CF93DF93EC01888D8823C9F0EA89FB892B
:1004A000808185FD05C0A889B9898C9186FD0FC022
:1004B0000FB607FCF5CF808185FFF2CFA889B989F7
:1004C0008C9185FFEDCFCE010E94E001E7CFDF9157
:1004D000CF91089585ED8093BC008091BC0084FD90
:1004E000FCCF1092DC02089540915603262F30E095
:1004F000240F311D21323105DCF42091DC0224303F
:10050000C9F4FC0180E090E0861758F4309156035E
:100510002191DC01AC5CBC4FA30FB11D2C93019663
:10052000F3CF80915603680F6093560380E00895DF
:1005300081E0089582E00895089581E090E030918F
:10054000E0022091DF02321710F480E090E09195F4
:100550008195910908958091E0029091DF028917B9
:1005600030F48F5F8093E00280E090E008958FEF99
:100570009FEF08958091DF0290E02091E002821BBE
:1005800091090895CF92DF92EF92FF920F931F93FC
:10059000CF93DF937C01262F972F8A01809133031D
:1005A000882391F0C62FD72F6E01C40ED51ECC150F
:1005B000DD0571F06991D701ED91FC910190F08119
:1005C000E02DC7011995F3CF642F822F0E9474028A
:1005D000C801DF91CF911F910F91FF90EF90DF90B5
:1005E000CF900895CF93DF931F92CDB7DEB7698385
:1005F000209133032223D1F02091DD02203240F0FC
:1006000021E030E0FC013383228380E090E015C0DC
:100610008091DE02E82FF0E0ED5EFC4F998190833F
:100620008F5F8093DE028093DD0205C061E0CE0122
:1006300001960E94740281E090E00F90DF91CF91CB
:100640000895089580E090E0089580910F039091BF
:10065000100301969093100380930F038091E3029F
:100660009091E402A091E502B091E6020196A11DED
:10067000B11D8093E3029093E402A093E502B0934E
:10068000E60208950E94AA15FF920F931F93CF933D
:10069000DF931F921F92CDB7DEB78FE993E00E94E0
:1006A000CA01892BD1F18FE993E00E94A801F82EAD
:1006B00089831A8200914C0410914D040F5F1F4FE3
:1006C000B80188E494E00E942E0A882399F02091D2
:1006D00048043091490480914C0490914D04BE012E
:1006E0006F5F7F4F820F931F0E94C11510934D04BF
:1006F00000934C048DE0F81204C081E08093110354
:100700000CC080E2F81209C00F900F90DF91CF91DA
:100710001F910F91FF900C94800A0F900F90DF9122
:10072000CF911F910F91FF9008950E94D6018111E2
:1007300025C080E090E0892B41F080E090E0892B9B
:1007400021F00E94000081111CC080E090E0892B04
:1007500041F080E090E0892B21F00E94000081119F
:1007600013C080E090E0892BA1F080E090E0892B1D
:1007700081F00E94000081110AC008950E94440384
:10078000D8CF0E940000E1CF0E940000EACF0C9475
:100790000000089583E00E949E0721E0892B09F460
:1007A00020E020930E0380910E03882369F180B12D
:1007B00085FB882780F980930D0380910D038111BB
:1007C00003C081E090E002C08FEF9FEF4091E7020D
:1007D0005091E8026091E9027091EA02092E000C42
:1007E000AA0BBB0B840F951FA61FB71F8093E702B0
:1007F0009093E802A093E902B093EA029091EF028D
:1008000081E089278093EF0208950F931F9382E080
:100810000E949E0721E0892B09F420E020930E031B
:1008200080910E038823F1F180B183FB882780F942
:1008300080930C0380910C03811103C081E090E050
:1008400002C08FEF9FEF4091EB025091EC0260915C
:10085000ED027091EE02092E000CAA0BBB0B8A016F
:100860009B01081B190B2A0B3B0B0093EB02109307
:10087000EC022093ED023093EE029091F00281E0C1
:1008800089278093F0028091EB029091EC02A09175
:10089000ED02B091EE028C399F4FAF4FBF4F11F474
:1008A000109204021F910F9108951F920F920FB69C
:1008B0000F9211240BB60F922F933F934F935F9398
:1008C0006F937F938F939F93AF93BF93EF93FF9318
:1008D0008FE993E00E94E001FF91EF91BF91AF910A
:1008E0009F918F917F916F915F914F913F912F9148
:1008F0000F900BBE0F900FBE0F901F9018951F9278
:100900000F920FB60F9211240BB60F922F938F9365
:100910009F93EF93FF93E091AF03F091B003808139
:10092000E091B503F091B60382FD12C090818091F1
:10093000B8038F5F8F732091B903821751F0E09154
:10094000B803F0E0E156FC4F958F8093B80301C0E7
:100950008081FF91EF919F918F912F910F900BBE0E
:100960000F900FBE0F901F9018951F920F920FB609
:100970000F9211240BB60F922F933F934F935F93D7
:100980006F937F938F939F93AF93BF93EF93FF9357
:100990008091B900887F803609F49CC068F5883260
:1009A00009F45BC090F4803109F454C038F4882312
:1009B00009F4F6C0883009F44DC0F6C0883109F456
:1009C0004CC0803209F45DC0EFC0803409F468C0C7
:1009D00048F4803309F455C0883309F0E5C08093AA
:1009E0007B03D8C0803509F44FC0883509F45DC059
:1009F000883409F0D9C0D6C0883909F4C7C0A8F432
:100A0000883709F467C038F4883609F463C0803742
:100A100009F460C0C9C0883809F4B8C0803909F445
:100A20005FC0803809F0C0C05BC0803B09F486C05D
:100A300038F4803A09F466C0883A09F47FC0B4C03B
:100A4000803C09F4A7C0883C09F4A4C0883B09F4A1
:100A50008AC0AAC080919E0310C090919D0380918E
:100A60009C03981770F5E0919D0381E08E0F8093B1
:100A70009D03F0E0E458FC4F80818093BB0085EC3F
:100A800086C080937B038EC0E0919D0381E08E0F32
:100A900080939D038091BB00F0E0E458FC4F80837D
:100AA00090919D0380919C036EC0E0919D0381E035
:100AB0008E0F80939D038091BB00F0E0E458FC4FC3
:100AC00080838091DB0281116DC081E08093DA0226
:100AD00084EA61C083E08093DC0210927A03CFCF76
:100AE00080917A03803208F051C0E0917A0381E06E
:100AF0008E0F80937A038091BB00F0E0E65AFC4FA2
:100B00008083BDCF85EC8093BC001092DC02809185
:100B10007A03803230F4E0917A03F0E0E65AFC4F39
:100B2000108260917A0370E0E0915803F0915903CC
:100B30008AE593E0199510927A0336C084E0809399
:100B4000DC021092570310925603E0915403F09187
:100B50005503199580915603811105C081E080935A
:100B6000560310923403E091570381E08E0F809377
:100B70005703F0E0EC5CFC4F80818093BB009091C8
:100B8000570380915603981708F479CF85E880932E
:100B9000BC000AC085EC8093BC001092DC0204C04B
:100BA00010927B030E946A02FF91EF91BF91AF9177
:100BB0009F918F917F916F915F914F913F912F9175
:100BC0000F900BBE0F900FBE0F901F901895CF93F4
:100BD000FC01C48121E020933303C09312031092DF
:100BE000DE021092DD028385682B8CE394E00E9484
:100BF000F2028091DD02813208F046C09091DC0261
:100C00009111FCCF92E09093DC0291E09093DB0293
:100C10009FEF90937B0310929D0380939C03A3E12D
:100C2000B3E02CE733E0F9019E2F921B981718F4DC
:100C30009D919193F9CF10929E0380919E03CC0FCA
:100C4000C82BC0939E038091DA02813061F4109228
:100C5000DA0280919E038093BB008091BC0083FDEB
:100C6000F8CF85EC01C085EE8093BC008091DC025A
:100C70008230E1F380917B038F3F31F080917B03E1
:100C8000803211F080917B031092DE021092DD021F
:100C900010923303CF9108950F931F93CF938C013C
:100CA000C62F0E94E7056C2F6460C8010E94E7050B
:100CB0006C2F6B7FC8010E94E70583EC90E00197E1
:100CC000F1F7CF911F910F910895FF920F931F930A
:100CD000CF93DF931F92CDB7DEB78C01F62E962F00
:100CE000907F692F642BC80149830E944C0680E1E4
:100CF000F89EB00111244981642BC8010F90DF9147
:100D0000CF911F910F91FF900C944C0641E00E94EF
:100D1000650681E090E008951F920F920FB60F9242
:100D200011240BB60F922F933F934F935F936F93C2
:100D30007F938F939F93AF93BF93EF93FF93E09134
:100D4000E102F091E2021995FF91EF91BF91AF910D
:100D50009F918F917F916F915F914F913F912F91D3
:100D60000F900BBE0F900FBE0F901F90189590E044
:100D7000FC013197E231F10508F04EC08827EE58AA
:100D8000FF4F8F4F0C948C13809180008F7703C09E
:100D9000809180008F7D80938000089580918000F5
:100DA000877FF9CF84B58F7702C084B58F7D84BDEE
:100DB00008958091B0008F7703C08091B0008F7D3F
:100DC0008093B0000895809190008F7707C0809144
:100DD00090008F7D03C080919000877F809390006A
:100DE00008958091A0008F7707C08091A0008F7D2B
:100DF00003C08091A000877F8093A0000895809118
:100E000020018F7707C0809120018F7D03C08091E2
:100E10002001877F8093200108953FB7F894809147
:100E20005F0490916004A0916104B091620426B5C2
:100E3000A89B05C02F3F19F00196A11DB11D3FBF12
:100E4000BA2FA92F982F8827820F911DA11DB11DA0
:100E5000BC01CD0142E0660F771F881F991F4A959C
:100E6000D1F708950895DC01ED91FC910190F08196
:100E7000E02D1994CF92DF92EF92FF920F931F9380
:100E8000CF93DF936C017A018B01C0E0D0E0CE15E7
:100E9000DF0589F0D8016D918D01D601ED91FC91AE
:100EA0000190F081E02DC6011995892B11F47E0186
:100EB00002C02196ECCFC701DF91CF911F910F9116
:100EC000FF90EF90DF90CF90089540E061E08EE4D6
:100ED00094E00E9465068BE39FE10197F1F7089586
:100EE000CF93DF93CDB7DEB728970FB6F894DEBF68
:100EF0000FBECDBF98E0E1E5F2E0DE011196019072
:100F00000D929A95E1F790915704981710F48FEF8E
:100F1000890FFE013196E80FF11DE80FF11D608188
:100F2000606840E08EE494E028960FB6F894DEBF47
:100F30000FBECDBFDF91CF910C946506CF93DF93A9
:100F4000282F30E0F901EE57FD4F8491F901E45C60
:100F5000FD4FD491F901EA50FE4FC491CC2391F09A
:100F600081110E94B706EC2FF0E0EE0FFF1FE45254
:100F7000FE4FA591B491EC91ED2381E090E021F436
:100F800080E002C080E090E0DF91CF9108951F9350
:100F9000CF93DF93282F30E0F901EE57FD4F849176
:100FA000F901E45CFD4FD491F901EA50FE4FC49180
:100FB000CC23C9F0162F81110E94B706EC2FF0E068
:100FC000EE0FFF1FEE53FE4FA591B4918FB7F8942B
:100FD000111105C09C91ED2FE095E92302C0EC9121
:100FE000ED2BEC938FBFDF91CF911F910895CF939D
:100FF000DF9390E0FC01E45CFD4F2491FC01EA509A
:10100000FE4F8491882361F190E0880F991FFC01C5
:10101000E855FE4FC591D491FC01EE53FE4FA591CA
:10102000B491611109C09FB7F894888120958223FB
:101030008883EC912E230BC0623061F49FB7F89443
:101040003881822F809583238883EC912E2B2C93DB
:101050009FBF06C08FB7F894E8812E2B28838FBFDF
:10106000DF91CF9108958F929F92AF92BF92CF92CE
:10107000DF92EF92FF926B017C010E940D074B0102
:101080005C01C114D104E104F104F1F00E940D07E8
:10109000DC01CB0188199909AA09BB09883E934054
:1010A000A105B10570F321E0C21AD108E108F108E9
:1010B00088EE880E83E0981EA11CB11CC114D104D7
:1010C000E104F10419F7DDCFFF90EF90DF90CF90AE
:1010D000BF90AF909F908F9008951F920F920FB680
:1010E0000F9211242F933F938F939F93AF93BF93AE
:1010F00080915B0490915C04A0915D04B0915E04CA
:1011000030915A0423E0230F2D3720F40196A11DBE
:10111000B11D05C026E8230F0296A11DB11D209325
:101120005A0480935B0490935C04A0935D04B09395
:101130005E0480915F0490916004A0916104B0917D
:1011400062040196A11DB11D80935F049093600419
:10115000A0936104B0936204BF91AF919F918F916E
:101160003F912F910F900FBE0F901F9018951F92D7
:101170000F920FB60F9211240BB60F922F933F933D
:101180004F935F936F937F938F939F93AF93BF938F
:10119000EF93FF93E0911302F09114021995FF91E0
:1011A000EF91BF91AF919F918F917F916F915F91DF
:1011B0004F913F912F910F900BBE0F900FBE0F904C
:1011C0001F9018951F920F920FB60F9211240BB615
:1011D0000F922F933F934F935F936F937F938F93D0
:1011E0009F93AF93BF93EF93FF93E0911102F09120
:1011F00012021995FF91EF91BF91AF919F918F913D
:101200007F916F915F914F913F912F910F900BBE06
:101210000F900FBE0F901F9018951F920F920FB650
:101220000F9211240BB60F922F933F934F935F931E
:101230006F937F938F939F93AF93BF93EF93FF939E
:10124000E0910702F09108021995FF91EF91BF918B
:10125000AF919F918F917F916F915F914F913F914E
:101260002F910F900BBE0F900FBE0F901F901895EF
:101270001F920F920FB60F9211240BB60F922F935D
:101280003F934F935F936F937F938F939F93AF930E
:10129000BF93EF93FF93E0910502F0910602199539
:1012A000FF91EF91BF91AF919F918F917F916F913E
:1012B0005F914F913F912F910F900BBE0F900FBEFA
:1012C0000F901F9018951F920F920FB60F92112436
:1012D0000BB60F922F933F934F935F936F937F9330
:1012E0008F939F93AF93BF93EF93FF93E0910F0280
:1012F000F09110021995FF91EF91BF91AF919F91DD
:101300008F917F916F915F914F913F912F910F90AE
:101310000BBE0F900FBE0F901F9018951F920F924B
:101320000FB60F9211240BB60F922F933F934F934A
:101330005F936F937F938F939F93AF93BF93EF933D
:10134000FF93E0910D02F0910E021995FF91EF913C
:10135000BF91AF919F918F917F916F915F914F91CD
:101360003F912F910F900BBE0F900FBE0F901F90CB
:1013700018951F920F920FB60F9211240BB60F9271
:101380002F933F934F935F936F937F938F939F938D
:10139000AF93BF93EF93FF93E0910B02F0910C0298
:1013A0001995FF91EF91BF91AF919F918F917F918F
:1013B0006F915F914F913F912F910F900BBE0F90C6
:1013C0000FBE0F901F9018951F920F920FB60F929D
:1013D00011240BB60F922F933F934F935F936F930C
:1013E0007F938F939F93AF93BF93EF93FF93E0917E
:1013F0000902F0910A021995FF91EF91BF91AF9107
:101400009F918F917F916F915F914F913F912F911C
:101410000F900BBE0F900FBE0F901F901895FC0100
:1014200024813581232B31F421E061157105A1F070
:10143000FB0108C0FC01808191816115710531F4C7
:1014400021E0FC018081882339F005C00E94B81595
:1014500021E0892B09F020E0822F08950F931F933C
:10146000CF93DF93EC0188819981009729F02A813D
:101470003B812617370788F48B016F5F7F4F0E94EF
:10148000C114009761F0998388831B830A832C81A0
:101490003D81232B11F4FC01108281E001C080E02A
:1014A000DF91CF911F910F910895EF92FF920F93CB
:1014B0001F93CF93DF93EC017B018A01BA010E9455
:1014C0002E0A2881398181110DC02115310519F0AD
:1014D000C9010E942914198218821D821C821B8254
:1014E0001A8206C01D830C83B701C9010E94C11571
:1014F000CE01DF91CF911F910F91FF90EF90089552
:1015000040E050E062EA72E088E494E00E94550A0C
:1015100088E494E008956115710579F0FB0101906C
:101520000020E9F73197AF01461B570BDC01ED9125
:10153000FC910280F381E02D199480E090E0089501
:101540004F925F926F927F92EF92FF920F931F9351
:10155000CF93DF93CDB7DEB7A1970FB6F894DEBF78
:101560000FBECDBF7C01FA01CB0119A2223008F4D5
:101570002AE08E010F5D1F4F422E512C612C712CE1
:10158000BF01A30192010E946A13F901CA0101502F
:1015900011096A3014F4605D01C0695CD8016C9374
:1015A000232B242B252B61F7B801C7010E948B0A3E
:1015B000A1960FB6F894DEBF0FBECDBFDF91CF91DD
:1015C0001F910F91FF90EF907F906F905F904F90E1
:1015D0000895CF92DF92EF92FF920F931F93CF93D4
:1015E000DF9377FF1DC06A017B01EC016DE20E9471
:1015F00033078C0144275527BA014C195D096E0940
:101600007F092AE0CE010E94A00A800F911FDF917E
:10161000CF911F910F91FF90EF90DF90CF900895A1
:101620002AE0DF91CF911F910F91FF90EF90DF9013
:10163000CF900C94A00ACF93DF93AB01BC018FE94C
:1016400093E00E94E90AEC0160EA72E08FE993E01E
:101650000E948B0A8C0F9D1FDF91CF9108954F92AE
:101660005F926F927F928F929F92AF92BF92CF9232
:10167000DF92EF92FF92CF93DF93EC016A017B013F
:10168000B22E9A01AB01C701B6010E9465138823EF
:1016900019F06EEC72E027C026013701E89477F864
:1016A0002FEF3FEF4FE75FE7C301B2010E946513E1
:1016B00081110DC02FEF3FEF4FE75FE7C301B2018C
:1016C0000E942E1118161CF462ED72E00CC02FEF70
:1016D0003FEF4FE75FE4C701B6010E9460131816A1
:1016E0009CF466ED72E0CE01DF91CF91FF90EF9018
:1016F000DF90CF90BF90AF909F908F907F906F9032
:101700005F904F900C948B0A2FEF3FEF4FE75FEC09
:10171000C701B6010E942E1187FDE3CF20E030E023
:10172000A901C701B6010E942E1187FF0AC06DE210
:10173000CE010E9433074C01F7FAF094F7F8F094C9
:1017400002C0812C912CA12C60E070E080E09FE32E
:10175000AB1441F020E030E040E251E40E94BF12BF
:10176000A394F6CF9B01AC01C701B6010E945312AE
:101770002B013C010E9431136B017C010E9433114B
:101780009B01AC01C301B2010E9452122B013C012A
:101790002AE0B701A601CE010E94A00A7C01E80C54
:1017A000F91CBB2031F06EE2CE010E943307E80E37
:1017B000F91EDB2CDD2029F120E030E040E251E48D
:1017C000C301B2010E9494112B013C010E9431130C
:1017D0004B01A12CB12C2AE0B501A401CE010E943D
:1017E000A00AE80EF91EC501B4010E9433119B0145
:1017F000AC01C301B2010E9452122B013C01DA94E8
:10180000D9CFC701DF91CF91FF90EF90DF90CF90BC
:10181000BF90AF909F908F907F906F905F904F9010
:1018200008950C948B0ACF93DF93CDB7DEB72A9738
:101830000FB6F894DEBF0FBECDBF789484B582603A
:1018400084BD84B5816084BD85B5826085BD85B564
:10185000816085BD80916E00816080936E001092E2
:10186000810080918100826080938100809181005D
:1018700081608093810080918000816080938000EE
:101880008091B10084608093B1008091B00081604C
:101890008093B0008091910082608093910080914C
:1018A000910081608093910080919000816080938D
:1018B00090008091A10082608093A1008091A1009E
:1018C00081608093A1008091A00081608093A0003E
:1018D00080912101826080932101809121018160AA
:1018E000809321018091200181608093200180916B
:1018F0007A00846080937A0080917A00826080937D
:101900007A0080917A00816080937A0080917A00D9
:10191000806880937A001092C100E091AF03F0914B
:10192000B00382E08083E091AB03F091AC031082BE
:10193000E091AD03F091AE038FEC80831092B7037A
:10194000E091B303F091B40386E08083E091B103AA
:10195000F091B203808180618083E091B103F091C6
:10196000B203808188608083E091B103F091B2037B
:10197000808180688083E091B103F091B20380811F
:101980008F7D808365E972E08FE993E00E948B0A86
:1019900060EA72E08FE993E00E948B0A2AE04BE153
:1019A00050E060E070E08FE993E00E94A00A60EAF6
:1019B00072E08FE993E00E948B0A8BE190E09093B4
:1019C000F7028093F6021092F5021092F402109240
:1019D000F3021092F20240E050E08091F202909106
:1019E000F3024B9708F5E091F202F091F302EE0F4B
:1019F000FF1FE55EFD4F808191814817590750F424
:101A0000E091F202F091F302EE0FFF1FE55EFD4F51
:101A1000408151818091F2029091F302019690935E
:101A2000F3028093F202D9CF5093F5024093F4026F
:101A300060E070E02AE08FE993E00E94A00A60EA8B
:101A400072E08FE993E00E948B0A1092F3021092E9
:101A5000F20280E1809381001092800081E0809307
:101A6000FE0220E43FE13093FD022093FC0230931C
:101A700087002093860091E19093810025E233E076
:101A80003093E2022093E10280936F001092E00213
:101A90001092DF021092DE021092DD021092DC0240
:101AA0008093DB021092DA0261E084E10E94C707B2
:101AB00061E085E10E94C7078091B9008E7F809325
:101AC000B9008091B9008D7F8093B90088E480933C
:101AD000B80085E48093BC001092530480915704B1
:101AE000823018F098E09093530490915804992311
:101AF00039F0813029F48091530484608093530439
:101B000062E370E080E090E00E9433086091590445
:101B10008EE494E00E94E70568EE73E080E090E0D8
:101B20000E94330860E38EE494E00E944C060BE4CC
:101B300016E4C8010197F1F760E38EE494E00E9497
:101B40004C06C8010197F1F760E38EE494E00E942F
:101B50004C0683E592E00197F1F760E28EE494E0B1
:101B60000E944C0660915304606240E08EE494E071
:101B70000E94650684E08093540440E06CE08EE4AB
:101B800094E00E9465060E94650782E080935504F8
:101B900040E066E08EE494E00E94650640E062E08A
:101BA0008EE494E00E9465068BE39FE10197F1F7D4
:101BB0001092E3021092E4021092E5021092E60203
:101BC00068EC70E088E494E00E942E0A84EF91E0D3
:101BD0009093FB028093FA029093F9028093F802AB
:101BE00060E088E10E94F70760E088E10E94C70793
:101BF00060E089E10E94F70760E089E10E94C70781
:101C000085E094E0909306028093050280916A003B
:101C1000836080936A00EC9A60E08AE10E94F70793
:101C200060E08AE10E94C70760E08BE10E94F7074D
:101C300060E08BE10E94C7078AEC93E09093080272
:101C40008093070280916A008C6080936A00ED9A0D
:101C500061E08CE10E94F70760E08CE10E94C70719
:101C600061E08DE10E94F70760E08DE10E94C70707
:101C700061E08EE10E94F70760E08EE10E94C707F5
:101C800061E08FE10E94F70760E08FE10E94C707E3
:101C900061E088E20E94F70760E088E20E94C707DF
:101CA0001092F0021092EF021092F10280E00E9476
:101CB000700763EA72E08EE494E00E94110C81E008
:101CC0000E94700765E972E08EE494E00E94110CB6
:101CD00060ED77E080E090E00E9433080E946507A5
:101CE0006091EB027091EC028091ED029091EE0216
:101CF00020910002309101024091020250910302B2
:101D00002F83388749875A870E9435112F8138855C
:101D100049855A850E9494116093FF0270930003D5
:101D2000809301039093020380E00E94700740912A
:101D3000FF0250910003609101037091020322E0C1
:101D40008EE494E00E942F0B65EB72E08EE494E049
:101D50000E94110C81E00E9470074091E7025091AF
:101D6000E8026091E9027091EA028EE494E00E9438
:101D7000E90A80E1D82ECC24C39400E41FE191E16C
:101D8000B92E24EFE22EFF24F3941A8219821C82CA
:101D90001B821E821D826091480470914904611566
:101DA000710541F040914C0450914D04CE010196D3
:101DB0000E94550A68EB72E0CE0101960E940F0A5C
:101DC00081112AC06CEB72E0CE0101960E940F0ACD
:101DD000882309F4C9C010928100109285001092E6
:101DE00084008091FE0280618093810080E1809375
:101DF00081001092800081E08093FE0280E49FE1E8
:101E00009093FD028093FC0290938700809386005C
:101E100081E1809381009DC0109281001092850025
:101E2000109284008091FE02806180938100D092A4
:101E3000810010928000C092FE021093FD02009378
:101E4000FC021093870000938600B092810080917D
:101E5000E3029091E402A091E502B091E602892BA1
:101E60008A2B8B2B09F4AECF6091E3027091E402D0
:101E70008091E5029091E6020E941B0B61E08DE1EA
:101E80000E94C7078091EB029091EC02A091ED02B5
:101E9000B091EE028C399F4FAF4FBF4FC1F6D09239
:101EA000810060E08DE10E94C7076091EB027091B4
:101EB000EC028091ED029091EE02209100023091AF
:101EC000010240910202509103022F833887498713
:101ED0005A870E9435112F81388549855A850E947D
:101EE00094116093FF027093000380930103909319
:101EF00002034091FF025091000360910103709131
:101F0000020322E08FE993E00E942F0B60EA72E067
:101F10008FE993E00E948B0A6091E3027091E402E2
:101F20008091E5029091E6020E941B0B1092E30261
:101F30001092E4021092E5021092E6021092EB0277
:101F40001092EC021092ED021092EE020E94800AB2
:101F50007ECF6091E3027091E4028091E50290915E
:101F6000E6020E941B0BF5CF61EC72E0CE010196F8
:101F70000E940F0A882309F446C0F092FB02E09207
:101F8000FA02F092F902E092F80240914C0450916A
:101F90004D0460914804709149048FE993E00E94D8
:101FA0003A0760EA72E08FE993E00E948B0A66ECE0
:101FB00072E08FE993E00E94110C4091FA02509177
:101FC000FB02052E000C660B770B8FE993E00E9455
:101FD000E90A66EC72E08FE993E00E94110C4091EF
:101FE000F8025091F902052E000C660B770B8FE971
:101FF00093E00E94E90A66EC72E08FE993E00E94A8
:10200000110C0E94800A69EC72E0CE0101960E94D8
:102010000F0A882309F463C061E088E20E94C707C1
:1020200061E08EE10E94C70768E873E180E090E01C
:102030000E94330860E08EE10E94C70760E088E2FA
:102040000E94C7070E9465076091EB027091EC0245
:102050008091ED029091EE022091000230910102F8
:1020600040910202509103022F83388749875A8793
:102070000E9435112F81388549855A850E94941117
:102080006093FF0270930003809301039093020317
:1020900080E00E9470074091FF0250910003609120
:1020A00001037091020322E08EE494E00E942F0B62
:1020B00065EB72E08EE494E00E94110C81E00E94D6
:1020C00070074091E7025091E8026091E902709137
:1020D000EA028EE494E00E94E90A0E94800A898163
:1020E0009A810E942914809103038091F00281114A
:1020F00007C08091EF02811103C00E94950345CE75
:102100000E9465076091EB027091EC028091ED02F4
:102110009091EE0220910002309101024091020262
:10212000509103022F83388749875A870E943511BF
:102130002F81388549855A850E9494116093FF024A
:1021400070930003809301039093020380E00E9448
:1021500070074091FF02509100036091010370915C
:10216000020322E08EE494E00E942F0B65EB72E004
:102170008EE494E00E94110C81E00E94700740916F
:10218000E7025091E8026091E9027091EA028EE460
:1021900094E00E94E90A1092F0021092EF02ADCF93
:1021A00080914804909149040C942914EFE9F3E0DC
:1021B0001382128288EE93E0A0E0B0E084839583DE
:1021C000A683B7832DE532E03183208325EC30E010
:1021D0003587248724EC30E03787268720EC30E0F1
:1021E000318B208B21EC30E0338B228B22EC30E0E2
:1021F000358B248B26EC30E0378B268B118E128E9C
:10220000138E148EECE3F4E01382128284839583A0
:10221000A683B7838FE692E091838083EEE4F4E0B7
:102220001382128281E892E09183808387E2848323
:1022300084E1808784E08187128688E08387E8E4F0
:10224000F4E011821082138212821582148240E01F
:1022500050E062EA72E0CF010C94550A0E947011BE
:1022600008F481E00895E89409C097FB3EF4909546
:102270008095709561957F4F8F4F9F4F9923A9F05F
:10228000F92F96E9BB279395F695879577956795EE
:10229000B795F111F8CFFAF4BB0F11F460FF1BC032
:1022A0006F5F7F4F8F4F9F4F16C0882311F096E9C5
:1022B00011C0772321F09EE8872F762F05C0662373
:1022C00071F096E8862F70E060E02AF09A95660F2C
:1022D000771F881FDAF7880F9695879597F90895E5
:1022E000990F0008550FAA0BE0E8FEEF1616170627
:1022F000E807F907C0F012161306E407F50798F08F
:10230000621B730B840B950B39F40A2661F0232BA7
:10231000242B252B21F408950A2609F4A140A69523
:102320008FEF811D811D08950E94A7110C94181232
:102330000E940A1238F00E94111220F0952311F029
:102340000C9401120C94071211240C944C120E944C
:10235000291270F3959FC1F3950F50E0551F629FAE
:10236000F001729FBB27F00DB11D639FAA27F00DEE
:10237000B11DAA1F649F6627B00DA11D661F829F15
:102380002227B00DA11D621F739FB00DA11D621FFA
:10239000839FA00D611D221F749F3327A00D611D17
:1023A000231F849F600D211D822F762F6A2F1124F9
:1023B0009F5750409AF0F1F088234AF0EE0FFF1F2C
:1023C000BB1F661F771F881F91505040A9F79E3F83
:1023D000510580F00C9401120C944C125F3FE4F311
:1023E000983ED4F3869577956795B795F795E795D9
:1023F0009F5FC1F7FE2B880F911D9695879597F9E2
:10240000089597F99F6780E870E060E008959FEF76
:1024100080EC089500240A9416161706180609067B
:10242000089500240A94121613061406050608954A
:10243000092E0394000C11F4882352F0BB0F40F4D2
:10244000BF2B11F460FF04C06F5F7F4F8F4F9F4F12
:10245000089557FD9058440F551F59F05F3F71F094
:102460004795880F97FB991F61F09F3F79F08795FB
:102470000895121613061406551FF2CF4695F1DF84
:1024800008C0161617061806991FF1CF8695710514
:10249000610508940895E894BB2766277727CB0148
:1024A00097F908955058BB27AA270E946A120C94E6
:1024B00018120E940A1238F00E94111220F039F40A
:1024C0009F3F19F426F40C9407120EF4E095E7FBF5
:1024D0000C940112E92F0E94291258F3BA176207CF
:1024E00073078407950720F079F4A6F50C944B1236
:1024F0000EF4E0950B2EBA2FA02D0B01B90190011F
:102500000C01CA01A0011124FF27591B99F0593F62
:1025100050F4503E68F11A16F040A22F232F342FAA
:102520004427585FF3CF469537952795A795F040F8
:102530005395C9F77EF41F16BA0B620B730B840B0D
:10254000BAF09150A1F0FF0FBB1F661F771F881FC5
:10255000C2F70EC0BA0F621F731F841F48F487951D
:1025600077956795B795F7959E3F08F0B0CF93950F
:10257000880F08F09927EE0F9795879508950E9488
:10258000D3120C9418120E94111258F00E940A12D1
:1025900040F029F45F3F29F00C94011251110C9482
:1025A0004C120C9407120E94291268F39923B1F37C
:1025B000552391F3951B550BBB27AA276217730769
:1025C000840738F09F5F5F4F220F331F441FAA1FFD
:1025D000A9F335D00E2E3AF0E0E832D091505040B9
:1025E000E695001CCAF72BD0FE2F29D0660F771F67
:1025F000881FBB1F261737074807AB07B0E809F04D
:10260000BB0B802DBF01FF2793585F4F3AF09E3FD1
:10261000510578F00C9401120C944C125F3FE4F3D6
:10262000983ED4F3869577956795B795F7959F5F14
:10263000C9F7880F911D9695879597F90895E1E060
:10264000660F771F881FBB1F621773078407BA07BF
:1026500020F0621B730B840BBA0BEE1F88F7E0951A
:1026600008950E94311288F09F5798F0B92F99274A
:10267000B751B0F0E1F0660F771F881F991F1AF06D
:10268000BA95C9F714C0B13091F00E944B12B1E075
:1026900008950C944B12672F782F8827B85F39F074
:1026A000B93FCCF3869577956795B395D9F73EF406
:1026B00090958095709561957F4F8F4F9F4F0895AE
:1026C0000E94701108F48FEF08950E947011880B1A
:1026D000990B0895A1E21A2EAA1BBB1BFD010DC088
:1026E000AA1FBB1FEE1FFF1FA217B307E407F507C2
:1026F00020F0A21BB30BE40BF50B661F771F881F9E
:10270000991F1A9469F760957095809590959B0133
:10271000AC01BD01CF010895EE0FFF1F881F8BBFD5
:102720000790F691E02D1994CF93DF9382309105B5
:1027300010F482E090E0E0916504F091660420E0FE
:1027400030E0C0E0D0E0309711F14081518148176E
:102750005907C0F04817590761F482819381209787
:1027600019F09B838A832BC0909366048093650441
:1027700026C02115310519F04217530718F49A01A4
:10278000BE01DF01EF010280F381E02DDCCF2115D6
:10279000310509F1281B390B2430310590F41296CC
:1027A0008D919C9113976115710521F0FB01938325
:1027B000828304C09093660480936504FD01329681
:1027C00044C0FD01E20FF31F819391932250310920
:1027D0002D933C933AC02091630430916404232BE1
:1027E00041F4209117023091180230936404209331
:1027F000630420911502309116022115310541F430
:102800002DB73EB74091190250911A02241B350B87
:10281000E0916304F0916404E217F307A0F42E1B27
:102820003F0B2817390778F0AC014E5F5F4F241734
:10283000350748F04E0F5F1F5093640440936304C4
:102840008193919302C0E0E0F0E0CF01DF91CF915E
:1028500008950F931F93CF93DF93009709F48CC0D3
:10286000FC01329713821282009165041091660474
:102870000115110581F420813181820F931F209170
:102880006304309164042817390779F5F0936404E0
:10289000E093630471C0D80140E050E0AE17BF0779
:1028A00050F412962D913C911397AD0121153105ED
:1028B00009F1D901F3CF9D01DA01338322836081CD
:1028C0007181860F971F8217930769F4EC012881A5
:1028D0003981260F371F2E5F3F4F318320838A8136
:1028E0009B8193838283452B29F4F0936604E093C4
:1028F000650442C01396FC93EE931297ED01499143
:1029000059919E01240F351FE217F30771F480815E
:102910009181840F951F029611969C938E938281CC
:10292000938113969C938E931297E0E0F0E0D80188
:1029300012968D919C911397009719F0F8018C01D4
:10294000F6CF8D919C9198012E5F3F4F820F931F80
:1029500020916304309164042817390769F4309793
:1029600029F4109266041092650402C01382128248
:102970001093640400936304DF91CF911F910F9132
:1029800008956F927F928F929F92AF92BF92CF9253
:10299000DF92EF92FF920F931F93CF93DF93EC019F
:1029A000009789F4CB01DF91CF911F910F91FF9098
:1029B000EF90DF90CF90BF90AF909F908F907F90DF
:1029C0006F900C949413FC01E60FF71F9C012250AA
:1029D0003109E217F30708F4ACC0D9010D911C913D
:1029E000119706171707B0F00530110508F49FC0BE
:1029F000C80104978617970708F499C00250110977
:102A0000061B170B019311936D937C93CF010E94CA
:102A100029148DC05B01A01AB10A4C01800E911ED1
:102A2000A0916504B091660440E050E0E12CF12CE7
:102A3000109709F44AC0A815B905D1F56D907C909E
:102A40001197630182E0C80ED11CCA14DB0480F127
:102A5000A3014A195B096A0182E0C80ED11C1296D3
:102A6000BC9012971396AC91B5E0CB16D10440F010
:102A7000B282A38351834083D9016D937C930AC0B2
:102A80000E5F1F4FC301800F911FF9019183808357
:102A9000EB2DFA2FE114F10431F0D7011396FC93DA
:102AA000EE93129744C0F0936604E09365043FC030
:102AB0008D919C9111974817590708F4AC017D013D
:102AC00012960D90BC91A02DB3CF8091630490918C
:102AD000640488159905E1F446175707C8F48091F6
:102AE000150290911602009741F48DB79EB7409160
:102AF000190250911A02841B950BE817F907C8F4C4
:102B0000F0936404E0936304F901718360830FC060
:102B1000CB010E9494137C01009759F0A801BE01DB
:102B20000E94AF15CE010E942914C70104C0CE0136
:102B300002C080E090E0DF91CF911F910F91FF9054
:102B4000EF90DF90CF90BF90AF909F908F907F904D
:102B50006F90089581E090E0F8940C94C815FB0103
:102B6000DC0102C001900D9241505040D8F7089509
:102B7000FB01DC018D91019080190110D9F3990BB3
:102B80000895FB01DC0101900D920020E1F708950A
:102B900011E0C5E6D1E000E006C0802FFE010E94F2
:102BA0008C132196011DC636D10780E00807A9F7CE
:042BB000F894FFCFC7
:102BB4005F0C153F01320732073207320732073202
:102BC40007320732070000670480000000EC09A008
:102BD40012D917AB1C23214B2530290B2B9C2E001B
:102BE400323F3564387A3EFE422249534CA34F1C8F
:102BF40053C656B158B65C0561A865AC6A1E7034FC
:102C04007900004000140054000000000001023A62
:102C14000799014802CA01A801BC0100000000F2A2
:102C240002C20222039C02BA02AB029D020000000F
:102C34000086063A07220321030000000042033AFB
:102C440007220321034269656E76656E69646F002D
:102C54000D0A0050726F6772616D6120526F6C6172
:102C6400646F7261006D6D0076656C0074656D70E3
:102C7400006365726F000A0D0074657374006E6101
:0A2C84006E00696E66006F76660050
:00000001FF
