:100000000C9457010C94F4090C94C9090C949E09A2
:100010000C9473090C9448090C941D090C94F20873
:100020000C94C7080C9488010C9488010C948801E6
:100030000C9488010C9488010C9488010C9488011C
:100040000C9488010C9488010C9488010C9488010C
:100050000C9492060C9488010C9488010C947D08F1
:100060000C9488010C9485040C945B040C94880116
:100070000C9488010C9488010C9488010C948801DC
:100080000C9488010C9488010C9488010C948801CC
:100090000C9488010C9488010C9488010C94BB0486
:1000A0000C9488010C9488010C9488010C948801AC
:1000B0000C9488010C9488010C9488010C9488019C
:1000C0000C9488010C9488010C9488010C9488018C
:1000D0000C9488010C9488010C9488010C9488017C
:1000E0000C948801B907BC07AB07AF07B307F30748
:1000F000C007C407CA07CE07D207D807DC07E00746
:10010000F307E607EA07EE070C94AB070C94E60743
:100110000C94EE070C94BC070C94EA070C948A012B
:100120000C94CE070C94B9070C94C0070C94DC0710
:100130000C9413030C9459130C94CA070C94D30316
:100140000C94BB010C9426070C94C4070C94AF07C5
:100150000C94B3070C948C060C9412030C94E007D7
:100160000C948E020C9499010C94D2070C941E07E7
:100170000C9439020C94B6030C949C020C948D02DE
:100180000C94E3020C94D8070C94AD010C94160364
:100190000C94B3020C9453130C94F3070C94AB021D
:1001A0000C94F20100002100240027002A002D00F9
:1001B0003000330001010000040107010A010000C2
:1001C0002200250028002B002E00310034000201FF
:1001D0000000050108010B010505050507050808D4
:1001E0000808020202020A0A0808040404040101C1
:1001F00001010101010103030303030303030407D6
:1002000007070C0C0C0C0C0C0C0C0202020206066C
:100210000606060606060B0B0B0B0B0B0B0B01025F
:100220001020200808102040102040800201020108
:1002300008040201010204081020408080402010C0
:100240000804020180040201804020100804020119
:100250000804020101020408102040800102040881
:100260001020408000000A0B02090C0D0E08070345
:100270000401000000000000000000000000000079
:10028000000000000000000000000000000000006E
:10029000121110000000000000000000000000002B
:1002A0000000000000000000000059135313112447
:1002B0001FBECFEFD1E2DEBFCDBF00E00CBF25E017
:1002C000A2E8B3E001C01D92A332B207E1F713E048
:1002D000A0E0B2E0EAEBF0E300E00BBF02C0079061
:1002E0000D92A238B107D9F711E0C6E5D1E000E0E0
:1002F00006C021970109802FFE010E940F16C53507
:10030000D10780E00807A9F70E944C0C0C944B1809
:100310000C940000FC01538D448D252F30E0842F78
:1003200090E0821B930B541710F0CF96089501971D
:100330000895FC01918D828D981761F0828DDF0107
:10034000A80FB11D5D968C91928D9F5F9F73928FC8
:1003500090E008958FEF9FEF0895FC01918D828DBD
:10036000981731F0828DE80FF11D858D90E008958A
:100370008FEF9FEF0895FC01918D228D892F90E0E2
:10038000805C9F4F821B91098F73992708958FE599
:1003900094E00E94BB0121E0892B09F420E0822F28
:1003A0000895FC01848DDF01A80FB11DA35ABF4F32
:1003B0002C91848D90E001968F739927848FA68964
:1003C000B7892C93A089B1898C9180648C93938D8B
:1003D000848D981306C00288F389E02D80818F7D7B
:1003E00080830895EF92FF920F931F93CF93DF9333
:1003F000EC0181E0888F9B8D8C8D981305C0E88976
:10040000F989808185FD24C0F62E0B8D10E00F5FE9
:100410001F4F0F731127E02E8C8DE8120CC00FB602
:1004200007FCFACFE889F989808185FFF5CFCE01F5
:100430000E94D101F1CF8B8DFE01E80FF11DE35A2F
:10044000FF4FF0820B8FEA89FB898081806207C0B1
:10045000EE89FF896083E889F989808180648083DF
:1004600081E090E0DF91CF911F910F91FF90EF908D
:100470000895CF93DF93EC01888D8823C9F0EA8932
:10048000FB89808185FD05C0A889B9898C9186FD8D
:100490000FC00FB607FCF5CF808185FFF2CFA8898A
:1004A000B9898C9185FFEDCFCE010E94D101E7CFB4
:1004B000DF91CF91089585ED8093BC008091BC00C1
:1004C00084FDFCCF10928403089540911204262FDE
:1004D00030E0240F311D21323105DCF420918403FA
:1004E0002430C9F4FC0180E090E0861758F4309184
:1004F00012042191DC01A051BC4FA30FB11D2C931C
:100500000196F3CF80911204680F6093120480E08B
:10051000089581E0089582E00895089581E090E0D3
:100520003091880320918703321710F480E090E027
:100530009195819591090895809188039091870301
:10054000891730F48F5F8093880380E090E00895EE
:100550008FEF9FEF08958091870390E020918803AB
:10056000821B91090895CF92DF92EF92FF920F9331
:100570001F93CF93DF937C01262F972F8A018091C1
:10058000EF03882391F0C62FD72F6E01C40ED51E1E
:10059000CC15DD0571F06991D701ED91FC910190C9
:1005A000F081E02DC7011995F3CF642F822F0E94AF
:1005B0006502C801DF91CF911F910F91FF90EF90DD
:1005C000DF90CF900895CF93DF931F92CDB7DEB722
:1005D00069832091EF032223D1F0209185032032FB
:1005E00040F021E030E0FC013383228380E090E0A2
:1005F00015C080918603E82FF0E0E153FC4F99810C
:1006000090838F5F809386038093850305C061E0AC
:10061000CE0101960E94650281E090E00F90DF918B
:10062000CF910895089580E090E008950F931F936F
:1006300082B385FB882780F98093CC032FB7F89489
:1006400080915B0490915C04A0915D04B0915E0484
:100650002FBF4091C8035091C9036091CA037091A4
:10066000CB03841B950BA60BB70B8093C40390930D
:10067000C503A093C603B093C7032FB7F894809126
:100680005B0490915C04A0915D04B0915E042FBF67
:100690008093C8039093C903A093CA03B093CB037C
:1006A0008091C4039091C503A091C603B091C70384
:1006B0000397A105B10520F081E08093060202C0F6
:1006C0001092060280910602882309F44CC08091A2
:1006D000CC03811103C081E090E002C08FEF9FEF57
:1006E0004091900350919103609192037091930314
:1006F000092E000CAA0BBB0B8A019B01081B190BCE
:100700002A0B3B0B009390031093910320939203C9
:10071000309393038091CC03811103C081E090E07A
:1007200002C08FEF9FEF40918C0350918D03609139
:100730008E0370918F03092E000CAA0BBB0B8A014C
:100740009B01081B190B2A0B3B0B00938C03109386
:100750008D0320938E0330938F0390918B0381E060
:10076000892780938B031F910F910895809198039F
:1007700090919903019690939903809398038091A7
:10078000940390919503A0919603B09197030196DD
:10079000A11DB11D8093940390939503A09396039C
:1007A000B093970308950E942D18FF920F931F9303
:1007B000CF93DF931F921F92CDB7DEB78FE594E002
:1007C0000E94BB01892BD1F18FE594E00E94990131
:1007D000F82E89831A8200910C0510910D050F5F88
:1007E0001F4FB80188E095E00E943E0A882399F0E7
:1007F000209108053091090580910C0590910D0517
:10080000BE016F5F7F4F820F931F0E9444181093A9
:100810000D0500930C058DE0F81204C081E0809373
:10082000CD030CC080E2F81209C00F900F90DF9149
:10083000CF911F910F91FF900C94900A0F900F9001
:10084000DF91CF911F910F91FF9008950E94C701F2
:10085000811125C080E090E0892B41F080E090E09C
:10086000892B21F00E94000081111CC080E090E0E3
:10087000892B41F080E090E0892B21F00E9400005C
:10088000811113C080E090E0892BA1F080E090E01E
:10089000892B81F00E94000081110AC008950E94F6
:1008A000D503D8CF0E940000E1CF0E940000EACF1C
:1008B0000C94000008951F920F920FB60F9211240E
:1008C0000BB60F922F933F934F935F936F937F934A
:1008D0008F939F93AF93BF93EF93FF938FE594E034
:1008E0000E94D101FF91EF91BF91AF919F918F91A4
:1008F0007F916F915F914F913F912F910F900BBE20
:100900000F900FBE0F901F9018951F920F920FB669
:100910000F9211240BB60F922F938F939F93EF9307
:10092000FF93E0916F04F09170048081E091750471
:10093000F091760482FD12C09081809178048F5FDF
:100940008F7320917904821751F0E0917804F0E0E0
:10095000E15AFB4F958F8093780401C08081FF910D
:10096000EF919F918F912F910F900BBE0F900FBE23
:100970000F901F9018951F920F920FB60F9211248F
:100980000BB60F922F933F934F935F936F937F9389
:100990008F939F93AF93BF93EF93FF938091B90091
:1009A000887F803609F49CC068F5883209F45BC002
:1009B00090F4803109F454C038F4882309F4F6C067
:1009C000883009F44DC0F6C0883109F44CC080323B
:1009D00009F45DC0EFC0803409F468C048F4803386
:1009E00009F455C0883309F0E5C080933704D8C0B6
:1009F000803509F44FC0883509F45DC0883409F0AA
:100A0000D9C0D6C0883909F4C7C0A8F4883709F41A
:100A100067C038F4883609F463C0803709F460C0D1
:100A2000C9C0883809F4B8C0803909F45FC080387B
:100A300009F0C0C05BC0803B09F486C038F4803A3E
:100A400009F466C0883A09F47FC0B4C0803C09F458
:100A5000A7C0883C09F4A4C0883B09F48AC0AAC096
:100A600080915A0410C090915904809158049817AD
:100A700070F5E091590481E08E0F80935904F0E005
:100A8000E85CFB4F80818093BB0085EC86C080933F
:100A900037048EC0E091590481E08E0F8093590491
:100AA0008091BB00F0E0E85CFB4F8083909159049B
:100AB000809158046EC0E091590481E08E0F8093BC
:100AC00059048091BB00F0E0E85CFB4F808380918B
:100AD000830381116DC081E08093820384EA61C049
:100AE00083E08093840310923604CFCF8091360444
:100AF000803208F051C0E091360481E08E0F80937F
:100B000036048091BB00F0E0EA5EFB4F8083BDCFEE
:100B100085EC8093BC00109284038091360480326F
:100B200030F4E0913604F0E0EA5EFB4F1082609111
:100B3000360470E0E0911404F091150486E194E02D
:100B400019951092360436C084E080938403109285
:100B5000130410921204E0911004F09111041995FD
:100B600080911204811105C081E0809312041092DB
:100B7000F003E091130481E08E0F80931304F0E002
:100B8000E051FC4F80818093BB00909113048091D1
:100B90001204981708F479CF85E88093BC000AC046
:100BA00085EC8093BC001092840304C0109237043B
:100BB0000E945B02FF91EF91BF91AF919F918F9146
:100BC0007F916F915F914F913F912F910F900BBE4D
:100BD0000F900FBE0F901F901895CF93FC01C4810A
:100BE00021E02093EF03C093CE031092860310926E
:100BF00085038385682B8CEF94E00E94E30280914B
:100C00008503813208F046C0909184039111FCCF96
:100C100092E09093840391E0909383039FEF9093ED
:100C200037041092590480935804AFECB3E028E3E2
:100C300034E0F9019E2F921B981718F49D9191931F
:100C4000F9CF10925A0480915A04CC0FC82BC0934C
:100C50005A0480918203813061F410928203809162
:100C60005A048093BB008091BC0083FDF8CF85ECD3
:100C700001C085EE8093BC00809184038230E1F353
:100C8000809137048F3F31F080913704803211F02A
:100C90008091370410928603109285031092EF031F
:100CA000CF9108950F931F93CF938C01C62F0E946D
:100CB000ED056C2F6460C8010E94ED056C2F6B7F01
:100CC000C8010E94ED0583EC90E00197F1F7CF9108
:100CD0001F910F910895FF920F931F93CF93DF936E
:100CE0001F92CDB7DEB78C01F62E962F907F692F1D
:100CF000642BC80149830E94520680E1F89EB0012E
:100D000011244981642BC8010F90DF91CF911F916D
:100D10000F91FF900C94520641E00E946B0681E017
:100D200090E008951F920F920FB60F9211240BB608
:100D30000F922F933F934F935F936F937F938F9374
:100D40009F93AF93BF93EF93FF93E0918903F0914B
:100D50008A031995FF91EF91BF91AF919F918F9168
:100D60007F916F915F914F913F912F910F900BBEAB
:100D70000F900FBE0F901F90189560E085E20E94C3
:100D80008A0760E084E20E948A0760E087E20E94AE
:100D90008A0760E089E20E948A0760E088E20C949A
:100DA0008A0761E08CE00E948A0761E087E20E9486
:100DB0008A0760E084E20E948A0761E089E20E947B
:100DC0008A0761E08FE20C948A0761E08CE00E9460
:100DD0008A0761E084E20E948A0761E088E20E945B
:100DE0008A0761E087E20E948A0760E08FE20C9444
:100DF0008A073FB7F89480911B0590911C05A0913C
:100E00001D05B0911E0526B5A89B05C02F3F19F002
:100E10000196A11DB11D3FBFBA2FA92F982F88277A
:100E2000820F911DA11DB11DBC01CD0142E0660FD5
:100E3000771F881F991F4A95D1F708950895DC01FF
:100E4000ED91FC910190F081E02D1994CF92DF9209
:100E5000EF92FF920F931F93CF93DF936C017A0170
:100E60008B01C0E0D0E0CE15DF0589F0D8016D918F
:100E70008D01D601ED91FC910190F081E02DC6012C
:100E80001995892B11F47E0102C02196ECCFC70180
:100E9000DF91CF911F910F91FF90EF90DF90CF9056
:100EA0000895CF93DF93CDB7DEB728970FB6F894A8
:100EB000DEBF0FBECDBF98E0E9E8F2E0DE0111969B
:100EC00001900D929A95E1F790911705981710F4FB
:100ED0008FEF890FFE013196E80FF11DE80FF11D2C
:100EE0006081606840E08EE095E028960FB6F89447
:100EF000DEBF0FBECDBFDF91CF910C946B0640E0FB
:100F000061E08EE095E00E946B068BE39FE1019724
:100F1000F1F70895362F90E0FC01EC59FD4F449114
:100F2000FC01E25EFD4F2491FC01E852FE4F9491DA
:100F3000992309F46BC0442309F455C050E0FA0129
:100F40003197E231F10508F04EC08827EE58FF4F87
:100F50008F4F0C940F16809180008F7707C080917F
:100F600080008F7D03C080918000877F8093800008
:100F70003AC084B58F7702C084B58F7D84BD33C0FD
:100F80008091B0008F7703C08091B0008F7D8093F7
:100F9000B00029C0809190008F7707C080919000A9
:100FA0008F7D03C080919000877F809390001BC04D
:100FB0008091A0008F7707C08091A0008F7D03C033
:100FC0008091A000877F8093A0000DC080912001B8
:100FD0008F7707C0809120018F7D03C08091200111
:100FE000877F80932001E92FF0E0EE0FFF1FE2548E
:100FF000FE4FA591B4918FB7F894EC91311103C0D5
:1010000020952E2301C02E2B2C938FBF0895CF93B4
:10101000DF9390E0FC01E25EFD4F2491FC01E85279
:10102000FE4F8491882361F190E0880F991FFC01A5
:10103000EC55FE4FC591D491FC01E254FE4FA591B1
:10104000B491611109C09FB7F894888120958223DB
:101050008883EC912E230BC0623061F49FB7F89423
:101060003881822F809583238883EC912E2B2C93BB
:101070009FBF06C08FB7F894E8812E2B28838FBFBF
:10108000DF91CF9108958F929F92AF92BF92CF92AE
:10109000DF92EF92FF926B017C010E94F9064B01F7
:1010A0005C01C114D104E104F104F1F00E94F906DD
:1010B000DC01CB0188199909AA09BB09883E934034
:1010C000A105B10570F321E0C21AD108E108F108C9
:1010D00088EE880E83E0981EA11CB11CC114D104B7
:1010E000E104F10419F7DDCFFF90EF90DF90CF908E
:1010F000BF90AF909F908F9008951F920F920FB660
:101100000F9211242F933F938F939F93AF93BF938D
:1011100080915B0490915C04A0915D04B0915E04A9
:1011200030911A0523E0230F2D3720F40196A11DDD
:10113000B11D05C026E8230F0296A11DB11D209305
:101140001A0580935B0490935C04A0935D04B093B4
:101150005E0480911B0590911C05A0911D05B09126
:101160001E050196A11DB11D80931B0590931C05C2
:10117000A0931D05B0931E05BF91AF919F918F91D4
:101180003F912F910F900FBE0F901F9018951F92B7
:101190000F920FB60F9211240BB60F922F933F931D
:1011A0004F935F936F937F938F939F93AF93BF936F
:1011B000EF93FF93E0911502F09116021995FF91BC
:1011C000EF91BF91AF919F918F917F916F915F91BF
:1011D0004F913F912F910F900BBE0F900FBE0F902C
:1011E0001F9018951F920F920FB60F9211240BB6F5
:1011F0000F922F933F934F935F936F937F938F93B0
:101200009F93AF93BF93EF93FF93E0911302F091FD
:1012100014021995FF91EF91BF91AF919F918F911A
:101220007F916F915F914F913F912F910F900BBEE6
:101230000F900FBE0F901F9018951F920F920FB630
:101240000F9211240BB60F922F933F934F935F93FE
:101250006F937F938F939F93AF93BF93EF93FF937E
:10126000E0910902F0910A021995FF91EF91BF9167
:10127000AF919F918F917F916F915F914F913F912E
:101280002F910F900BBE0F900FBE0F901F901895CF
:101290001F920F920FB60F9211240BB60F922F933D
:1012A0003F934F935F936F937F938F939F93AF93EE
:1012B000BF93EF93FF93E0910702F0910802199515
:1012C000FF91EF91BF91AF919F918F917F916F911E
:1012D0005F914F913F912F910F900BBE0F900FBEDA
:1012E0000F901F9018951F920F920FB60F92112416
:1012F0000BB60F922F933F934F935F936F937F9310
:101300008F939F93AF93BF93EF93FF93E09111025D
:10131000F09112021995FF91EF91BF91AF919F91BA
:101320008F917F916F915F914F913F912F910F908E
:101330000BBE0F900FBE0F901F9018951F920F922B
:101340000FB60F9211240BB60F922F933F934F932A
:101350005F936F937F938F939F93AF93BF93EF931D
:10136000FF93E0910F02F09110021995FF91EF9118
:10137000BF91AF919F918F917F916F915F914F91AD
:101380003F912F910F900BBE0F900FBE0F901F90AB
:1013900018951F920F920FB60F9211240BB60F9251
:1013A0002F933F934F935F936F937F938F939F936D
:1013B000AF93BF93EF93FF93E0910D02F0910E0274
:1013C0001995FF91EF91BF91AF919F918F917F916F
:1013D0006F915F914F913F912F910F900BBE0F90A6
:1013E0000FBE0F901F9018951F920F920FB60F927D
:1013F00011240BB60F922F933F934F935F936F93EC
:101400007F938F939F93AF93BF93EF93FF93E0915D
:101410000B02F0910C021995FF91EF91BF91AF91E2
:101420009F918F917F916F915F914F913F912F91FC
:101430000F900BBE0F900FBE0F901F901895FC01E0
:1014400024813581232B31F421E061157105A1F050
:10145000FB0108C0FC01808191816115710531F4A7
:1014600021E0FC018081882339F005C00E943B18EF
:1014700021E0892B09F020E0822F08950F931F931C
:10148000CF93DF93EC0188819981009729F02A811D
:101490003B812617370788F48B016F5F7F4F0E94CF
:1014A0004417009761F0998388831B830A832C81FA
:1014B0003D81232B11F4FC01108281E001C080E00A
:1014C000DF91CF911F910F910895EF92FF920F93AB
:1014D0001F93CF93DF93EC017B018A01BA010E9435
:1014E0003E0A2881398181110DC02115310519F07D
:1014F000C9010E94AC16198218821D821C821B82AF
:101500001A8206C01D830C83B701C9010E944418CA
:10151000CE01DF91CF911F910F91FF90EF90089531
:1015200040E050E065E073E088E095E00E94650AE5
:1015300088E095E008956115710579F0FB0101904F
:101540000020E9F73197AF01461B570BDC01ED9105
:10155000FC910280F381E02D199480E090E00895E1
:10156000CF93DF93BC018FE594E00E949B0AEC01CE
:1015700063E073E08FE594E00E949B0A8C0F9D1F4F
:10158000DF91CF9108954F925F926F927F92EF9289
:10159000FF920F931F93CF93DF93CDB7DEB7A19741
:1015A0000FB6F894DEBF0FBECDBF7C01FA01CB01B0
:1015B00019A2223008F42AE08E010F5D1F4F422E3F
:1015C000512C612C712CBF01A30192010E94ED15D9
:1015D000F901CA01015011096A3014F4605D01C0BB
:1015E000695CD8016C93232B242B252B61F7B80160
:1015F000C7010E949B0AA1960FB6F894DEBF0FBEEA
:10160000CDBFDF91CF911F910F91FF90EF907F9011
:101610006F905F904F900895CF93DF93AC0160E09F
:1016200070E02AE08FE594E00E94C30AEC0163E0D9
:1016300073E08FE594E00E949B0A8C0F9D1FDF9161
:10164000CF910895CF92DF92EF92FF920F931F9365
:10165000CF93DF9377FF1DC06A017B01EC016DE240
:101660000E941F078C0144275527BA014C195D09B8
:101670006E097F092AE0CE010E94C30A800F911FE4
:10168000DF91CF911F910F91FF90EF90DF90CF905E
:1016900008952AE0DF91CF911F910F91FF90EF9075
:1016A000DF90CF900C94C30ACF93DF93AB01BC01C2
:1016B0008FE594E00E94220BEC0163E073E08FE57C
:1016C00094E00E949B0A8C0F9D1FDF91CF9108959B
:1016D0004F925F926F927F928F929F92AF92BF9242
:1016E000CF92DF92EF92FF92CF93DF93EC016A01EA
:1016F0007B01B22E9A01AB01C701B6010E94E81529
:10170000882319F065E773E027C026013701E894C4
:1017100077F82FEF3FEF4FE75FE7C301B2010E9479
:10172000E81581110DC02FEF3FEF4FE75FE7C301D1
:10173000B2010E94B11318161CF469E773E00CC0E3
:101740002FEF3FEF4FE75FE4C701B6010E94E315BB
:1017500018169CF46DE773E0CE01DF91CF91FF90F6
:10176000EF90DF90CF90BF90AF909F908F907F9041
:101770006F905F904F900C949B0A2FEF3FEF4FE7D5
:101780005FECC701B6010E94B11387FDE3CF20E0F3
:1017900030E0A901C701B6010E94B11387FF0AC05A
:1017A0006DE2CE010E941F074C01F7FAF094F7F8A2
:1017B000F09402C0812C912CA12C60E070E080E0BC
:1017C0009FE3AB1441F020E030E040E251E40E949E
:1017D0004215A394F6CF9B01AC01C701B6010E944C
:1017E000D6142B013C010E94B4156B017C010E94B0
:1017F000B6139B01AC01C301B2010E94D5142B01A9
:101800003C012AE0B701A601CE010E94C30A7C0177
:10181000E80CF91CBB2031F06EE2CE010E941F07DC
:10182000E80EF91EDB2CDD2029F120E030E040E25B
:1018300051E4C301B2010E9417142B013C010E9424
:10184000B4154B01A12CB12C2AE0B501A401CE01A5
:101850000E94C30AE80EF91EC501B4010E94B61326
:101860009B01AC01C301B2010E94D5142B013C01C4
:10187000DA94D9CFC701DF91CF91FF90EF90DF903D
:10188000CF90BF90AF909F908F907F906F905F9020
:101890004F9008950C949B0ACF93DF93CDB7DEB79A
:1018A0002A970FB6F894DEBF0FBECDBF789484B5EB
:1018B000826084BD84B5816084BD85B5826085BD4C
:1018C00085B5816085BD80916E00816080936E00DA
:1018D00010928100809181008260809381008091CC
:1018E000810081608093810080918000816080937D
:1018F00080008091B10084608093B1008091B0003D
:1019000081608093B000809191008260809391000B
:10191000809191008160809391008091900081601E
:10192000809390008091A10082608093A1008091BB
:10193000A10081608093A1008091A00081608093CC
:10194000A00080912101826080932101809121017A
:10195000816080932101809120018160809320012A
:1019600080917A00846080937A0080917A0082600E
:1019700080937A0080917A00816080937A008091D0
:101980007A00806880937A001092C100E0916F0421
:10199000F091700482E08083E0916B04F0916C041C
:1019A0001082E0916D04F0916E048FEC80831092B0
:1019B0007704E0917304F091740486E08083E091F1
:1019C0007104F0917204808180618083E0917104E0
:1019D000F0917204808188608083E0917104F091BD
:1019E0007204808180688083E0917104F0917204B8
:1019F00080818F7D80838DEC92E00E94B00A8BE124
:101A000090E00E940C0B8BE190E09093A9038093EF
:101A1000A8031092AC031092AB031092B003109283
:101A2000AF0380E090E02091AF033091B0032B3101
:101A3000310510F5E091AF03F091B003EE0FFF1FF9
:101A4000ED5AFD4F208131818217930750F4E091C8
:101A5000AF03F091B003EE0FFF1FED5AFD4F8081F1
:101A600091812091AF033091B0032F5F3F4F3093AE
:101A7000B0032093AF03D7CF9093AC038093AB0315
:101A80000E940C0B1092B0031092AF0380E1809380
:101A900081001092800081E08093A50320E43FE163
:101AA0003093A4032093A3033093870020938600F0
:101AB00091E19093810026EB33E030938A032093E9
:101AC000890380936F00109288031092870310920D
:101AD00086031092850310928403809383031092EF
:101AE000820361E084E10E948A0761E085E10E944F
:101AF0008A078091B9008E7F8093B9008091B900E8
:101B00008D7F8093B90088E48093B80085E480934A
:101B1000BC001092130580911705823018F098E0F0
:101B20009093130590911805992339F0813029F489
:101B30008091130584608093130562E370E080E078
:101B400090E00E944308609119058EE095E00E94A4
:101B5000ED0568EE73E080E090E00E94430860E3EA
:101B60008EE095E00E9452060BE416E4C80101974E
:101B7000F1F760E38EE095E00E945206C8010197FC
:101B8000F1F760E38EE095E00E94520683E592E073
:101B90000197F1F760E28EE095E00E9452066091B5
:101BA0001305606240E08EE095E00E946B0684E0E1
:101BB0008093140540E06CE08EE095E00E946B0697
:101BC0000E947F0782E08093150540E066E08EE08A
:101BD00095E00E946B0640E062E08EE095E00E9496
:101BE0006B068BE39FE10197F1F71092940310923B
:101BF0009503109296031092970368EC70E088E0CA
:101C000095E00E943E0A84EF91E09093A2038093B6
:101C1000A1039093A00380939F0360E086E00E945D
:101C2000070860E086E00E948A0760E084E00E9486
:101C3000070860E084E00E948A0786E193E09093C1
:101C400008028093070280916A00836080936A0093
:101C5000EC9A61E083E20E94070860E083E20E9460
:101C60008A0761E086E20E94070860E086E20E943F
:101C70008A0761E088E20E94070860E088E20E942B
:101C80008A0761E08FE20E94070860E08FE20E940D
:101C90008A0761E087E20E94070860E087E20E940D
:101CA0008A0761E08CE00E94070860E08CE00E94F7
:101CB0008A0761E089E20E94070860E089E20E94E9
:101CC0008A0761E084E20E94070860E084E20E94E3
:101CD0008A0761E085E20E94070860E085E20E94D1
:101CE0008A0710928B031092B30310929A0380E03C
:101CF0000E94510768ED72E08EE095E00E944A0C68
:101D000081E00E9451076DEC72E08EE095E00E9448
:101D10004A0C60ED77E080E090E00E9443080E946A
:101D20007F0760919003709191038091920390914D
:101D300093032091000230910102409102025091E0
:101D400003022F83388749875A870E94B8132F814F
:101D5000388549855A850E9417146093B40370939F
:101D6000B5038093B6039093B70380E00E945107B8
:101D70004091B4035091B5036091B6037091B703DD
:101D800022E08EE095E00E94680B6AEE72E08EE041
:101D900095E00E944A0C81E00E94510740919B030C
:101DA00050919C0360919D0370919E038EE095E09D
:101DB0000E94220B81E08093040211E000E170E4B4
:101DC000E72E7FE1F72EE1E1BE2EF4EFCF2EDD24EA
:101DD000D3941A8219821C821B821E821D826091FA
:101DE0000805709109056115710541F040910C05D8
:101DF00050910D05CE0101960E94650A6DEE72E0CC
:101E0000CE0101960E941F0A882321F0109304023C
:101E10000E94900A63EF72E0CE0101960E941F0AB1
:101E2000882321F0109204020E94900A6AEF72E067
:101E3000CE0101960E941F0A81112AC06EEF72E046
:101E4000CE0101960E941F0A882309F4C9C010928E
:101E5000810010928500109284008091A50380611A
:101E60008093810080E1809381001092800081E066
:101E70008093A50380E49FE19093A4038093A30340
:101E8000909387008093860081E1809381009DC0BC
:101E90001092810010928500109284008091A50319
:101EA00080618093810000938100109280001093E4
:101EB000A503F092A403E092A303F0928700E092BE
:101EC0008600B09281008091940390919503A09137
:101ED0009603B0919703892B8A2B8B2B09F4AECFF5
:101EE000609194037091950380919603909197036C
:101EF0000E94540B61E086E20E948A078091900361
:101F000090919103A0919203B09193038C399F4FCC
:101F1000AF4FBF4FC1F60093810060E086E20E94A0
:101F20008A07609190037091910380919203909140
:101F300093032091000230910102409102025091DE
:101F400003022F83388749875A870E94B8132F814D
:101F5000388549855A850E9417146093B40370939D
:101F6000B5038093B6039093B7034091B4035091A7
:101F7000B5036091B6037091B70322E08FE594E05A
:101F80000E94680B63E073E08FE594E00E949B0A77
:101F900060919403709195038091960390919703BB
:101FA0000E94540B10929403109295031092960382
:101FB0001092970310929003109291031092920343
:101FC000109293030E94900A7ECF609194037091C7
:101FD000950380919603909197030E94540BF5CF3F
:101FE00066E073E0CE0101960E941F0A882309F47F
:101FF00046C0D092A203C092A103D092A003C09287
:102000009F0340910C0550910D056091080570915A
:1020100009058FE594E00E94260763E073E08FE5F1
:1020200094E00E949B0A6BE073E08FE594E00E94CD
:102030004A0C4091A1035091A203052E000C660B9F
:10204000770B8FE594E00E94220B6BE073E08FE545
:1020500094E00E944A0C40919F035091A003052EEA
:10206000000C660B770B8FE594E00E94220B6BE06F
:1020700073E08FE594E00E944A0C0E94900A6EE0A3
:1020800073E0CE0101960E941F0A882309F463C001
:1020900061E085E20E948A0761E088E20E948A0787
:1020A00068E873E180E090E00E94430860E088E225
:1020B0000E948A0760E085E20E948A070E947F07EB
:1020C000609190037091910380919203909193039A
:1020D00020910002309101024091020250910302CE
:1020E0002F83388749875A870E94B8132F813885F4
:1020F00049855A850E9417146093B4037093B50301
:102100008093B6039093B70380E00E9451074091FB
:10211000B4035091B5036091B6037091B70322E008
:102120008EE095E00E94680B6AEE72E08EE095E02A
:102130000E944A0C81E00E94510740919B035091FC
:102140009C0360919D0370919E038EE095E00E9438
:10215000220B0E94900A89819A810E94AC1663E149
:1021600073E088E095E00E941F0A8823D1F180E2A5
:1021700093E00E94B00A109204021093B9031093E6
:10218000B80310929903109298031092940310923E
:10219000950310929603109297031092B403109235
:1021A000B5031092B6031092B7031093B3031092C5
:1021B0009003109291031092920310929303109245
:1021C0008C0310928D0310928E0310928F03109245
:1021D000B2031092B1031092B0031092AF030E94A9
:1021E000900A6FE273E088E095E00E941F0A88235E
:1021F000F1F18DE393E00E94B00A10920402109373
:10220000B9031093AE031092B0031092AF03109273
:1022100099031092980310929403109295031092D0
:102220009603109297031092B2031092B10310928A
:10223000B4031092B5031092B6031092B703109333
:10224000B303109290031092910310929203109294
:10225000930310928C0310928D0310928E031092B0
:102260008F031092B2031092B1030E94900A8091E2
:102270008B038111D4C18091B3038111D0C18091AE
:10228000AF039091B0032091A8033091A903A90155
:102290004150510984179507E0F4DC01AA0FBB1FD8
:1022A000A15EBD4F880F991FFC01E35EFD4F8D912C
:1022B0009C9140815181841B950B9093A70380933F
:1022C000A603181619061CF41092AD0304C0892B3E
:1022D00011F01093AD038091B903882309F467C00E
:1022E0008091980390919903E091AF03F091B0032E
:1022F000EE0FFF1FED5AFD4F4081518148175907DE
:1023000008F055C08091AF039091B00328173907AA
:1023100008F44DC062E673E08FE594E00E944A0C39
:102320008091AF039091B0030E940C0B66E673E0BE
:102330008FE594E00E944A0CE091AF03F091B00366
:10234000EE0FFF1FED5AFD4F40815181052E000C0D
:10235000660B770B8FE594E00E94220B63E073E03D
:102360008FE594E00E949B0A8091AF039091B003A7
:1023700001969093B0038093AF031093AA03109239
:1023800094031092950310929603109297038091F4
:10239000AE03882341F010929003109291031092A3
:1023A00092031092930361E085E20E948A07809174
:1023B000AE03882309F4C5C08091AD039091AA03B0
:1023C000992309F4BCC0882379F10E94E506809125
:1023D000900390919103A0919203B09193031816EA
:1023E00019061A061B0674F48091900390919103CC
:1023F000A0919203B0919303181619061A061B06B2
:1024000084F09FC08091900390919103A0919203DA
:10241000B0919303181619061A061B0609F00CF45E
:1024200090C06BE473E02EC00E94D10680919003AF
:1024300090919103A0919203B091930318161906FD
:102440001A061B0674F48091900390919103A09159
:102450009203B0919303181619061A061B0684F00E
:1024600070C08091900390919103A0919203B091DC
:102470009303181619061A061B0609F00CF461C01E
:1024800061E573E08FE594E00E944A0C0E94BD066E
:102490001092AA038091900390919103A0919203CE
:1024A000B0919303181619061A061B064CF4809176
:1024B000900390919103A0919203B09193030FC068
:1024C0008091900390919103A0919203B091930316
:1024D000B095A095909581959F4FAF4FBF4F0297B4
:1024E000A105B10574F12091B1033091B20380913F
:1024F000900390919103A0919203B09193031816C9
:1025000019061A061B064CF48091900390919103D2
:10251000A0919203B09193030BC08091900390918E
:102520009103A0919203B0919303919581959109A4
:10253000820F931F9093B2038093B10302C00E9455
:10254000BD068091B803882379F18091AD03909105
:10255000AA03992339F1882389F00E94E506809126
:10256000940390919503A0919603B09197038D9752
:10257000A105B105CCF08BE493E010C00E94D10618
:102580008091940390919503A0919603B091970345
:102590008D97A105B10544F081E593E00E94B00A52
:1025A0001092AA030E94BD062091980330919903CE
:1025B0008091AB039091AC038217930720F51092A2
:1025C0009903109298031092B9031092AE031092DF
:1025D000B80360E08FE20E948A0787E593E00E94DB
:1025E000B00A4091B1035091B203052E000C660B66
:1025F000770B8FE594E00E94220B63E073E08FE598
:1026000094E00E949B0A8091AE03811105C08091E5
:10261000B803882309F444C00E942604DACB0E9440
:102620007F0760918C0370918D0380918E03909150
:102630008F032091000230910102409102025091DB
:1026400003022F83388749875A870E94B8132F8146
:10265000388549855A850E9417146093B403709396
:10266000B5038093B6039093B70380E00E945107AF
:102670004091B4035091B5036091B6037091B703D4
:1026800022E08EE095E00E94680B6AEE72E08EE038
:1026900095E00E944A0C10928B031092B303EFCD89
:1026A0000E94BD06B9CF80910805909109050C9450
:1026B000AC16EFE5F4E01382128288EE93E0A0E01E
:1026C000B0E084839583A683B78325E932E0318324
:1026D000208325EC30E03587248724EC30E03787F1
:1026E000268720EC30E0318B208B21EC30E0338BDF
:1026F000228B22EC30E0358B248B26EC30E0378BBC
:10270000268B118E128E138E148EECEFF4E0138252
:10271000128284839583A683B78387EA92E09183AC
:102720008083EEE0F5E01382128289EB92E09183E0
:10273000808387E2848384E1808784E081871286B6
:1027400088E08387E8E0F5E011821082138212822C
:102750001582148240E050E065E073E0CF010C94F4
:10276000650A0E94F31308F481E00895E89409C013
:1027700097FB3EF490958095709561957F4F8F4FB4
:102780009F4F9923A9F0F92F96E9BB279395F695CA
:10279000879577956795B795F111F8CFFAF4BB0F48
:1027A00011F460FF1BC06F5F7F4F8F4F9F4F16C0AC
:1027B000882311F096E911C0772321F09EE8872F36
:1027C000762F05C0662371F096E8862F70E060E0F2
:1027D0002AF09A95660F771F881FDAF7880F96956B
:1027E000879597F90895990F0008550FAA0BE0E80F
:1027F000FEEF16161706E807F907C0F012161306C3
:10280000E407F50798F0621B730B840B950B39F402
:102810000A2661F0232B242B252B21F408950A2668
:1028200009F4A140A6958FEF811D811D08950E9496
:102830002A140C949B140E948D1438F00E94941456
:1028400020F0952311F00C9484140C948A14112414
:102850000C94CF140E94AC1470F3959FC1F3950FA4
:1028600050E0551F629FF001729FBB27F00DB11D14
:10287000639FAA27F00DB11DAA1F649F6627B00DA4
:10288000A11D661F829F2227B00DA11D621F739F8D
:10289000B00DA11D621F839FA00D611D221F749F9B
:1028A0003327A00D611D231F849F600D211D822FE2
:1028B000762F6A2F11249F5750409AF0F1F0882309
:1028C0004AF0EE0FFF1FBB1F661F771F881F915036
:1028D0005040A9F79E3F510580F00C9484140C944D
:1028E000CF145F3FE4F3983ED4F3869577956795D0
:1028F000B795F795E7959F5FC1F7FE2B880F911D60
:102900009695879597F9089597F99F6780E870E005
:1029100060E008959FEF80EC089500240A94161655
:10292000170618060906089500240A9412161306BD
:10293000140605060895092E0394000C11F488234B
:1029400052F0BB0F40F4BF2B11F460FF04C06F5F67
:102950007F4F8F4F9F4F089557FD9058440F551F3D
:1029600059F05F3F71F04795880F97FB991F61F011
:102970009F3F79F087950895121613061406551F88
:10298000F2CF4695F1DF08C0161617061806991FF4
:10299000F1CF86957105610508940895E894BB27E9
:1029A00066277727CB0197F908955058BB27AA27A8
:1029B0000E94ED140C949B140E948D1438F00E9418
:1029C000941420F039F49F3F19F426F40C948A14DF
:1029D0000EF4E095E7FB0C948414E92F0E94AC14EC
:1029E00058F3BA17620773078407950720F079F444
:1029F000A6F50C94CE140EF4E0950B2EBA2FA02D54
:102A00000B01B90190010C01CA01A0011124FF279B
:102A1000591B99F0593F50F4503E68F11A16F04096
:102A2000A22F232F342F4427585FF3CF4695379595
:102A30002795A795F0405395C9F77EF41F16BA0B5A
:102A4000620B730B840BBAF09150A1F0FF0FBB1F08
:102A5000661F771F881FC2F70EC0BA0F621F731F51
:102A6000841F48F4879577956795B795F7959E3FAE
:102A700008F0B0CF9395880F08F09927EE0F97953F
:102A8000879508950E9456150C949B140E949414E7
:102A900058F00E948D1440F029F45F3F29F00C9407
:102AA000841451110C94CF140C948A140E94AC1409
:102AB00068F39923B1F3552391F3951B550BBB276D
:102AC000AA2762177307840738F09F5F5F4F220FB2
:102AD000331F441FAA1FA9F335D00E2E3AF0E0E8A9
:102AE00032D091505040E695001CCAF72BD0FE2FF3
:102AF00029D0660F771F881FBB1F26173707480787
:102B0000AB07B0E809F0BB0B802DBF01FF2793583E
:102B10005F4F3AF09E3F510578F00C9484140C946A
:102B2000CF145F3FE4F3983ED4F38695779567958D
:102B3000B795F7959F5FC9F7880F911D9695879573
:102B400097F90895E1E0660F771F881FBB1F621792
:102B500073078407BA0720F0621B730B840BBA0B50
:102B6000EE1F88F7E09508950E94B41488F09F57EF
:102B700098F0B92F9927B751B0F0E1F0660F771FA1
:102B8000881F991F1AF0BA95C9F714C0B13091F097
:102B90000E94CE14B1E008950C94CE14672F782FC4
:102BA0008827B85F39F0B93FCCF38695779567955C
:102BB000B395D9F73EF490958095709561957F4FC8
:102BC0008F4F9F4F08950E94F31308F48FEF0895DD
:102BD0000E94F313880B990B0895A1E21A2EAA1BE9
:102BE000BB1BFD010DC0AA1FBB1FEE1FFF1FA217BD
:102BF000B307E407F50720F0A21BB30BE40BF50BBA
:102C0000661F771F881F991F1A9469F76095709542
:102C1000809590959B01AC01BD01CF010895EE0F09
:102C2000FF1F881F8BBF0790F691E02D1994CF935B
:102C3000DF938230910510F482E090E0E09121056D
:102C4000F091220520E030E0C0E0D0E0309711F1B3
:102C50004081518148175907C0F04817590761F45E
:102C600082819381209719F09B838A832BC0909354
:102C700022058093210526C02115310519F0421740
:102C8000530718F49A01BE01DF01EF010280F381BE
:102C9000E02DDCCF2115310509F1281B390B24303B
:102CA000310590F412968D919C91139761157105E1
:102CB00021F0FB019383828304C0909322058093CB
:102CC0002105FD01329644C0FD01E20FF31F8193FF
:102CD0009193225031092D933C933AC020911F05C6
:102CE00030912005232B41F42091190230911A02D2
:102CF0003093200520931F05209117023091180270
:102D00002115310541F42DB73EB740911B0250917A
:102D10001C02241B350BE0911F05F0912005E217E2
:102D2000F307A0F42E1B3F0B2817390778F0AC01EE
:102D30004E5F5F4F2417350748F04E0F5F1F5093CB
:102D4000200540931F058193919302C0E0E0F0E0DD
:102D5000CF01DF91CF9108950F931F93CF93DF930E
:102D6000009709F48CC0FC01329713821282009103
:102D70002105109122050115110581F42081318171
:102D8000820F931F20911F053091200528173907C6
:102D900079F5F0932005E0931F0571C0D80140E05C
:102DA00050E0AE17BF0750F412962D913C91139747
:102DB000AD012115310509F1D901F3CF9D01DA01EA
:102DC0003383228360817181860F971F8217930757
:102DD00069F4EC0128813981260F371F2E5F3F4FA0
:102DE000318320838A819B8193838283452B29F4BD
:102DF000F0932205E093210542C01396FC93EE93D5
:102E00001297ED01499159919E01240F351FE21748
:102E1000F30771F480819181840F951F02961196BA
:102E20009C938E938281938113969C938E93129799
:102E3000E0E0F0E0D80112968D919C9113970097F5
:102E400019F0F8018C01F6CF8D919C9198012E5FBD
:102E50003F4F820F931F20911F05309120052817A7
:102E6000390769F4309729F4109222051092210550
:102E700002C0138212821093200500931F05DF9178
:102E8000CF911F910F9108956F927F928F929F9291
:102E9000AF92BF92CF92DF92EF92FF920F931F9368
:102EA000CF93DF93EC01009789F4CB01DF91CF91B1
:102EB0001F910F91FF90EF90DF90CF90BF90AF9058
:102EC0009F908F907F906F900C941716FC01E60FE7
:102ED000F71F9C0122503109E217F30708F4ACC038
:102EE000D9010D911C91119706171707B0F0053005
:102EF000110508F49FC0C80104978617970708F4C6
:102F000099C002501109061B170B019311936D9381
:102F10007C93CF010E94AC168DC05B01A01AB10A50
:102F20004C01800E911EA0912105B091220540E038
:102F300050E0E12CF12C109709F44AC0A815B9050E
:102F4000D1F56D907C901197630182E0C80ED11C81
:102F5000CA14DB0480F1A3014A195B096A0182E00B
:102F6000C80ED11C1296BC9012971396AC91B5E086
:102F7000CB16D10440F0B282A38351834083D901A0
:102F80006D937C930AC00E5F1F4FC301800F911F8A
:102F9000F90191838083EB2DFA2FE114F10431F0D4
:102FA000D7011396FC93EE93129744C0F093220539
:102FB000E09321053FC08D919C91119748175907C7
:102FC00008F4AC017D0112960D90BC91A02DB3CFF9
:102FD00080911F059091200588159905E1F4461709
:102FE0005707C8F48091170290911802009741F496
:102FF0008DB79EB740911B0250911C02841B950B0C
:10300000E817F907C8F4F0932005E0931F05F901CC
:10301000718360830FC0CB010E9417167C0100975B
:1030200059F0A801BE010E943218CE010E94AC16D0
:10303000C70104C0CE0102C080E090E0DF91CF91D3
:103040001F910F91FF90EF90DF90CF90BF90AF90C6
:103050009F908F907F906F90089581E090E0F8941A
:103060000C944B18FB01DC0102C001900D92415001
:103070005040D8F70895FB01DC018D910190801933
:103080000110D9F3990B0895FB01DC0101900D9219
:103090000020E1F7089511E0C6E5D1E000E006C0A8
:1030A000802FFE010E940F162196011DC735D10702
:0A30B00080E00807A9F7F894FFCFAD
:1030BA0014AE273F0101011E071E071E071E071E29
:1030CA00071E071E071E070000230580001E05D6DF
:1030DA000684083C0AF40BA20D5A0F1211C012788A
:1030EA00143016DE1796194E1B9619DE173016780D
:1030FA0014C01212115A0FA20DF40B3C0A8408D6FE
:10310A00061E050000EC09A012D917AB1C23214B9F
:10311A002530290B2B9C2E00323F3564387A3EFE2F
:10312A00422249534CA34F1C53C656B158B65C05AC
:10313A0061A865AC6A1E703479000040001400541E
:10314A000000000000F20126078A013902BB01993A
:10315A0001AD0100000000E302B30213038D02ABCC
:10316A00029C028E02000000008C0626071303123E
:10317A000300000000D30326071303120342696504
:10318A006E76656E69646F0050726F6772616D6109
:10319A0020526F6C61646F7261006D6D0070776DA3
:1031AA006F6E0070776D6F66660076656C00746589
:1031BA006D70000D0A006365726F000A0D00746578
:1031CA00737400727574696E617469656D706F00ED
:1031DA00436F6D656E7A6F20527574696E61007205
:1031EA007574696E61656E636F6465720052757499
:1031FA00696E61456E636F646572005375626972C8
:10320A000042616A6172005465726D696E616D6F28
:10321A007300693D20005469656D706F4163747570
:10322A00616C3D20006E616E00696E66006F7666A5
:02323A00000092
:00000001FF
