:100000000C9466010C942D0A0C94020A0C94D709E6
:100010000C94AC090C9481090C9456090C942B098E
:100020000C9400090C9497010C9497010C9497017F
:100030000C9497010C9497010C9497010C949701E0
:100040000C9497010C9497010C9497010C949701D0
:100050000C94A1060C9497010C9497010C94B6088B
:100060000C9497010C9494040C946A040C949701DA
:100070000C9497010C9497010C9497010C949701A0
:100080000C9497010C9497010C9497010C94970190
:100090000C9497010C9497010C9497010C94CA044A
:1000A0000C9497010C9497010C9497010C94970170
:1000B0000C9497010C9497010C9497010C94970160
:1000C0000C9497010C9497010C9497010C94970150
:1000D0000C9497010C9497010C9497010C94970140
:1000E0000C9497011B071E070D07110717075507EB
:1000F000220726072C07300734073A073E07420736
:10010000550748074C0750070C949B060C9426078C
:100110000C942C070C94F2020C9430070C944802B7
:100120000C944C070C9434070C9422070C949C02FA
:100130000C9434130C9417070C9422030C9411079D
:100140000C9405040C9455070C94C2020C947B0784
:100150000C94CA030C94BC010C9499010C94830771
:100160000C9401020C943A070C9442070C940D076E
:100170000C943E070C949D020C9450070C94CA01F9
:100180000C9421030C94AB020C94A8010C9425034D
:100190000C941E070C943A130C941B070C94420306
:1001A0000C9448070C94BA02000021002400270098
:1001B0002A002D0030003300010100000401070176
:1001C0000A0100002200250028002B002E0031002B
:1001D000340002010000050108010B0100002000AD
:1001E0002300260029002C002F003200000100000F
:1001F00003010601090105050505070508080808AA
:10020000020202020A0A08080404040401010101AE
:1002100001010101030303030303030304070707A9
:100220000C0C0C0C0C0C0C0C02020202060606064E
:10023000060606060B0B0B0B0B0B0B0B010210201B
:10024000200808102040102040800201020108040C
:1002500002010102040810204080804020100804A0
:1002600002018004020180402010080402010804F9
:10027000020101020408102040800102040810203D
:10028000408000000A0B02090C0D0E080703040150
:10029000000000000000000000000000000000005E
:1002A000000000000000000000000000000012112B
:1002B000100000000000000000000000000000002E
:1002C00000000000000000003A13341311241FBE88
:1002D000CFEFD1E2DEBFCDBF00E00CBF24E0AEE542
:1002E000B3E001C01D92A73FB207E1F713E0A0E021
:1002F000B2E0ECE7F0E300E00BBF02C007900D9224
:10030000AE35B107D9F711E0C5E6D1E000E006C08F
:1003100021970109802FFE010E94F015C436D107F4
:1003200080E00807A9F70E946F0C0C942C180C941D
:100330000000FC01538D448D252F30E0842F90E088
:10034000821B930B541710F0CF96089501970895D0
:10035000FC01918D828D981761F0828DDF01A80FCD
:10036000B11D5D968C91928D9F5F9F73928F90E0EF
:1003700008958FEF9FEF0895FC01918D828D98175E
:1003800031F0828DE80FF11D858D90E008958FEF9B
:100390009FEF0895FC01918D228D892F90E0805C64
:1003A0009F4F821B91098F73992708958FE294E0E4
:1003B0000E94CA0121E0892B09F420E0822F0895D0
:1003C000FC01848DDF01A80FB11DA35ABF4F2C91F2
:1003D000848D90E001968F739927848FA689B789C1
:1003E0002C93A089B1898C9180648C93938D848D9A
:1003F000981306C00288F389E02D80818F7D808369
:100400000895EF92FF920F931F93CF93DF93EC0128
:1004100081E0888F9B8D8C8D981305C0E889F989C0
:10042000808185FD24C0F62E0B8D10E00F5F1F4FDD
:100430000F731127E02E8C8DE8120CC00FB607FC4D
:10044000FACFE889F989808185FFF5CFCE010E9436
:10045000E001F1CF8B8DFE01E80FF11DE35AFF4F54
:10046000F0820B8FEA89FB898081806207C0EE8968
:10047000FF896083E889F98980818064808381E0D5
:1004800090E0DF91CF911F910F91FF90EF90089531
:10049000CF93DF93EC01888D8823C9F0EA89FB892B
:1004A000808185FD05C0A889B9898C9186FD0FC022
:1004B0000FB607FCF5CF808185FFF2CFA889B989F7
:1004C0008C9185FFEDCFCE010E94E001E7CFDF9157
:1004D000CF91089585ED8093BC008091BC0084FD90
:1004E000FCCF1092600308954091E603262F30E080
:1004F000240F311D21323105DCF4209160032430BA
:10050000C9F4FC0180E090E0861758F43091E603CE
:100510002191DC01AC53BC4FA30FB11D2C9301966C
:10052000F3CF8091E603680F6093E60380E00895BF
:1005300081E0089582E00895089581E090E030918F
:10054000640320916303321710F480E090E09195EA
:1005500081959109089580916403909163038917AF
:1005600030F48F5F8093640380E090E008958FEF14
:100570009FEF08958091630390E020916403821BB4
:1005800091090895CF92DF92EF92FF920F931F93FC
:10059000CF93DF937C01262F972F8A018091C3038D
:1005A000882391F0C62FD72F6E01C40ED51ECC150F
:1005B000DD0571F06991D701ED91FC910190F08119
:1005C000E02DC7011995F3CF642F822F0E9474028A
:1005D000C801DF91CF911F910F91FF90EF90DF90B5
:1005E000CF900895CF93DF931F92CDB7DEB7698385
:1005F0002091C3032223D1F020916103203240F0E7
:1006000021E030E0FC013383228380E090E015C0DC
:1006100080916203E82FF0E0ED55FC4F99819083C3
:100620008F5F809362038093610305C061E0CE0118
:1006300001960E94740281E090E00F90DF91CF91CB
:100640000895089580E090E0089580916F0390915F
:10065000700301969093700380936F0380916B03F6
:1006600090916C03A0916D03B0916E030196A11D52
:10067000B11D80936B0390936C03A0936D03B093B3
:100680006E0308950E940E18FF920F931F93CF934D
:10069000DF931F921F92CDB7DEB78FE294E00E94E6
:1006A000CA01892BD1F18FE294E00E94A801F82EB3
:1006B00089831A820091DC041091DD040F5F1F4FC3
:1006C000B80188ED94E00E94770A882399F0209180
:1006D000D8043091D9048091DC049091DD04BE01EE
:1006E0006F5F7F4F820F931F0E9425181093DD04C8
:1006F0000093DC048DE0F81204C081E08093A10334
:100700000CC080E2F81209C00F900F90DF91CF91DA
:100710001F910F91FF900C94C90A0F900F90DF91D9
:10072000CF911F910F91FF9008950E94D6018111E2
:1007300025C080E090E0892B41F080E090E0892B9B
:1007400021F00E94000081111CC080E090E0892B04
:1007500041F080E090E0892B21F00E94000081119F
:1007600013C080E090E0892BA1F080E090E0892B1D
:1007700081F00E94000081110AC008950E94440384
:10078000D8CF0E940000E1CF0E940000EACF0C9475
:100790000000089583E00E94E70721E0892B09F417
:1007A00020E02093A0038091A003882369F180B109
:1007B00085FB882780F980939F0380919F03811197
:1007C00003C081E090E002C08FEF9FEF4091710382
:1007D000509172036091730370917403092E000CA1
:1007E000AA0BBB0B840F951FA61FB71F8093710325
:1007F00090937203A0937303B09374039091790361
:1008000081E089278093790308950F931F9382E0F5
:100810000E94E70721E0892B09F420E02093A00340
:100820008091A003882309F452C080B183FB8827FC
:1008300080F980939E0380919E03811103C081E023
:1008400090E002C08FEF9FEF4091670350916803E3
:100850006091690370916A03092E000CAA0BBB0B0F
:100860008A019B01081B190B2A0B3B0B00936703A2
:10087000109368032093690330936A0380919E0369
:10088000811103C081E090E002C08FEF9FEF4091A3
:100890007503509176036091770370917803092E68
:1008A000000CAA0BBB0B8A019B01081B190B2A0B1E
:1008B0003B0B0093750310937603209377033093DB
:1008C000780390917A0381E0892780937A031F91BE
:1008D0000F9108951F920F920FB60F9211240BB62D
:1008E0000F922F933F934F935F936F937F938F93C9
:1008F0009F93AF93BF93EF93FF938FE294E00E9497
:10090000E001FF91EF91BF91AF919F918F917F9106
:100910006F915F914F913F912F910F900BBE0F9070
:100920000FBE0F901F9018951F920F920FB60F9247
:1009300011240BB60F922F938F939F93EF93FF93F6
:10094000E0913F04F09140048081E0914504F091F2
:10095000460482FD12C09081809148048F5F8F739E
:1009600020914904821751F0E0914804F0E0E15DE4
:10097000FB4F958F8093480401C08081FF91EF91D8
:100980009F918F912F910F900BBE0F900FBE0F90E4
:100990001F9018951F920F920FB60F9211240BB64D
:1009A0000F922F933F934F935F936F937F938F9308
:1009B0009F93AF93BF93EF93FF938091B900887F8C
:1009C000803609F49CC068F5883209F45BC090F465
:1009D000803109F454C038F4882309F4F6C0883013
:1009E00009F44DC0F6C0883109F44CC0803209F4D6
:1009F0005DC0EFC0803409F468C048F4803309F466
:100A000055C0883309F0E5C080930B04D8C0803509
:100A100009F44FC0883509F45DC0883409F0D9C0A5
:100A2000D6C0883909F4C7C0A8F4883709F467C06C
:100A300038F4883609F463C0803709F460C0C9C04F
:100A4000883809F4B8C0803909F45FC0803809F0EB
:100A5000C0C05BC0803B09F486C038F4803A09F41A
:100A600066C0883A09F47FC0B4C0803C09F4A7C0CE
:100A7000883C09F4A4C0883B09F48AC0AAC08091CC
:100A80002E0410C090912D0480912C04981770F5BD
:100A9000E0912D0481E08E0F80932D04F0E0E45F5F
:100AA000FB4F80818093BB0085EC86C080930B0454
:100AB0008EC0E0912D0481E08E0F80932D048091F3
:100AC000BB00F0E0E45FFB4F808390912D048091A8
:100AD0002C046EC0E0912D0481E08E0F80932D04D4
:100AE0008091BB00F0E0E45FFB4F808380915F0367
:100AF00081116DC081E080935E0384EA61C083E070
:100B00008093600310920A04CFCF80910A04803250
:100B100008F051C0E0910A0481E08E0F80930A042E
:100B20008091BB00F0E0E651FC4F8083BDCF85ECA7
:100B30008093BC001092600380910A04803230F4EC
:100B4000E0910A04F0E0E651FC4F108260910A0443
:100B500070E0E091E803F091E9038AEE93E01995E3
:100B600010920A0436C084E0809360031092E70379
:100B70001092E603E091E403F091E503199580916A
:100B8000E603811105C081E08093E6031092C4035F
:100B9000E091E70381E08E0F8093E703F0E0EC53F0
:100BA000FC4F80818093BB009091E7038091E60326
:100BB000981708F479CF85E88093BC000AC085ECCB
:100BC0008093BC001092600304C010920B040E943A
:100BD0006A02FF91EF91BF91AF919F918F917F91A9
:100BE0006F915F914F913F912F910F900BBE0F909E
:100BF0000FBE0F901F901895CF93FC01C48121E088
:100C00002093C303C093A203109262031092610366
:100C10008385682B8CEC94E00E94F2028091610342
:100C2000813208F046C0909160039111FCCF92E0B0
:100C30009093600391E090935F039FEF90930B0478
:100C400010922D0480932C04A3EAB3E02CE034E04E
:100C5000F9019E2F921B981718F49D919193F9CF4B
:100C600010922E0480912E04CC0FC82BC0932E041A
:100C700080915E03813061F410925E0380912E04B6
:100C80008093BB008091BC0083FDF8CF85EC01C050
:100C900085EE8093BC00809160038230E1F3809107
:100CA0000B048F3F31F080910B04803211F0809162
:100CB0000B0410926203109261031092C303CF9150
:100CC00008950F931F93CF938C01C62F0E94FC05AC
:100CD0006C2F6460C8010E94FC056C2F6B7FC801FB
:100CE0000E94FC0583EC90E00197F1F7CF911F91F2
:100CF0000F910895FF920F931F93CF93DF931F924D
:100D0000CDB7DEB78C01F62E962F907F692F642B1E
:100D1000C80149830E94610680E1F89EB001112458
:100D20004981642BC8010F90DF91CF911F910F91E2
:100D3000FF900C94610641E00E947A0681E090E009
:100D400008951F920F920FB60F9211240BB60F92B7
:100D50002F933F934F935F936F937F938F939F93C3
:100D6000AF93BF93EF93FF93E0916503F091660318
:100D70001995FF91EF91BF91AF919F918F917F91C5
:100D80006F915F914F913F912F910F900BBE0F90FC
:100D90000FBE0F901F90189560E085E20E9410082A
:100DA00060E084E20E94100860E08CE00E9410087D
:100DB00060E087E20E94100860E086E20C94100870
:100DC00061E08CE00E94100860E084E20E9410085C
:100DD00061E087E20E94100861E08FE20C94100845
:100DE00061E084E20E94100861E086E20E9410083F
:100DF00061E08CE00E94100860E08FE20C94100823
:100E000090E0FC013197E231F10508F04EC08827EF
:100E1000EE58FF4F8F4F0C94F015809180008F7724
:100E200003C0809180008F7D809380000895809121
:100E30008000877FF9CF84B58F7702C084B58F7D1E
:100E400084BD08958091B0008F7703C08091B00079
:100E50008F7D8093B0000895809190008F7707C0B8
:100E6000809190008F7D03C080919000877F809358
:100E7000900008958091A0008F7707C08091A00016
:100E80008F7D03C08091A000877F8093A00008958C
:100E9000809120018F7707C0809120018F7D03C052
:100EA00080912001877F8093200108953FB7F894B7
:100EB0008091EF049091F004A091F104B091F204BC
:100EC00026B5A89B05C02F3F19F00196A11DB11DA5
:100ED0003FBFBA2FA92F982F8827820F911DA11DE0
:100EE000B11DBC01CD0142E0660F771F881F991F1D
:100EF0004A95D1F708950895DC01ED91FC91019098
:100F0000F081E02D1994CF92DF92EF92FF920F9330
:100F10001F93CF93DF936C017A018B01C0E0D0E087
:100F2000CE15DF0589F0D8016D918D01D601ED91C7
:100F3000FC910190F081E02DC6011995892B11F4E7
:100F40007E0102C02196ECCFC701DF91CF911F91A6
:100F50000F91FF90EF90DF90CF900895CF93DF93A4
:100F6000CDB7DEB728970FB6F894DEBF0FBECDBF62
:100F700098E0E6E8F2E0DE01119601900D929A9574
:100F8000E1F79091E704981710F48FEF890FFE01B5
:100F90003196E80FF11DE80FF11D6081606840E0B7
:100FA0008EED94E028960FB6F894DEBF0FBECDBF4D
:100FB000DF91CF910C947A0640E061E08EED94E0F1
:100FC0000E947A068BE39FE10197F1F70895CF9392
:100FD000DF93282F30E0F901EE57FD4F8491F9019E
:100FE000E45CFD4FD491F901EA50FE4FC491CC234B
:100FF00091F081110E940007EC2FF0E0EE0FFF1F2F
:10100000E452FE4FA591B491EC91ED2381E090E084
:1010100021F480E002C080E090E0DF91CF9108955C
:101020001F93CF93DF93282F30E0F901EE57FD4F48
:101030008491F901E45CFD4FD491F901EA50FE4F2F
:10104000C491CC23C9F0162F81110E940007EC2F08
:10105000F0E0EE0FFF1FEE53FE4FA591B4918FB756
:10106000F894111105C09C91ED2FE095E92302C081
:10107000EC91ED2BEC938FBFDF91CF911F910895F1
:10108000CF93DF9390E0FC01E45CFD4F2491FC01E1
:10109000EA50FE4F8491882361F190E0880F991FF8
:1010A000FC01E855FE4FC591D491FC01EE53FE4F73
:1010B000A591B491611109C09FB7F89488812095DA
:1010C00082238883EC912E230BC0623061F49FB79A
:1010D000F8943881822F809583238883EC912E2B7E
:1010E0002C939FBF06C08FB7F894E8812E2B2883DE
:1010F0008FBFDF91CF9108958F929F92AF92BF9251
:10110000CF92DF92EF92FF926B017C010E94560713
:101110004B015C01C114D104E104F104F1F00E941F
:101120005607DC01CB0188199909AA09BB09883E39
:101130009340A105B10570F321E0C21AD108E1087E
:10114000F10888EE880E83E0981EA11CB11CC11422
:10115000D104E104F10419F7DDCFFF90EF90DF90A7
:10116000CF90BF90AF909F908F9008951F920F9255
:101170000FB60F9211242F933F938F939F93AF93AA
:10118000BF938091EB049091EC04A091ED04B09199
:10119000EE043091EA0423E0230F2D3720F401966A
:1011A000A11DB11D05C026E8230F0296A11DB11D8A
:1011B0002093EA048093EB049093EC04A093ED0455
:1011C000B093EE048091EF049091F004A091F104AB
:1011D000B091F2040196A11DB11D8093EF0490938C
:1011E000F004A093F104B093F204BF91AF919F91EA
:1011F0008F913F912F910F900FBE0F901F901895D8
:101200001F920F920FB60F9211240BB60F922F93CD
:101210003F934F935F936F937F938F939F93AF937E
:10122000BF93EF93FF93E0911202F091130219958F
:10123000FF91EF91BF91AF919F918F917F916F91AE
:101240005F914F913F912F910F900BBE0F900FBE6A
:101250000F901F9018951F920F920FB60F921124A6
:101260000BB60F922F933F934F935F936F937F93A0
:101270008F939F93AF93BF93EF93FF93E0911002EF
:10128000F09111021995FF91EF91BF91AF919F914C
:101290008F917F916F915F914F913F912F910F901F
:1012A0000BBE0F900FBE0F901F9018951F920F92BC
:1012B0000FB60F9211240BB60F922F933F934F93BB
:1012C0005F936F937F938F939F93AF93BF93EF93AE
:1012D000FF93E0910602F09107021995FF91EF91BB
:1012E000BF91AF919F918F917F916F915F914F913E
:1012F0003F912F910F900BBE0F900FBE0F901F903C
:1013000018951F920F920FB60F9211240BB60F92E1
:101310002F933F934F935F936F937F938F939F93FD
:10132000AF93BF93EF93FF93E0910402F091050216
:101330001995FF91EF91BF91AF919F918F917F91FF
:101340006F915F914F913F912F910F900BBE0F9036
:101350000FBE0F901F9018951F920F920FB60F920D
:1013600011240BB60F922F933F934F935F936F937C
:101370007F938F939F93AF93BF93EF93FF93E091EE
:101380000E02F0910F021995FF91EF91BF91AF916D
:101390009F918F917F916F915F914F913F912F918D
:1013A0000F900BBE0F900FBE0F901F9018951F92BD
:1013B0000F920FB60F9211240BB60F922F933F93FB
:1013C0004F935F936F937F938F939F93AF93BF934D
:1013D000EF93FF93E0910C02F0910D021995FF91AC
:1013E000EF91BF91AF919F918F917F916F915F919D
:1013F0004F913F912F910F900BBE0F900FBE0F900A
:101400001F9018951F920F920FB60F9211240BB6D2
:101410000F922F933F934F935F936F937F938F938D
:101420009F93AF93BF93EF93FF93E0910A02F091E4
:101430000B021995FF91EF91BF91AF919F918F9101
:101440007F916F915F914F913F912F910F900BBEC4
:101450000F900FBE0F901F9018951F920F920FB60E
:101460000F9211240BB60F922F933F934F935F93DC
:101470006F937F938F939F93AF93BF93EF93FF935C
:10148000E0910802F09109021995FF91EF91BF9147
:10149000AF919F918F917F916F915F914F913F910C
:1014A0002F910F900BBE0F900FBE0F901F901895AD
:1014B000FC0124813581232B31F421E06115710574
:1014C000A1F0FB0108C0FC018081918161157105CB
:1014D00031F421E0FC018081882339F005C00E94AD
:1014E0001C1821E0892B09F020E0822F08950F932A
:1014F0001F93CF93DF93EC0188819981009729F0A6
:101500002A813B812617370788F48B016F5F7F4F55
:101510000E942517009761F0998388831B830A83B3
:101520002C813D81232B11F4FC01108281E001C04C
:1015300080E0DF91CF911F910F910895EF92FF927C
:101540000F931F93CF93DF93EC017B018A01BA01C4
:101550000E94770A2881398181110DC0211531053A
:1015600019F0C9010E948D16198218821D821C82F1
:101570001B821A8206C01D830C83B701C9010E9419
:101580002518CE01DF91CF911F910F91FF90EF9021
:10159000089540E050E067ED72E088ED94E00E942D
:1015A0009E0A88ED94E008956115710579F0FB01BC
:1015B00001900020E9F73197AF01461B570BDC0182
:1015C000ED91FC910280F381E02D199480E090E090
:1015D0000895CF93DF93BC018FE294E00E94D40A78
:1015E000EC0165ED72E08FE294E00E94D40A8C0F6A
:1015F0009D1FDF91CF9108954F925F926F927F92DE
:10160000EF92FF920F931F93CF93DF93CDB7DEB787
:10161000A1970FB6F894DEBF0FBECDBF7C01FA01D3
:10162000CB0119A2223008F42AE08E010F5D1F4F72
:10163000422E512C612C712CBF01A30192010E94FA
:10164000CE15F901CA01015011096A3014F4605D28
:1016500001C0695CD8016C93232B242B252B61F7E7
:10166000B801C7010E94D40AA1960FB6F894DEBF54
:101670000FBECDBFDF91CF911F910F91FF90EF90E3
:101680007F906F905F904F900895CF92DF92EF928E
:10169000FF920F931F93CF93DF9377FF1DC06A01D3
:1016A0007B01EC016DE20E947C078C0144275527E9
:1016B000BA014C195D096E097F092AE0CE010E942A
:1016C000FC0A800F911FDF91CF911F910F91FF9026
:1016D000EF90DF90CF9008952AE0DF91CF911F9196
:1016E0000F91FF90EF90DF90CF900C94FC0ACF9376
:1016F000DF93AB01BC018FE294E00E94450BEC014B
:1017000065ED72E08FE294E00E94D40A8C0F9D1F79
:10171000DF91CF9108954F925F926F927F928F9257
:101720009F92AF92BF92CF92DF92EF92FF92CF93B0
:10173000DF93EC016A017B01B22E9A01AB01C70174
:10174000B6010E94C915882319F062E573E027C02D
:1017500026013701E89477F82FEF3FEF4FE75FE777
:10176000C301B2010E94C91581110DC02FEF3FEFD7
:101770004FE75FE7C301B2010E94921318161CF4F1
:1017800066E573E00CC02FEF3FEF4FE75FE4C70162
:10179000B6010E94C41518169CF46AE573E0CE01E8
:1017A000DF91CF91FF90EF90DF90CF90BF90AF90FF
:1017B0009F908F907F906F905F904F900C94D40A81
:1017C0002FEF3FEF4FE75FECC701B6010E94921386
:1017D00087FDE3CF20E030E0A901C701B6010E94F8
:1017E000921387FF0AC06DE2CE010E947C074C0174
:1017F000F7FAF094F7F8F09402C0812C912CA12C08
:1018000060E070E080E09FE3AB1441F020E030E066
:1018100040E251E40E942315A394F6CF9B01AC0152
:10182000C701B6010E94B7142B013C010E94951517
:101830006B017C010E9497139B01AC01C301B201B3
:101840000E94B6142B013C012AE0B701A601CE018B
:101850000E94FC0A7C01E80CF91CBB2031F06EE20E
:10186000CE010E947C07E80EF91EDB2CDD2029F159
:1018700020E030E040E251E4C301B2010E94F813DD
:101880002B013C010E9495154B01A12CB12C2AE0A3
:10189000B501A401CE010E94FC0AE80EF91EC501A3
:1018A000B4010E9497139B01AC01C301B2010E94D5
:1018B000B6142B013C01DA94D9CFC701DF91CF9147
:1018C000FF90EF90DF90CF90BF90AF909F908F9060
:1018D0007F906F905F904F9008950C94D40ACF93AF
:1018E000DF93CDB7DEB72A970FB6F894DEBF0FBEF1
:1018F000CDBF789484B5826084BD84B5816084BD99
:1019000085B5826085BD85B5816085BD80916E009D
:10191000816080936E0010928100809181008260CE
:10192000809381008091810081608093810080910B
:1019300080008160809380008091B10084608093FA
:10194000B1008091B00081608093B00080919100DF
:1019500082608093910080919100816080939100DA
:10196000809190008160809390008091A1008260BE
:101970008093A1008091A10081608093A10080915B
:10198000A00081608093A0008091210182608093FB
:1019900021018091210181608093210180912001AA
:1019A00081608093200180917A00846080937A0026
:1019B00080917A00826080937A0080917A008160C1
:1019C00080937A0080917A00806880937A001092E8
:1019D000C100E0913F04F091400482E08083E091F7
:1019E0003B04F0913C041082E0913D04F0913E04F0
:1019F0008FEC808310924704E0914304F0914404FB
:101A000086E08083E0914104F0914204808180610E
:101A10008083E0914104F09142048081886080835A
:101A2000E0914104F0914204808180688083E091DC
:101A30004104F091420480818F7D80838AEC92E0A2
:101A40000E94E90A2AE04BE150E060E070E08FE29A
:101A500094E00E94FC0A65ED72E08FE294E00E943F
:101A6000D40A8BE190E090938603809385031092D3
:101A700089031092880310928D0310928C0340E02A
:101A800050E080918C0390918D034B9708F5E09185
:101A90008C03F0918D03EE0FFF1FE65EFD4F8081FA
:101AA00091814817590750F4E0918C03F0918D0310
:101AB000EE0FFF1FE65EFD4F4081518180918C0348
:101AC00090918D03019690938D0380938C03D9CFD1
:101AD000509389034093880360E070E02AE08FE22E
:101AE00094E00E94FC0A65ED72E08FE294E00E94AF
:101AF000D40A10928D0310928C0380E180938100B0
:101B00001092800081E08093820320E43FE13093D3
:101B1000810320938003309387002093860091E116
:101B20009093810025E233E03093660320936503B0
:101B300080936F001092640310926303109262030B
:101B4000109261031092600380935F0310925E0312
:101B500061E084E10E94100861E085E10E941008C4
:101B60008091B9008E7F8093B9008091B9008D7FFC
:101B70008093B90088E48093B80085E48093BC002A
:101B80001092E3048091E704823018F098E090937B
:101B9000E3049091E804992339F0813029F480918D
:101BA000E30484608093E30462E370E080E090E00B
:101BB0000E947C086091E9048EED94E00E94FC058F
:101BC00068EE73E080E090E00E947C0860E38EEDB8
:101BD00094E00E9461060BE416E4C8010197F1F756
:101BE00060E38EED94E00E946106C8010197F1F771
:101BF00060E38EED94E00E94610683E592E0019738
:101C0000F1F760E28EED94E00E9461066091E304DA
:101C1000606240E08EED94E00E947A0684E080935A
:101C2000E40440E06CE08EED94E00E947A060E94AD
:101C3000DC0782E08093E50440E066E08EED94E00E
:101C40000E947A0640E062E08EED94E00E947A06FF
:101C50008BE39FE10197F1F710926B0310926C03F5
:101C600010926D0310926E0368EC70E088ED94E0C2
:101C70000E94770A84EF91E090937F0380937E0324
:101C800090937D0380937C0360E088E10E9440088C
:101C900060E088E10E94100860E089E10E9440084D
:101CA00060E089E10E94100885E094E090930502CD
:101CB0008093040280916A00836080936A00EC9AAA
:101CC00060E08AE10E94400860E08AE10E9410081A
:101CD00060E08BE10E94400860E08BE10E94100808
:101CE0008AEC93E0909307028093060280916A0049
:101CF0008C6080936A00ED9A61E082E20E94400865
:101D000060E082E20E94100861E083E20E944008E5
:101D100060E083E20E94100861E086E20E944008D1
:101D200060E086E20E94100861E08FE20E944008B5
:101D300060E08FE20E94100861E08CE00E944008A1
:101D400060E08CE00E94100861E087E20E94400899
:101D500060E087E20E94100861E084E20E9440088F
:101D600060E084E20E94100861E085E20E94400881
:101D700060E085E20E94100810927A0310927903C5
:101D800010927B0380E00E94AE0768ED72E08EED5A
:101D900094E00E946D0C81E00E94AE076AEC72E054
:101DA0008EED94E00E946D0C60ED77E080E090E0B5
:101DB0000E947C080E94DC076091670370916803B1
:101DC0008091690390916A03209100023091010291
:101DD00040910202509103022F83388749875A8726
:101DE0000E9499132F81388549855A850E94F813DE
:101DF000609392037093930380939403909395035D
:101E000080E00E94AE07409192035091930360914D
:101E100094037091950322E08EED94E00E948B0B69
:101E20006AEE72E08EED94E00E946D0C81E00E94FB
:101E3000AE074091710350917203609173037091EA
:101E400074038EED94E00E94450B00E111E050E434
:101E5000E52E5FE1F52E61E1B62E74EFC72EDD248D
:101E6000D3941A8219821C821B821E821D82609169
:101E7000D8047091D9046115710541F04091DC04DA
:101E80005091DD04CE0101960E949E0A6DEE72E033
:101E9000CE0101960E94580A81112AC061EF72E0BA
:101EA000CE0101960E94580A882309F4C9C01092F5
:101EB00081001092850010928400809182038061DD
:101EC0008093810080E1809381001092800081E006
:101ED0008093820380E49FE1909381038093800349
:101EE000909387008093860081E1809381009DC05C
:101EF00010928100109285001092840080918203DC
:101F00008061809381000093810010928000109383
:101F10008203F0928103E0928003F0928700E092C6
:101F20008600B092810080916B0390916C03A09128
:101F30006D03B0916E03892B8A2B8B2B09F4AECFE6
:101F400060916B0370916C0380916D0390916E03AF
:101F50000E94770B61E083E20E9410088091670382
:101F600090916803A0916903B0916A038C399F4FE7
:101F7000AF4FBF4FC1F60093810060E083E20E9443
:101F800010086091670370916803809169039091D4
:101F90006A032091000230910102409102025091A7
:101FA00003022F83388749875A870E9499132F810C
:101FB000388549855A850E94F8136093920370937F
:101FC00093038093940390939503409192035091CF
:101FD0009303609194037091950322E08FE294E063
:101FE0000E948B0B65ED72E08FE294E00E94D40AB0
:101FF00060916B0370916C0380916D0390916E03FF
:102000000E94770B10926B0310926C0310926D0379
:1020100010926E0310926703109268031092690386
:1020200010926A030E94C90A7ECF60916B0370917F
:102030006C0380916D0390916E030E94770BF5CF36
:1020400066EF72E0CE0101960E94580A882309F4D7
:1020500046C0D0927F03C0927E03D0927D03C0928F
:102060007C034091DC045091DD046091D8047091B0
:10207000D9048FE294E00E94830765ED72E08FE25D
:1020800094E00E94D40A6BEF72E08FE294E00E9429
:102090006D0C40917E0350917F03052E000C660B62
:1020A000770B8FE294E00E94450B6BEF72E08FE2BA
:1020B00094E00E946D0C40917C0350917D03052EAD
:1020C000000C660B770B8FE294E00E94450B6BEFE0
:1020D00072E08FE294E00E946D0C0E94C90A6EEFDC
:1020E00072E0CE0101960E94580A882309F463C069
:1020F00061E085E20E94100861E086E20E9410081B
:1021000068E873E180E090E00E947C0860E086E28D
:102110000E94100860E085E20E9410080E94DC071F
:1021200060916703709168038091690390916A03DD
:10213000209100023091010240910202509103026D
:102140002F83388749875A870E9499132F813885B2
:1021500049855A850E94F813609392037093930304
:10216000809394039093950380E00E94AE07409182
:10217000920350919303609194037091950322E030
:102180008EED94E00E948B0B6AEE72E08EED94E08F
:102190000E946D0C81E00E94AE0740917103509146
:1021A000720360917303709174038EED94E00E944A
:1021B000450B0E94C90A89819A810E948D168091DF
:1021C000960380917A038111DFC180917903811197
:1021D000DBC163E073E088ED94E00E94580A882335
:1021E000C1F180E193E00E94E90A109391031093FA
:1021F00090031092700310926F0310926B03109271
:102200006C0310926D0310926E0310929203109261
:1022100093031092940310929503109379031092F4
:102220006703109268031092690310926A03109278
:102230007503109276031092770310927803109230
:102240008F0310928E0310928D0310928C030E94C4
:10225000C90A6FE173E088ED94E00E94580A882370
:10226000E1F18DE293E00E94E90A1093910310934B
:102270008B0310928D0310928C03109270031092B6
:102280006F0310926B0310926C0310926D03109207
:102290006E0310928F0310928E031092920310928D
:1022A0009303109294031092950310937903109264
:1022B0006703109268031092690310926A031092E8
:1022C00075031092760310927703109278031092A0
:1022D0008F0310928E030E94C90A80919103882374
:1022E000E9F020916F0330917003E0918C03F0913D
:1022F0008D03EE0FFF1FE65EFD4F808191818217F7
:10230000930760F420918C0330918D0380918503B5
:10231000909186032817390708F486C180918C03B1
:1023200090918D0320918503309186038217930746
:10233000E0F4DC01AA0FBB1FAE5ABD4F880F991FF6
:10234000FC01E05BFD4F8D919C9120813181821BCE
:10235000930B9093840380938303181619061CF43F
:1023600010928A0304C0892B11F010938A03809184
:102370008B03882309F49FC080918A03909187037F
:10238000992309F496C0882349F06BE373E08FE248
:1023900094E00E946D0C0E94F00608C061E473E0B6
:1023A0008FE294E00E946D0C0E94E006809167032A
:1023B00090916803A0916903B0916A0318161906F9
:1023C0001A061B0674F48091670390916803A0912C
:1023D0006903B0916A03181619061A061B0684F0E1
:1023E0006AC08091670390916803A0916903B091DE
:1023F0006A03181619061A061B0609F00CF45BC0CE
:102400000E94CC0610928703809167039091680325
:10241000A0916903B0916A03181619061A061B06E3
:102420004CF48091670390916803A0916903B09187
:102430006A030FC08091670390916803A0916903BC
:10244000B0916A03B095A095909581959F4FAF4F3D
:10245000BF4F0297A105B10574F120918E03309111
:102460008F038091670390916803A0916903B091F5
:102470006A03181619061A061B064CF480916703A6
:1024800090916803A0916903B0916A030BC0809199
:10249000670390916803A0916903B0916A039195D5
:1024A00081959109820F931F90938F0380938E03E0
:1024B00002C00E94CC0680919003882349F180914C
:1024C0008A0390918703992309F1882349F06BE3EC
:1024D00073E08FE294E00E946D0C0E94F00608C049
:1024E00061E473E08FE294E00E946D0C0E94E006CC
:1024F00080916B0390916C03A0916D03B0916E037A
:102500008D97A105B10524F0109287030E94CC0697
:1025100020916F033091700380918803909189031B
:102520008217930720F51092700310926F03109298
:10253000910310928B031092900360E08FE20E944F
:10254000100887E493E00E94E90A40918E035091BD
:102550008F03052E000C660B770B8FE294E00E9430
:10256000450B65ED72E08FE294E00E94D40A809101
:102570008B03811106C080919003811102C00E94DB
:10258000CC060E9495036DCC0E94DC076091750318
:1025900070917603809177039091780320910002E7
:1025A0003091010240910202509103022F8338873B
:1025B00049875A870E9499132F81388549855A8502
:1025C0000E94F81360939203709393038093940393
:1025D0009093950380E00E94AE0740919203509142
:1025E0009303609194037091950322E08EED94E043
:1025F0000E948B0B6AEE72E08EED94E00E946D0CEF
:1026000081E00E94AE074091710350917203609186
:102610007303709174038EED94E00E94450B109249
:102620007A0310927903D5CD80918C0390918D031C
:10263000019690938D0380938C03109387031092DF
:102640006B0310926C0310926D0310926E03109244
:102650006703109268031092690310926A0361E0A5
:1026600085E20E9410085ACE8091D8049091D90436
:102670000C948D16EFE2F4E01382128288EE93E060
:10268000A0E0B0E084839583A683B78322E932E09B
:102690003183208325EC30E03587248724EC30E03B
:1026A0003787268720EC30E0318B208B21EC30E01F
:1026B000338B228B22EC30E0358B248B26EC30E000
:1026C000378B268B118E128E138E148EECECF4E069
:1026D0001382128284839583A683B78384EA92E06F
:1026E00091838083EEEDF4E01382128286EB92E018
:1026F0009183808387E2848384E1808784E081877B
:10270000128688E08387E8EDF4E01182108213825C
:1027100012821582148240E050E067ED72E0CF0132
:102720000C949E0A0E94D41308F481E00895E89462
:1027300009C097FB3EF490958095709561957F4F09
:102740008F4F9F4F9923A9F0F92F96E9BB279395B7
:10275000F695879577956795B795F111F8CFFAF4C7
:10276000BB0F11F460FF1BC06F5F7F4F8F4F9F4FF8
:1027700016C0882311F096E911C0772321F09EE856
:10278000872F762F05C0662371F096E8862F70E0BC
:1027900060E02AF09A95660F771F881FDAF7880F96
:1027A0009695879597F90895990F0008550FAA0BEC
:1027B000E0E8FEEF16161706E807F907C0F0121654
:1027C0001306E407F50798F0621B730B840B950B57
:1027D00039F40A2661F0232B242B252B21F40895AC
:1027E0000A2609F4A140A6958FEF811D811D089549
:1027F0000E940B140C947C140E946E1438F00E94FA
:10280000751420F0952311F00C9465140C946B143E
:1028100011240C94B0140E948D1470F3959FC1F391
:10282000950F50E0551F629FF001729FBB27F00D7E
:10283000B11D639FAA27F00DB11DAA1F649F6627D3
:10284000B00DA11D661F829F2227B00DA11D621F22
:10285000739FB00DA11D621F839FA00D611D221FDC
:10286000749F3327A00D611D231F849F600D211DC0
:10287000822F762F6A2F11249F5750409AF0F1F043
:1028800088234AF0EE0FFF1FBB1F661F771F881FAC
:1028900091505040A9F79E3F510580F00C9465146B
:1028A0000C94B0145F3FE4F3983ED4F3869577958B
:1028B0006795B795F795E7959F5FC1F7FE2B880F52
:1028C000911D9695879597F9089597F99F6780E8E8
:1028D00070E060E008959FEF80EC089500240A9472
:1028E0001616170618060906089500240A941216EB
:1028F0001306140605060895092E0394000C11F41E
:10290000882352F0BB0F40F4BF2B11F460FF04C0CA
:102910006F5F7F4F8F4F9F4F089557FD9058440F23
:10292000551F59F05F3F71F04795880F97FB991F2E
:1029300061F09F3F79F087950895121613061406EB
:10294000551FF2CF4695F1DF08C016161706180678
:10295000991FF1CF86957105610508940895E89453
:10296000BB2766277727CB0197F908955058BB27D7
:10297000AA270E94CE140C947C140E946E1438F086
:102980000E94751420F039F49F3F19F426F40C943A
:102990006B140EF4E095E7FB0C946514E92F0E948C
:1029A0008D1458F3BA17620773078407950720F050
:1029B00079F4A6F50C94AF140EF4E0950B2EBA2F13
:1029C000A02D0B01B90190010C01CA01A001112435
:1029D000FF27591B99F0593F50F4503E68F11A16E1
:1029E000F040A22F232F342F4427585FF3CF469572
:1029F00037952795A795F0405395C9F77EF41F1694
:102A0000BA0B620B730B840BBAF09150A1F0FF0F5D
:102A1000BB1F661F771F881FC2F70EC0BA0F621F49
:102A2000731F841F48F4879577956795B795F79539
:102A30009E3F08F0B0CF9395880F08F09927EE0FCE
:102A40009795879508950E9437150C947C140E94E1
:102A5000751458F00E946E1440F029F45F3F29F07D
:102A60000C94651451110C94B0140C946B140E94C6
:102A70008D1468F39923B1F3552391F3951B550BEE
:102A8000BB27AA2762177307840738F09F5F5F4F41
:102A9000220F331F441FAA1FA9F335D00E2E3AF080
:102AA000E0E832D091505040E695001CCAF72BD098
:102AB000FE2F29D0660F771F881FBB1F26173707E9
:102AC0004807AB07B0E809F0BB0B802DBF01FF271B
:102AD00093585F4F3AF09E3F510578F00C9465147F
:102AE0000C94B0145F3FE4F3983ED4F38695779549
:102AF0006795B795F7959F5FC9F7880F911D9695D4
:102B0000879597F90895E1E0660F771F881FBB1F2F
:102B1000621773078407BA0720F0621B730B840BDC
:102B2000BA0BEE1F88F7E09508950E94951488F07F
:102B30009F5798F0B92F9927B751B0F0E1F0660F81
:102B4000771F881F991F1AF0BA95C9F714C0B130C2
:102B500091F00E94AF14B1E008950C94AF14672F68
:102B6000782F8827B85F39F0B93FCCF386957795F1
:102B70006795B395D9F73EF49095809570956195DA
:102B80007F4F8F4F9F4F08950E94D41308F48FEF0B
:102B900008950E94D413880B990B0895A1E21A2E70
:102BA000AA1BBB1BFD010DC0AA1FBB1FEE1FFF1FF1
:102BB000A217B307E407F50720F0A21BB30BE40B41
:102BC000F50B661F771F881F991F1A9469F7609588
:102BD0007095809590959B01AC01BD01CF01089542
:102BE000EE0FFF1F881F8BBF0790F691E02D199401
:102BF000CF93DF938230910510F482E090E0E09172
:102C0000F504F091F60420E030E0C0E0D0E0309729
:102C100011F14081518148175907C0F048175907F1
:102C200061F482819381209719F09B838A832BC062
:102C30009093F6048093F50426C02115310519F010
:102C40004217530718F49A01BE01DF01EF01028019
:102C5000F381E02DDCCF2115310509F1281B390B5B
:102C60002430310590F412968D919C911397611543
:102C7000710521F0FB019383828304C09093F604D5
:102C80008093F504FD01329644C0FD01E20FF31F6D
:102C900081939193225031092D933C933AC0209116
:102CA000F3043091F404232B41F420911602309167
:102CB00017023093F4042093F3042091140230910E
:102CC00015022115310541F42DB73EB74091180288
:102CD00050911902241B350BE091F304F091F40498
:102CE000E217F307A0F42E1B3F0B2817390778F0E3
:102CF000AC014E5F5F4F2417350748F04E0F5F1F42
:102D00005093F4044093F3048193919302C0E0E064
:102D1000F0E0CF01DF91CF9108950F931F93CF93F0
:102D2000DF93009709F48CC0FC0132971382128262
:102D30000091F5041091F6040115110581F420812C
:102D40003181820F931F2091F3043091F4042817EE
:102D5000390779F5F093F404E093F30471C0D801D6
:102D600040E050E0AE17BF0750F412962D913C9111
:102D70001397AD012115310509F1D901F3CF9D015B
:102D8000DA013383228360817181860F971F821756
:102D9000930769F4EC0128813981260F371F2E5FD4
:102DA0003F4F318320838A819B8193838283452B8C
:102DB00029F4F093F604E093F50442C01396FC93D3
:102DC000EE931297ED01499159919E01240F351F01
:102DD000E217F30771F480819181840F951F0296A9
:102DE00011969C938E938281938113969C938E93DC
:102DF0001297E0E0F0E0D80112968D919C91139724
:102E0000009719F0F8018C01F6CF8D919C919801F3
:102E10002E5F3F4F820F931F2091F3043091F404F3
:102E20002817390769F4309729F41092F6041092A4
:102E3000F50402C0138212821093F4040093F30489
:102E4000DF91CF911F910F9108956F927F928F9292
:102E50009F92AF92BF92CF92DF92EF92FF920F9329
:102E60001F93CF93DF93EC01009789F4CB01DF919F
:102E7000CF911F910F91FF90EF90DF90CF90BF9077
:102E8000AF909F908F907F906F900C94F815FC01FD
:102E9000E60FF71F9C0122503109E217F30708F4EF
:102EA000ACC0D9010D911C91119706171707B0F00E
:102EB0000530110508F49FC0C801049786179707CD
:102EC00008F499C002501109061B170B01931193C6
:102ED0006D937C93CF010E948D168DC05B01A01A6B
:102EE000B10A4C01800E911EA091F504B091F60438
:102EF00040E050E0E12CF12C109709F44AC0A815ED
:102F0000B905D1F56D907C901197630182E0C80EF0
:102F1000D11CCA14DB0480F1A3014A195B096A01C0
:102F200082E0C80ED11C1296BC9012971396AC91F9
:102F3000B5E0CB16D10440F0B282A3835183408325
:102F4000D9016D937C930AC00E5F1F4FC301800FA0
:102F5000911FF90191838083EB2DFA2FE114F10485
:102F600031F0D7011396FC93EE93129744C0F0937F
:102F7000F604E093F5043FC08D919C91119748179A
:102F8000590708F4AC017D0112960D90BC91A02D5B
:102F9000B3CF8091F3049091F40488159905E1F47E
:102FA00046175707C8F480911402909115020097B4
:102FB00041F48DB79EB74091180250911902841BBD
:102FC000950BE817F907C8F4F093F404E093F304C1
:102FD000F901718360830FC0CB010E94F8157C0159
:102FE000009759F0A801BE010E941318CE010E945B
:102FF0008D16C70104C0CE0102C080E090E0DF91D1
:10300000CF911F910F91FF90EF90DF90CF90BF90E5
:10301000AF909F908F907F906F90089581E090E0A7
:10302000F8940C942C18FB01DC0102C001900D9265
:1030300041505040D8F70895FB01DC018D9101907B
:1030400080190110D9F3990B0895FB01DC0101905F
:103050000D920020E1F7089511E0C5E6D1E000E00F
:1030600006C0802FFE010E94F0152196011DC63674
:0C307000D10780E00807A9F7F894FFCF13
:10307C00098ADF3E7B077B077B077B077B077B0788
:10308C007B077B070000F70480000000EC09A0120E
:10309C00D917AB1C23214B2530290B2B9C2E00322E
:1030AC003F3564387A3EFE422249534CA34F1C53A1
:1030BC00C656B158B65C0561A865AC6A1E70347909
:1030CC001E05D60684083C0AF40BA20D5A0F1211E9
:1030DC00C01278143016DE1796194E1B9619DE178F
:1030EC0030167814C01212115A0FA20DF40B3C0AB0
:1030FC008408D6061E050000400014005400000091
:10310C0000000102830799014802CA01A801BC0111
:10311C0000000000F202C20222039C02BA02AB02BF
:10312C009D02000000009B06830722032103000080
:10313C00000042038307220321034269656E766512
:10314C006E69646F000D0A0050726F6772616D6179
:10315C0020526F6C61646F7261006D6D0076656CEE
:10316C000074656D70006365726F000A0D00746504
:10317C00737400727574696E617469656D706F003B
:10318C00436F6D656E7A6F20527574696E61007253
:10319C007574696E61656E636F64657200527574E7
:1031AC00696E61456E636F64657200537562697216
:1031BC000042616A6172005465726D696E616D6F77
:0E31CC0073006E616E00696E66006F766600BD
:00000001FF
