:100000000C946A010C9487110C945C110C943111BE
:100010000C9406110C94DB100C94B0100C94851009
:100020000C945A100C949B010C949B010C949B0112
:100030000C949B010C949B010C949B010C949B01D0
:100040000C949B010C949B010C949B010C949B01C0
:100050000C94350D0C949B010C949B010C94101086
:100060000C949B010C94280B0C94FE0A0C949B019D
:100070000C949B010C949B010C949B010C949B0190
:100080000C949B010C949B010C949B010C949B0180
:100090000C949B010C949B010C949B010C945E0BA3
:1000A0000C949B010C949B010C949B010C949B0160
:1000B0000C949B010C949B010C949B010C949B0150
:1000C0000C949B010C949B010C949B010C949B0140
:1000D0000C949B010C949B010C949B010C949B0130
:1000E0000C949B01750E780E670E6B0E710EAF0EA1
:1000F0007C0E800E860E8A0E8E0E940E980E9C0E2E
:10010000AF0EA20EA60EAA0E0C94B2030C94940E7F
:100110000C946B0E0C94670E0C94710E0C94480AA0
:100120000C94800E0C947C0E0C94701E0C94A10206
:100130000C94A20E0C94AA0E0C94750E0C949D01B6
:100140000C9425030C94C6020C9429030C948E0E77
:100150000C94CE010C94AF0E0C94DD0E0C94C001E7
:100160000C94730A0C94D50E0C94980E0C94AE0A51
:100170000C949C0E0C948A0E0C94AC010C946A1E88
:100180000C942F0D0C9405020C944C020C94BE029E
:100190000C94A60E0C94780E0C94A0020C94860E6F
:1001A0000C94F6020C9426030C942A030C94AF02D0
:1001B00000002100240027002A002D003000330019
:1001C00001010000040107010A01000022002500CE
:1001D00028002B002E003100340002010000050130
:1001E00008010B01000020002300260029002C003C
:1001F0002F0032000001000003010601090105057E
:100200000505070508080808020202020A0A08088C
:1002100004040404010101010101010103030303BA
:1002200003030303040707070C0C0C0C0C0C0C0C49
:100230000202020206060606060606060B0B0B0B5A
:100240000B0B0B0B0102102020080810204010207F
:10025000408002010201080402010102040810208A
:100260004080804020100804020180040201804088
:1002700020100804020108040201010204081020F1
:100280004080010204081020408000000A0B02098F
:100290000C0D0E0807030401000000000000000020
:1002A000000000000000000000000000000000004E
:1002B000000000000000121110000000000000000B
:1002C000000000000000000000000000000000002E
:1002D000701E6A1E11241FBECFEFD1E2DEBFCDBF5C
:1002E00000E00CBF24E0A8E0B3E001C01D92AE38EE
:1002F000B207E1F713E0A0E0B2E0E8EEF6E400E0D8
:100300000BBF02C007900D92A830B107D9F711E0DA
:10031000C9E6D1E000E006C021970109802FFE0167
:100320000E942621C836D10780E00807A9F70E945D
:10033000C9130C9462230C940000FC01538D448D6E
:10034000252F30E0842F90E0821B930B541710F080
:10035000CF96089501970895FC01918D828D98178D
:1003600061F0828DDF01A80FB11D5D968C91928D99
:100370009F5F9F73928F90E008958FEF9FEF089596
:10038000FC01918D828D981731F0828DE80FF11D5F
:10039000858D90E008958FEF9FEF0895FC01918D7A
:1003A000228D892F90E0805C9F4F821B91098F7373
:1003B0009927089586EC93E00E94CE0121E0892BD5
:1003C00009F420E0822F0895FC01848DDF01A80F3D
:1003D000B11DA35ABF4F2C91848D90E001968F736D
:1003E0009927848FA689B7892C93A089B1898C918C
:1003F00080648C93938D848D981306C00288F38952
:10040000E02D80818F7D80830895EF92FF920F937E
:100410001F93CF93DF93EC0181E0888F9B8D8C8DB0
:10042000981305C0E889F989808185FD24C0F62EDE
:100430000B8D10E00F5F1F4F0F731127E02E8C8D77
:10044000E8120CC00FB607FCFACFE889F989808161
:1004500085FFF5CFCE010E94E401F1CF8B8DFE0127
:10046000E80FF11DE35AFF4FF0820B8FEA89FB89F9
:100470008081806207C0EE89FF896083E889F989FD
:1004800080818064808381E090E0DF91CF911F9133
:100490000F91FF90EF900895CF93DF93EC01888D3B
:1004A0008823C9F0EA89FB89808185FD05C0A88978
:1004B000B9898C9186FD0FC00FB607FCF5CF8081FE
:1004C00085FFF2CFA889B9898C9185FFEDCFCE0148
:1004D0000E94E401E7CFDF91CF91089585ED8093ED
:1004E000BC008091BC0084FDFCCF10920A030895EB
:1004F00040917D03262F30E0240F311D213231053C
:10050000DCF420910A032430C9F4FC0180E090E07F
:10051000861758F430917D032191DC01A55ABC4F18
:10052000A30FB11D2C930196F3CF80917D03680F2B
:1005300060937D0380E0089581E0089582E008954E
:10054000089581E090E030910E0320910D03321761
:1005500010F480E090E09195819591090895809143
:100560000E0390910D03891730F48F5F80930E0373
:1005700080E090E008958FEF9FEF089580910D0344
:1005800090E020910E03821B91090895CF92DF9293
:10059000EF92FF920F931F93CF93DF937C01262F4F
:1005A000972F8A0180915A03882391F0C62FD72F65
:1005B0006E01C40ED51ECC15DD0571F06991D70111
:1005C000ED91FC910190F081E02DC7011995F3CFD9
:1005D000642F822F0E947802C801DF91CF911F9172
:1005E0000F91FF90EF90DF90CF900895CF93DF931E
:1005F0001F92CDB7DEB7698320915A032223D1F031
:1006000020910B03203240F021E030E0FC013383E5
:10061000228380E090E015C080910C03E82FF0E089
:10062000E65CFC4F998190838F5F80930C038093ED
:100630000B0305C061E0CE0101960E94780281E0C3
:1006400090E00F90DF91CF910895089580E090E0C1
:10065000089508950E944423FF920F931F93CF9310
:10066000DF931F921F92CDB7DEB786EC93E00E9416
:10067000CE01892BD1F186EC93E00E94AC01F82EDB
:1006800089831A8200917304109174040F5F1F4FC5
:10069000B8018FE694E00E94D111882399F020914F
:1006A0006F04309170048091730490917404BE01C2
:1006B0006F5F7F4F820F931F0E945B231093740420
:1006C000009373048DE0F81204C081E08093380336
:1006D0000CC080E2F81209C00F900F90DF91CF910B
:1006E0001F910F91FF900C9423120F900F90DF91A8
:1006F000CF911F910F91FF9008950E94DA0181110F
:1007000025C080E090E0892B41F080E090E0892BCB
:1007100021F00E94000081111CC080E090E0892B34
:1007200041F080E090E0892B21F00E9400008111CF
:1007300013C080E090E0892BA1F080E090E0892B4D
:1007400081F00E94000081110AC008950E942C03CC
:10075000D8CF0E940000E1CF0E940000EACF0C94A5
:10076000000008958091360390913703019690938D
:100770003703809336038091110390911203A09167
:100780001303B09114030196A11DB11D80931103B1
:1007900090931203A0931303B093140368E972E0DB
:1007A0008FE694E00E94B211882309F4CAC18091B7
:1007B000110390911203A0911303B0911403181622
:1007C00019061A061B066CF480911103909112030E
:1007D000A0911303B09114034497A105B1050CF443
:1007E00007C58091110390911203A0911303B0915A
:1007F00014038F3F9140A105B10574F0809111035E
:1008000090911203A0911303B0911403823192408E
:10081000A105B1050CF4F3C480911103909112036A
:10082000A0911303B0911403833F9340A105B10538
:1008300074F08091110390911203A0911303B09171
:10084000140386309440A105B1050CF4DFC48091F7
:10085000110390911203A0911303B0911403893CEA
:100860009540A105B10574F0809111039091120398
:10087000A0911303B09114038C3D9540A105B105DF
:100880000CF4CBC48091110390911203A091130337
:10089000B091140381389740A105B10574F080919F
:1008A000110390911203A0911303B09114038E3998
:1008B0009740A105B1050CF4B7C480911103909144
:1008C0001203A0911303B09114038F329940A10534
:1008D000B10574F08091110390911203A09113035C
:1008E000B091140382349940A105B1050CF4A3C45E
:1008F0008091110390911203A0911303B0911403FE
:100900008F3B9A40A105B10574F08091110390913D
:100910001203A0911303B09114038C3D9A40A105DA
:10092000B1050CF48FC48091110390911203A09132
:100930001303B09114038F349C40A105B10574F0EA
:100940008091110390911203A0911303B0911403AD
:100950008C369C40A105B1050CF47BC48091110339
:1009600090911203A0911303B0911403853D9D4013
:10097000A105B10574F08091110390911203A0912B
:100980001303B0911403823F9D40A105B1050CF4FF
:1009900067C48091110390911203A0911303B09149
:1009A00014038D359241A105B10574F080911103B6
:1009B00090911203A0911303B09114038A379241CE
:1009C000A105B1050CF453C4809111039091120359
:1009D000A0911303B09114038D3E9341A105B1057D
:1009E00074F08091110390911203A0911303B091C0
:1009F00014038A309441A105B1050CF43FC48091E1
:100A0000110390911203A0911303B09114038D3739
:100A10009541A105B10574F08091110390911203E5
:100A2000A0911303B09114038A399541A105B10532
:100A30000CF42BC48091110390911203A091130325
:100A4000B09114038B329741A105B10574F08091E8
:100A5000110390911203A0911303B09114038834F1
:100A60009741A105B1050CF417C480911103909131
:100A70001203A0911303B0911403833E9841A10582
:100A8000B10574F08091110390911203A0911303AA
:100A9000B091140381159941A105B1050CF403C46B
:100AA0008091110390911203A0911303B09114034C
:100AB000893B9A41A105B10574F080911103909191
:100AC0001203A0911303B0911403863D9A41A1052E
:100AD000B1050CF4EFC38091110390911203A09122
:100AE0001303B09114038D3A9C41A105B10574F034
:100AF0008091110390911203A0911303B0911403FC
:100B00008A3C9C41A105B1050CF4DBC38091110323
:100B100090911203A0911303B09114038F3B9E4157
:100B2000A105B10574F08091110390911203A09179
:100B30001303B09114038C3D9E41A105B1050CF443
:100B4000C7C363EA72E08FE694E00E94B211882383
:100B500009F479C18091110390911203A0911303BC
:100B6000B0911403181619061A061B066CF480912E
:100B7000110390911203A0911303B09114034E97A7
:100B8000A105B1050CF4ABC3809111039091120340
:100B9000A0911303B0911403813D9240A105B105CA
:100BA00074F08091110390911203A0911303B091FE
:100BB0001403883F9240A105B1050CF497C38091BE
:100BC000110390911203A0911303B09114038B357C
:100BD0009540A105B10574F0809111039091120325
:100BE000A0911303B091140388379540A105B10576
:100BF0000CF483C38091110390911203A09113030D
:100C0000B091140387379740A105B10574F0809126
:100C1000110390911203A0911303B09114038E3924
:100C20009740A105B1050CF46FC380911103909119
:100C30001203A0911303B091140381369940A105CA
:100C4000B10574F08091110390911203A0911303E8
:100C5000B091140388389940A105B1050CF45BC329
:100C60008091110390911203A0911303B09114038A
:100C70008F309B40A105B10574F0809111039091D4
:100C80001203A0911303B091140386339B40A10576
:100C9000B1050CF447C38091110390911203A09108
:100CA0001303B09114038F399C40A105B10574F072
:100CB0008091110390911203A0911303B09114033A
:100CC000863C9C40A105B1050CF433C3809111030F
:100CD00090911203A0911303B09114038B3A9F409B
:100CE000A105B10574F08091110390911203A091B8
:100CF0001303B0911403823D9F40A105B1050CF48C
:100D00001FC38091110390911203A0911303B0911E
:100D100014038B339141A105B10574F08091110347
:100D200090911203A0911303B09114038236914164
:100D3000A105B1050CF40BC380911103909112032E
:100D4000A0911303B0911403833F9241A105B10513
:100D500074F08091110390911203A0911303B0914C
:100D600014038A319341A105B1050CF4F7C28091B7
:100D7000110390911203A0911303B0911403833DCA
:100D80009441A105B10574F0809111039091120373
:100D9000A0911303B09114038A3F9441A105B105BA
:100DA0000CF4E3C28091110390911203A0911303FC
:100DB000B091140383309741A105B10574F080917F
:100DC000110390911203A0911303B09114038A327E
:100DD0009741A105B1050CF4CFC280911103909108
:100DE0001203A0911303B091140383389941A10514
:100DF000B10574F08091110390911203A091130337
:100E0000B09114038A3A9941A105B1050CF4BBC213
:100E10008091110390911203A0911303B0911403D8
:100E200081379C41A105B10574F080911103909127
:100E30001203A0911303B091140388399C41A105BA
:100E4000B1050CF4A7C260EF72E08FE694E00E9457
:100E5000B211882309F41BC38091110390911203EE
:100E6000A0911303B0911403181619061A061B0655
:100E70006CF48091110390911203A0911303B0912F
:100E800014038897A105B1050CF48BC2809111035E
:100E900090911203A0911303B091140385319540F2
:100EA000A105B10574F08091110390911203A091F6
:100EB0001303B09114038C339540A105B1050CF4D4
:100EC00077C28091110390911203A0911303B09106
:100ED0001403893D9940A105B10574F08091110377
:100EE00090911203A0911303B091140381159A40BD
:100EF000A105B1050CF463C2809111039091120316
:100F0000A0911303B09114038F329E40A105B10547
:100F100074F08091110390911203A0911303B0918A
:100F2000140386359E40A105B1050CF44FC2809193
:100F3000110390911203A0911303B09114038F3306
:100F40009241A105B10574F08091110390911203B3
:100F5000A0911303B091140386369241A105B10507
:100F60000CF43BC28091110390911203A0911303E2
:100F7000B091140389309641A105B10574F08091B8
:100F8000110390911203A0911303B09114038033C5
:100F90009641A105B1050CF427C2809111039091EF
:100FA0001203A0911303B091140387399941A1054D
:100FB000B10574F08091110390911203A091130375
:100FC000B09114038E3B9941A105B1050CF413C2F5
:100FD0008091110390911203A0911303B091140317
:100FE000833F9C41A105B10574F08091110390915C
:100FF0001203A0911303B09114038A319D41A105FE
:10100000B1050CF4FFC18091110390911203A091DE
:101010001303B091140381339042A105B10574F01C
:101020008091110390911203A0911303B0911403C6
:1010300088359042A105B1050CF4EBC180911103F4
:1010400090911203A0911303B09114038D31944336
:10105000A105B10574F08091110390911203A09144
:101060001303B091140384349443A105B1050CF427
:10107000D7C18091110390911203A0911303B091F5
:10108000140385369743A105B10574F080911103CF
:1010900090911203A0911303B09114038C389743DD
:1010A000A105B1050CF4C3C1809111039091120305
:1010B000A0911303B09114038F3D9A43A105B1058C
:1010C00074F08091110390911203A0911303B091D9
:1010D000140386309B43A105B1050CF4AFC1809188
:1010E000110390911203A0911303B091140381385E
:1010F0009E43A105B10574F08091110390911203F4
:10110000A0911303B0911403883A9E43A105B10541
:101110000CF49BC18091110390911203A0911303D1
:10112000B091140389369244A105B10574F0809101
:10113000110390911203A0911303B091140380390D
:101140009244A105B1050CF487C1809111039091DF
:101150001203A0911303B0911403813A9644A105A0
:10116000B10574F08091110390911203A0911303C3
:10117000B0911403883C9644A105B1050CF473C1E9
:101180008091110390911203A0911303B091140365
:1011900083339B44A105B10574F0809111039091B4
:1011A0001203A0911303B09114038A359B44A10547
:1011B000B1050CF45FC18091110390911203A091CD
:1011C0001303B09114038D3B9245A105B1050CF4B6
:1011D0005EC18091110390911203A0911303B0910D
:1011E0001403843E9245A105B1050CF44AC108954B
:1011F00081E090E09093160380931503F2CA82E099
:1012000090E0909316038093150306CB83E090E063
:1012100090931603809315031ACB84E090E090938B
:101220001603809315032ECB85E090E09093160370
:101230008093150342CB86E090E090931603809351
:10124000150356CB87E090E0909316038093150327
:101250006ACB88E090E090931603809315037ECBD1
:1012600089E090E0909316038093150392CB8AE077
:1012700090E09093160380931503A6CB8BE090E04B
:101280009093160380931503BACB8CE090E0909373
:10129000160380931503CECB8DE090E09093160358
:1012A00080931503E2CB8EE090E090931603809339
:1012B0001503F6CB8FE090E090931603809315030F
:1012C0000ACC80E190E090931603809315031ECC26
:1012D00081E190E0909316038093150332CC81E076
:1012E00090E090931603809315034ECC82E090E03B
:1012F000909316038093150362CC83E090E0909363
:1013000016038093150376CC84E090E09093160347
:10131000809315038ACC85E090E090931603809328
:1013200015039ECC86E090E09093160380931503FE
:10133000B2CC87E090E09093160380931503C6CC5F
:1013400088E090E09093160380931503DACC89E04F
:1013500090E09093160380931503EECC8AE090E022
:10136000909316038093150302CD8BE090E0909349
:1013700016038093150316CD8CE090E0909316032E
:10138000809315032ACD8DE090E09093160380930F
:1013900015033ECD8EE090E09093160380931503E5
:1013A00052CD81E090E090931603809315036ECDAB
:1013B00082E090E0909316038093150382CD83E042
:1013C00090E0909316038093150396CD84E090E00F
:1013D0009093160380931503AACD85E090E0909337
:1013E000160380931503BECD86E090E0909316031C
:1013F00080931503D2CD87E090E0909316038093FD
:101400001503E6CD88E090E09093160380931503D2
:10141000FACD89E090E090931603809315030ECEE9
:101420008AE090E0909316038093150322CE8BE020
:1014300090E0909316038093150336CE8CE090E0F5
:1014400090931603809315034ACE8DE090E090931D
:101450001603809315035ECE8EE090E09093160302
:101460008093150372CE8FE090E0909316038093E3
:10147000150386CE80E190E09093160380931503C8
:101480009ACE81E190E0909316038093150308951E
:10149000CF93DF93CAE0D0E083E10E94410F21E0C7
:1014A000892B09F420E0209335032197A9F7809137
:1014B00035038823A9F081E08093250310921F0350
:1014C0001092200310922103109222039091230383
:1014D00098279093230390912403892780932403D2
:1014E000DF91CF91089583E00E94410F21E0892B85
:1014F00009F420E02093350380913503882369F1B6
:1015000080B185FB882780F9809334038091340370
:10151000811103C081E090E002C08FEF9FEF409106
:101520001703509118036091190370911A03092E43
:10153000000CAA0BBB0B840F951FA61FB71F80932F
:10154000170390931803A0931903B0931A03909173
:10155000230381E089278093230308950F931F932A
:1015600082E00E94410F21E0892B09F420E02093C2
:101570003503809135038823F1F180B183FB8827FF
:1015800080F98093330380913303811103C081E09C
:1015900090E002C08FEF9FEF40911F035091200316
:1015A0006091210370912203092E000CAA0BBB0B42
:1015B0008A019B01081B190B2A0B3B0B00931F038D
:1015C000109320032093210330932203909124034E
:1015D00081E089278093240380911F039091200349
:1015E000A0912103B09122038C399F4FAF4FBF4F81
:1015F00011F4109204021F910F9108951F920F92FF
:101600000FB60F9211240BB60F922F933F934F9367
:101610005F936F937F938F939F93AF93BF93EF935A
:10162000FF9386EC93E00E94E401FF91EF91BF915C
:10163000AF919F918F917F916F915F914F913F916A
:101640002F910F900BBE0F900FBE0F901F9018950B
:101650001F920F920FB60F9211240BB60F922F9379
:101660008F939F93EF93FF93E091D603F091D7036D
:101670008081E091DC03F091DD0382FD12C0908156
:101680008091DF038F5F8F732091E003821751F009
:10169000E091DF03F0E0EA53FC4F958F8093DF0386
:1016A00001C08081FF91EF919F918F912F910F90B9
:1016B0000BBE0F900FBE0F901F9018951F920F92A8
:1016C0000FB60F9211240BB60F922F933F934F93A7
:1016D0005F936F937F938F939F93AF93BF93EF939A
:1016E000FF938091B900887F803609F49CC068F52B
:1016F000883209F45BC090F4803109F454C038F4A6
:10170000882309F4F6C0883009F44DC0F6C088314A
:1017100009F44CC0803209F45DC0EFC0803409F494
:1017200068C048F4803309F455C0883309F0E5C037
:101730008093A203D8C0803509F44FC0883509F4DE
:101740005DC0883409F0D9C0D6C0883909F4C7C053
:10175000A8F4883709F467C038F4883609F463C000
:10176000803709F460C0C9C0883809F4B8C080392E
:1017700009F45FC0803809F0C0C05BC0803B09F449
:1017800086C038F4803A09F466C0883A09F47FC00C
:10179000B4C0803C09F4A7C0883C09F4A4C0883BCD
:1017A00009F48AC0AAC08091C50310C09091C403F7
:1017B0008091C303981770F5E091C40381E08E0F08
:1017C0008093C403F0E0ED55FC4F80818093BB0013
:1017D00085EC86C08093A2038EC0E091C40381E0B3
:1017E0008E0F8093C4038091BB00F0E0ED55FC4F59
:1017F00080839091C4038091C3036EC0E091C403C1
:1018000081E08E0F8093C4038091BB00F0E0ED5522
:10181000FC4F80838091090381116DC081E080932A
:10182000080384EA61C083E080930A031092A10355
:10183000CFCF8091A103803208F051C0E091A10385
:1018400081E08E0F8093A1038091BB00F0E0EF5701
:10185000FC4F8083BDCF85EC8093BC0010920A03BF
:101860008091A103803230F4E091A103F0E0EF57C2
:10187000FC4F10826091A10370E0E0917F03F09132
:10188000800381E893E019951092A10336C084E0AB
:1018900080930A0310927E0310927D03E0917B03F4
:1018A000F0917C03199580917D03811105C081E041
:1018B00080937D0310925B03E0917E0381E08E0FA5
:1018C00080937E03F0E0E55AFC4F80818093BB005B
:1018D00090917E0380917D03981708F479CF85E875
:1018E0008093BC000AC085EC8093BC0010920A0370
:1018F00004C01092A2030E946E02FF91EF91BF916B
:10190000AF919F918F917F916F915F914F913F9197
:101910002F910F900BBE0F900FBE0F901F90189538
:10192000CF93FC01C48121E020935A03C093390373
:1019300010920C0310920B038385682B83E694E0CE
:101940000E94F60280910B03813208F046C090910C
:101950000A039111FCCF92E090930A0391E09093D7
:1019600009039FEF9093A2031092C4038093C303D3
:10197000AAE3B3E023EA33E0F9019E2F921B981704
:1019800018F49D919193F9CF1092C5038091C503EE
:10199000CC0FC82BC093C50380910803813061F43C
:1019A000109208038091C5038093BB008091BC0016
:1019B00083FDF8CF85EC01C085EE8093BC0080915B
:1019C0000A038230E1F38091A2038F3F31F08091CE
:1019D000A203803211F08091A20310920C031092A6
:1019E0000B0310925A03CF9108950F931F93CF9337
:1019F0008C01C62F0E94900C6C2F6460C8010E945D
:101A0000900C6C2F6B7FC8010E94900C83EC90E0CF
:101A10000197F1F7CF911F910F910895FF920F93C6
:101A20001F93CF93DF931F92CDB7DEB78C01F62EB5
:101A3000962F907F692F642BC80149830E94F50C73
:101A400080E1F89EB00111244981642BC8010F90F8
:101A5000DF91CF911F910F91FF900C94F50C41E015
:101A60000E940E0D81E090E008951F920F920FB634
:101A70000F9211240BB60F922F933F934F935F93C6
:101A80006F937F938F939F93AF93BF93EF93FF9346
:101A9000E0910F03F09110031995FF91EF91BF9121
:101AA000AF919F918F917F916F915F914F913F91F6
:101AB0002F910F900BBE0F900FBE0F901F90189597
:101AC00060E088E20E946A0F60E08EE10E946A0F87
:101AD00060E08DE10C946A0F60E088E20E946A0F7A
:101AE00060E08FE10E946A0F60E08CE10C946A0F65
:101AF000CF93DF9300D01F92CDB7DEB761E088E2CD
:101B00000E946A0F61E08EE10E946A0F61E08DE140
:101B10000E946A0F80912403811105C080912303E4
:101B2000882309F44FC00E94080F60911F03709131
:101B30002003809121039091220320910002309193
:101B40000102409102025091030229833A834B83A0
:101B50005C830E94CF1E29813A814B815C810E9467
:101B60002E1F60931B0370931C0380931D0390939F
:101B70001E0380E00E94130F40911B0350911C0331
:101B800060911D0370911E0322E085E794E00E949E
:101B9000E5126FE772E085E794E00E94C71381E0E9
:101BA0000E94130F4091170350911803609119037D
:101BB00070911A0385E794E00E949F12109224030B
:101BC000109223030F900F900F900F90DF91CF9101
:101BD0000895CF93DF9300D01F92CDB7DEB761E0B9
:101BE00088E20E946A0F61E08FE10E946A0F61E063
:101BF0008CE10E946A0F80912403811105C08091BD
:101C00002303882309F44FC00E94080F60911F032B
:101C10007091200380912103909122032091000272
:101C200030910102409102025091030229833A83CC
:101C30004B835C830E94CF1E29813A814B815C815A
:101C40000E942E1F60931B0370931C0380931D033F
:101C500090931E0380E00E94130F40911B0350914C
:101C60001C0360911D0370911E0322E085E794E040
:101C70000E94E5126FE772E085E794E00E94C713C7
:101C800081E00E94130F4091170350911803609157
:101C9000190370911A0385E794E00E949F12109235
:101CA0002403109223030F900F900F900F90DF9159
:101CB000CF91089590E0FC013197E231F10508F0F1
:101CC0004EC08827EE58FF4F8F4F0C9426218091ED
:101CD00080008F7703C0809180008F7D809380008B
:101CE000089580918000877FF9CF84B58F7702C0F7
:101CF00084B58F7D84BD08958091B0008F7703C037
:101D00008091B0008F7D8093B00008958091900005
:101D10008F7707C0809190008F7D03C080919000E5
:101D2000877F8093900008958091A0008F7707C0EF
:101D30008091A0008F7D03C08091A000877F809359
:101D4000A0000895809120018F7707C08091200125
:101D50008F7D03C080912001877F809320010895AB
:101D60003FB7F8948091860490918704A0918804ED
:101D7000B091890426B5A89B05C02F3F19F00196A4
:101D8000A11DB11D3FBFBA2FA92F982F8827820F01
:101D9000911DA11DB11DBC01CD0142E0660F771F51
:101DA000881F991F4A95D1F708950895DC01ED9198
:101DB000FC910190F081E02D1994CF92DF92EF9287
:101DC000FF920F931F93CF93DF936C017A018B01E6
:101DD000C0E0D0E0CE15DF0589F0D8016D918D010E
:101DE000D601ED91FC910190F081E02DC60119958D
:101DF000892B11F47E0102C02196ECCFC701DF913F
:101E0000CF911F910F91FF90EF90DF90CF900895A9
:101E100040E061E085E794E00E940E0D8BE39FE1D6
:101E20000197F1F70895CF93DF93CDB7DEB72897E9
:101E30000FB6F894DEBF0FBECDBF98E0EBE1F2E045
:101E4000DE01119601900D929A95E1F790917E0432
:101E5000981710F48FEF890FFE013196E80FF11DEE
:101E6000E80FF11D6081606840E085E794E0289606
:101E70000FB6F894DEBF0FBECDBFDF91CF910C94AB
:101E80000E0DCF93DF93282F30E0F901E657FD4F79
:101E90008491F901EC5BFD4FD491F901E250FE4FC2
:101EA000C491CC2391F081110E945A0EEC2FF0E0E6
:101EB000EE0FFF1FEC51FE4FA591B491EC91ED2375
:101EC00081E090E021F480E002C080E090E0DF91CA
:101ED000CF9108951F93CF93DF93282F30E0F9011E
:101EE000E657FD4F8491F901EC5BFD4FD491F90168
:101EF000E250FE4FC491CC23C9F0162F81110E94ED
:101F00005A0EEC2FF0E0EE0FFF1FE653FE4FA591A7
:101F1000B4918FB7F894111105C09C91ED2FE09505
:101F2000E92302C0EC91ED2BEC938FBFDF91CF91B1
:101F30001F910895CF93DF9390E0FC01EC5BFD4F80
:101F40002491FC01E250FE4F8491882361F190E0DE
:101F5000880F991FFC01E055FE4FC591D491FC01FB
:101F6000E653FE4FA591B491611109C09FB7F89453
:101F70008881209582238883EC912E230BC06230C8
:101F800061F49FB7F8943881822F809583238883EA
:101F9000EC912E2B2C939FBF06C08FB7F894E8814D
:101FA0002E2B28838FBFDF91CF9108958F929F9220
:101FB000AF92BF92CF92DF92EF92FF926B017C01C2
:101FC0000E94B00E4B015C01C114D104E104F10484
:101FD000F1F00E94B00EDC01CB0188199909AA0921
:101FE000BB09883E9340A105B10570F321E0C21AF8
:101FF000D108E108F10888EE880E83E0981EA11C44
:10200000B11CC114D104E104F10419F7DDCFFF9034
:10201000EF90DF90CF90BF90AF909F908F900895FA
:102020001F920F920FB60F9211242F933F938F930D
:102030009F93AF93BF938091820490918304A0916A
:102040008404B09185043091810423E0230F2D375F
:1020500020F40196A11DB11D05C026E8230F0296AC
:10206000A11DB11D20938104809382049093830469
:10207000A0938404B0938504809186049091870492
:10208000A0918804B09189040196A11DB11D80938F
:10209000860490938704A0938804B0938904BF9129
:1020A000AF919F918F913F912F910F900FBE0F9005
:1020B0001F9018951F920F920FB60F9211240BB616
:1020C0000F922F933F934F935F936F937F938F93D1
:1020D0009F93AF93BF93EF93FF93E0911302F0911F
:1020E00014021995FF91EF91BF91AF919F918F913C
:1020F0007F916F915F914F913F912F910F900BBE08
:102100000F900FBE0F901F9018951F920F920FB651
:102110000F9211240BB60F922F933F934F935F931F
:102120006F937F938F939F93AF93BF93EF93FF939F
:10213000E0911102F09112021995FF91EF91BF9178
:10214000AF919F918F917F916F915F914F913F914F
:102150002F910F900BBE0F900FBE0F901F901895F0
:102160001F920F920FB60F9211240BB60F922F935E
:102170003F934F935F936F937F938F939F93AF930F
:10218000BF93EF93FF93E0910702F0910802199536
:10219000FF91EF91BF91AF919F918F917F916F913F
:1021A0005F914F913F912F910F900BBE0F900FBEFB
:1021B0000F901F9018951F920F920FB60F92112437
:1021C0000BB60F922F933F934F935F936F937F9331
:1021D0008F939F93AF93BF93EF93FF93E09105028B
:1021E000F09106021995FF91EF91BF91AF919F91E8
:1021F0008F917F916F915F914F913F912F910F90B0
:102200000BBE0F900FBE0F901F9018951F920F924C
:102210000FB60F9211240BB60F922F933F934F934B
:102220005F936F937F938F939F93AF93BF93EF933E
:10223000FF93E0910F02F09110021995FF91EF9139
:10224000BF91AF919F918F917F916F915F914F91CE
:102250003F912F910F900BBE0F900FBE0F901F90CC
:1022600018951F920F920FB60F9211240BB60F9272
:102270002F933F934F935F936F937F938F939F938E
:10228000AF93BF93EF93FF93E0910D02F0910E0295
:102290001995FF91EF91BF91AF919F918F917F9190
:1022A0006F915F914F913F912F910F900BBE0F90C7
:1022B0000FBE0F901F9018951F920F920FB60F929E
:1022C00011240BB60F922F933F934F935F936F930D
:1022D0007F938F939F93AF93BF93EF93FF93E0917F
:1022E0000B02F0910C021995FF91EF91BF91AF9104
:1022F0009F918F917F916F915F914F913F912F911E
:102300000F900BBE0F900FBE0F901F9018951F924D
:102310000F920FB60F9211240BB60F922F933F938B
:102320004F935F936F937F938F939F93AF93BF93DD
:10233000EF93FF93E0910902F0910A021995FF9142
:10234000EF91BF91AF919F918F917F916F915F912D
:102350004F913F912F910F900BBE0F900FBE0F909A
:102360001F901895FC0124813581232B31F421E045
:1023700061157105A1F0FB0108C0FC01808191810C
:102380006115710531F421E0FC018081882339F069
:1023900005C00E94522321E0892B09F020E0822F02
:1023A00008950F931F93CF93DF93EC018881998158
:1023B000009729F02A813B812617370788F48B0183
:1023C0006F5F7F4F0E945B22009761F09983888343
:1023D0001B830A832C813D81232B11F4FC01108285
:1023E00081E001C080E0DF91CF911F910F910895AE
:1023F000EF92FF920F931F93CF93DF93EC017B013A
:102400008A01BA010E94D1112881398181110DC040
:102410002115310519F0C9010E94C32119821882C2
:102420001D821C821B821A8206C01D830C83B70189
:10243000C9010E945B23CE01DF91CF911F910F91C3
:10244000FF90EF90089540E050E061E672E08FE683
:1024500094E00E94F8118FE694E0089561157105EB
:1024600079F0FB0101900020E9F73197AF01461B9D
:10247000570BDC01ED91FC910280F381E02D199462
:1024800080E090E00895CF93DF93BC0186EC93E069
:102490000E942E12EC016FE572E086EC93E00E9440
:1024A0002E128C0F9D1FDF91CF9108954F925F9256
:1024B0006F927F92EF92FF920F931F93CF93DF93D0
:1024C000CDB7DEB7A1970FB6F894DEBF0FBECDBF74
:1024D0007C01FA01CB0119A2223008F42AE08E0116
:1024E0000F5D1F4F422E512C612C712CBF01A30197
:1024F00092010E940421F901CA01015011096A30B8
:1025000014F4605D01C0695CD8016C93232B242B0B
:10251000252B61F7B801C7010E942E12A1960FB6B4
:10252000F894DEBF0FBECDBFDF91CF911F910F9109
:10253000FF90EF907F906F905F904F900895CF92B3
:10254000DF92EF92FF920F931F93CF93DF9377FF6A
:102550001DC06A017B01EC016DE20E94D60E8C0168
:1025600044275527BA014C195D096E097F092AE0F5
:10257000CE010E945612800F911FDF91CF911F91C3
:102580000F91FF90EF90DF90CF9008952AE0DF91B8
:10259000CF911F910F91FF90EF90DF90CF900C940F
:1025A0005612CF93DF93AB01BC0186EC93E00E94FF
:1025B0009F12EC016FE572E086EC93E00E942E1210
:1025C0008C0F9D1FDF91CF9108954F925F926F9274
:1025D0007F928F929F92AF92BF92CF92DF92EF92B3
:1025E000FF92CF93DF93EC016A017B01B22E9A0137
:1025F000AB01C701B6010E94FF20882319F06BEFE1
:1026000072E027C026013701E89477F82FEF3FEFFB
:102610004FE75FE7C301B2010E94FF2081110DC0A7
:102620002FEF3FEF4FE75FE7C301B2010E94C81EE3
:1026300018161CF46FEF72E00CC02FEF3FEF4FE75E
:102640005FE4C701B6010E94FA2018169CF463E00B
:1026500073E0CE01DF91CF91FF90EF90DF90CF90AC
:10266000BF90AF909F908F907F906F905F904F90B2
:102670000C942E122FEF3FEF4FE75FECC701B6012E
:102680000E94C81E87FDE3CF20E030E0A901C7010A
:10269000B6010E94C81E87FF0AC06DE2CE010E94EB
:1026A000D60E4C01F7FAF094F7F8F09402C0812CA2
:1026B000912CA12C60E070E080E09FE3AB1441F02E
:1026C00020E030E040E251E40E945920A394F6CF8C
:1026D0009B01AC01C701B6010E94ED1F2B013C011B
:1026E0000E94CB206B017C010E94CD1E9B01AC019E
:1026F000C301B2010E94EC1F2B013C012AE0B7018B
:10270000A601CE010E9456127C01E80CF91CBB20E8
:1027100031F06EE2CE010E94D60EE80EF91EDB2CDF
:10272000DD2029F120E030E040E251E4C301B201B4
:102730000E942E1F2B013C010E94CB204B01A12C9B
:10274000B12C2AE0B501A401CE010E945612E80E78
:10275000F91EC501B4010E94CD1E9B01AC01C3014D
:10276000B2010E94EC1F2B013C01DA94D9CFC701C2
:10277000DF91CF91FF90EF90DF90CF90BF90AF901F
:102780009F908F907F906F905F904F9008950C94E2
:102790002E12CF93DF93CDB7DEB72A970FB6F894FA
:1027A000DEBF0FBECDBF789484B5826084BD84B592
:1027B000816084BD85B5826085BD85B5816085BD3C
:1027C00080916E00816080936E00109281008091F4
:1027D000810082608093810080918100816080937C
:1027E0008100809180008160809380008091B100A1
:1027F00084608093B1008091B00081608093B000CC
:10280000809191008260809391008091910081601D
:1028100080939100809190008160809390008091DE
:10282000A10082608093A1008091A10081608093CB
:10283000A1008091A00081608093A000809121017F
:102840008260809321018091210181608093210128
:102850008091200181608093200180917A008460C2
:1028600080937A0080917A00826080937A008091D0
:102870007A00816080937A0080917A0080688093EA
:102880007A001092C100E091D603F091D70382E064
:102890008083E091D203F091D3031082E091D403BE
:1028A000F091D5038FEC80831092DE03E091DA0380
:1028B000F091DB0386E08083E091D803F091D903A7
:1028C000808180618083E091D803F091D903808179
:1028D00088608083E091D803F091D903808180687B
:1028E0008083E091D803F091D90380818F7D80832C
:1028F0002AE04BE150E060E070E086EC93E00E945B
:1029000056126FE572E086EC93E00E942E1282E68A
:1029100092E00E94431280E1809381001092800037
:1029200081E080932D0320E43FE130932C0320933A
:102930002B03309387002093860091E190938100D0
:1029400022EB33E03093100320930F0380936F004A
:1029500010920E0310920D0310920C0310920B03B1
:1029600010920A03809309031092080361E084E146
:102970000E946A0F61E085E10E946A0F8091B900B0
:102980008E7F8093B9008091B9008D7F8093B900CC
:1029900088E48093B80085E48093BC0010927A04A8
:1029A00080917E04823018F098E090937A049091A0
:1029B0007F04992339F0813029F480917A0484606E
:1029C00080937A0462E370E080E090E00E94D60F8A
:1029D0006091800485E794E00E94900C68EE73E0BB
:1029E00080E090E00E94D60F60E385E794E00E94CB
:1029F000F50C0BE416E4C8010197F1F760E385E7F5
:102A000094E00E94F50CC8010197F1F760E385E7B7
:102A100094E00E94F50C83E592E00197F1F760E203
:102A200085E794E00E94F50C60917A04606240E0D2
:102A300085E794E00E940E0D84E080937B0440E0E3
:102A40006CE085E794E00E940E0D0E94080F82E082
:102A500080937C0440E066E085E794E00E940E0DE0
:102A600040E062E085E794E00E940E0D8BE39FE179
:102A70000197F1F780E18093810010921103109289
:102A80001203109213031092140368EC70E08FE6A7
:102A900094E00E94D11184EF91E090932A038093F7
:102AA0002903909328038093270360E088E10E9424
:102AB0009A0F60E088E10E946A0F60E089E10E945D
:102AC0009A0F60E089E10E946A0F8EEA9AE0909383
:102AD00006028093050280916A00836080936A00F9
:102AE000EC9A60E08AE10E949A0F60E08AE10E941D
:102AF0006A0F60E08BE10E949A0F60E08BE10E9418
:102B00006A0F83E79AE0909308028093070280910E
:102B10006A008C6080936A00ED9A88E49AE0909352
:102B20000E0280930D02809169008063809369009A
:102B3000EA9A89E293E09093100280930F028091C9
:102B40006900806C80936900EB9A61E08CE10E94DF
:102B50009A0F60E08CE10E946A0F61E08DE10E94B3
:102B60009A0F60E08DE10E946A0F61E08EE10E94A1
:102B70009A0F60E08EE10E946A0F61E08FE10E948F
:102B80009A0F60E08FE10E946A0F61E088E20E9484
:102B90009A0F60E088E20E946A0F1092240310925C
:102BA00023031092260380E00E94130F6DE672E06B
:102BB00085E794E00E94C71381E00E94130F62E64C
:102BC00072E085E794E00E94C71360ED77E080E053
:102BD00090E00E94D60F0E94080F60911F03709131
:102BE00020038091210390912203209100023091D3
:102BF000010240910202509103022F8338874987D6
:102C00005A870E94CF1E2F81388549855A850E9498
:102C10002E1F60931B0370931C0380931D039093DE
:102C20001E0380E00E94130F40911B0350911C0370
:102C300060911D0370911E0322E085E794E00E94DD
:102C4000E5126FE772E085E794E00E94C71381E028
:102C50000E94130F409117035091180360911903BC
:102C600070911A0385E794E00E949F1210E101E041
:102C700080E4E82E8FE1F82E91E1D92E24EFA22EE8
:102C8000BB24B3941A8219821C821B821E821D826D
:102C900060916F04709170046115710541F040916D
:102CA000730450917404CE0101960E94F81162E8F9
:102CB00072E0CE0101960E94B21181112AC066E82D
:102CC00072E0CE0101960E94B211882309F4C9C0B6
:102CD00010928100109285001092840080912D0343
:102CE00080618093810080E1809381001092800058
:102CF00081E080932D0380E49FE190932C038093E7
:102D00002B03909387008093860081E1809381005C
:102D10009DC01092810010928500109284008091D5
:102D20002D038061809381001093810010928000B8
:102D300000932D03F0922C03E0922B03F092870076
:102D4000E0928600D092810080911103909112034D
:102D5000A0911303B0911403892B8A2B8B2B09F4B8
:102D6000AECF609111037091120380911303909183
:102D700014030E94D11261E08DE10E946A0F8091DC
:102D80001F0390912003A0912103B09122038C395D
:102D90009F4FAF4FBF4FC1F61093810060E08DE1B0
:102DA0000E946A0F60911F0370912003809121039C
:102DB0009091220320910002309101024091020281
:102DC000509103022F83388749875A870E94CF1E6C
:102DD0002F81388549855A850E942E1F60931B03D9
:102DE00070931C0380931D0390931E0340911B035B
:102DF00050911C0360911D0370911E0322E086EC2C
:102E000093E00E94E5126FE572E086EC93E00E9489
:102E10002E1260911103709112038091130390910F
:102E200014030E94D11210921103109212031092F7
:102E300013031092140310921F0310922003109298
:102E40002103109222030E9423127ECF609111036E
:102E50007091120380911303909114030E94D11278
:102E6000F5CF6BE872E0CE0101960E94B211882383
:102E700009F446C0B0922A03A0922903B092280315
:102E8000A0922703409173045091740460916F04E1
:102E90007091700486EC93E00E94DD0E6FE572E0A5
:102EA00086EC93E00E942E1260E972E086EC93E0DB
:102EB0000E94C7134091290350912A03052E000C4C
:102EC000660B770B86EC93E00E949F1260E972E03C
:102ED00086EC93E00E94C71340912703509128038A
:102EE000052E000C660B770B86EC93E00E949F1278
:102EF00060E972E086EC93E00E94C7130E942312FF
:102F000063E972E0CE0101960E94B211882309F4B0
:102F100063C061E088E20E946A0F61E08EE10E9476
:102F20006A0F68E873E180E090E00E94D60F60E0ED
:102F30008EE10E946A0F60E088E20E946A0F0E94A0
:102F4000080F60911F0370912003809121039091DD
:102F5000220320910002309101024091020250911F
:102F600003022F83388749875A870E94CF1E2F81FB
:102F7000388549855A850E942E1F60931B037093E4
:102F80001C0380931D0390931E0380E00E94130F87
:102F900040911B0350911C0360911D0370911E030F
:102FA00022E085E794E00E94E5126FE772E085E792
:102FB00094E00E94C71381E00E94130F4091170311
:102FC000509118036091190370911A0385E794E0FA
:102FD0000E949F120E94231289819A810E94C3211C
:102FE0008091250380912403811124C680912303BD
:102FF000811120C668E972E08FE694E00E94B21168
:10300000811109C063EA72E08FE694E00E94B21178
:10301000811128C24EC21092810010928500109238
:10302000840080912D038061809381001093810042
:103030001092800000932D03F0922C03E0922B035A
:10304000F0928700E0928600D09281008091110377
:1030500090911203A0911303B0911403892B8A2B32
:103060008B2B81F280911503909116030197B1F497
:103070008EEA92E00E94431280911F0390912003F8
:10308000A0912103B0912203843F9F4FAF4FBF4FC8
:103090001CF00E94780DF0CF0E94600D8091150306
:1030A000909116030297B1F486EB92E00E944312CE
:1030B00080911F0390912003A0912103B0912203DE
:1030C000833F9F4FAF4FBF4F1CF00E94780DF0CF52
:1030D0000E94600D80911503909116030397B1F43F
:1030E0008BEB92E00E94431280911F03909120038A
:1030F000A0912103B0912203813F9F4FAF4FBF4F5B
:103100001CF00E94780DF0CF0E94600D8091150395
:10311000909116030497B1F480EC92E00E94431260
:1031200080911F0390912003A0912103B09122036D
:103130008F3E9F4FAF4FBF4F1CF00E94780DF0CFD6
:103140000E94600D80911503909116030597B1F4CC
:1031500088EC92E00E94431280911F03909120031B
:10316000A0912103B09122038E3E9F4FAF4FBF4FDE
:103170001CF00E94780DF0CF0E94600D8091150325
:10318000909116030697B1F480ED92E00E944312ED
:1031900080911F0390912003A0912103B0912203FD
:1031A0008C3E9F4FAF4FBF4F1CF00E94780DF0CF69
:1031B0000E94600D80911503909116030797B1F45A
:1031C00088ED92E00E94431280911F0390912003AA
:1031D000A0912103B09122038B3E9F4FAF4FBF4F71
:1031E0001CF00E94780DF0CF0E94600D80911503B5
:1031F000909116030897B1F480EE92E00E9443127A
:1032000080911F0390912003A0912103B09122038C
:10321000893E9F4FAF4FBF4F1CF00E94780DF0CFFB
:103220000E94600D80911503909116030997B1F4E7
:1032300088EE92E00E94431280911F039091200338
:10324000A0912103B09122038A3E9F4FAF4FBF4F01
:103250001CF00E94780DF0CF0E94600D8091150344
:10326000909116030A97B9F460911F03709120039F
:1032700080912103909122030E94CF1E2DEC3CEC03
:1032800048EB51EC0E94C81E87FF03C00E94E90D65
:10329000EBCF0E946C0D80911503909116030B9754
:1032A000B9F460911F0370912003809121039091E4
:1032B00022030E94CF1E2DEC3CEC48EA51EC0E9408
:1032C000C81E87FF03C00E94E90DEBCF0E946C0D62
:1032D00080911503909116030C97B9F460911F0328
:1032E0007091200380912103909122030E94CF1EB0
:1032F0002DEC3CEC40EA51EC0E94C81E18161CF064
:103300000E94E90DEBCF0E946C0D80911503909106
:1033100016030D97B9F460911F03709120038091FB
:103320002103909122030E94CF1E2DEC3CEC40E93A
:1033300051EC0E94C81E18161CF00E94E90DEBCF3C
:103340000E946C0D80911503909116030E97B9F4AD
:1033500060911F03709120038091210390912203BB
:103360000E94CF1E2DEC3CEC48E851EC0E94C81E98
:1033700018161CF00E94E90DEBCF0E946C0D809195
:103380001503909116030F97B9F460911F03709184
:10339000200380912103909122030E94CF1E2AE9ED
:1033A00039E941E751EC0E94C81E18161CF00E9432
:1033B000E90DEBCF0E946C0D8091150390911603DF
:1033C0004097B9F460911F0370912003809121030D
:1033D000909122030E94CF1E2AE939E941E551EC80
:1033E0000E94C81E18161CF00E94E90DEBCF0E9427
:1033F0006C0D8091150390911603419709F026CE2C
:1034000060911F037091200380912103909122030A
:103410000E94CF1E2AE939E941E451EC0E94C81EFE
:1034200018161CF00E94E90DEBCF0E946C0D0E9453
:103430002312109381006091110370911203809107
:103440001303909114030E94D11210921103109251
:103450001203109213031092140310921603109289
:103460001503F4CD10928100109285001092840013
:1034700080912D03806180938100109381001092D0
:10348000800000932D03F0922C03E0922B03F09226
:103490008700E0928600D092810080911103909184
:1034A0001203A0911303B0911403892B8A2B8B2B49
:1034B00029F560EF72E08FE694E00E94B211882354
:1034C00009F4B5C310928100109285001092840017
:1034D00080912D0380618093810010938100109270
:1034E000800000932D03F0922C03E0922B03F092C6
:1034F0008700E0928600D092810006C28091150379
:1035000090911603019791F480911F0390912003ED
:10351000A0912103B0912203863F9F4FAF4FBF4F31
:103520001CF00E94780DF0CF0E94600D8091150371
:1035300090911603029791F480911F0390912003BC
:10354000A0912103B0912203823F9F4FAF4FBF4F05
:103550001CF00E94780DF0CF0E94600D8091150341
:1035600090911603039791F480911F03909120038B
:10357000A0912103B09122038C3E9F4FAF4FBF4FCC
:103580001CF00E94780DF0CF0E94600D8091150311
:1035900090911603049791F480911F03909120035A
:1035A000A0912103B0912203863E9F4FAF4FBF4FA2
:1035B0001CF00E94780DF0CF0E94600D80911503E1
:1035C00090911603059791F480911F039091200329
:1035D000A0912103B09122038E3D9F4FAF4FBF4F6B
:1035E0001CF00E94780DF0CF0E94600D80911503B1
:1035F00090911603069791F480911F0390912003F8
:10360000A0912103B0912203873D9F4FAF4FBF4F41
:103610001CF00E94780DF0CF0E94600D8091150380
:1036200090911603079791F480911F0390912003C6
:10363000A0912103B0912203823D9F4FAF4FBF4F16
:103640001CF00E94780DF0CF0E94600D8091150350
:10365000909116030897B9F460911F0370912003AD
:1036600080912103909122030E94CF1E26E636E628
:1036700048E352EC0E94C81E18161CF00E94E90D87
:10368000EBCF0E946C0D8091150390911603099762
:10369000B9F460911F0370912003809121039091F0
:1036A00022030E94CF1E26E636E644E252EC0E9438
:1036B000C81E18161CF00E94E90DEBCF0E946C0D7D
:1036C00080911503909116030A97B9F460911F0336
:1036D0007091200380912103909122030E94CF1EBC
:1036E00026E636E648E052EC0E94C81E18161CF08A
:1036F0000E94E90DEBCF0E946C0D80911503909113
:1037000016030B97B9F460911F0370912003809109
:103710002103909122030E94CF1E2DEC3CEC40ED42
:1037200051EC0E94C81E18161CF00E94E90DEBCF48
:103730000E946C0D80911503909116030C97B9F4BB
:1037400060911F03709120038091210390912203C7
:103750000E94CF1E2DEC3CEC40EA51EC0E94C81EAA
:1037600018161CF00E94E90DEBCF0E946C0D8091A1
:103770001503909116030D97B9F460911F03709192
:10378000200380912103909122030E94CF1E2AE9F9
:1037900039E941E651EC0E94C81E18161CF00E943F
:1037A000E90DEBCF0E946C0D8091150390911603EB
:1037B0000E9709F072CE60911F03709120038091E3
:1037C0002103909122030E94CF1E2AE939E941E2A8
:1037D00051EC0E94C81E18161CF00E94E90DEBCF98
:1037E0000E946C0D0E9423121093810060911103BE
:1037F0007091120380911303909114030E94D112CF
:1038000010921103109212031092130310921403DA
:10381000109216031092150340CE809115039091DB
:103820001603019709F47EC0809115039091160349
:10383000029709F48AC080911503909116030397AB
:1038400009F496C08091150390911603049709F42A
:10385000A2C08091150390911603059709F4AEC09C
:103860008091150390911603069709F4BAC08091D0
:10387000150390911603079709F4C6C080911503AC
:1038800090911603089709F4D2C080911503909186
:103890001603099709F4DEC0809115039091160371
:1038A0000A9709F4EAC080911503909116030B97CB
:1038B00009F4FBC080911503909116030C9709F44D
:1038C0000CC180911503909116030D9709F41DC149
:1038D00080911503909116030E9709F42EC18091E3
:1038E0001503909116030F9709F43FC180911503BA
:1038F00090911603409709F450C18091150390915F
:103900001603419709F461C180911103909112034C
:10391000A0911303B0911403892B8A2B8B2B09F0F0
:103920007CCF85C180911F0390912003A09121033A
:10393000B09122038C3F9F4FAF4FBF4F1CF00E94AE
:10394000780DF0CF0E94600D6FCF80911F03909192
:103950002003A0912103B09122038B3F9F4FAF4FD3
:10396000BF4F1CF00E94780DF0CF0E94600D63CF16
:1039700080911F0390912003A0912103B091220315
:103980008A3F9F4FAF4FBF4F1CF00E94780DF0CF82
:103990000E94600D57CF80911F0390912003A0914A
:1039A0002103B0912203893F9F4FAF4FBF4F1CF0BF
:1039B0000E94780DF0CF0E94600D4BCF80911F03C5
:1039C00090912003A0912103B0912203883F9F4F43
:1039D000AF4FBF4F1CF00E94780DF0CF0E94600DDA
:1039E0003FCF80911F0390912003A0912103B091BC
:1039F0002203873F9F4FAF4FBF4F1CF00E94780DAF
:103A0000F0CF0E94600D33CF80911F03909120036F
:103A1000A0912103B0912203863F9F4FAF4FBF4F2C
:103A20001CF00E94780DF0CF0E94600D27CF80918E
:103A30001F0390912003A0912103B0912203853FA1
:103A40009F4FAF4FBF4F1CF00E94780DF0CF0E94E8
:103A5000600D1BCF80911F0390912003A091210343
:103A6000B0912203843F9F4FAF4FBF4F1CF00E9485
:103A7000780DF0CF0E94600D0FCF60911F03709101
:103A8000200380912103909122030E94CF1E2AE9F6
:103A900039E941E351EC0E94C81E18161CF00E943F
:103AA000E90DEBCF0E946C0DFECE60911F0370916B
:103AB000200380912103909122030E94CF1E2AE9C6
:103AC00039E941E251EC0E94C81E18161CF00E9410
:103AD000E90DEBCF0E946C0DEDCE60911F0370914C
:103AE000200380912103909122030E94CF1E2AE996
:103AF00039E941E151EC0E94C81E18161CF00E94E1
:103B0000E90DEBCF0E946C0DDCCE60911F0370912C
:103B1000200380912103909122030E94CF1E2AE965
:103B200039E941E051EC0E94C81E18161CF00E94B1
:103B3000E90DEBCF0E946C0DCBCE60911F0370910D
:103B4000200380912103909122030E94CF1E23E342
:103B500033E343EE50EC0E94C81E18161CF00E947E
:103B6000E90DEBCF0E946C0DBACE60911F037091EE
:103B7000200380912103909122030E94CF1E23E312
:103B800033E343EC50EC0E94C81E18161CF00E9450
:103B9000E90DEBCF0E946C0DA9CE60911F037091CF
:103BA000200380912103909122030E94CF1E23E3E2
:103BB00033E343EA50EC0E94C81E18161CF00E9422
:103BC000E90DEBCF0E946C0D98CE60911F037091B0
:103BD000200380912103909122030E94CF1E23E3B2
:103BE00033E343E850EC0E94C81E18161CF00E94F4
:103BF000E90DEBCF0E946C0D0E94231210938100FF
:103C0000609111037091120380911303909114033A
:103C10000E94D112109211031092120310921303FA
:103C20001092140310921603109215036DCE0E9489
:103C30007D0328C80E94080F60911F037091200324
:103C40008091210390912203209100023091010282
:103C500040910202509103022F83388749875A8787
:103C60000E94CF1E2F81388549855A850E942E1FBC
:103C700060931B0370931C0380931D0390931E039A
:103C800080E00E94130F40911B0350911C03609130
:103C90001D0370911E0322E085E794E00E94E51267
:103CA0006FE772E085E794E00E94C71381E00E940D
:103CB000130F4091170350911803609119037091ED
:103CC0001A0385E794E00E949F1210922403109239
:103CD000230390C980916F04909170040C94C321C8
:103CE000E6ECF3E01382128288EE93E0A0E0B0E00D
:103CF00084839583A683B78327E232E031832083D0
:103D000025EC30E03587248724EC30E037872687A0
:103D100020EC30E0318B208B21EC30E0338B228B98
:103D200022EC30E0358B248B26EC30E0378B268B71
:103D3000118E128E138E148EE3E6F4E0138212823B
:103D400084839583A683B78389E392E091838083FC
:103D5000E5E7F4E0138212828BE492E091838083A2
:103D600087E2848384E1808784E08187128688E00B
:103D70008387EFE6F4E011821082138212821582AB
:103D8000148240E050E061E672E0CF010C94F8113B
:103D90000E940A1F08F481E00895E89409C097FB87
:103DA0003EF490958095709561957F4F8F4F9F4F12
:103DB0009923A9F0F92F96E9BB279395F695879556
:103DC00077956795B795F111F8CFFAF4BB0F11F419
:103DD00060FF1BC06F5F7F4F8F4F9F4F16C08823C0
:103DE00011F096E911C0772321F09EE8872F762FF6
:103DF00005C0662371F096E8862F70E060E02AF037
:103E00009A95660F771F881FDAF7880F9695879522
:103E100097F90895990F0008550FAA0BE0E8FEEFF7
:103E200016161706E807F907C0F012161306E4077E
:103E3000F50798F0621B730B840B950B39F40A2677
:103E400061F0232B242B252B21F408950A2609F455
:103E5000A140A6958FEF811D811D08950E94411FED
:103E60000C94B21F0E94A41F38F00E94AB1F20F0D8
:103E7000952311F00C949B1F0C94A11F11240C94FA
:103E8000E61F0E94C31F70F3959FC1F3950F50E08A
:103E9000551F629FF001729FBB27F00DB11D639FFC
:103EA000AA27F00DB11DAA1F649F6627B00DA11DA2
:103EB000661F829F2227B00DA11D621F739FB00D48
:103EC000A11D621F839FA00D611D221F749F3327B8
:103ED000A00D611D231F849F600D211D822F762F51
:103EE0006A2F11249F5750409AF0F1F088234AF02E
:103EF000EE0FFF1FBB1F661F771F881F915050409A
:103F0000A9F79E3F510580F00C949B1F0C94E61F6F
:103F10005F3FE4F3983ED4F3869577956795B79520
:103F2000F795E7959F5FC1F7FE2B880F911D96953A
:103F3000879597F9089597F99F6780E870E060E0AA
:103F400008959FEF80EC089500240A941616170632
:103F500018060906089500240A941216130614067A
:103F600005060895092E0394000C11F4882352F0DD
:103F7000BB0F40F4BF2B11F460FF04C06F5F7F4F95
:103F80008F4F9F4F089557FD9058440F551F59F07C
:103F90005F3F71F04795880F97FB991F61F09F3F36
:103FA00079F087950895121613061406551FF2CF5F
:103FB0004695F1DF08C0161617061806991FF1CFAF
:103FC00086957105610508940895E894BB276627D6
:103FD0007727CB0197F908955058BB27AA270E944D
:103FE00004200C94B21F0E94A41F38F00E94AB1F43
:103FF00020F039F49F3F19F426F40C94A11F0EF41D
:10400000E095E7FB0C949B1FE92F0E94C31F58F318
:10401000BA17620773078407950720F079F4A6F5AD
:104020000C94E51F0EF4E0950B2EBA2FA02D0B017A
:10403000B90190010C01CA01A0011124FF27591BED
:1040400099F0593F50F4503E68F11A16F040A22FF3
:10405000232F342F4427585FF3CF46953795279564
:10406000A795F0405395C9F77EF41F16BA0B620B63
:10407000730B840BBAF09150A1F0FF0FBB1F661FAA
:10408000771F881FC2F70EC0BA0F621F731F841FED
:1040900048F4879577956795B795F7959E3F08F013
:1040A000B0CF9395880F08F09927EE0F97958795D5
:1040B00008950E946D200C94B21F0E94AB1F58F00F
:1040C0000E94A41F40F029F45F3F29F00C949B1F2D
:1040D00051110C94E61F0C94A11F0E94C31F68F39A
:1040E0009923B1F3552391F3951B550BBB27AA27B1
:1040F00062177307840738F09F5F5F4F220F331FEB
:10410000441FAA1FA9F335D00E2E3AF0E0E832D0B2
:1041100091505040E695001CCAF72BD0FE2F29D0B5
:10412000660F771F881FBB1F261737074807AB0787
:10413000B0E809F0BB0B802DBF01FF2793585F4FFC
:104140003AF09E3F510578F00C949B1F0C94E61FAB
:104150005F3FE4F3983ED4F3869577956795B795DE
:10416000F7959F5FC9F7880F911D9695879597F9E9
:104170000895E1E0660F771F881FBB1F6217730762
:104180008407BA0720F0621B730B840BBA0BEE1F77
:1041900088F7E09508950E94CB1F88F09F5798F00C
:1041A000B92F9927B751B0F0E1F0660F771F881F3C
:1041B000991F1AF0BA95C9F714C0B13091F00E9456
:1041C000E51FB1E008950C94E51F672F782F88272D
:1041D000B85F39F0B93FCCF3869577956795B3957D
:1041E000D9F73EF490958095709561957F4F8F4FEC
:1041F0009F4F08950E940A1F08F48FEF08950E94B0
:104200000A1F880B990B0895A1E21A2EAA1BBB1B4B
:10421000FD010DC0AA1FBB1FEE1FFF1FA217B30792
:10422000E407F50720F0A21BB30BE40BF50B661FA8
:10423000771F881F991F1A9469F76095709580956C
:1042400090959B01AC01BD01CF010895EE0FFF1FBA
:10425000881F8BBF0790F691E02D1994CF93DF93C1
:104260008230910510F482E090E0E0918C04F091AE
:104270008D0420E030E0C0E0D0E0309711F14081C3
:10428000518148175907C0F04817590761F48281D6
:104290009381209719F09B838A832BC090938D0480
:1042A00080938C0426C02115310519F0421753075D
:1042B00018F49A01BE01DF01EF010280F381E02DC5
:1042C000DCCF2115310509F1281B390B24303105CC
:1042D00090F412968D919C9113976115710521F0C0
:1042E000FB019383828304C090938D0480938C049C
:1042F000FD01329644C0FD01E20FF31F81939193BB
:10430000225031092D933C933AC020918A04309178
:104310008B04232B41F42091170230911802309323
:104320008B0420938A0420911502309116022115E6
:10433000310541F42DB73EB74091190250911A0250
:10434000241B350BE0918A04F0918B04E217F307EC
:10435000A0F42E1B3F0B2817390778F0AC014E5FF5
:104360005F4F2417350748F04E0F5F1F50938B04A3
:1043700040938A048193919302C0E0E0F0E0CF0182
:10438000DF91CF9108950F931F93CF93DF93009701
:1043900009F48CC0FC0132971382128200918C04C4
:1043A00010918D040115110581F420813181820F56
:1043B000931F20918A0430918B042817390779F5CF
:1043C000F0938B04E0938A0471C0D80140E050E080
:1043D000AE17BF0750F412962D913C911397AD0183
:1043E0002115310509F1D901F3CF9D01DA0133839C
:1043F000228360817181860F971F8217930769F46A
:10440000EC0128813981260F371F2E5F3F4F318302
:1044100020838A819B8193838283452B29F4F093A7
:104420008D04E0938C0442C01396FC93EE93129794
:10443000ED01499159919E01240F351FE217F307B1
:1044400071F480819181840F951F029611969C933F
:104450008E938281938113969C938E931297E0E0C2
:10446000F0E0D80112968D919C911397009719F066
:10447000F8018C01F6CF8D919C9198012E5F3F4FF2
:10448000820F931F20918A0430918B0428173907DB
:1044900069F4309729F410928D0410928C0402C0B4
:1044A0001382128210938B0400938A04DF91CF91C0
:1044B0001F910F9108956F927F928F929F92AF926A
:1044C000BF92CF92DF92EF92FF920F931F93CF9301
:1044D000DF93EC01009789F4CB01DF91CF911F911D
:1044E0000F91FF90EF90DF90CF90BF90AF909F9093
:1044F0008F907F906F900C942E21FC01E60FF71F98
:104500009C0122503109E217F30708F4ACC0D9012D
:104510000D911C91119706171707B0F00530110582
:1045200008F49FC0C80104978617970708F499C03C
:1045300002501109061B170B019311936D937C9385
:10454000CF010E94C3218DC05B01A01AB10A4C01AA
:10455000800E911EA0918C04B0918D0440E050E03B
:10456000E12CF12C109709F44AC0A815B905D1F532
:104570006D907C901197630182E0C80ED11CCA1423
:10458000DB0480F1A3014A195B096A0182E0C80ECD
:10459000D11C1296BC9012971396AC91B5E0CB1635
:1045A000D10440F0B282A38351834083D9016D933B
:1045B0007C930AC00E5F1F4FC301800F911FF9014A
:1045C00091838083EB2DFA2FE114F10431F0D701B0
:1045D0001396FC93EE93129744C0F0938D04E093EE
:1045E0008C043FC08D919C9111974817590708F48E
:1045F000AC017D0112960D90BC91A02DB3CF80919E
:104600008A0490918B0488159905E1F446175707A1
:10461000C8F48091150290911602009741F48DB76D
:104620009EB74091190250911A02841B950BE8170E
:10463000F907C8F4F0938B04E0938A04F9017183BD
:1046400060830FC0CB010E942E217C01009759F09E
:10465000A801BE010E944923CE010E94C321C701C7
:1046600004C0CE0102C080E090E0DF91CF911F91A5
:104670000F91FF90EF90DF90CF90BF90AF909F9001
:104680008F907F906F90089581E090E0F8940C9463
:104690006223FB01DC0102C001900D9241505040A9
:1046A000D8F70895FB01DC018D910190801901106C
:1046B000D9F3990B0895FB01DC0101900D920020C4
:1046C000E1F7089511E0C9E6D1E000E006C0802FCF
:1046D000FE010E9426212196011DCA36D10780E0E5
:0846E0000807A9F7F894FFCFC9
:1046E8005F0C153F01D50ED50ED50ED50ED50ED5BE
:1046F8000ED50ED50E00008E048000000040001478
:10470800005400000000000502DD0E9D014C02CEA1
:1047180001AC01C00100000000F602C6022603A099
:1047280002BE02AF02A102000000002F0DDD0E261E
:10473800032503000000002A03DD0E260325030DD0
:104748000A004269656E76656E69646F0050726F23
:104758006772616D6120526F6C61646F7261006D88
:104768006D0076656C0074656D70006365726F002E
:104778000A0D007465737400636174656E61726913
:10478800613100636174656E617269613200312064
:104798006C6973746F0032204F4B0033204F4B000D
:1047A80034206C6973746F0035206C6973746F0002
:1047B80036206C6973746F0037206C6973746F00EE
:1047C80038206C6973746F0039206C6973746F00DA
:1047D800636174656E6172696133006E616E006950
:0847E8006E66006F76660000AA
:00000001FF
