:100000000C9459010C94020A0C94D7090C94AC0975
:100010000C9481090C9456090C942B090C9400093A
:100020000C94D5080C948A010C948A010C948A01D2
:100030000C948A010C948A010C948A010C948A0114
:100040000C948A010C948A010C948A010C948A0104
:100050000C94AE060C948A010C948A010C948B08C3
:100060000C948A010C9466020C943C020C948A0154
:100070000C948A010C948A010C948A010C948A01D4
:100080000C948A010C948A010C948A010C948A01C4
:100090000C948A010C948A010C948A010C94D70464
:1000A0000C948A010C948A010C948A010C948A01A4
:1000B0000C948A010C948A010C948A010C948A0194
:1000C0000C948A010C948A010C948A010C948A0184
:1000D0000C948A010C948A010C948A010C948A0174
:1000E0000C948A01C707CA07B907BD07C1070108F1
:1000F000CE07D207D807DC07E007E607EA07EE07D6
:100100000108F407F807FC070C94EC020C94BD07F7
:100110000C94DC070C94AF010C94F8070C94CE02FD
:100120000C94A8060C94CE070C94D8070C94B9072D
:100130000C941D040C94DD020C94D3010C949B01CF
:100140000C94FC070C94F4070C9453030C943307A1
:100150000C941A020C94AA100C94C7070C94240354
:100160000C94CF020C94BD010C9457030C94F40230
:100170000C94B0100C948C010C9401080C9427047E
:100180000C94CA070C94F7030C94E0070C94EA074C
:100190000C9434070C94EE070C94E6070C9454036B
:1001A0000C94D2070C94C107000021002400270002
:1001B0002A002D0030003300010100000401070176
:1001C0000A0100002200250028002B002E0031002B
:1001D000340002010000050108010B0105050505B9
:1001E000070508080808020202020A0A08080404AF
:1001F00004040101010101010101030303030303DD
:100200000303040707070C0C0C0C0C0C0C0C02026B
:10021000020206060606060606060B0B0B0B0B0B68
:100220000B0B0102102020080810204010204080F5
:1002300002010201080402010102040810204080AA
:100240008040201008040201800402018040201038
:100250000804020108040201010204081020408081
:10026000010204081020408000000A0B02090C0D56
:100270000E08070304010000000000000000000059
:10028000000000000000000000000000000000006E
:10029000000000001211100000000000000000002B
:1002A0000000000000000000000000000000B0108E
:1002B000AA1011241FBECFEFD1E2DEBFCDBF00E0F8
:1002C0000CBF24E0A8E0B3E001C01D92AB39B20737
:1002D000E1F713E0A0E0B2E0E6E5FBE200E00BBFEF
:1002E00002C007900D92A830B107D9F711E0C8E518
:1002F000D1E000E006C021970109802FFE010E9495
:100300006613C735D10780E00807A9F70E94ED0BF7
:100310000C9499150C940000FC01538D448D252FED
:1003200030E0842F90E0821B930B541710F0CF968F
:10033000089501970895FC01918D828D981761F0C1
:10034000828DDF01A80FB11D5D968C91928D9F5F0C
:100350009F73928F90E008958FEF9FEF0895FC01B7
:10036000918D828D981731F0828DE80FF11D858D6A
:1003700090E008958FEF9FEF0895FC01918D228DFD
:10038000892F90E0805C9F4F821B91098F73992782
:10039000089587ED93E00E94BD0121E0892B09F4C7
:1003A00020E0822F0895EF92FF920F931F93CF9337
:1003B000DF93EC0181E0888F9B8D8C8D981305C0B5
:1003C000E889F989808185FD24C0F62E0B8D10E027
:1003D0000F5F1F4F0F731127E02E8C8DE8120CC09A
:1003E0000FB607FCFACFE889F989808185FFF5CF40
:1003F000CE010E94B604F1CF8B8DFE01E80FF11DF6
:10040000E35AFF4FF0820B8FEA89FB89808180627B
:1004100007C0EE89FF896083E889F989808180645B
:10042000808381E090E0DF91CF911F910F91FF9049
:10043000EF900895CF93DF93EC01888D8823C9F066
:10044000EA89FB89808185FD05C0A889B9898C91DD
:1004500086FD0FC00FB607FCF5CF808185FFF2CF78
:10046000A889B9898C9185FFEDCFCE010E94B60491
:10047000E7CFDF91CF9108951F920F920FB60F92A1
:1004800011240BB60F922F933F934F935F936F936B
:100490007F938F939F93AF93BF93EF93FF9387EDDA
:1004A00093E00E94B604FF91EF91BF91AF919F91AD
:1004B0008F917F916F915F914F913F912F910F900D
:1004C0000BBE0F900FBE0F901F9018951F920F92AA
:1004D0000FB60F9211240BB60F922F938F939F9309
:1004E000EF93FF93E091E703F091E8038081E091BF
:1004F000ED03F091EE0382FD12C090818091F00334
:100500008F5F8F732091F103821751F0E091F00318
:10051000F0E0E952FC4F958F8093F00301C0808199
:10052000FF91EF919F918F912F910F900BBE0F90A4
:100530000FBE0F901F90189585ED8093BC008091A1
:10054000BC0084FDFCCF10920A03089540918A03F9
:10055000262F30E0240F311D21323105DCF42091AB
:100560000A032430C9F4FC0180E090E0861758F4B7
:1005700030918A032191DC01A859BC4FA30FB11D12
:100580002C930196F3CF80918A03680F60938A03BE
:1005900080E0089581E0089582E00895089581E063
:1005A00090E030910E0320910D03321710F480E09B
:1005B00090E0919581959109089580910E03909115
:1005C0000D03891730F48F5F80930E0380E090E075
:1005D00008958FEF9FEF089580910D0390E0209193
:1005E0000E03821B91090895CF92DF92EF92FF9242
:1005F0000F931F93CF93DF937C01262F972F8A01B0
:1006000080916703882391F0C62FD72F6E01C40E07
:10061000D51ECC15DD0571F06991D701ED91FC91E6
:100620000190F081E02DC7011995F3CF642F822F3F
:100630000E94A602C801DF91CF911F910F91FF90F8
:10064000EF90DF90CF900895CF93DF931F92CDB7B7
:10065000DEB76983209167032223D1F020910B0339
:10066000203240F021E030E0FC013383228380E03F
:1006700090E015C080910C03E82FF0E0E95BFC4F9F
:10068000998190838F5F80930C0380930B0305C047
:1006900061E0CE0101960E94A60281E090E00F90F9
:1006A000DF91CF910895089580E090E008950F9331
:1006B0001F9382B385FB882780F9809344032FB76B
:1006C000F8948091D3039091D403A091D503B09175
:1006D000D6032FBF409140035091410360914203E4
:1006E00070914303841B950BA60BB70B80933C03BF
:1006F00090933D03A0933E03B0933F032FB7F8942C
:100700008091D3039091D403A091D503B091D603E7
:100710002FBF8093400390934103A0934203B09373
:10072000430380913C0390913D03A0913E03B0911F
:100730003F030397A105B10520F081E080930502F6
:1007400002C01092050280910502882309F44CC072
:1007500080914403811103C081E090E002C08FEFDB
:100760009FEF4091190350911A0360911B03709100
:100770001C03092E000CAA0BBB0B8A019B01081B52
:10078000190B2A0B3B0B0093190310931A032093A8
:100790001B0330931C0380914403811103C081E04B
:1007A00090E002C08FEF9FEF409115035091160328
:1007B0006091170370911803092E000CAA0BBB0B54
:1007C0008A019B01081B190B2A0B3B0B0093150395
:1007D00010931603209317033093180390911D0371
:1007E00081E0892780931D031F910F9108958091C7
:1007F000240390912503019690932503809324036D
:1008000080911E0390911F03A0912003B0912103BA
:100810000196A11DB11D80931E0390931F03A09309
:100820002003B0932103809122039091230301962A
:1008300090932303809322030895809104028823D8
:1008400029F081E0809326038093130308950E948A
:100850008415FF920F931F93CF93DF931F921F92E4
:10086000CDB7DEB787ED93E00E94BD01892B09F477
:1008700040C087ED93E00E949B01F82E89831A8285
:1008800000918404109185040F5F1F4FB80180E828
:1008900094E00E942D0A882399F0209180043091E1
:1008A00081048091840490918504BE016F5F7F4F25
:1008B000820F931F0E949215109385040093840465
:1008C0008DE0F81204C081E08093450312C080E2FD
:1008D000F8120FC040E050E068EE72E080E894E06B
:1008E0000F900F90DF91CF911F910F91FF900C947B
:1008F000540A0F900F90DF91CF911F910F91FF90AD
:1009000008950E94C901811125C080E090E0892BE3
:1009100041F080E090E0892B21F00E9400008111DD
:100920001CC080E090E0892B41F080E090E0892BB2
:1009300021F00E940000811113C080E090E0892B1B
:10094000A1F080E090E0892B81F00E9400008111ED
:100950000AC008950E942904D8CF0E940000E1CF68
:100960000E940000EACF0C9400000895FC01848DE1
:10097000DF01A80FB11DA35ABF4F2C91848D90E0C9
:1009800001968F739927848FA689B7892C93A089A4
:10099000B1898C9180648C93938D848D981306C05B
:1009A0000288F389E02D80818F7D808308951F92D6
:1009B0000F920FB60F9211240BB60F922F933F9305
:1009C0004F935F936F937F938F939F93AF93BF9357
:1009D000EF93FF938091B900887F803609F49CC023
:1009E00068F5883209F45BC090F4803109F454C092
:1009F00038F4882309F4F6C0883009F44DC0F6C0F5
:100A0000883109F44CC0803209F45DC0EFC08034F5
:100A100009F468C048F4803309F455C0883309F0FC
:100A2000E5C08093AF03D8C0803509F44FC0883546
:100A300009F45DC0883409F0D9C0D6C0883909F4FA
:100A4000C7C0A8F4883709F467C038F4883609F4B9
:100A500063C0803709F460C0C9C0883809F4B8C0E1
:100A6000803909F45FC0803809F0C0C05BC0803BAA
:100A700009F486C038F4803A09F466C0883A09F46B
:100A80007FC0B4C0803C09F4A7C0883C09F4A4C06E
:100A9000883B09F48AC0AAC08091D20310C090910B
:100AA000D1038091D003981770F5E091D10381E0D4
:100AB0008E0F8093D103F0E0E055FC4F808180934E
:100AC000BB0085EC86C08093AF038EC0E091D1035C
:100AD00081E08E0F8093D1038091BB00F0E0E05560
:100AE000FC4F80839091D1038091D0036EC0E09140
:100AF000D10381E08E0F8093D1038091BB00F0E0A1
:100B0000E055FC4F80838091090381116DC081E025
:100B10008093080384EA61C083E080930A03109203
:100B2000AE03CFCF8091AE03803208F051C0E09188
:100B3000AE0381E08E0F8093AE038091BB00F0E0A6
:100B4000E257FC4F8083BDCF85EC8093BC001092B0
:100B50000A038091AE03803230F4E091AE03F0E0FE
:100B6000E257FC4F10826091AE0370E0E0918C037D
:100B7000F0918D038EE893E019951092AE0336C084
:100B800084E080930A0310928B0310928A03E09111
:100B90008803F0918903199580918A03811105C01A
:100BA00081E080938A0310926803E0918B0381E0D7
:100BB0008E0F80938B03F0E0E859FC4F8081809387
:100BC000BB0090918B0380918A03981708F479CF2A
:100BD00085E88093BC000AC085EC8093BC0010922D
:100BE0000A0304C01092AF030E949C02FF91EF9190
:100BF000BF91AF919F918F917F916F915F914F9135
:100C00003F912F910F900BBE0F900FBE0F901F9032
:100C10001895CF93FC01C48121E020936703C09312
:100C2000460310920C0310920B038385682B84E714
:100C300094E00E94240380910B03813208F046C0A7
:100C400090910A039111FCCF92E090930A0391E0F6
:100C5000909309039FEF9093AF031092D103809379
:100C6000D003A7E4B3E020EB33E0F9019E2F921B01
:100C7000981718F49D919193F9CF1092D203809117
:100C8000D203CC0FC82BC093D203809108038130CC
:100C900061F4109208038091D2038093BB0080918D
:100CA000BC0083FDF8CF85EC01C085EE8093BC00CD
:100CB00080910A038230E1F38091AF038F3F31F0DE
:100CC0008091AF03803211F08091AF0310920C033A
:100CD00010920B0310926703CF9108950F931F9307
:100CE000CF938C01C62F0E9409066C2F6460C80147
:100CF0000E9409066C2F6B7FC8010E94090683ECD5
:100D000090E00197F1F7CF911F910F910895FF9215
:100D10000F931F93CF93DF931F92CDB7DEB78C0154
:100D2000F62E962F907F692F642BC80149830E946D
:100D30006E0680E1F89EB00111244981642BC80140
:100D40000F90DF91CF911F910F91FF900C946E0641
:100D500041E00E94870681E090E008951F920F9283
:100D60000FB60F9211240BB60F922F933F934F9310
:100D70005F936F937F938F939F93AF93BF93EF9303
:100D8000FF93E0910F03F09110031995FF91EF91FC
:100D9000BF91AF919F918F917F916F915F914F9193
:100DA0003F912F910F900BBE0F900FBE0F901F9091
:100DB000189560E08AE20E94980760E088E20E944D
:100DC000980760E08DE20C94980720911103309110
:100DD00012032150310982179307E0F4DC01AA0FB6
:100DE000BB1FAC5CBD4F880F991FFC01EE5CFD4F33
:100DF0008D919C9120813181821B930B90933B03B9
:100E000080933A03181619061CF4109214030895DF
:100E1000892B19F081E08093140308953FB7F8946B
:100E20008091930490919404A0919504B0919604BC
:100E300026B5A89B05C02F3F19F00196A11DB11D35
:100E40003FBFBA2FA92F982F8827820F911DA11D70
:100E5000B11DBC01CD0142E0660F771F881F991FAD
:100E60004A95D1F708950895CF92DF92EF92FF92BD
:100E70000F931F93CF93DF936C017A018B01C0E036
:100E8000D0E0CE15DF0589F0D8016D918D01D60136
:100E9000ED91FC910190F081E02DC6011995892B0F
:100EA00011F47E0102C02196ECCFC701DF91CF91F2
:100EB0001F910F91FF90EF90DF90CF900895CF9307
:100EC000DF93CDB7DEB728970FB6F894DEBF0FBE1D
:100ED000CDBF98E0E8E4F2E0DE01119601900D92BA
:100EE0009A95E1F790918F04981710F48FEF890F7E
:100EF000FE013196E80FF11DE80FF11D6081606879
:100F000040E086E894E028960FB6F894DEBF0FBE66
:100F1000CDBFDF91CF910C94870640E061E086E879
:100F200094E00E9487068BE39FE10197F1F7089513
:100F3000362F90E0FC01E859FD4F4491FC01EE5D35
:100F4000FD4F2491FC01E452FE4F9491992309F442
:100F50006BC0442309F455C050E0FA013197E231E7
:100F6000F10508F04EC08827EE58FF4F8F4F0C94C4
:100F70006613809180008F7707C0809180008F7DFD
:100F800003C080918000877F809380003AC084B541
:100F90008F7702C084B58F7D84BD33C08091B0004F
:100FA0008F7703C08091B0008F7D8093B00029C0FF
:100FB000809190008F7707C0809190008F7D03C053
:100FC00080919000877F809390001BC08091A0004B
:100FD0008F7707C08091A0008F7D03C08091A00013
:100FE000877F8093A0000DC0809120018F7707C07C
:100FF000809120018F7D03C080912001877F8093A5
:101000002001E92FF0E0EE0FFF1FEE53FE4FA591F8
:10101000B4918FB7F894EC91311103C020952E2331
:1010200001C02E2B2C938FBF0895CF93DF9390E0B8
:10103000FC01EE5DFD4F2491FC01E452FE4F8491D2
:10104000882361F190E0880F991FFC01E855FE4F5D
:10105000C591D491FC01EE53FE4FA591B49161115D
:1010600009C09FB7F8948881209582238883EC91EA
:101070002E230BC0623061F49FB7F8943881822F21
:10108000809583238883EC912E2B2C939FBF06C0E1
:101090008FB7F894E8812E2B28838FBFDF91CF91F3
:1010A00008958F929F92AF92BF92CF92DF92EF926C
:1010B000FF926B017C010E940E074B015C01C11481
:1010C000D104E104F104F1F00E940E07DC01CB0130
:1010D00088199909AA09BB09883E9340A105B10561
:1010E00070F321E0C21AD108E108F10888EE880EF9
:1010F00083E0981EA11CB11CC114D104E104F104C9
:1011000019F7DDCFFF90EF90DF90CF90BF90AF90B9
:101110009F908F9008951F920F920FB60F921124F7
:101120002F933F938F939F93AF93BF938091D3035C
:101130009091D403A091D503B091D603309192043D
:1011400023E0230F2D3720F40196A11DB11D05C00A
:1011500026E8230F0296A11DB11D209392048093CF
:10116000D3039093D403A093D503B093D603809177
:10117000930490919404A0919504B09196040196E3
:10118000A11DB11D8093930490939404A0939504A2
:10119000B0939604BF91AF919F918F913F912F9102
:1011A0000F900FBE0F901F9018951F920F920FB6C1
:1011B0000F9211240BB60F922F933F934F935F938F
:1011C0006F937F938F939F93AF93BF93EF93FF930F
:1011D000E0911402F09115021995FF91EF91BF91E2
:1011E000AF919F918F917F916F915F914F913F91BF
:1011F0002F910F900BBE0F900FBE0F901F90189560
:101200001F920F920FB60F9211240BB60F922F93CD
:101210003F934F935F936F937F938F939F93AF937E
:10122000BF93EF93FF93E0911202F091130219958F
:10123000FF91EF91BF91AF919F918F917F916F91AE
:101240005F914F913F912F910F900BBE0F900FBE6A
:101250000F901F9018951F920F920FB60F921124A6
:101260000BB60F922F933F934F935F936F937F93A0
:101270008F939F93AF93BF93EF93FF93E0910802F7
:10128000F09109021995FF91EF91BF91AF919F9154
:101290008F917F916F915F914F913F912F910F901F
:1012A0000BBE0F900FBE0F901F9018951F920F92BC
:1012B0000FB60F9211240BB60F922F933F934F93BB
:1012C0005F936F937F938F939F93AF93BF93EF93AE
:1012D000FF93E0910602F09107021995FF91EF91BB
:1012E000BF91AF919F918F917F916F915F914F913E
:1012F0003F912F910F900BBE0F900FBE0F901F903C
:1013000018951F920F920FB60F9211240BB60F92E1
:101310002F933F934F935F936F937F938F939F93FD
:10132000AF93BF93EF93FF93E0911002F0911102FE
:101330001995FF91EF91BF91AF919F918F917F91FF
:101340006F915F914F913F912F910F900BBE0F9036
:101350000FBE0F901F9018951F920F920FB60F920D
:1013600011240BB60F922F933F934F935F936F937C
:101370007F938F939F93AF93BF93EF93FF93E091EE
:101380000E02F0910F021995FF91EF91BF91AF916D
:101390009F918F917F916F915F914F913F912F918D
:1013A0000F900BBE0F900FBE0F901F9018951F92BD
:1013B0000F920FB60F9211240BB60F922F933F93FB
:1013C0004F935F936F937F938F939F93AF93BF934D
:1013D000EF93FF93E0910C02F0910D021995FF91AC
:1013E000EF91BF91AF919F918F917F916F915F919D
:1013F0004F913F912F910F900BBE0F900FBE0F900A
:101400001F9018951F920F920FB60F9211240BB6D2
:101410000F922F933F934F935F936F937F938F938D
:101420009F93AF93BF93EF93FF93E0910A02F091E4
:101430000B021995FF91EF91BF91AF919F918F9101
:101440007F916F915F914F913F912F910F900BBEC4
:101450000F900FBE0F901F9018950F931F93CF936F
:10146000DF93EC0188819981009729F02A813B81E3
:101470002617370788F48B016F5F7F4F0E949B14FC
:10148000009761F0998388831B830A832C813D81B7
:10149000232B11F4FC01108281E001C080E0DF9178
:1014A000CF911F910F910895EF92FF920F931F9389
:1014B000CF93DF93EC017B018A01BA010E942D0AD0
:1014C0002881398181110DC02115310519F0C9011B
:1014D0000E940314198218821D821C821B821A82A8
:1014E00006C01D830C83B701C9010E949215CE016D
:1014F000DF91CF911F910F91FF90EF900895DC0144
:10150000ED91FC910190F081E02D19946115710528
:1015100079F0FB0101900020E9F73197AF01461BFC
:10152000570BDC01ED91FC910280F381E02D1994C1
:1015300080E090E00895CF93DF93BC0187ED93E0C6
:101540000E94860AEC0166EE72E087ED93E00E944D
:10155000860A8C0F9D1FDF91CF9108954F925F9265
:101560006F927F92EF92FF920F931F93CF93DF932F
:10157000CDB7DEB7A1970FB6F894DEBF0FBECDBFD3
:101580007C01FA01CB0119A2223008F42AE08E0175
:101590000F5D1F4F422E512C612C712CBF01A301F6
:1015A00092010E944413F901CA01015011096A30E5
:1015B00014F4605D01C0695CD8016C93232B242B6B
:1015C000252B61F7B801C7010E94860AA1960FB6C4
:1015D000F894DEBF0FBECDBFDF91CF911F910F9169
:1015E000FF90EF907F906F905F904F900895CF9312
:1015F000DF93AC0160E070E02AE087ED93E00E94A9
:10160000AE0AEC0166EE72E087ED93E00E94860A76
:101610008C0F9D1FDF91CF9108954F925F926F9233
:101620007F928F929F92AF92BF92CF92DF92EF9272
:10163000FF926B017C01B42E9B01AC010E943F1311
:10164000882319F06CEF72E027C026013701E89477
:1016500077F82FEF3FEF4FE75FE7C301B2010E943A
:101660003F1381110DC02FEF3FEF4FE75FE7C3013D
:10167000B2010E94081118161CF460E073E00CC05F
:101680002FEF3FEF4FE75FE4C701B6010E943A1327
:10169000181694F464E073E086E894E0FF90EF900D
:1016A000DF90CF90BF90AF909F908F907F906F9082
:1016B0005F904F900C94860A2FEF3FEF4FE75FEC5F
:1016C000C701B6010E94081187FDE4CF20E030E099
:1016D000A901C701B6010E94081187FF0BC06DE286
:1016E00086E894E00E947F0A4C01F7FAF094F7F83C
:1016F000F09402C0812C912CA12C60E070E080E07D
:101700009FE3AB1441F020E030E040E251E40E945E
:101710009912A394F6CF9B01AC01C701B6010E94B8
:101720002D122B013C010E940B136B017C010E94C6
:101730000D119B01AC01C301B2010E942C122B01BF
:101740003C012AE0B701A60186E894E00E94AE0AB7
:101750007C01E80CF91CBB2039F06EE286E894E0CD
:101760000E947F0AE80EF91EDB2CDD2031F120E01B
:1017700030E040E251E4C301B2010E946E112B013E
:101780003C010E940B134B01A12CB12C2AE0B501A6
:10179000A40186E894E00E94AE0AE80EF91EC50195
:1017A000B4010E940D119B01AC01C301B2010E9462
:1017B0002C122B013C01DA94D8CFC701FF90EF9097
:1017C000DF90CF90BF90AF909F908F907F906F9061
:1017D0005F904F9008950C94860ACF93DF9300D0CA
:1017E0001F92CDB7DEB7789484B5826084BD84B58E
:1017F000816084BD85B5826085BD85B5816085BD0C
:1018000080916E00816080936E00109281008091C3
:10181000810082608093810080918100816080934B
:101820008100809180008160809380008091B10070
:1018300084608093B1008091B00081608093B0009B
:1018400080919100826080939100809191008160ED
:1018500080939100809190008160809390008091AE
:10186000A10082608093A1008091A100816080939B
:10187000A1008091A00081608093A000809121014F
:1018800082608093210180912101816080932101F8
:101890008091200181608093200180917A00846092
:1018A00080937A0080917A00826080937A008091A0
:1018B0007A00816080937A0080917A0080688093BA
:1018C0007A001092C100E091E703F091E80382E012
:1018D0008083E091E303F091E4031082E091E5035B
:1018E000F091E6038FEC80831092EF03E091EB031D
:1018F000F091EC0386E08083E091E903F091EA0344
:10190000808180618083E091E903F091EA03808126
:1019100088608083E091E903F091EA038081806828
:101920008083E091E903F091EA0380818F7D8083D9
:101930008CE892E00E949B0A8BE090E00E94F70AFC
:101940008BE090E0909312038093110310922E038A
:1019500010922D03109236031092350380E090E030
:1019600020913503309136032B30310510F5E0918D
:101970003503F0913603EE0FFF1FE45EFD4F20812B
:1019800031818217930750F4E0913503F0913603CB
:10199000EE0FFF1FE45EFD4F8081918120913503A2
:1019A000309136032F5F3F4F30933603209335033A
:1019B000D7CF90932E0380932D030E94F70A1092A5
:1019C00036031092350380912D0390912E0380539E
:1019D000984F90932C0380932B0380E18093810098
:1019E0001092800011E01093290380E49FE190930E
:1019F000280380932703909387008093860081E1DA
:101A00008093810087EF93E09093100380930F03FE
:101A100010936F0068EC70E080E894E00E942D0A5B
:101A200060E084E00E94150860E084E00E9498076E
:101A300087E593E0909309028093080280916A0001
:101A40008C6080936A00ED9A8DE194E09093070298
:101A50008093060280916A008C7F826080936A0086
:101A6000EC9A61E089E20E94150860E089E20E9438
:101A7000980761E087E20E94150860E087E20E9413
:101A8000980761E08AE20E94150860E08AE20E94FD
:101A9000980761E08DE20E94150860E08DE20E94E7
:101AA000980761E088E20E94150860E088E20E94E1
:101AB000980710920E0310920D0310920C031092CF
:101AC0000B0310920A03109309031092080361E0BC
:101AD00084E10E94980761E085E10E949807809167
:101AE000B9008E7F8093B9008091B9008D7F80937B
:101AF000B90088E48093B80085E48093BC0010921C
:101B00008B0480918F04823018F098E090938B04BE
:101B100090919004992339F0813029F480918B04BD
:101B2000846080938B0462E370E080E090E00E9428
:101B300051086091910486E894E00E94090668EEDD
:101B400073E080E090E00E94510860E386E894E052
:101B50000E946E060BE416E4C8010197F1F760E3FA
:101B600086E894E00E946E06C8010197F1F760E3F1
:101B700086E894E00E946E0683E592E00197F1F713
:101B800060E286E894E00E946E0660918B046062D9
:101B900040E086E894E00E94870684E080938C040D
:101BA00040E06CE086E894E00E9487060E948D0782
:101BB00082E080938D0440E066E086E894E00E9435
:101BC000870640E062E086E894E00E9487068BE3A7
:101BD0009FE10197F1F710921D0380E00E945F07DB
:101BE00067E972E086E894E00E94EB0B81E00E94D6
:101BF0005F076CE872E086E894E00E94EB0B60ED12
:101C000077E080E090E00E9451080E948D0760918B
:101C1000190370911A0380911B0390911C0320916A
:101C20000002309101024091020250910302298387
:101C30003A834B835C830E940F1129813A814B8147
:101C40005C810E946E1160932F0370933003809328
:101C500031039093320380E00E945F0760912F036D
:101C600070913003809131039091320342E00E94E1
:101C70000D0B69EA72E086E894E00E94EB0B81E0CC
:101C80000E945F076CEA72E086E894E00E94EB0B2A
:101C90000FB6F894A89580916000886180936000E9
:101CA000109260000FBE99E288E10FB6F894A895F3
:101CB000809360000FBE9093600011E08091260336
:101CC000882309F44BC080910402882309F446C09C
:101CD000109204021092260386EB92E00E949B0A67
:101CE0001093380310933703109236031092350384
:101CF00010922503109224031092230310922203C2
:101D000010921E0310921F031092200310922103C1
:101D1000109234031092330310922F031092300369
:101D2000109231031092320310931D031092190385
:101D300010921A0310921B0310921C0310921503A9
:101D40001092160310921703109218031092340386
:101D50001092330361E087E20E94980780911D038F
:101D6000882309F44FC00E948D076091150370917C
:101D7000160380911703909118032091000230916F
:101D80000102409102025091030229833A834B835E
:101D90005C830E940F1129813A814B815C810E94F2
:101DA0006E1160932F0370933003809331039093EF
:101DB000320380E00E945F0760912F03709130032F
:101DC000809131039091320342E00E940D0B69EA49
:101DD00072E086E894E00E94EB0B10921D03809164
:101DE0001303882331F081E00E945F0764EC72E006
:101DF00005C081E00E945F076CEA72E086E894E02B
:101E00000E94EB0B80913703882331F080913503DA
:101E1000909136030E94E50680913803882309F4E7
:101E200061C02091240330912503E0913503F091A6
:101E30003603EE0FFF1FE45EFD4F80819181821714
:101E4000930708F04FC020913503309136038091FD
:101E50001103909112038217930708F443C08091F5
:101E60003503909136030E94E50669EE72E087ED36
:101E700093E00E94EB0B80913503909136030E9412
:101E8000F70A6DEE72E087ED93E00E94EB0BE091B4
:101E90003503F0913603EE0FFF1FE45EFD4F8081A6
:101EA00091810E94F70A8091350390913603019643
:101EB000909336038093350310932A0310921E03E8
:101EC00010921F0310922003109221038091370378
:101ED000882341F01092190310921A0310921B03E9
:101EE00010921C0380913703882309F4D8C0809195
:101EF000140390912A03992309F4CFC061E0882349
:101F0000E1F18AE20E94980761E08DE20E94980761
:101F10008091190390911A03A0911B03B0911C03A7
:101F2000181619061A061B0674F48091190390916D
:101F30001A03A0911B03B0911C03181619061A0668
:101F40001B0684F0ACC08091190390911A03A091F4
:101F50001B03B0911C03181619061A061B0609F07C
:101F60000CF49DC01092190310921A0310921B03D7
:101F700010921C036FEC72E033C08AE20E94980753
:101F800061E088E20E9498078091190390911A03FA
:101F9000A0911B03B0911C03181619061A061B0604
:101FA00074F48091190390911A03A0911B03B091CE
:101FB0001C03181619061A061B0684F070C08091BF
:101FC000190390911A03A0911B03B0911C031816DA
:101FD00019061A061B0609F00CF461C065ED72E0E3
:101FE00087ED93E00E94EB0B0E94D90610922A0322
:101FF0008091190390911A03A0911B03B0911C03C7
:10200000181619061A061B064CF4809119039091B4
:102010001A03A0911B03B0911C030FC080911903F8
:1020200090911A03A0911B03B0911C03B095A09549
:10203000909581959F4FAF4FBF4F0297A105B10576
:1020400074F12091330330913403809119039091FE
:102050001A03A0911B03B0911C03181619061A0647
:102060001B064CF48091190390911A03A0911B0355
:10207000B0911C030BC08091190390911A03A09199
:102080001B03B0911C03919581959109820F931FB9
:10209000909334038093330302C00E94D9062091A9
:1020A00024033091250380912D0390912E038217F4
:1020B0009307A8F510922503109224031092380379
:1020C000109237038BED92E00E949B0AC09033037D
:1020D000D09034030D2C000CEE08FF08F7FE0EC064
:1020E0006DE287ED93E00E947F0A44275527BA01ED
:1020F0004C195D096E097F092AE003C02AE0B70187
:10210000A60187ED93E00E94AE0A66EE72E087EDCD
:1021100093E00E94860A0E94D90610931D03209125
:1021200022033091230380912B0390912C0382177B
:10213000930760F460E087E20E949807109304021E
:10214000109223031092220310921303A8950E9469
:102150008104B4CD80918004909181040C94031487
:10216000E7EDF3E01382128288EE93E0A0E0B0E0A6
:1021700084839583A683B78324E532E0318320836B
:1021800025EC30E03587248724EC30E0378726873C
:1021900020EC30E0318B208B21EC30E0338B228B34
:1021A00022EC30E0358B248B26EC30E0378B268B0D
:1021B000118E128E138E148EE4E7F4E013821282D5
:1021C00084839583A683B78386E692E09183808398
:1021D000E6E8F4E01382128288E792E0918380833C
:1021E00087E2848384E1808784E08187128688E0A7
:1021F0008387E0E8F4E01182108213821282158254
:10220000148240E050E068EE72E0CF010C94540A72
:102210000E944A1108F481E00895E89409C097FBF0
:102220003EF490958095709561957F4F8F4F9F4FAD
:102230009923A9F0F92F96E9BB279395F6958795F1
:1022400077956795B795F111F8CFFAF4BB0F11F4B4
:1022500060FF1BC06F5F7F4F8F4F9F4F16C088235B
:1022600011F096E911C0772321F09EE8872F762F91
:1022700005C0662371F096E8862F70E060E02AF0D2
:102280009A95660F771F881FDAF7880F96958795BE
:1022900097F90895990F0008550FAA0BE0E8FEEF93
:1022A00016161706E807F907C0F012161306E4071A
:1022B000F50798F0621B730B840B950B39F40A2613
:1022C00061F0232B242B252B21F408950A2609F4F1
:1022D000A140A6958FEF811D811D08950E94811157
:1022E0000C94F2110E94E41138F00E94EB1120F0DE
:1022F000952311F00C94DB110C94E11111240C9432
:1023000026120E94031270F3959FC1F3950F50E0BF
:10231000551F629FF001729FBB27F00DB11D639F97
:10232000AA27F00DB11DAA1F649F6627B00DA11D3D
:10233000661F829F2227B00DA11D621F739FB00DE3
:10234000A11D621F839FA00D611D221F749F332753
:10235000A00D611D231F849F600D211D822F762FEC
:102360006A2F11249F5750409AF0F1F088234AF0C9
:10237000EE0FFF1FBB1F661F771F881F9150504035
:10238000A9F79E3F510580F00C94DB110C942612A6
:102390005F3FE4F3983ED4F3869577956795B795BC
:1023A000F795E7959F5FC1F7FE2B880F911D9695D6
:1023B000879597F9089597F99F6780E870E060E046
:1023C00008959FEF80EC089500240A9416161706CE
:1023D00018060906089500240A9412161306140616
:1023E00005060895092E0394000C11F4882352F079
:1023F000BB0F40F4BF2B11F460FF04C06F5F7F4F31
:102400008F4F9F4F089557FD9058440F551F59F017
:102410005F3F71F04795880F97FB991F61F09F3FD1
:1024200079F087950895121613061406551FF2CFFA
:102430004695F1DF08C0161617061806991FF1CF4A
:1024400086957105610508940895E894BB27662771
:102450007727CB0197F908955058BB27AA270E94E8
:1024600044120C94F2110E94E41138F00E94EB1116
:1024700020F039F49F3F19F426F40C94E1110EF486
:10248000E095E7FB0C94DB11E92F0E94031258F34F
:10249000BA17620773078407950720F079F4A6F549
:1024A0000C9425120EF4E0950B2EBA2FA02D0B01E3
:1024B000B90190010C01CA01A0011124FF27591B89
:1024C00099F0593F50F4503E68F11A16F040A22F8F
:1024D000232F342F4427585FF3CF46953795279500
:1024E000A795F0405395C9F77EF41F16BA0B620BFF
:1024F000730B840BBAF09150A1F0FF0FBB1F661F46
:10250000771F881FC2F70EC0BA0F621F731F841F88
:1025100048F4879577956795B795F7959E3F08F0AE
:10252000B0CF9395880F08F09927EE0F9795879570
:1025300008950E94AD120C94F2110E94EB1158F014
:102540000E94E41140F029F45F3F29F00C94DB1164
:1025500051110C9426120C94E1110E94031268F39D
:102560009923B1F3552391F3951B550BBB27AA274C
:1025700062177307840738F09F5F5F4F220F331F86
:10258000441FAA1FA9F335D00E2E3AF0E0E832D04E
:1025900091505040E695001CCAF72BD0FE2F29D051
:1025A000660F771F881FBB1F261737074807AB0723
:1025B000B0E809F0BB0B802DBF01FF2793585F4F98
:1025C0003AF09E3F510578F00C94DB110C942612E2
:1025D0005F3FE4F3983ED4F3869577956795B7957A
:1025E000F7959F5FC9F7880F911D9695879597F985
:1025F0000895E1E0660F771F881FBB1F62177307FE
:102600008407BA0720F0621B730B840BBA0BEE1F12
:1026100088F7E09508950E940B1288F09F5798F074
:10262000B92F9927B751B0F0E1F0660F771F881FD7
:10263000991F1AF0BA95C9F714C0B13091F00E94F1
:102640002512B1E008950C942512672F782F882762
:10265000B85F39F0B93FCCF3869577956795B39518
:10266000D9F73EF490958095709561957F4F8F4F87
:102670009F4F08950E944A1108F48FEF08950E9419
:102680004A11880B990B0895A1E21A2EAA1BBB1BB5
:10269000FD010DC0AA1FBB1FEE1FFF1FA217B3072E
:1026A000E407F50720F0A21BB30BE40BF50B661F44
:1026B000771F881F991F1A9469F760957095809508
:1026C00090959B01AC01BD01CF010895EE0FFF1F56
:1026D000881F8BBF0790F691E02D1994CF93DF935D
:1026E0008230910510F482E090E0E0919904F0913D
:1026F0009A0420E030E0C0E0D0E0309711F1408152
:10270000518148175907C0F04817590761F4828171
:102710009381209719F09B838A832BC090939A040E
:102720008093990426C02115310519F042175307EB
:1027300018F49A01BE01DF01EF010280F381E02D60
:10274000DCCF2115310509F1281B390B2430310567
:1027500090F412968D919C9113976115710521F05B
:10276000FB019383828304C090939A04809399041D
:10277000FD01329644C0FD01E20FF31F8193919356
:10278000225031092D933C933AC020919704309107
:102790009804232B41F420911802309119023093B0
:1027A0009804209397042091160230911702211566
:1027B000310541F42DB73EB740911A0250911B02EA
:1027C000241B350BE0919704F0919804E217F3076E
:1027D000A0F42E1B3F0B2817390778F0AC014E5F91
:1027E0005F4F2417350748F04E0F5F1F5093980432
:1027F000409397048193919302C0E0E0F0E0CF0111
:10280000DF91CF9108950F931F93CF93DF9300979C
:1028100009F48CC0FC013297138212820091990452
:1028200010919A040115110581F420813181820FE4
:10283000931F20919704309198042817390779F550
:10284000F0939804E093970471C0D80140E050E001
:10285000AE17BF0750F412962D913C911397AD011E
:102860002115310509F1D901F3CF9D01DA01338337
:10287000228360817181860F971F8217930769F405
:10288000EC0128813981260F371F2E5F3F4F31839E
:1028900020838A819B8193838283452B29F4F09343
:1028A0009A04E093990442C01396FC93EE93129716
:1028B000ED01499159919E01240F351FE217F3074D
:1028C00071F480819181840F951F029611969C93DB
:1028D0008E938281938113969C938E931297E0E05E
:1028E000F0E0D80112968D919C911397009719F002
:1028F000F8018C01F6CF8D919C9198012E5F3F4F8E
:10290000820F931F2091970430919804281739075C
:1029100069F4309729F410929A041092990402C035
:10292000138212821093980400939704DF91CF9141
:102930001F910F9108956F927F928F929F92AF9205
:10294000BF92CF92DF92EF92FF920F931F93CF939C
:10295000DF93EC01009789F4CB01DF91CF911F91B8
:102960000F91FF90EF90DF90CF90BF90AF909F902E
:102970008F907F906F900C946E13FC01E60FF71F01
:102980009C0122503109E217F30708F4ACC0D901C9
:102990000D911C91119706171707B0F0053011051E
:1029A00008F49FC0C80104978617970708F499C0D8
:1029B00002501109061B170B019311936D937C9321
:1029C000CF010E9403148DC05B01A01AB10A4C0113
:1029D000800E911EA0919904B0919A0440E050E0BD
:1029E000E12CF12C109709F44AC0A815B905D1F5CE
:1029F0006D907C901197630182E0C80ED11CCA14BF
:102A0000DB0480F1A3014A195B096A0182E0C80E68
:102A1000D11C1296BC9012971396AC91B5E0CB16D0
:102A2000D10440F0B282A38351834083D9016D93D6
:102A30007C930AC00E5F1F4FC301800F911FF901E5
:102A400091838083EB2DFA2FE114F10431F0D7014B
:102A50001396FC93EE93129744C0F0939A04E0937C
:102A600099043FC08D919C9111974817590708F41C
:102A7000AC017D0112960D90BC91A02DB3CF809139
:102A800097049091980488159905E1F44617570723
:102A9000C8F48091160290911702009741F48DB707
:102AA0009EB740911A0250911B02841B950BE817A8
:102AB000F907C8F4F0939804E0939704F90171833F
:102AC00060830FC0CB010E946E137C01009759F008
:102AD000A801BE010E948915CE010E940314C701FE
:102AE00004C0CE0102C080E090E0DF91CF911F9141
:102AF0000F91FF90EF90DF90CF90BF90AF909F909D
:102B00008F907F906F90089581E090E0F8940C94FE
:102B10009915FB01DC0102C001900D92415050401B
:102B2000D8F70895FB01DC0101900D920020E1F738
:102B3000089511E0C8E5D1E000E006C0802FFE0155
:102B40000E9466132196011DC935D10780E0080750
:062B5000A9F7F894FFCF85
:102B560014AE273F01013307330733073307330723
:102B660033073307330700009B0480000000561329
:102B76006E233A2FBC39F244B85B0C67C071D27D24
:102B86004E8E00008F021E05AD073C0ACB0C3C0A98
:102B9600AD071E058F02000000004000140054001F
:102BA60000000000D30134078C011A02BD019B010D
:102BB600AF01000000002403F4025403CE02EC022D
:102BC600DD02CF0200000000A806340754035303B9
:102BD6000000000027043407540353034269656E5E
:102BE60076656E69646F0050726F6772616D612001
:102BF600526F6C61646F7261006D6D004573706534
:102C060072616E646F00527574696E61456E636FB2
:102C160064657200456A65637574616E646F00531E
:102C2600756269720042616A6172005465726D690B
:102C36006E616D6F73000D0A00693D200054696571
:102C46006D706F41637475616C3D20006E616E003E
:082C5600696E66006F766600EE
:00000001FF
