:100000000C9457010C94AF0B0C94840B0C94590B6B
:100010000C942E0B0C94030B0C94D80A0C94AD0A80
:100020000C94820A0C9488010C9488010C94880129
:100030000C9488010C9488010C9488010C9488011C
:100040000C9488010C9488010C9488010C9488010C
:100050000C94DB060C9488010C9488010C94380AEB
:100060000C9488010C94CE040C94A4040C94880184
:100070000C9488010C9488010C9488010C948801DC
:100080000C9488010C9488010C9488010C948801CC
:100090000C9488010C9488010C9488010C9404053C
:1000A0000C9488010C9488010C9488010C948801AC
:1000B0000C9488010C9488010C9488010C9488019C
:1000C0000C9488010C9488010C9488010C9488018C
:1000D0000C9488010C9488010C9488010C9488017C
:1000E0000C9488017409770966096A096E09AE09DA
:1000F0007B097F09850989098D09930997099B095E
:10010000AE09A109A509A9090C94FB010C947F096A
:100110000C94CA010C94F6030C94A1090C94790276
:100120000C9452030C94DF110C9432020C94D911EC
:100130000C94A9090C94AE090C94F3020C946A096E
:100140000C947B090C9456030C946E090C941C04BB
:100150000C9474090C9477090C948D090C949B09E8
:100160000C94EB020C94ED010C94DC020C94470708
:100170000C9497090C9485090C94D5060C94660987
:100180000C94CD020C94A5090C9493090C942303B0
:100190000C94CE020C94D9010C9453030C9489094D
:1001A0000C948A0100002100240027002A002D0061
:1001B0003000330001010000040107010A010000C2
:1001C0002200250028002B002E00310034000201FF
:1001D0000000050108010B010505050507050808D4
:1001E0000808020202020A0A0808040404040101C1
:1001F00001010101010103030303030303030407D6
:1002000007070C0C0C0C0C0C0C0C0202020206066C
:100210000606060606060B0B0B0B0B0B0B0B01025F
:100220001020200808102040102040800201020108
:1002300008040201010204081020408080402010C0
:100240000804020180040201804020100804020119
:100250000804020101020408102040800102040881
:100260001020408000000A0B02090C0D0E08070345
:100270000401000000000000000000000000000079
:10028000000000000000000000000000000000006E
:10029000121110000000000000000000000000002B
:1002A00000000000000000000000DF11D91111243F
:1002B0001FBECFEFD1E2DEBFCDBF00E00CBF24E018
:1002C000AEE4B3E001C01D92AE3EB207E1F713E029
:1002D000A0E0B2E0E6ECFDE200E00BBF02C0079058
:1002E0000D92AE34B107D9F711E0C6E5D1E000E0D8
:1002F00006C021970109802FFE010E949514C53583
:10030000D10780E00807A9F70E94580C0C94D11679
:100310000C940000CF92DF92EF92FF920F931F9305
:10032000CF93DF936C017A018B01C0E0D0E0CE1552
:10033000DF0589F0D8016D918D01D601ED91FC9119
:100340000190F081E02DC6011995892B11F47E01F1
:1003500002C02196ECCFC701DF91CF911F910F9181
:10036000FF90EF90DF90CF9008956115710579F0BF
:10037000FB0101900020E9F73197AF01461B570BB5
:10038000DC01ED91FC910280F381E02D199480E075
:1003900090E00895FC01538D448D252F30E0842F8B
:1003A00090E0821B930B541710F0CF96089501979D
:1003B0000895FC01918D828D981761F0828DDF0187
:1003C000A80FB11D5D968C91928D9F5F9F73928F48
:1003D00090E008958FEF9FEF0895FC01918D828D3D
:1003E000981731F0828DE80FF11D858D90E008950A
:1003F0008FEF9FEF0895FC01918D228D892F90E062
:10040000805C9F4F821B91098F73992708958AE220
:1004100094E00E94FB0121E0892B09F420E0822F67
:100420000895FC01848DDF01A80FB11DA35ABF4FB1
:100430002C91848D90E001968F739927848FA689E3
:10044000B7892C93A089B1898C9180648C93938D0A
:10045000848D981306C00288F389E02D80818F7DFA
:1004600080830895EF92FF920F931F93CF93DF93B2
:10047000EC0181E0888F9B8D8C8D981305C0E889F5
:10048000F989808185FD24C0F62E0B8D10E00F5F69
:100490001F4F0F731127E02E8C8DE8120CC00FB682
:1004A00007FCFACFE889F989808185FFF5CFCE0175
:1004B0000E941102F1CF8B8DFE01E80FF11DE35A6E
:1004C000FF4FF0820B8FEA89FB898081806207C031
:1004D000EE89FF896083E889F9898081806480835F
:1004E00081E090E0DF91CF911F910F91FF90EF900D
:1004F0000895CF93DF93EC01888D8823C9F0EA89B2
:10050000FB89808185FD05C0A889B9898C9186FD0C
:100510000FC00FB607FCF5CF808185FFF2CFA88909
:10052000B9898C9185FFEDCFCE010E941102E7CFF2
:10053000DF91CF91089585ED8093BC008091BC0040
:1005400084FDFCCF1092500308954091DD03262FC7
:1005500030E0240F311D21323105DCF420915003AD
:100560002430C9F4FC0180E090E0861758F4309103
:10057000DD032191DC01A554BC4FA30FB11D2C93C9
:100580000196F3CF8091DD03680F6093DD0380E077
:10059000089581E0089582E00895089581E090E053
:1005A0003091540320915303321710F480E090E00F
:1005B00091958195910908958091540390915303E9
:1005C000891730F48F5F8093540380E090E00895A2
:1005D0008FEF9FEF08958091530390E02091540393
:1005E000821B91090895CF92DF92EF92FF920F93B1
:1005F0001F93CF93DF937C01262F972F8A01809141
:10060000BA03882391F0C62FD72F6E01C40ED51ED2
:10061000CC15DD0571F06991D701ED91FC91019048
:10062000F081E02DC7011995F3CF642F822F0E942E
:10063000A502C801DF91CF911F910F91FF90EF901C
:10064000DF90CF900895CF93DF931F92CDB7DEB7A1
:1006500069832091BA032223D1F0209151032032E3
:1006600040F021E030E0FC013383228380E090E021
:1006700015C080915203E82FF0E0E656FC4F9981B7
:1006800090838F5F809352038093510305C061E094
:10069000CE0101960E94A50281E090E00F90DF91CB
:1006A000CF910895089580E090E008950F931F93EF
:1006B00082B385FB882780F9809397032FB7F8943E
:1006C0008091260490912704A0912804B0912904D8
:1006D0002FBF4091930350919403609195037091C3
:1006E0009603841B950BA60BB70B80938F039093F7
:1006F0009003A0939103B09392032FB7F894809145
:10070000260490912704A0912804B09129042FBFBA
:100710008093930390939403A0939503B0939603CF
:1007200080918F0390919003A0919103B0919203D7
:100730000397A105B10520F081E08093060202C075
:100740001092060280910602882309F44CC0809121
:100750009703811103C081E090E002C08FEF9FEF0B
:1007600040915E0350915F0360916003709161035B
:10077000092E000CAA0BBB0B8A019B01081B190B4D
:100780002A0B3B0B00935E0310935F0320936003DF
:100790003093610380919703811103C081E090E061
:1007A00002C08FEF9FEF40915A0350915B0360911D
:1007B0005C0370915D03092E000CAA0BBB0B8A0130
:1007C0009B01081B190B2A0B3B0B00935A03109338
:1007D0005B0320935C0330935D039091590381E0A8
:1007E0008927809359031F910F9108958091660383
:1007F00090916703019690936703809366038091BD
:10080000620390916303A0916403B0916503019624
:10081000A11DB11D8093620390936303A0936403B1
:10082000B09365038091570390915803019690937C
:1008300058038093570308950E94B316FF920F93B5
:100840001F93CF93DF931F921F92CDB7DEB78AE23B
:1008500094E00E94FB01892BD1F18AE294E00E948E
:10086000D901F82E89831A820091D7041091D804F7
:100870000F5F1F4FB80183ED94E00E94F90B8823AE
:1008800099F02091D3043091D4048091D7049091B1
:10089000D804BE016F5F7F4F820F931F0E94CA165C
:1008A0001093D8040093D7048DE0F81204C081E0BF
:1008B000809398030CC080E2F81209C00F900F904B
:1008C000DF91CF911F910F91FF900C944B0C0F90E3
:1008D0000F90DF91CF911F910F91FF9008950E948B
:1008E0000702811125C080E090E0892B41F080E073
:1008F00090E0892B21F00E94000081111CC080E053
:1009000090E0892B41F080E090E0892B21F00E945B
:100910000000811113C080E090E0892BA1F080E0FD
:1009200090E0892B81F00E94000081110AC0089597
:100930000E941E04D8CF0E940000E1CF0E94000058
:10094000EACF0C94000008951F920F920FB60F92F9
:1009500011240BB60F922F933F934F935F936F9396
:100960007F938F939F93AF93BF93EF93FF938AE20D
:1009700094E00E941102FF91EF91BF91AF919F917E
:100980008F917F916F915F914F913F912F910F9038
:100990000BBE0F900FBE0F901F9018951F920F92D5
:1009A0000FB60F9211240BB60F922F938F939F9334
:1009B000EF93FF93E0913A04F0913B048081E09142
:1009C0004004F091410482FD12C090818091430463
:1009D0008F5F8F7320914404821751F0E09143049C
:1009E000F0E0E65DFB4F958F8093430401C080816A
:1009F000FF91EF919F918F912F910F900BBE0F90D0
:100A00000FBE0F901F9018951F920F920FB60F9266
:100A100011240BB60F922F933F934F935F936F93D5
:100A20007F938F939F93AF93BF93EF93FF938091A7
:100A3000B900887F803609F49CC068F5883209F4D3
:100A40005BC090F4803109F454C038F4882309F471
:100A5000F6C0883009F44DC0F6C0883109F44CC0A6
:100A6000803209F45DC0EFC0803409F468C048F4F6
:100A7000803309F455C0883309F0E5C0809302043F
:100A8000D8C0803509F44FC0883509F45DC088347A
:100A900009F0D9C0D6C0883909F4C7C0A8F488378E
:100AA00009F467C038F4883609F463C0803709F464
:100AB00060C0C9C0883809F4B8C0803909F45FC083
:100AC000803809F0C0C05BC0803B09F486C038F4B0
:100AD000803A09F466C0883A09F47FC0B4C0803C0B
:100AE00009F4A7C0883C09F4A4C0883B09F48AC073
:100AF000AAC08091250410C0909124048091230401
:100B0000981770F5E091240481E08E0F80932404FF
:100B1000F0E0ED5FFB4F80818093BB0085EC86C0E9
:100B2000809302048EC0E091240481E08E0F8093B4
:100B300024048091BB00F0E0ED5FFB4F8083909137
:100B40002404809123046EC0E091240481E08E0F80
:100B5000809324048091BB00F0E0ED5FFB4F808325
:100B600080914F0381116DC081E080934E0384EA30
:100B700061C083E08093500310920104CFCF809135
:100B80000104803208F051C0E091010481E08E0F31
:100B9000809301048091BB00F0E0EF51FC4F808313
:100BA000BDCF85EC8093BC0010925003809101046E
:100BB000803230F4E0910104F0E0EF51FC4F1082FC
:100BC0006091010470E0E091DF03F091E00381EEB9
:100BD00093E019951092010436C084E0809350038D
:100BE0001092DE031092DD03E091DB03F091DC0351
:100BF00019958091DD03811105C081E08093DD03AB
:100C00001092BB03E091DE0381E08E0F8093DE0340
:100C1000F0E0E554FC4F80818093BB009091DE03AF
:100C20008091DD03981708F479CF85E88093BC00A4
:100C30000AC085EC8093BC001092500304C010924F
:100C400002040E949B02FF91EF91BF91AF919F918F
:100C50008F917F916F915F914F913F912F910F9065
:100C60000BBE0F900FBE0F901F901895CF93FC01F5
:100C7000C48121E02093BA03C093990310925203D8
:100C8000109251038385682B87EC94E00E94230324
:100C900080915103813208F046C090915003911128
:100CA000FCCF92E09093500391E090934F039FEF1D
:100CB000909302041092240480932304AAE9B3E0E1
:100CC00023E034E0F9019E2F921B981718F49D91B0
:100CD0009193F9CF1092250480912504CC0FC82B55
:100CE000C093250480914E03813061F410924E032D
:100CF000809125048093BB008091BC0083FDF8CFD8
:100D000085EC01C085EE8093BC0080915003823059
:100D1000E1F3809102048F3F31F080910204803230
:100D200011F080910204109252031092510310921C
:100D3000BA03CF9108950F931F93CF938C01C62FC1
:100D40000E9436066C2F6460C8010E9436066C2F24
:100D50006B7FC8010E94360683EC90E00197F1F7A3
:100D6000CF911F910F910895FF920F931F93CF93EF
:100D7000DF931F92CDB7DEB78C01F62E962F907FB2
:100D8000692F642BC80149830E949B0680E1F89E6D
:100D9000B00111244981642BC8010F90DF91CF91DC
:100DA0001F910F91FF900C949B0641E00E94B406A6
:100DB00081E090E008951F920F920FB60F921124D8
:100DC0000BB60F922F933F934F935F936F937F9345
:100DD0008F939F93AF93BF93EF93FF93E09155034E
:100DE000F09156031995FF91EF91BF91AF919F91AB
:100DF0008F917F916F915F914F913F912F910F90C4
:100E00000BBE0F900FBE0F901F90189560E087E209
:100E10000E94450960E088E20E94450960E089E29D
:100E20000C94450961E087E20E94450961E088E28F
:100E30000C94450961E087E20E94450961E089E27E
:100E40000C9445093FB7F8948091E6049091E7042B
:100E5000A091E804B091E90426B5A89B05C02F3FF6
:100E600019F00196A11DB11D3FBFBA2FA92F982FD0
:100E70008827820F911DA11DB11DBC01CD0142E04B
:100E8000660F771F881F991F4A95D1F70895089517
:100E9000DC01ED91FC910190F081E02D19944F92CD
:100EA0005F926F927F92EF92FF920F931F93CF9377
:100EB000DF93CDB7DEB7A1970FB6F894DEBF0FBEB4
:100EC000CDBF7C01FA01CB0119A2223008F42AE03F
:100ED0008E010F5D1F4F422E512C612C712CBF01D2
:100EE000A30192010E947314F901CA010150110972
:100EF0006A3014F4605D01C0695CD8016C93232BE7
:100F0000242B252B61F7B801C7010E94B501A196DA
:100F10000FB6F894DEBF0FBECDBFDF91CF911F910A
:100F20000F91FF90EF907F906F905F904F9008959A
:100F3000CF92DF92EF92FF92CF93DF936C01990FE4
:100F4000EE08FF08F7FE1BC06DE28AE294E00E9403
:100F50004807EC0144275527BA014C195D096E0971
:100F60007F092AE08AE294E00E944F078C0F9D1FC0
:100F7000DF91CF91FF90EF90DF90CF9008952AE01E
:100F8000B701A6018AE294E0DF91CF91FF90EF9044
:100F9000DF90CF900C944F07CF92DF92EF92FF92A9
:100FA000CF93DF936C01990FEE08FF08F7FE16C090
:100FB0006DE28AE294E00E944807EC01442755273D
:100FC000BA014C195D096E097F092AE08AE294E0B2
:100FD0000E944F077C01EC0EFD1E08C02AE0B701FD
:100FE000A6018AE294E00E944F077C016EE373E061
:100FF0008AE294E00E94B5018E0D9F1DDF91CF9192
:10100000FF90EF90DF90CF900895CF93DF93AC01E6
:1010100060E070E02AE08AE294E00E944F07EC0171
:101020006EE373E08AE294E00E94B5018C0F9D1F8D
:10103000DF91CF910895CF93DF93BC018AE294E0D2
:101040000E94B501EC016EE373E08AE294E00E9435
:10105000B5018C0F9D1FDF91CF910895CF93DF9342
:10106000CDB7DEB728970FB6F894DEBF0FBECDBF61
:1010700098E0E1E5F2E0DE01119601900D929A957B
:10108000E1F79091E204981710F48FEF890FFE01B9
:101090003196E80FF11DE80FF11D6081606840E0B6
:1010A00089ED94E028960FB6F894DEBF0FBECDBF51
:1010B000DF91CF910C94B40640E061E089ED94E0BB
:1010C0000E94B4068BE39FE10197F1F708954F92D8
:1010D0005F926F927F928F929F92AF92BF92CF92C8
:1010E000DF92EF92FF926B017C01B42E9B01AC0169
:1010F0000E946E14882319F061E473E027C0260172
:101100003701E89477F82FEF3FEF4FE75FE7C30130
:10111000B2010E946E1481110DC02FEF3FEF4FE717
:101120005FE7C301B2010E94371218161CF465E490
:1011300073E00CC02FEF3FEF4FE75FE4C701B6014C
:101140000E946914181694F469E473E089ED94E040
:10115000FF90EF90DF90CF90BF90AF909F908F90D7
:101160007F906F905F904F900C94B5012FEF3FEF01
:101170004FE75FECC701B6010E94371287FDE4CF4D
:1011800020E030E0A901C701B6010E94371287FFB5
:101190000BC06DE289ED94E00E9448074C01F7FA1C
:1011A000F094F7F8F09402C0812C912CA12C60E00F
:1011B00070E080E09FE3AB1441F020E030E040E2DB
:1011C00051E40E94C813A394F6CF9B01AC01C70160
:1011D000B6010E945C132B013C010E943A146B0182
:1011E0007C010E943C129B01AC01C301B2010E9430
:1011F0005B132B013C012AE0B701A60189ED94E0C5
:101200000E944F077C01E80CF91CBB2039F06EE20C
:1012100089ED94E00E944807E80EF91EDB2CDD20E2
:1012200031F120E030E040E251E4C301B2010E941C
:101230009D122B013C010E943A144B01A12CB12CB0
:101240002AE0B501A40189ED94E00E944F07E80E61
:10125000F91EC501B4010E943C129B01AC01C301FF
:10126000B2010E945B132B013C01DA94D8CFC70175
:10127000FF90EF90DF90CF90BF90AF909F908F90B6
:101280007F906F905F904F900895362F90E0FC0113
:10129000EC59FD4F4491FC01E25EFD4F2491FC01AD
:1012A000E852FE4F9491992309F46BC0442309F44A
:1012B00055C050E0FA013197E231F10508F04EC017
:1012C0008827EE58FF4F8F4F0C9495148091800023
:1012D0008F7707C0809180008F7D03C08091800050
:1012E000877F809380003AC084B58F7702C084B531
:1012F0008F7D84BD33C08091B0008F7703C0809113
:10130000B0008F7D8093B00029C0809190008F77CE
:1013100007C0809190008F7D03C080919000877FEF
:10132000809390001BC08091A0008F7707C08091B0
:10133000A0008F7D03C08091A000877F8093A000D4
:101340000DC0809120018F7707C0809120018F7D93
:1013500003C080912001877F80932001E92FF0E076
:10136000EE0FFF1FE254FE4FA591B4918FB7F89492
:10137000EC91311103C020952E2301C02E2B2C930C
:101380008FBF0895CF93DF9390E0FC01E25EFD4FA5
:101390002491FC01E852FE4F8491882361F190E092
:1013A000880F991FFC01EC55FE4FC591D491FC01AB
:1013B000E254FE4FA591B491611109C09FB7F89412
:1013C0008881209582238883EC912E230BC0623084
:1013D00061F49FB7F8943881822F809583238883A6
:1013E000EC912E2B2C939FBF06C08FB7F894E88109
:1013F0002E2B28838FBFDF91CF9108958F929F92DC
:10140000AF92BF92CF92DF92EF92FF926B017C017D
:101410000E9422074B015C01C114D104E104F104D4
:10142000F1F00E942207DC01CB0188199909AA0971
:10143000BB09883E9340A105B10570F321E0C21AB3
:10144000D108E108F10888EE880E83E0981EA11CFF
:10145000B11CC114D104E104F10419F7DDCFFF90F0
:10146000EF90DF90CF90BF90AF909F908F900895B6
:101470001F920F920FB60F9211242F933F938F93C9
:101480009F93AF93BF938091260490912704A091DE
:101490002804B09129043091E50423E0230F2D376F
:1014A00020F40196A11DB11D05C026E8230F029668
:1014B000A11DB11D2093E504809326049093270479
:1014C000A0932804B09329048091E6049091E70446
:1014D000A091E804B091E9040196A11DB11D80938B
:1014E000E6049093E704A093E804B093E904BF9165
:1014F000AF919F918F913F912F910F900FBE0F90C1
:101500001F9018951F920F920FB60F9211240BB6D1
:101510000F922F933F934F935F936F937F938F938C
:101520009F93AF93BF93EF93FF93E0911502F091D8
:1015300016021995FF91EF91BF91AF919F918F91F5
:101540007F916F915F914F913F912F910F900BBEC3
:101550000F900FBE0F901F9018951F920F920FB60D
:101560000F9211240BB60F922F933F934F935F93DB
:101570006F937F938F939F93AF93BF93EF93FF935B
:10158000E0911302F09114021995FF91EF91BF9130
:10159000AF919F918F917F916F915F914F913F910B
:1015A0002F910F900BBE0F900FBE0F901F901895AC
:1015B0001F920F920FB60F9211240BB60F922F931A
:1015C0003F934F935F936F937F938F939F93AF93CB
:1015D000BF93EF93FF93E0910902F0910A021995EE
:1015E000FF91EF91BF91AF919F918F917F916F91FB
:1015F0005F914F913F912F910F900BBE0F900FBEB7
:101600000F901F9018951F920F920FB60F921124F2
:101610000BB60F922F933F934F935F936F937F93EC
:101620008F939F93AF93BF93EF93FF93E091070244
:10163000F09108021995FF91EF91BF91AF919F91A1
:101640008F917F916F915F914F913F912F910F906B
:101650000BBE0F900FBE0F901F9018951F920F9208
:101660000FB60F9211240BB60F922F933F934F9307
:101670005F936F937F938F939F93AF93BF93EF93FA
:10168000FF93E0911102F09112021995FF91EF91F1
:10169000BF91AF919F918F917F916F915F914F918A
:1016A0003F912F910F900BBE0F900FBE0F901F9088
:1016B00018951F920F920FB60F9211240BB60F922E
:1016C0002F933F934F935F936F937F938F939F934A
:1016D000AF93BF93EF93FF93E0910F02F09110024D
:1016E0001995FF91EF91BF91AF919F918F917F914C
:1016F0006F915F914F913F912F910F900BBE0F9083
:101700000FBE0F901F9018951F920F920FB60F9259
:1017100011240BB60F922F933F934F935F936F93C8
:101720007F938F939F93AF93BF93EF93FF93E0913A
:101730000D02F0910E021995FF91EF91BF91AF91BB
:101740009F918F917F916F915F914F913F912F91D9
:101750000F900BBE0F900FBE0F901F9018951F9209
:101760000F920FB60F9211240BB60F922F933F9347
:101770004F935F936F937F938F939F93AF93BF9399
:10178000EF93FF93E0910B02F0910C021995FF91FA
:10179000EF91BF91AF919F918F917F916F915F91E9
:1017A0004F913F912F910F900BBE0F900FBE0F9056
:1017B0001F901895FC0124813581232B31F421E001
:1017C00061157105A1F0FB0108C0FC0180819181C8
:1017D0006115710531F421E0FC018081882339F025
:1017E00005C00E94C11621E0892B09F020E0822F5C
:1017F00008950F931F93CF93DF93EC018881998114
:10180000009729F02A813B812617370788F48B013E
:101810006F5F7F4F0E94CA15009761F0998388839C
:101820001B830A832C813D81232B11F4FC01108240
:1018300081E001C080E0DF91CF911F910F91089569
:10184000EF92FF920F931F93CF93DF93EC017B01F5
:101850008A01BA010E94F90B2881398181110DC0DA
:101860002115310519F0C9010E943215198218821B
:101870001D821C821B821A8206C01D830C83B70145
:10188000C9010E94CA16CE01DF91CF911F910F911D
:10189000FF90EF90089540E050E060E473E083ED46
:1018A00094E00E94200C83ED94E008950C94B5011F
:1018B000CF93DF93CDB7DEB72A970FB6F894DEBF8C
:1018C0000FBECDBF789484B5826084BD84B581603D
:1018D00084BD85B5826085BD85B5816085BD8091FB
:1018E0006E00816080936E00109281008091810073
:1018F000826080938100809181008160809381006B
:10190000809180008160809380008091B10084602C
:101910008093B1008091B00081608093B00080918D
:10192000910082608093910080919100816080930A
:101930009100809190008160809390008091A1003F
:1019400082608093A1008091A10081608093A100BA
:101950008091A00081608093A0008091210182602D
:1019600080932101809121018160809321018091E8
:10197000200181608093200180917A0084608093AF
:101980007A0080917A00826080937A0080917A0058
:10199000816080937A0080917A00806880937A00D9
:1019A0001092C100E0913A04F0913B0482E0808300
:1019B000E0913604F09137041082E0913804F09100
:1019C00039048FEC808310924204E0913E04F09140
:1019D0003F0486E08083E0913C04F0913D048081E7
:1019E00080618083E0913C04F0913D0480818860B7
:1019F0008083E0913C04F0913D0480818068808385
:101A0000E0913C04F0913D0480818F7D808385E9E5
:101A100092E00E941B088DE090E00E9405088DE096
:101A200090E0909373038093720310927803109266
:101A3000770310927C0310927B0380E090E020916A
:101A40007B0330917C032D30310510F5E0917B0351
:101A5000F0917C03EE0FFF1FE95CFD4F2081318187
:101A60008217930750F4E0917B03F0917C03EE0F13
:101A7000FF1FE95CFD4F8081918120917B033091B4
:101A80007C032F5F3F4F30937C0320937B03D7CFA2
:101A900090937803809377030E94050810927C034B
:101AA00010927B0380917703909178039C012053DF
:101AB000384F30937603209375030E94050880E128
:101AC000809381001092800011E010936F0380E4F6
:101AD0009FE190936E0380936D03909387008093B2
:101AE000860081E18093810086EF93E09093560316
:101AF0008093550310936F0010926203109263035A
:101B0000109264031092650368EC70E083ED94E03A
:101B10000E94F90B84EF91E090936C0380936B0328
:101B200090936A038093690360E084E00E94C20995
:101B300060E084E00E94450986E593E090930A0204
:101B40008093090280916A008C6080936A00ED9A0C
:101B500061E083E20E94C20960E083E20E944509DD
:101B600061E086E20E94C20960E086E20E944509C7
:101B700061E087E20E94C20960E087E20E944509B5
:101B800061E089E20E94C20960E089E20E944509A1
:101B900061E088E20E94C20960E088E20E94450993
:101BA0001092540310925303109252031092510357
:101BB0001092500310934F0310924E0361E084E1A2
:101BC0000E94450961E085E10E9445098091B900C4
:101BD0008E7F8093B9008091B9008D7F8093B9008A
:101BE00088E48093B80085E48093BC001092DE0402
:101BF0008091E204823018F098E09093DE04909196
:101C0000E304992339F0813029F48091DE04846063
:101C10008093DE0462E370E080E090E00E94FE09C1
:101C20006091E40489ED94E00E94360668EE73E06A
:101C300080E090E00E94FE0960E389ED94E00E945C
:101C40009B060BE416E4C8010197F1F760E389ED08
:101C500094E00E949B06C8010197F1F760E389EDCB
:101C600094E00E949B0683E592E00197F1F760E221
:101C700089ED94E00E949B066091DE04606240E082
:101C800089ED94E00E94B40684E08093DF0440E094
:101C90006CE089ED94E00E94B4060E945C0882E04A
:101CA0008093E00440E066E089ED94E00E94B40691
:101CB00040E062E089ED94E00E94B4068BE39FE18E
:101CC0000197F1F71092590310927F031092680365
:101CD00080E00E942E0860EA72E089ED94E00E94A4
:101CE000560C81E00E942E0865E972E089ED94E0CF
:101CF0000E94560C60ED77E080E090E00E94FE09C3
:101D00000E945C0860915E0370915F0380916003A4
:101D100090916103209100023091010240910202F2
:101D2000509103022F83388749875A870E943E12B9
:101D30002F81388549855A850E949D1260938003C2
:101D400070938103809382039093830380E00E94C9
:101D50002E0860918003709181038091820390919D
:101D6000830342E00E94670862EB72E089ED94E031
:101D70000E94560C0FB6F894A89580916000886177
:101D800080936000109260000FBE99E288E10FB668
:101D9000F894A895809360000FBE9093600011E0C6
:101DA0001A8219821C821B821E821D826091D304BA
:101DB0007091D4046115710541F04091D7045091A0
:101DC000D804CE0101960E94200C65EB72E0CE0192
:101DD00001960E94DA0B882321F0109304020E94DE
:101DE0004B0C6BEB72E0CE0101960E94DA0B88235C
:101DF00021F0109204020E944B0C89819A810E946A
:101E0000321562EC72E083ED94E00E94DA0B8823D5
:101E1000F1F18FEC92E00E941B08109204021093E3
:101E20008503109384031092670310926603109247
:101E30006203109263031092640310926503109280
:101E400080031092810310928203109283031093F7
:101E50007F0310925E0310925F0310926003109252
:101E6000610310925A0310925B0310925C0310926C
:101E70005D0310927E0310927D0310927C031092FA
:101E80007B030E944B0C61E086E20E9445096EEDE7
:101E900072E083ED94E00E94DA0B882309F442C0DB
:101EA0008CEE92E00E941B081092040210938503AE
:101EB00010937A0310927C0310927B0310926703B5
:101EC00010926603109262031092630310926403EF
:101ED0001092650310927E0310927D03109280038E
:101EE00010928103109282031092830310937F0358
:101EF00010925E0310925F031092600310926103D0
:101F000010925A0310925B0310925C0310925D03CF
:101F100010927E0310927D030E944B0C61E086E2DA
:101F20000E944509809159038111FBC180917F0373
:101F30008111F7C180918503882309F4A1C0209104
:101F4000660330916703E0917B03F0917C03EE0F11
:101F5000FF1FE95CFD4F808191818217930708F094
:101F60008FC020917B0330917C038091720390910C
:101F700073038217930708F483C0E0907B03F0900B
:101F80007C030197E816F90608F00DC26AEF72E0CB
:101F90008AE294E00E94560CF701EE0FFF1FE15E0B
:101FA000FD4FC080D180C6010E9498076CE073E0AD
:101FB0008AE294E00E94560CF701EE0FFF1FE35EE9
:101FC000FD4FE080F180C7010E9498076AE073E04E
:101FD0008AE294E00E94560CC6018E199F099093E4
:101FE0007103809370030E94CC07809170039091DD
:101FF0007103181619060CF0D3C1109279036EE024
:1020000073E08AE294E00E94560C80917B039091E9
:102010007C030E94050862E173E08AE294E00E947A
:10202000560CE0917B03F0917C03EE0FFF1FE95CFF
:10203000FD4F808191810E94CC0780917B0390911C
:102040007C03019690937C0380937B03109374032D
:10205000109262031092630310926403109265035E
:1020600080917A03882341F010925E0310925F03FF
:10207000109260031092610361E085E20E944509BD
:1020800080917A03882309F4C5C0809179039091E7
:102090007403992309F4BCC0882379F10E941A07BC
:1020A00080915E0390915F03A0916003B091610302
:1020B000181619061A061B0674F480915E03909197
:1020C0005F03A0916003B0916103181619061A0608
:1020D0001B0684F09FC080915E0390915F03A091E6
:1020E0006003B0916103181619061A061B0609F061
:1020F0000CF490C061E273E02EC00E941207809140
:102100005E0390915F03A0916003B0916103181684
:1021100019061A061B0674F480915E0390915F0302
:10212000A0916003B0916103181619061A061B06E8
:1021300084F070C080915E0390915F03A091600372
:10214000B0916103181619061A061B0609F00CF463
:1021500061C067E273E08AE294E00E94560C0E943C
:1021600006071092740380915E0390915F03A09123
:102170006003B0916103181619061A061B064CF489
:1021800080915E0390915F03A0916003B091610321
:102190000FC080915E0390915F03A0916003B091A6
:1021A0006103B095A095909581959F4FAF4FBF4F1C
:1021B0000297A105B10574F120917D0330917E0352
:1021C00080915E0390915F03A0916003B0916103E1
:1021D000181619061A061B064CF480915E0390919E
:1021E0005F03A0916003B09161030BC080915E0317
:1021F00090915F03A0916003B091610391958195E7
:102200009109820F931F90937E0380937D0302C0F8
:102210000E94060780918403882389F180917903C5
:1022200090917403992349F1882391F00E941A0731
:102230008091620390916303A0916403B091650360
:10224000893C9105A105B105D4F081E293E011C06C
:102250000E9412078091620390916303A09164032E
:10226000B0916503893C9105A105B10544F087E271
:1022700093E00E941B08109274030E9406072091AD
:1022800066033091670380917703909178038217FA
:10229000930758F510926703109266031092850316
:1022A00010927A031092840360E08FE20E94450945
:1022B0008DE293E00E941B0880917D0390917E0344
:1022C0000E94CC070E9406070E945C0880E00E94E2
:1022D0002E0868E373E089ED94E00E94560C60EDEF
:1022E00077E080E090E00E94FE0920915703309152
:1022F000580380917503909176038217930720F419
:1023000061E086E20E94450980917A03811105C04F
:1023100080918403882309F449C0A8950E946F0422
:102320003FCD0E945C0860915A0370915B038091DD
:102330005C0390915D032091000230910102409175
:102340000202509103022F83388749875A870E94DF
:102350003E122F81388549855A850E949D126093CF
:10236000800370938103809382039093830380E0C2
:102370000E942E08609180037091810380918203F6
:102380009091830342E00E94670862EB72E089ED5E
:1023900094E00E94560C1092590310927F03CACD0C
:1023A000892B09F42CCE1093790329CE0E940607BD
:1023B000B4CF8091D3049091D4040C943215EAE206
:1023C000F4E01382128288EE93E0A0E0B0E0848310
:1023D0009583A683B7832DE532E03183208325ECF6
:1023E00030E03587248724EC30E03787268720ECDF
:1023F00030E0318B208B21EC30E0338B228B22ECD0
:1024000030E0358B248B26EC30E0378B268B118E19
:10241000128E138E148EE7ECF4E013821282848302
:102420009583A683B7838FE692E091838083E9ED5D
:10243000F4E01382128281E892E09183808387E244
:10244000848384E1808784E08187128688E08387A3
:10245000E3EDF4E01182108213821282158214825D
:1024600040E050E060E473E0CF010C94200C0E9447
:10247000791208F481E00895E89409C097FB3EF4CE
:1024800090958095709561957F4F8F4F9F4F9923C1
:10249000A9F0F92F96E9BB279395F695879577953F
:1024A0006795B795F111F8CFFAF4BB0F11F460FFFF
:1024B0001BC06F5F7F4F8F4F9F4F16C0882311F057
:1024C00096E911C0772321F09EE8872F762F05C06B
:1024D000662371F096E8862F70E060E02AF09A9506
:1024E000660F771F881FDAF7880F9695879597F9FB
:1024F0000895990F0008550FAA0BE0E8FEEF161695
:102500001706E807F907C0F012161306E407F507E7
:1025100098F0621B730B840B950B39F40A2661F05B
:10252000232B242B252B21F408950A2609F4A140FE
:10253000A6958FEF811D811D08950E94B0120C9405
:1025400021130E94131338F00E941A1320F09523D0
:1025500011F00C940A130C94101311240C945513BD
:102560000E94321370F3959FC1F3950F50E0551FF1
:10257000629FF001729FBB27F00DB11D639FAA27D8
:10258000F00DB11DAA1F649F6627B00DA11D661F27
:10259000829F2227B00DA11D621F739FB00DA11D48
:1025A000621F839FA00D611D221F749F3327A00D02
:1025B000611D231F849F600D211D822F762F6A2F9E
:1025C00011249F5750409AF0F1F088234AF0EE0F03
:1025D000FF1FBB1F661F771F881F91505040A9F730
:1025E0009E3F510580F00C940A130C9455135F3FE5
:1025F000E4F3983ED4F3869577956795B795F7956C
:10260000E7959F5FC1F7FE2B880F911D96958795E3
:1026100097F9089597F99F6780E870E060E0089562
:102620009FEF80EC089500240A94161617061806EA
:102630000906089500240A941216130614060506C6
:102640000895092E0394000C11F4882352F0BB0F57
:1026500040F4BF2B11F460FF04C06F5F7F4F8F4FBA
:102660009F4F089557FD9058440F551F59F05F3FF5
:1026700071F04795880F97FB991F61F09F3F79F0A4
:1026800087950895121613061406551FF2CF469526
:10269000F1DF08C0161617061806991FF1CF8695A8
:1026A0007105610508940895E894BB27662777278C
:1026B000CB0197F908955058BB27AA270E9473139E
:1026C0000C9421130E94131338F00E941A1320F067
:1026D00039F49F3F19F426F40C9410130EF4E0958E
:1026E000E7FB0C940A13E92F0E94321358F3BA1730
:1026F000620773078407950720F079F4A6F50C9418
:1027000054130EF4E0950B2EBA2FA02D0B01B90136
:1027100090010C01CA01A0011124FF27591B99F057
:10272000593F50F4503E68F11A16F040A22F232F63
:10273000342F4427585FF3CF469537952795A795B3
:10274000F0405395C9F77EF41F16BA0B620B730B5A
:10275000840BBAF09150A1F0FF0FBB1F661F771FCB
:10276000881FC2F70EC0BA0F621F731F841F48F480
:10277000879577956795B795F7959E3F08F0B0CF09
:102780009395880F08F09927EE0F979587950895F0
:102790000E94DC130C9421130E941A1358F00E941B
:1027A000131340F029F45F3F29F00C940A135111E0
:1027B0000C9455130C9410130E94321368F3992350
:1027C000B1F3552391F3951B550BBB27AA2762172D
:1027D0007307840738F09F5F5F4F220F331F441F3A
:1027E000AA1FA9F335D00E2E3AF0E0E832D091506E
:1027F0005040E695001CCAF72BD0FE2F29D0660F5B
:10280000771F881FBB1F261737074807AB07B0E89D
:1028100009F0BB0B802DBF01FF2793585F4F3AF0A3
:102820009E3F510578F00C940A130C9455135F3FAA
:10283000E4F3983ED4F3869577956795B795F79529
:102840009F5FC9F7880F911D9695879597F9089511
:10285000E1E0660F771F881FBB1F621773078407AD
:10286000BA0720F0621B730B840BBA0BEE1F88F7BC
:10287000E09508950E943A1388F09F5798F0B92F79
:102880009927B751B0F0E1F0660F771F881F991FA5
:102890001AF0BA95C9F714C0B13091F00E945413E0
:1028A000B1E008950C945413672F782F8827B85FF0
:1028B00039F0B93FCCF3869577956795B395D9F7FD
:1028C0003EF490958095709561957F4F8F4F9F4F07
:1028D00008950E94791208F48FEF08950E947912EA
:1028E000880B990B0895A1E21A2EAA1BBB1BFD01B0
:1028F0000DC0AA1FBB1FEE1FFF1FA217B307E407DF
:10290000F50720F0A21BB30BE40BF50B661F771F36
:10291000881F991F1A9469F7609570958095909516
:102920009B01AC01BD01CF010895EE0FFF1F881F71
:102930008BBF0790F691E02D1994CF93DF938230EF
:10294000910510F482E090E0E091EC04F091ED0448
:1029500020E030E0C0E0D0E0309711F140815181BB
:1029600048175907C0F04817590761F482819381CD
:10297000209719F09B838A832BC09093ED0480935A
:10298000EC0426C02115310519F04217530718F43D
:102990009A01BE01DF01EF010280F381E02DDCCF5F
:1029A0002115310509F1281B390B2430310590F42C
:1029B00012968D919C9113976115710521F0FB0181
:1029C0009383828304C09093ED048093EC04FD0113
:1029D000329644C0FD01E20FF31F81939193225080
:1029E00031092D933C933AC02091EA043091EB04D5
:1029F000232B41F42091190230911A023093EB04F9
:102A00002093EA0420911702309118022115310514
:102A100041F42DB73EB740911B0250911C02241B7C
:102A2000350BE091EA04F091EB04E217F307A0F410
:102A30002E1B3F0B2817390778F0AC014E5F5F4F14
:102A40002417350748F04E0F5F1F5093EB04409357
:102A5000EA048193919302C0E0E0F0E0CF01DF91BE
:102A6000CF9108950F931F93CF93DF93009709F4AD
:102A70008CC0FC013297138212820091EC041091F9
:102A8000ED040115110581F420813181820F931F1E
:102A90002091EA043091EB042817390779F5F09377
:102AA000EB04E093EA0471C0D80140E050E0AE17B7
:102AB000BF0750F412962D913C911397AD0121154B
:102AC000310509F1D901F3CF9D01DA013383228366
:102AD00060817181860F971F8217930769F4EC015B
:102AE00028813981260F371F2E5F3F4F3183208386
:102AF0008A819B8193838283452B29F4F093ED0493
:102B0000E093EC0442C01396FC93EE931297ED0110
:102B1000499159919E01240F351FE217F30771F473
:102B200080819181840F951F029611969C938E93BC
:102B30008281938113969C938E931297E0E0F0E04C
:102B4000D80112968D919C911397009719F0F80176
:102B50008C01F6CF8D919C9198012E5F3F4F820F93
:102B6000931F2091EA043091EB042817390769F488
:102B7000309729F41092ED041092EC0402C01382F5
:102B800012821093EB040093EA04DF91CF911F911E
:102B90000F9108956F927F928F929F92AF92BF9202
:102BA000CF92DF92EF92FF920F931F93CF93DF9319
:102BB000EC01009789F4CB01DF91CF911F910F9128
:102BC000FF90EF90DF90CF90BF90AF909F908F904D
:102BD0007F906F900C949D14FC01E60FF71F9C01F1
:102BE00022503109E217F30708F4ACC0D9010D9166
:102BF0001C91119706171707B0F00530110508F45E
:102C00009FC0C80104978617970708F499C002501F
:102C10001109061B170B019311936D937C93CF0140
:102C20000E9432158DC05B01A01AB10A4C01800EC2
:102C3000911EA091EC04B091ED0440E050E0E12C35
:102C4000F12C109709F44AC0A815B905D1F56D907B
:102C50007C901197630182E0C80ED11CCA14DB047A
:102C600080F1A3014A195B096A0182E0C80ED11CF8
:102C70001296BC9012971396AC91B5E0CB16D10486
:102C800040F0B282A38351834083D9016D937C933A
:102C90000AC00E5F1F4FC301800F911FF90191837E
:102CA0008083EB2DFA2FE114F10431F0D701139654
:102CB000FC93EE93129744C0F093ED04E093EC0480
:102CC0003FC08D919C9111974817590708F4AC01AA
:102CD0007D0112960D90BC91A02DB3CF8091EA0496
:102CE0009091EB0488159905E1F446175707C8F44D
:102CF0008091170290911802009741F48DB79EB70A
:102D000040911B0250911C02841B950BE817F90798
:102D1000C8F4F093EB04E093EA04F9017183608353
:102D20000FC0CB010E949D147C01009759F0A801AF
:102D3000BE010E94B816CE010E943215C70104C020
:102D4000CE0102C080E090E0DF91CF911F910F9102
:102D5000FF90EF90DF90CF90BF90AF909F908F90BB
:102D60007F906F90089581E090E0F8940C94D116D4
:102D7000FB01DC0102C001900D9241505040D8F798
:102D80000895FB01DC018D91019080190110D9F3A8
:102D9000990B0895FB01DC0101900D920020E1F7F1
:102DA000089511E0C6E5D1E000E006C0802FFE01E5
:102DB0000E9495142196011DC735D10780E00807B0
:062DC000A9F7F894FFCF13
:102DC60014AE273F01010147074707470747074753
:102DD600074707470747070000EE0480008F021EDB
:102DE60005AD073C0ACB0C5A0FE9115A0FCB0C3C28
:102DF6000AAD071E058F020000EB08D6112522ED4D
:102E06002D3C388C43B75B0A675E712D7D878D72CA
:102E16009600004000140054000000000032028AB0
:102E260001CA017902FB01D901ED0100000000236E
:102E360003F3025303CD02EB02DC02CE02000000D4
:102E460000D5068A0153035203000000001C048AC1
:102E560001530352034269656E76656E69646F00BD
:102E660050726F6772616D6120526F6C61646F7230
:102E760061006D6D0070776D6F6E0070776D6F66B7
:102E86006600727574696E617469656D706F004372
:102E96006F6D656E7A6F20527574696E610072751A
:102EA60074696E61656E636F6465720052757469EC
:102EB6006E61456E636F646572006469666572650E
:102EC6006E63696173526164696F3D002D00693DEF
:102ED60020005469656D706F41637475616C3D20A7
:102EE6000053756269720042616A617200546572CC
:102EF6006D696E616D6F7300616361626F000D0ACB
:0E2F0600006E616E00696E66006F76660000F8
:00000001FF
