:100000000C9466010C94E4090C94B9090C948E09C3
:100010000C9463090C9438090C940D090C94E208B3
:100020000C94B7080C9497010C9497010C949701C9
:100030000C9497010C9497010C9497010C949701E0
:100040000C9497010C9497010C9497010C949701D0
:100050000C948C060C9497010C9497010C946D08E9
:100060000C9497010C947F040C9455040C94970104
:100070000C9497010C9497010C9497010C949701A0
:100080000C9497010C9497010C9497010C94970190
:100090000C9497010C9497010C9497010C94B5045F
:1000A0000C9497010C9497010C9497010C94970170
:1000B0000C9497010C9497010C9497010C94970160
:1000C0000C9497010C9497010C9497010C94970150
:1000D0000C9497010C9497010C9497010C94970140
:1000E0000C949701D206D506C406C806CE060C07A6
:1000F000D906DD06E306E706EB06F106F506F90686
:100100000C07FF06030707070C94FF060C94F5067F
:100110000C94DD060C94C4060C94C6010C94D20613
:100120000C949D020C94D5060C9425030C940307A3
:100130000C9401020C949C020C94D4010C943A0788
:100140000C94E3060C94AB020C9442030C940C0741
:100150000C9432070C94EB060C94F1060C94C2023A
:100160000C94A3010C94E7060C94BA020C948B1126
:100170000C94CA030C9491110C94B2010C940504D4
:100180000C94F2020C9422030C9407070C94C806FA
:100190000C9486060C94D9060C9421030C94CE067C
:1001A0000C9448020C94F90600002100240027005A
:1001B0002A002D0030003300010100000401070176
:1001C0000A0100002200250028002B002E0031002B
:1001D000340002010000050108010B0100002000AD
:1001E0002300260029002C002F003200000100000F
:1001F00003010601090105050505070508080808AA
:10020000020202020A0A08080404040401010101AE
:1002100001010101030303030303030304070707A9
:100220000C0C0C0C0C0C0C0C02020202060606064E
:10023000060606060B0B0B0B0B0B0B0B010210201B
:10024000200808102040102040800201020108040C
:1002500002010102040810204080804020100804A0
:1002600002018004020180402010080402010804F9
:10027000020101020408102040800102040810203D
:10028000408000000A0B02090C0D0E080703040150
:10029000000000000000000000000000000000005E
:1002A000000000000000000000000000000012112B
:1002B000100000000000000000000000000000002E
:1002C000000000000000000091118B1111241FBEDE
:1002D000CFEFD1E2DEBFCDBF00E00CBF24E0AEE146
:1002E000B3E001C01D92AE3AB207E1F713E0A0E01F
:1002F000B2E0EAE2FDE200E00BBF02C007900D921F
:10030000AE31B107D9F711E0C5E6D1E000E006C093
:1003100021970109802FFE010E944714C436D1079E
:1003200080E00807A9F70E94130C0C9483160C9424
:10033000000086EE93E00E94D40121E0892B09F4AD
:1003400020E0822F0895FC01538D448D252F30E04D
:10035000842F90E0821B930B541710F0CF960895D2
:1003600001970895FC01918D828D981761F0828D1F
:10037000DF01A80FB11D5D968C91928D9F5F9F73D9
:10038000928F90E008958FEF9FEF0895FC01918D7B
:10039000828D981731F0828DE80FF11D858D90E0E8
:1003A00008958FEF9FEF0895FC01918D228D892F85
:1003B00090E0805C9F4F821B91098F73992708956D
:1003C000FC01848DDF01A80FB11DA35ABF4F2C91F2
:1003D000848D90E001968F739927848FA689B789C1
:1003E0002C93A089B1898C9180648C93938D848D9A
:1003F000981306C00288F389E02D80818F7D808369
:100400000895EF92FF920F931F93CF93DF93EC0128
:1004100081E0888F9B8D8C8D981305C0E889F989C0
:10042000808185FD24C0F62E0B8D10E00F5F1F4FDD
:100430000F731127E02E8C8DE8120CC00FB607FC4D
:10044000FACFE889F989808185FFF5CFCE010E9436
:10045000E001F1CF8B8DFE01E80FF11DE35AFF4F54
:10046000F0820B8FEA89FB898081806207C0EE8968
:10047000FF896083E889F98980818064808381E0D5
:1004800090E0DF91CF911F910F91FF90EF90089531
:10049000CF93DF93EC01888D8823C9F0EA89FB892B
:1004A000808185FD05C0A889B9898C9186FD0FC022
:1004B0000FB607FCF5CF808185FFF2CFA889B989F7
:1004C0008C9185FFEDCFCE010E94E001E7CFDF9157
:1004D000CF91089585ED8093BC008091BC0084FD90
:1004E000FCCF10922003089540919D03262F30E009
:1004F000240F311D21323105DCF4209120032430FA
:10050000C9F4FC0180E090E0861758F430919D0317
:100510002191DC01A558BC4FA30FB11D2C9301966E
:10052000F3CF80919D03680F60939D0380E0089551
:1005300081E0089582E00895089581E090E030918F
:10054000240320912303321710F480E090E091956A
:10055000819591090895809124039091230389172F
:1005600030F48F5F8093240380E090E008958FEF54
:100570009FEF08958091230390E020912403821B34
:1005800091090895CF92DF92EF92FF920F931F93FC
:10059000CF93DF937C01262F972F8A0180917A03D6
:1005A000882391F0C62FD72F6E01C40ED51ECC150F
:1005B000DD0571F06991D701ED91FC910190F08119
:1005C000E02DC7011995F3CF642F822F0E9474028A
:1005D000C801DF91CF911F910F91FF90EF90DF90B5
:1005E000CF900895CF93DF931F92CDB7DEB7698385
:1005F00020917A032223D1F020912103203240F070
:1006000021E030E0FC013383228380E090E015C0DC
:1006100080912203E82FF0E0E65AFC4F9981908305
:100620008F5F809322038093210305C061E0CE0198
:1006300001960E94740281E090E00F90DF91CF91CB
:100640000895089580E090E0089580912B039091A3
:100650002C03019690932C0380932B038091270306
:1006600090912803A0912903B0912A030196A11D1E
:10067000B11D8093270390932803A0932903B0937F
:100680002A0308950E946516FF920F931F93CF933C
:10069000DF931F921F92CDB7DEB786EE93E00E94E4
:1006A000D401892BD1F186EE93E00E94B201F82E9D
:1006B00089831A8200919304109194040F5F1F4F55
:1006C000B8018FE894E00E942E0A882399F02091C7
:1006D0008F04309190048091930490919404BE0112
:1006E0006F5F7F4F820F931F0E947C1610939404BC
:1006F000009393048DE0F81204C081E080935803C6
:100700000CC080E2F81209C00F900F90DF91CF91DA
:100710001F910F91FF900C94800A0F900F90DF9122
:10072000CF911F910F91FF9008950E94990181111F
:1007300025C080E090E0892B41F080E090E0892B9B
:1007400021F00E94000081111CC080E090E0892B04
:1007500041F080E090E0892B21F00E94000081119F
:1007600013C080E090E0892BA1F080E090E0892B1D
:1007700081F00E94000081110AC008950E94440384
:10078000D8CF0E940000E1CF0E940000EACF0C9475
:100790000000089583E00E949E0721E0892B09F460
:1007A00020E02093570380915703882369F180B19B
:1007B00085FB882780F98093560380915603811129
:1007C00003C081E090E002C08FEF9FEF40912D03C6
:1007D00050912E0360912F0370913003092E000C6D
:1007E000AA0BBB0B840F951FA61FB71F80932D0369
:1007F00090932E03A0932F03B09330039091350371
:1008000081E089278093350308950F931F9382E039
:100810000E949E0721E0892B09F420E020935703D2
:10082000809157038823F1F180B183FB882780F9F9
:100830008093550380915503811103C081E090E0BE
:1008400002C08FEF9FEF40913103509132036091CE
:10085000330370913403092E000CAA0BBB0B8A01E1
:100860009B01081B190B2A0B3B0B009331031093C0
:10087000320320933303309334039091360381E0A5
:100880008927809336038091310390913203A091A0
:100890003303B09134038C399F4FAF4FBF4F11F4E6
:1008A000109205021F910F9108951F920F920FB69B
:1008B0000F9211240BB60F922F933F934F935F9398
:1008C0006F937F938F939F93AF93BF93EF93FF9318
:1008D00086EE93E00E94E001FF91EF91BF91AF910E
:1008E0009F918F917F916F915F914F913F912F9148
:1008F0000F900BBE0F900FBE0F901F9018951F9278
:100900000F920FB60F9211240BB60F922F938F9365
:100910009F93EF93FF93E091F603F091F7038081AB
:10092000E091FC03F091FD0382FD12C09081809163
:10093000FF038F5F8F7320910004821751F0E091C5
:10094000FF03F0E0EA51FC4F958F8093FF0301C055
:100950008081FF91EF919F918F912F910F900BBE0E
:100960000F900FBE0F901F9018951F920F920FB609
:100970000F9211240BB60F922F933F934F935F93D7
:100980006F937F938F939F93AF93BF93EF93FF9357
:100990008091B900887F803609F49CC068F5883260
:1009A00009F45BC090F4803109F454C038F4882312
:1009B00009F4F6C0883009F44DC0F6C0883109F456
:1009C0004CC0803209F45DC0EFC0803409F468C0C7
:1009D00048F4803309F455C0883309F0E5C08093AA
:1009E000C203D8C0803509F44FC0883509F45DC012
:1009F000883409F0D9C0D6C0883909F4C7C0A8F432
:100A0000883709F467C038F4883609F463C0803742
:100A100009F460C0C9C0883809F4B8C0803909F445
:100A20005FC0803809F0C0C05BC0803B09F486C05D
:100A300038F4803A09F466C0883A09F47FC0B4C03B
:100A4000803C09F4A7C0883C09F4A4C0883B09F4A1
:100A50008AC0AAC08091E50310C09091E403809100
:100A6000E303981770F5E091E40381E08E0F809323
:100A7000E403F0E0ED53FC4F80818093BB0085ECF4
:100A800086C08093C2038EC0E091E40381E08E0FA4
:100A90008093E4038091BB00F0E0ED53FC4F808332
:100AA0009091E4038091E3036EC0E091E40381E060
:100AB0008E0F8093E4038091BB00F0E0ED53FC4F78
:100AC000808380911F0381116DC081E080931E039C
:100AD00084EA61C083E0809320031092C103CFCFEA
:100AE0008091C103803208F051C0E091C10381E0E0
:100AF0008E0F8093C1038091BB00F0E0EF55FC4F57
:100B00008083BDCF85EC8093BC0010922003809140
:100B1000C103803230F4E091C103F0E0EF55FC4FA7
:100B200010826091C10370E0E0919F03F091A003F7
:100B300081EA93E019951092C10336C084E0809356
:100B4000200310929E0310929D03E0919B03F0916D
:100B50009C03199580919D03811105C081E08093CC
:100B60009D0310927B03E0919E0381E08E0F8093A2
:100B70009E03F0E0E558FC4F80818093BB0090918C
:100B80009E0380919D03981708F479CF85E88093A0
:100B9000BC000AC085EC8093BC001092200304C006
:100BA0001092C2030E946A02FF91EF91BF91AF9130
:100BB0009F918F917F916F915F914F913F912F9175
:100BC0000F900BBE0F900FBE0F901F901895CF93F4
:100BD000FC01C48121E020937A03C0935903109251
:100BE0002203109221038385682B83E894E00E94FE
:100BF000F20280912103813208F046C090912003D7
:100C00009111FCCF92E09093200391E090931F0309
:100C10009FEF9093C2031092E4038093E303AAE54D
:100C2000B3E023EC33E0F9019E2F921B981718F4E0
:100C30009D919193F9CF1092E5038091E503CC0F3C
:100C4000C82BC093E50380911E03813061F410929C
:100C50001E038091E5038093BB008091BC0083FD5F
:100C6000F8CF85EC01C085EE8093BC008091200315
:100C70008230E1F38091C2038F3F31F08091C20353
:100C8000803211F08091C20310922203109221034E
:100C900010927A03CF9108950F931F93CF938C01F5
:100CA000C62F0E94E7056C2F6460C8010E94E7050B
:100CB0006C2F6B7FC8010E94E70583EC90E00197E1
:100CC000F1F7CF911F910F910895FF920F931F930A
:100CD000CF93DF931F92CDB7DEB78C01F62E962F00
:100CE000907F692F642BC80149830E944C0680E1E4
:100CF000F89EB00111244981642BC8010F90DF9147
:100D0000CF911F910F91FF900C944C0641E00E94EF
:100D1000650681E090E008951F920F920FB60F9242
:100D200011240BB60F922F933F934F935F936F93C2
:100D30007F938F939F93AF93BF93EF93FF93E09134
:100D40002503F09126031995FF91EF91BF91AF9183
:100D50009F918F917F916F915F914F913F912F91D3
:100D60000F900BBE0F900FBE0F901F90189590E044
:100D7000FC013197E231F10508F04EC08827EE58AA
:100D8000FF4F8F4F0C944714809180008F7703C0E2
:100D9000809180008F7D80938000089580918000F5
:100DA000877FF9CF84B58F7702C084B58F7D84BDEE
:100DB00008958091B0008F7703C08091B0008F7D3F
:100DC0008093B0000895809190008F7707C0809144
:100DD00090008F7D03C080919000877F809390006A
:100DE00008958091A0008F7707C08091A0008F7D2B
:100DF00003C08091A000877F8093A0000895809118
:100E000020018F7707C0809120018F7D03C08091E2
:100E10002001877F8093200108953FB7F894809147
:100E2000A6049091A704A091A804B091A90426B5A6
:100E3000A89B05C02F3F19F00196A11DB11D3FBF12
:100E4000BA2FA92F982F8827820F911DA11DB11DA0
:100E5000BC01CD0142E0660F771F881F991F4A959C
:100E6000D1F708950895DC01ED91FC910190F08196
:100E7000E02D1994CF92DF92EF92FF920F931F9380
:100E8000CF93DF936C017A018B01C0E0D0E0CE15E7
:100E9000DF0589F0D8016D918D01D601ED91FC91AE
:100EA0000190F081E02DC6011995892B11F47E0186
:100EB00002C02196ECCFC701DF91CF911F910F9116
:100EC000FF90EF90DF90CF900895CF93DF93CDB751
:100ED000DEB728970FB6F894DEBF0FBECDBF98E0FF
:100EE000E8E8F2E0DE01119601900D929A95E1F7A3
:100EF00090919E04981710F48FEF890FFE013196A0
:100F0000E80FF11DE80FF11D6081606840E085E9A0
:100F100094E028960FB6F894DEBF0FBECDBFDF91E8
:100F2000CF910C94650640E061E085E994E00E9471
:100F300065068BE39FE10197F1F70895CF93DF9367
:100F4000282F30E0F901EE57FD4F8491F901E45C60
:100F5000FD4FD491F901EA50FE4FC491CC2391F09A
:100F600081110E94B706EC2FF0E0EE0FFF1FE45254
:100F7000FE4FA591B491EC91ED2381E090E021F436
:100F800080E002C080E090E0DF91CF9108951F9350
:100F9000CF93DF93282F30E0F901EE57FD4F849176
:100FA000F901E45CFD4FD491F901EA50FE4FC49180
:100FB000CC23C9F0162F81110E94B706EC2FF0E068
:100FC000EE0FFF1FEE53FE4FA591B4918FB7F8942B
:100FD000111105C09C91ED2FE095E92302C0EC9121
:100FE000ED2BEC938FBFDF91CF911F910895CF939D
:100FF000DF9390E0FC01E45CFD4F2491FC01EA509A
:10100000FE4F8491882361F190E0880F991FFC01C5
:10101000E855FE4FC591D491FC01EE53FE4FA591CA
:10102000B491611109C09FB7F894888120958223FB
:101030008883EC912E230BC0623061F49FB7F89443
:101040003881822F809583238883EC912E2B2C93DB
:101050009FBF06C08FB7F894E8812E2B28838FBFDF
:10106000DF91CF9108958F929F92AF92BF92CF92CE
:10107000DF92EF92FF926B017C010E940D074B0102
:101080005C01C114D104E104F104F1F00E940D07E8
:10109000DC01CB0188199909AA09BB09883E934054
:1010A000A105B10570F321E0C21AD108E108F108E9
:1010B00088EE880E83E0981EA11CB11CC114D104D7
:1010C000E104F10419F7DDCFFF90EF90DF90CF90AE
:1010D000BF90AF909F908F9008951F920F920FB680
:1010E0000F9211242F933F938F939F93AF93BF93AE
:1010F0008091A2049091A304A091A404B091A504AE
:101100003091A10423E0230F2D3720F40196A11D77
:10111000B11D05C026E8230F0296A11DB11D209325
:10112000A1048093A2049093A304A093A404B09379
:10113000A5048091A6049091A704A091A804B09161
:10114000A9040196A11DB11D8093A6049093A70444
:10115000A093A804B093A904BF91AF919F918F91E0
:101160003F912F910F900FBE0F901F9018951F92D7
:101170000F920FB60F9211240BB60F922F933F933D
:101180004F935F936F937F938F939F93AF93BF938F
:10119000EF93FF93E0911402F09115021995FF91DE
:1011A000EF91BF91AF919F918F917F916F915F91DF
:1011B0004F913F912F910F900BBE0F900FBE0F904C
:1011C0001F9018951F920F920FB60F9211240BB615
:1011D0000F922F933F934F935F936F937F938F93D0
:1011E0009F93AF93BF93EF93FF93E0911202F0911F
:1011F00013021995FF91EF91BF91AF919F918F913C
:101200007F916F915F914F913F912F910F900BBE06
:101210000F900FBE0F901F9018951F920F920FB650
:101220000F9211240BB60F922F933F934F935F931E
:101230006F937F938F939F93AF93BF93EF93FF939E
:10124000E0910802F09109021995FF91EF91BF9189
:10125000AF919F918F917F916F915F914F913F914E
:101260002F910F900BBE0F900FBE0F901F901895EF
:101270001F920F920FB60F9211240BB60F922F935D
:101280003F934F935F936F937F938F939F93AF930E
:10129000BF93EF93FF93E0910602F0910702199537
:1012A000FF91EF91BF91AF919F918F917F916F913E
:1012B0005F914F913F912F910F900BBE0F900FBEFA
:1012C0000F901F9018951F920F920FB60F92112436
:1012D0000BB60F922F933F934F935F936F937F9330
:1012E0008F939F93AF93BF93EF93FF93E09110027F
:1012F000F09111021995FF91EF91BF91AF919F91DC
:101300008F917F916F915F914F913F912F910F90AE
:101310000BBE0F900FBE0F901F9018951F920F924B
:101320000FB60F9211240BB60F922F933F934F934A
:101330005F936F937F938F939F93AF93BF93EF933D
:10134000FF93E0910E02F0910F021995FF91EF913A
:10135000BF91AF919F918F917F916F915F914F91CD
:101360003F912F910F900BBE0F900FBE0F901F90CB
:1013700018951F920F920FB60F9211240BB60F9271
:101380002F933F934F935F936F937F938F939F938D
:10139000AF93BF93EF93FF93E0910C02F0910D0296
:1013A0001995FF91EF91BF91AF919F918F917F918F
:1013B0006F915F914F913F912F910F900BBE0F90C6
:1013C0000FBE0F901F9018951F920F920FB60F929D
:1013D00011240BB60F922F933F934F935F936F930C
:1013E0007F938F939F93AF93BF93EF93FF93E0917E
:1013F0000A02F0910B021995FF91EF91BF91AF9105
:101400009F918F917F916F915F914F913F912F911C
:101410000F900BBE0F900FBE0F901F901895FC0100
:1014200024813581232B31F421E061157105A1F070
:10143000FB0108C0FC01808191816115710531F4C7
:1014400021E0FC018081882339F005C00E947316D9
:1014500021E0892B09F020E0822F08950F931F933C
:10146000CF93DF93EC0188819981009729F02A813D
:101470003B812617370788F48B016F5F7F4F0E94EF
:101480007C15009761F0998388831B830A832C81E4
:101490003D81232B11F4FC01108281E001C080E02A
:1014A000DF91CF911F910F910895EF92FF920F93CB
:1014B0001F93CF93DF93EC017B018A01BA010E9455
:1014C0002E0A2881398181110DC02115310519F0AD
:1014D000C9010E94E414198218821D821C821B8299
:1014E0001A8206C01D830C83B701C9010E947C16B5
:1014F000CE01DF91CF911F910F91FF90EF90089552
:1015000040E050E069ED72E08FE894E00E94550AF7
:101510008FE894E008956115710579F0FB01019061
:101520000020E9F73197AF01461B570BDC01ED9125
:10153000FC910280F381E02D199480E090E0089501
:101540004F925F926F927F92EF92FF920F931F9351
:10155000CF93DF93CDB7DEB7A1970FB6F894DEBF78
:101560000FBECDBF7C01FA01CB0119A2223008F4D5
:101570002AE08E010F5D1F4F422E512C612C712CE1
:10158000BF01A30192010E942514F901CA01015073
:1015900011096A3014F4605D01C0695CD8016C9374
:1015A000232B242B252B61F7B801C7010E948B0A3E
:1015B000A1960FB6F894DEBF0FBECDBFDF91CF91DD
:1015C0001F910F91FF90EF907F906F905F904F90E1
:1015D0000895CF92DF92EF92FF920F931F93CF93D4
:1015E000DF9377FF1DC06A017B01EC016DE20E9471
:1015F00033078C0144275527BA014C195D096E0940
:101600007F092AE0CE010E94A00A800F911FDF917E
:10161000CF911F910F91FF90EF90DF90CF900895A1
:101620002AE0DF91CF911F910F91FF90EF90DF9013
:10163000CF900C94A00ACF93DF93AB01BC0186EE50
:1016400093E00E94E90AEC0167ED72E086EE93E018
:101650000E948B0A8C0F9D1FDF91CF9108954F92AE
:101660005F926F927F928F929F92AF92BF92CF9232
:10167000DF92EF92FF92CF93DF93EC016A017B013F
:10168000B22E9A01AB01C701B6010E942014882333
:1016900019F062E173E027C026013701E89477F87A
:1016A0002FEF3FEF4FE75FE7C301B2010E94201425
:1016B00081110DC02FEF3FEF4FE75FE7C301B2018C
:1016C0000E94E91118161CF466E173E00CC02FEFBC
:1016D0003FEF4FE75FE4C701B6010E941B141816E5
:1016E0009CF46AE173E0CE01DF91CF91FF90EF901F
:1016F000DF90CF90BF90AF909F908F907F906F9032
:101700005F904F900C948B0A2FEF3FEF4FE75FEC09
:10171000C701B6010E94E91187FDE3CF20E030E068
:10172000A901C701B6010E94E91187FF0AC06DE255
:10173000CE010E9433074C01F7FAF094F7F8F094C9
:1017400002C0812C912CA12C60E070E080E09FE32E
:10175000AB1441F020E030E040E251E40E947A1303
:10176000A394F6CF9B01AC01C701B6010E940E13F2
:101770002B013C010E94EC136B017C010E94EE11D5
:101780009B01AC01C301B2010E940D132B013C016E
:101790002AE0B701A601CE010E94A00A7C01E80C54
:1017A000F91CBB2031F06EE2CE010E943307E80E37
:1017B000F91EDB2CDD2029F120E030E040E251E48D
:1017C000C301B2010E944F122B013C010E94EC1395
:1017D0004B01A12CB12C2AE0B501A401CE010E943D
:1017E000A00AE80EF91EC501B4010E94EE119B018A
:1017F000AC01C301B2010E940D132B013C01DA942C
:10180000D9CFC701DF91CF91FF90EF90DF90CF90BC
:10181000BF90AF909F908F907F906F905F904F9010
:1018200008950C948B0ACF93DF93CDB7DEB72A9738
:101830000FB6F894DEBF0FBECDBF789484B582603A
:1018400084BD84B5816084BD85B5826085BD85B564
:10185000816085BD80916E00816080936E001092E2
:10186000810080918100826080938100809181005D
:1018700081608093810080918000816080938000EE
:101880008091B10084608093B1008091B00081604C
:101890008093B0008091910082608093910080914C
:1018A000910081608093910080919000816080938D
:1018B00090008091A10082608093A1008091A1009E
:1018C00081608093A1008091A00081608093A0003E
:1018D00080912101826080932101809121018160AA
:1018E000809321018091200181608093200180916B
:1018F0007A00846080937A0080917A00826080937D
:101900007A0080917A00816080937A0080917A00D9
:10191000806880937A001092C100E091F603F09104
:10192000F70382E08083E091F203F091F3031082E9
:10193000E091F403F091F5038FEC80831092FE03A5
:10194000E091FA03F091FB0386E08083E091F803D5
:10195000F091F903808180618083E091F803F09138
:10196000F903808188608083E091F803F091F903A6
:10197000808180688083E091F803F091F903808191
:101980008F7D80836CEC72E086EE93E00E948B0A80
:1019900067ED72E086EE93E00E948B0A2AE04BE14D
:1019A00050E060E070E086EE93E00E94A00A67EDF0
:1019B00072E086EE93E00E948B0A8BE190E09093B8
:1019C0004203809341031092440310924303109208
:1019D00047031092460340E050E080914603909107
:1019E00047034B9708F5E0914603F0914703EE0F4C
:1019F000FF1FEE5AFD4F808191814817590750F41F
:101A0000E0914603F0914703EE0FFF1FEE5AFD4FA2
:101A100040815181809146039091470301969093B4
:101A2000470380934603D9CF509344034093430325
:101A300060E070E02AE086EE93E00E94A00A67ED85
:101A400072E086EE93E00E948B0A10924703109298
:101A5000460380E1809381001092800081E08093B2
:101A60003E0320E43FE130933D0320933C03309359
:101A700087002093860091E19093810025E233E076
:101A8000309326032093250380936F001092240344
:101A9000109223031092220310922103109220032C
:101AA00080931F0310921E0361E084E10E94C70728
:101AB00061E085E10E94C7078091B9008E7F809325
:101AC000B9008091B9008D7F8093B90088E480933C
:101AD000B80085E48093BC0010929A0480919E0423
:101AE000823018F098E090939A0490919F04992383
:101AF00039F0813029F480919A04846080939A04AB
:101B000062E370E080E090E00E9433086091A004FE
:101B100085E994E00E94E70568EE73E080E090E0DC
:101B20000E94330860E385E994E00E944C060BE4D0
:101B300016E4C8010197F1F760E385E994E00E949B
:101B40004C06C8010197F1F760E385E994E00E9433
:101B50004C0683E592E00197F1F760E285E994E0B5
:101B60000E944C0660919A04606240E085E994E02E
:101B70000E94650684E080939B0440E06CE085E968
:101B800094E00E9465060E94930782E080939C0483
:101B900040E066E085E994E00E94650640E062E08E
:101BA00085E994E00E9465068BE39FE10197F1F7D8
:101BB00080E18093810010922703109228031092F5
:101BC000290310922A0368EC70E08FE894E00E94E9
:101BD0002E0A84EF91E090933B0380933A03909315
:101BE00039038093380360E088E10E94F70760E0E2
:101BF00088E10E94C70760E089E10E94F70760E082
:101C000089E10E94C70785E094E0909307028093E2
:101C1000060280916A00836080936A00EC9A60E01B
:101C20008AE10E94F70760E08AE10E94C70760E04E
:101C30008BE10E94F70760E08BE10E94C7078AEC06
:101C400093E0909309028093080280916A008C606F
:101C500080936A00ED9A61E08CE10E94F70760E0F2
:101C60008CE10E94C70761E08DE10E94F70760E008
:101C70008DE10E94C70761E08EE10E94F70760E0F6
:101C80008EE10E94C70761E08FE10E94F70760E0E4
:101C90008FE10E94C70761E088E20E94F70760E0D9
:101CA00088E20E94C7071092360310923503109203
:101CB000370380E00E9465076AED72E085E994E0F1
:101CC0000E94110C81E00E9465076CEC72E085E9CE
:101CD00094E00E94110C60ED77E080E090E00E94BB
:101CE00033080E9493076091310370913203809111
:101CF000330390913403209101023091020240910C
:101D00000302509104022F83388749875A870E9423
:101D1000F0112F81388549855A850E944F126093B2
:101D2000490370934A0380934B0390934C0380E0E4
:101D30000E9465074091490350914A0360914B030B
:101D400070914C0322E085E994E00E942F0B6CEE29
:101D500072E085E994E00E94110C81E00E94650721
:101D600040912D0350912E0360912F037091300309
:101D700085E994E00E94E90A60E1C62EDD24D3944F
:101D800000E41FE171E1B72EE4EFEE2EFF24F3949F
:101D90001A8219821C821B821E821D8260918F040E
:101DA000709190046115710541F040919304509138
:101DB0009404CE0101960E94550A6FEE72E0CE01A6
:101DC00001960E940F0A81112AC063EF72E0CE01D2
:101DD00001960E940F0A882309F4C9C0109281005D
:101DE000109285001092840080913E038061809360
:101DF000810080E1809381001092800081E08093D7
:101E00003E0380E49FE190933D0380933C039093D5
:101E100087008093860081E1809381009DC01092AD
:101E20008100109285001092840080913E038061B1
:101E300080938100C092810010928000D0923E0376
:101E400010933D0300933C0310938700009386009A
:101E5000B09281008091270390912803A0912903DB
:101E6000B0912A03892B8A2B8B2B09F4AECF60917A
:101E70002703709128038091290390912A030E94DF
:101E80001B0B61E08DE10E94C707809131039091A7
:101E90003203A0913303B09134038C399F4FAF4F7D
:101EA000BF4FC1F6C092810060E08DE10E94C7077C
:101EB0006091310370913203809133039091340328
:101EC00020910102309102024091030250910402DC
:101ED0002F83388749875A870E94F0112F813885D0
:101EE00049855A850E944F126093490370934A03B3
:101EF00080934B0390934C034091490350914A03C4
:101F000060914B0370914C0322E086EE93E00E94B7
:101F10002F0B67ED72E086EE93E00E948B0A6091D2
:101F20002703709128038091290390912A030E942E
:101F30001B0B109227031092280310922903109272
:101F40002A0310923103109232031092330310923D
:101F500034030E94800A7ECF60912703709128038A
:101F60008091290390912A030E941B0BF5CF68EF03
:101F700072E0CE0101960E940F0A882309F446C040
:101F8000F0923B03E0923A03F0923903E092380377
:101F9000409193045091940460918F047091900447
:101FA00086EE93E00E943A0767ED72E086EE93E0DA
:101FB0000E948B0A6DEF72E086EE93E00E94110C96
:101FC00040913A0350913B03052E000C660B770BB2
:101FD00086EE93E00E94E90A6DEF72E086EE93E0F0
:101FE0000E94110C4091380350913903052E000CCA
:101FF000660B770B86EE93E00E94E90A6DEF72E0C4
:1020000086EE93E00E94110C0E94800A60E073E06B
:10201000CE0101960E940F0A882309F463C061E093
:1020200088E20E94C70761E08EE10E94C70768E866
:1020300073E180E090E00E94330860E08EE10E944E
:10204000C70760E088E20E94C7070E94930760917B
:1020500031037091320380913303909134032091C6
:1020600001023091020240910302509104022F8339
:10207000388749875A870E94F0112F813885498512
:102080005A850E944F126093490370934A038093CC
:102090004B0390934C0380E00E94650740914903F5
:1020A00050914A0360914B0370914C0322E085E903
:1020B00094E00E942F0B6CEE72E085E994E00E94A0
:1020C000110C81E00E94650740912D0350912E0371
:1020D00060912F037091300385E994E00E94E90A32
:1020E0000E94800A89819A810E94E41480914D03A4
:1020F000809136038111ABC0809135038111A7C057
:1021000065E073E08FE894E00E940F0A882361F095
:10211000D092480310922C0310922B031092470385
:10212000109246030E94800A8091460390914703D3
:10213000209141033091420382179307E0F4DC01C0
:10214000AA0FBB1FA25EBD4F880F991FFC01E45E62
:10215000FD4F8D919C9140815181841B950B9093F3
:10216000400380933F03181619061CF41092450390
:1021700004C0892B11F0D092450380914803882335
:10218000C9F0E0914603F0914703EE0FFF1FEE5AAE
:10219000FD4F40912B0350912C0380819181841736
:1021A000950740F480914603909147038217930767
:1021B00008F49DC08091450390910002992319F184
:1021C00061E0882331F088E20E94C70761E08EE178
:1021D00005C088E20E94C70761E08FE10E94C7073F
:1021E00061E08DE10E94C707809127039091280349
:1021F000A0912903B0912A038D97A105B1059CF008
:102200001092000210C060E088E20E94C70760E000
:102210008FE10E94C70760E08CE10E94C70760E081
:102220008EE10E94C70720912B0330912C038091EF
:102230004303909144038217930730F410922C03C8
:1022400010922B03109248030E949503A1CD0E9487
:102250009307609131037091320380913303909121
:102260003403209101023091020240910302509107
:1022700004022F83388749875A870E94F0112F81E3
:10228000388549855A850E944F126093490370939F
:102290004A0380934B0390934C0380E00E946507B0
:1022A0004091490350914A0360914B0370914C0354
:1022B00022E085E994E00E942F0B6CEE72E085E944
:1022C00094E00E94110C81E00E94650740912D036B
:1022D00050912E0360912F037091300385E994E0B3
:1022E0000E94E90A109236031092350309CF8091BB
:1022F00046039091470301969093470380934603CA
:10230000D092000210922703109228031092290302
:1023100010922A034FCF80918F04909190040C94D7
:10232000E414E6EEF3E01382128288EE93E0A0E07C
:10233000B0E084839583A683B78324E932E03183B8
:10234000208325EC30E03587248724EC30E0378784
:10235000268720EC30E0318B208B21EC30E0338B72
:10236000228B22EC30E0358B248B26EC30E0378B4F
:10237000268B118E128E138E148EE3E8F4E01382F6
:10238000128284839583A683B78386EA92E0918341
:102390008083E5E9F4E01382128288EB92E0918376
:1023A000808387E2848384E1808784E0818712864A
:1023B00088E08387EFE8F4E01182108213821282B2
:1023C0001582148240E050E069ED72E0CF010C9478
:1023D000550A0E942B1208F481E00895E89409C080
:1023E00097FB3EF490958095709561957F4F8F4F48
:1023F0009F4F9923A9F0F92F96E9BB279395F6955E
:10240000879577956795B795F111F8CFFAF4BB0FDB
:1024100011F460FF1BC06F5F7F4F8F4F9F4F16C03F
:10242000882311F096E911C0772321F09EE8872FC9
:10243000762F05C0662371F096E8862F70E060E085
:102440002AF09A95660F771F881FDAF7880F9695FE
:10245000879597F90895990F0008550FAA0BE0E8A2
:10246000FEEF16161706E807F907C0F01216130656
:10247000E407F50798F0621B730B840B950B39F496
:102480000A2661F0232B242B252B21F408950A26FC
:1024900009F4A140A6958FEF811D811D08950E942A
:1024A00062120C94D3120E94C51238F00E94CC1212
:1024B00020F0952311F00C94BC120C94C21211243C
:1024C0000C9407130E94E41270F3959FC1F3950FCB
:1024D00050E0551F629FF001729FBB27F00DB11DA8
:1024E000639FAA27F00DB11DAA1F649F6627B00D38
:1024F000A11D661F829F2227B00DA11D621F739F21
:10250000B00DA11D621F839FA00D611D221F749F2E
:102510003327A00D611D231F849F600D211D822F75
:10252000762F6A2F11249F5750409AF0F1F088239C
:102530004AF0EE0FFF1FBB1F661F771F881F9150C9
:102540005040A9F79E3F510580F00C94BC120C94AA
:1025500007135F3FE4F3983ED4F38695779567952C
:10256000B795F795E7959F5FC1F7FE2B880F911DF3
:102570009695879597F9089597F99F6780E870E099
:1025800060E008959FEF80EC089500240A941616E9
:10259000170618060906089500240A941216130651
:1025A000140605060895092E0394000C11F48823DF
:1025B00052F0BB0F40F4BF2B11F460FF04C06F5FFB
:1025C0007F4F8F4F9F4F089557FD9058440F551FD1
:1025D00059F05F3F71F04795880F97FB991F61F0A5
:1025E0009F3F79F087950895121613061406551F1C
:1025F000F2CF4695F1DF08C0161617061806991F88
:10260000F1CF86957105610508940895E894BB277C
:1026100066277727CB0197F908955058BB27AA273B
:102620000E9425130C94D3120E94C51238F00E9408
:10263000CC1220F039F49F3F19F426F40C94C21206
:102640000EF4E095E7FB0C94BC12E92F0E94E41213
:1026500058F3BA17620773078407950720F079F4D7
:10266000A6F50C9406130EF4E0950B2EBA2FA02DB0
:102670000B01B90190010C01CA01A0011124FF272F
:10268000591B99F0593F50F4503E68F11A16F0402A
:10269000A22F232F342F4427585FF3CF4695379529
:1026A0002795A795F0405395C9F77EF41F16BA0BEE
:1026B000620B730B840BBAF09150A1F0FF0FBB1F9C
:1026C000661F771F881FC2F70EC0BA0F621F731FE5
:1026D000841F48F4879577956795B795F7959E3F42
:1026E00008F0B0CF9395880F08F09927EE0F9795D3
:1026F000879508950E948E130C94D3120E94CC12D9
:1027000058F00E94C51240F029F45F3F29F00C9464
:10271000BC1251110C9407130C94C2120E94E412C3
:1027200068F39923B1F3552391F3951B550BBB2700
:10273000AA2762177307840738F09F5F5F4F220F45
:10274000331F441FAA1FA9F335D00E2E3AF0E0E83C
:1027500032D091505040E695001CCAF72BD0FE2F86
:1027600029D0660F771F881FBB1F2617370748071A
:10277000AB07B0E809F0BB0B802DBF01FF279358D2
:102780005F4F3AF09E3F510578F00C94BC120C94C8
:1027900007135F3FE4F3983ED4F3869577956795EA
:1027A000B795F7959F5FC9F7880F911D9695879507
:1027B00097F90895E1E0660F771F881FBB1F621726
:1027C00073078407BA0720F0621B730B840BBA0BE4
:1027D000EE1F88F7E09508950E94EC1288F09F574D
:1027E00098F0B92F9927B751B0F0E1F0660F771F35
:1027F000881F991F1AF0BA95C9F714C0B13091F02B
:102800000E940613B1E008950C940613672F782FE9
:102810008827B85F39F0B93FCCF3869577956795EF
:10282000B395D9F73EF490958095709561957F4F5B
:102830008F4F9F4F08950E942B1208F48FEF089539
:102840000E942B12880B990B0895A1E21A2EAA1B45
:10285000BB1BFD010DC0AA1FBB1FEE1FFF1FA21750
:10286000B307E407F50720F0A21BB30BE40BF50B4D
:10287000661F771F881F991F1A9469F760957095D6
:10288000809590959B01AC01BD01CF010895EE0F9D
:10289000FF1F881F8BBF0790F691E02D1994CF93EF
:1028A000DF938230910510F482E090E0E091AC0477
:1028B000F091AD0420E030E0C0E0D0E0309711F1BD
:1028C0004081518148175907C0F04817590761F4F2
:1028D00082819381209719F09B838A832BC09093E8
:1028E000AD048093AC0426C02115310519F04217C0
:1028F000530718F49A01BE01DF01EF010280F38152
:10290000E02DDCCF2115310509F1281B390B2430CE
:10291000310590F412968D919C9113976115710574
:1029200021F0FB019383828304C09093AD048093D4
:10293000AC04FD01329644C0FD01E20FF31F819308
:102940009193225031092D933C933AC02091AA04CF
:102950003091AB04232B41F42091180230911902DD
:102960003093AB042093AA042091160230911702F1
:102970002115310541F42DB73EB740911A0250910F
:102980001B02241B350BE091AA04F091AB04E21763
:10299000F307A0F42E1B3F0B2817390778F0AC0182
:1029A0004E5F5F4F2417350748F04E0F5F1F50935F
:1029B000AB044093AA048193919302C0E0E0F0E05D
:1029C000CF01DF91CF9108950F931F93CF93DF93A2
:1029D000009709F48CC0FC01329713821282009197
:1029E000AC041091AD040115110581F420813181F1
:1029F000820F931F2091AA043091AB042817390746
:102A000079F5F093AB04E093AA0471C0D80140E0DB
:102A100050E0AE17BF0750F412962D913C911397DA
:102A2000AD012115310509F1D901F3CF9D01DA017D
:102A30003383228360817181860F971F82179307EA
:102A400069F4EC0128813981260F371F2E5F3F4F33
:102A5000318320838A819B8193838283452B29F450
:102A6000F093AD04E093AC0442C01396FC93EE9354
:102A70001297ED01499159919E01240F351FE217DC
:102A8000F30771F480819181840F951F029611964E
:102A90009C938E938281938113969C938E9312972D
:102AA000E0E0F0E0D80112968D919C911397009789
:102AB00019F0F8018C01F6CF8D919C9198012E5F51
:102AC0003F4F820F931F2091AA043091AB04281727
:102AD000390769F4309729F41092AD041092AC04D0
:102AE00002C0138212821093AB040093AA04DF91F8
:102AF000CF911F910F9108956F927F928F929F9225
:102B0000AF92BF92CF92DF92EF92FF920F931F93FB
:102B1000CF93DF93EC01009789F4CB01DF91CF9144
:102B20001F910F91FF90EF90DF90CF90BF90AF90EB
:102B30009F908F907F906F900C944F14FC01E60F44
:102B4000F71F9C0122503109E217F30708F4ACC0CB
:102B5000D9010D911C91119706171707B0F0053098
:102B6000110508F49FC0C80104978617970708F459
:102B700099C002501109061B170B019311936D9315
:102B80007C93CF010E94E4148DC05B01A01AB10AAE
:102B90004C01800E911EA091AC04B091AD0440E0B8
:102BA00050E0E12CF12C109709F44AC0A815B905A2
:102BB000D1F56D907C901197630182E0C80ED11C15
:102BC000CA14DB0480F1A3014A195B096A0182E09F
:102BD000C80ED11C1296BC9012971396AC91B5E01A
:102BE000CB16D10440F0B282A38351834083D90134
:102BF0006D937C930AC00E5F1F4FC301800F911F1E
:102C0000F90191838083EB2DFA2FE114F10431F067
:102C1000D7011396FC93EE93129744C0F093AD0442
:102C2000E093AC043FC08D919C91119748175907D0
:102C300008F4AC017D0112960D90BC91A02DB3CF8C
:102C40008091AA049091AB0488159905E1F4461788
:102C50005707C8F48091160290911702009741F42B
:102C60008DB79EB740911A0250911B02841B950BA1
:102C7000E817F907C8F4F093AB04E093AA04F9014C
:102C8000718360830FC0CB010E944F147C010097B9
:102C900059F0A801BE010E946A16CE010E94E414F8
:102CA000C70104C0CE0102C080E090E0DF91CF9167
:102CB0001F910F91FF90EF90DF90CF90BF90AF905A
:102CC0009F908F907F906F90089581E090E0F894AE
:102CD0000C948316FB01DC0102C001900D9241505F
:102CE0005040D8F70895FB01DC018D9101908019C7
:102CF0000110D9F3990B0895FB01DC0101900D92AD
:102D00000020E1F7089511E0C5E6D1E000E006C03B
:102D1000802FFE010E9447142196011DC636D1075F
:0A2D200080E00807A9F7F894FFCF40
:102D2A00015F0C153F0132073207320732073207BB
:102D3A003207320732070000AE0480001E05D606AD
:102D4A0084083C0AF40BA20D5A0F1211C01278140F
:102D5A003016DE1796194E1B9619DE1730167814A0
:102D6A00C01212115A0FA20DF40B3C0A8408D6069F
:102D7A001E050000EC09A012D917AB1C23214B2514
:102D8A0030290B2B9C2E00323F3564387A3EFE42A6
:102D9A002249534CA34F1C53C656B158B65C056121
:102DAA00A865AC6A1E703479000040001400540013
:102DBA000000000001023A07A3014802D401B2014F
:102DCA00C60100000000F202C20222039C02BA02FB
:102DDA00AB029D020000000086063A072203210387
:102DEA000000000042033A07220321034269656E8C
:102DFA0076656E69646F000D0A0050726F677261C2
:102E0A006D6120526F6C61646F7261006D6D007646
:102E1A00656C0074656D70006365726F000A0D0061
:102E2A007465737400727574696E617469656D7026
:0E2E3A006F006E616E00696E66006F76660056
:00000001FF
