:100000000C9457010C94F4090C94C9090C949E09A2
:100010000C9473090C9448090C941D090C94F20873
:100020000C94C7080C9488010C9488010C948801E6
:100030000C9488010C9488010C9488010C9488011C
:100040000C9488010C9488010C9488010C9488010C
:100050000C9492060C9488010C9488010C947D08F1
:100060000C9488010C9485040C945B040C94880116
:100070000C9488010C9488010C9488010C948801DC
:100080000C9488010C9488010C9488010C948801CC
:100090000C9488010C9488010C9488010C94BB0486
:1000A0000C9488010C9488010C9488010C948801AC
:1000B0000C9488010C9488010C9488010C9488019C
:1000C0000C9488010C9488010C9488010C9488018C
:1000D0000C9488010C9488010C9488010C9488017C
:1000E0000C948801B907BC07AB07AF07B307F30748
:1000F000C007C407CA07CE07D207D807DC07E00746
:10010000F307E607EA07EE070C94AB070C94E60743
:100110000C94EE070C94BC070C94EA070C94940121
:100120000C94CE070C94B9070C94B6030C949C0263
:100130000C94C0070C94DC070C948E020C94AB0258
:100140000C9426130C94D3030C94CA070C94C50189
:100150000C9413030C9426070C94C4070C941603F8
:100160000C94B3020C94AF070C94B3070C94F201F7
:100170000C94E0070C94A3010C94D2070C941E0776
:100180000C9412030C9439020C94D8070C948C062E
:100190000C94B7010C94E3020C9420130C94F30715
:1001A0000C948D0200002100240027002A002D005D
:1001B0003000330001010000040107010A010000C2
:1001C0002200250028002B002E00310034000201FF
:1001D0000000050108010B010505050507050808D4
:1001E0000808020202020A0A0808040404040101C1
:1001F00001010101010103030303030303030407D6
:1002000007070C0C0C0C0C0C0C0C0202020206066C
:100210000606060606060B0B0B0B0B0B0B0B01025F
:100220001020200808102040102040800201020108
:1002300008040201010204081020408080402010C0
:100240000804020180040201804020100804020119
:100250000804020101020408102040800102040881
:100260001020408000000A0B02090C0D0E08070345
:100270000401000000000000000000000000000079
:10028000000000000000000000000000000000006E
:10029000121110000000000000000000000000002B
:1002A00000000000000000000000261320131124AD
:1002B0001FBECFEFD1E2DEBFCDBF00E00CBF24E018
:1002C000A0E6B3E001C01D92AC3FB207E1F713E036
:1002D000A0E0B2E0E4E5F0E300E00BBF02C007906D
:1002E0000D92A036B107D9F711E0C6E5D1E000E0E4
:1002F00006C021970109802FFE010E94DC15C5353B
:10030000D10780E00807A9F70E945C0C0C9418182C
:100310000C94000088E394E00E94C50121E0892B41
:1003200009F420E0822F0895FC01538D448D252F80
:1003300030E0842F90E0821B930B541710F0CF967F
:10034000089501970895FC01918D828D981761F0B1
:10035000828DDF01A80FB11D5D968C91928D9F5FFC
:100360009F73928F90E008958FEF9FEF0895FC01A7
:10037000918D828D981731F0828DE80FF11D858D5A
:1003800090E008958FEF9FEF0895FC01918D228DED
:10039000892F90E0805C9F4F821B91098F73992772
:1003A0000895FC01848DDF01A80FB11DA35ABF4F32
:1003B0002C91848D90E001968F739927848FA68964
:1003C000B7892C93A089B1898C9180648C93938D8B
:1003D000848D981306C00288F389E02D80818F7D7B
:1003E00080830895EF92FF920F931F93CF93DF9333
:1003F000EC0181E0888F9B8D8C8D981305C0E88976
:10040000F989808185FD24C0F62E0B8D10E00F5FE9
:100410001F4F0F731127E02E8C8DE8120CC00FB602
:1004200007FCFACFE889F989808185FFF5CFCE01F5
:100430000E94D101F1CF8B8DFE01E80FF11DE35A2F
:10044000FF4FF0820B8FEA89FB898081806207C0B1
:10045000EE89FF896083E889F989808180648083DF
:1004600081E090E0DF91CF911F910F91FF90EF908D
:100470000895CF93DF93EC01888D8823C9F0EA8932
:10048000FB89808185FD05C0A889B9898C9186FD8D
:100490000FC00FB607FCF5CF808185FFF2CFA8898A
:1004A000B9898C9185FFEDCFCE010E94D101E7CFB4
:1004B000DF91CF91089585ED8093BC008091BC00C1
:1004C00084FDFCCF1092620308954091EB03262F28
:1004D00030E0240F311D21323105DCF4209162031C
:1004E0002430C9F4FC0180E090E0861758F4309184
:1004F000EB032191DC01A753BC4FA30FB11D2C933B
:100500000196F3CF8091EB03680F6093EB0380E0DB
:10051000089581E0089582E00895089581E090E0D3
:100520003091660320916503321710F480E090E06B
:100530009195819591090895809166039091650345
:10054000891730F48F5F8093660380E090E0089510
:100550008FEF9FEF08958091650390E020916603EF
:10056000821B91090895CF92DF92EF92FF920F9331
:100570001F93CF93DF937C01262F972F8A018091C1
:10058000C803882391F0C62FD72F6E01C40ED51E45
:10059000CC15DD0571F06991D701ED91FC910190C9
:1005A000F081E02DC7011995F3CF642F822F0E94AF
:1005B0006502C801DF91CF911F910F91FF90EF90DD
:1005C000DF90CF900895CF93DF931F92CDB7DEB722
:1005D00069832091C8032223D1F020916303203244
:1005E00040F021E030E0FC013383228380E090E0A2
:1005F00015C080916403E82FF0E0E855FC4F998125
:1006000090838F5F809364038093630305C061E0F0
:10061000CE0101960E94650281E090E00F90DF918B
:10062000CF910895089580E090E008950F931F936F
:1006300082B385FB882780F98093A5032FB7F894B0
:100640008091340490913504A0913604B091370420
:100650002FBF4091A1035091A2036091A303709119
:10066000A403841B950BA60BB70B80939D0390935B
:100670009E03A0939F03B093A0032FB7F89480919B
:10068000340490913504A0913604B09137042FBF03
:100690008093A1039093A203A093A303B093A40318
:1006A00080919D0390919E03A0919F03B091A00320
:1006B0000397A105B10520F081E08093060202C0F6
:1006C0001092060280910602882309F44CC08091A2
:1006D000A503811103C081E090E002C08FEF9FEF7E
:1006E00040916E0350916F0360917003709171039C
:1006F000092E000CAA0BBB0B8A019B01081B190BCE
:100700002A0B3B0B00936E0310936F03209370032F
:10071000309371038091A503811103C081E090E0C3
:1007200002C08FEF9FEF40916A0350916B0360917D
:100730006C0370916D03092E000CAA0BBB0B8A0190
:100740009B01081B190B2A0B3B0B00936A031093A8
:100750006B0320936C0330936D039091690381E0E8
:100760008927809369031F910F91089580917603E3
:10077000909177030196909377038093760380910D
:10078000720390917303A0917403B0917503019665
:10079000A11DB11D8093720390937303A093740302
:1007A000B093750308950E94FA17FF920F931F9359
:1007B000CF93DF931F921F92CDB7DEB788E394E00B
:1007C0000E94C501892BD1F188E394E00E94A30126
:1007D000F82E89831A820091E5041091E6040F5FD8
:1007E0001F4FB80181EE94E00E943E0A882399F0E1
:1007F0002091E1043091E2048091E5049091E604B7
:10080000BE016F5F7F4F820F931F0E9411181093DC
:10081000E6040093E5048DE0F81204C081E08093C3
:10082000A6030CC080E2F81209C00F900F90DF9170
:10083000CF911F910F91FF900C94900A0F900F9001
:10084000DF91CF911F910F91FF9008950E948A012F
:10085000811125C080E090E0892B41F080E090E09C
:10086000892B21F00E94000081111CC080E090E0E3
:10087000892B41F080E090E0892B21F00E9400005C
:10088000811113C080E090E0892BA1F080E090E01E
:10089000892B81F00E94000081110AC008950E94F6
:1008A000D503D8CF0E940000E1CF0E940000EACF1C
:1008B0000C94000008951F920F920FB60F9211240E
:1008C0000BB60F922F933F934F935F936F937F934A
:1008D0008F939F93AF93BF93EF93FF9388E394E03D
:1008E0000E94D101FF91EF91BF91AF919F918F91A4
:1008F0007F916F915F914F913F912F910F900BBE20
:100900000F900FBE0F901F9018951F920F920FB669
:100910000F9211240BB60F922F938F939F93EF9307
:10092000FF93E0914804F09149048081E0914E04E6
:10093000F0914F0482FD12C09081809151048F5F2D
:100940008F7320915204821751F0E0915104F0E02E
:10095000E85CFB4F958F8093510401C08081FF912B
:10096000EF919F918F912F910F900BBE0F900FBE23
:100970000F901F9018951F920F920FB60F9211248F
:100980000BB60F922F933F934F935F936F937F9389
:100990008F939F93AF93BF93EF93FF938091B90091
:1009A000887F803609F49CC068F5883209F45BC002
:1009B00090F4803109F454C038F4882309F4F6C067
:1009C000883009F44DC0F6C0883109F44CC080323B
:1009D00009F45DC0EFC0803409F468C048F4803386
:1009E00009F455C0883309F0E5C080931004D8C0DD
:1009F000803509F44FC0883509F45DC0883409F0AA
:100A0000D9C0D6C0883909F4C7C0A8F4883709F41A
:100A100067C038F4883609F463C0803709F460C0D1
:100A2000C9C0883809F4B8C0803909F45FC080387B
:100A300009F0C0C05BC0803B09F486C038F4803A3E
:100A400009F466C0883A09F47FC0B4C0803C09F458
:100A5000A7C0883C09F4A4C0883B09F48AC0AAC096
:100A60008091330410C09091320480913104981722
:100A700070F5E091320481E08E0F80933204F0E053
:100A8000EF5EFB4F80818093BB0085EC86C0809336
:100A900010048EC0E091320481E08E0F8093320406
:100AA0008091BB00F0E0EF5EFB4F808390913204B9
:100AB000809131046EC0E091320481E08E0F80930A
:100AC00032048091BB00F0E0EF5EFB4F80838091A9
:100AD000610381116DC081E08093600384EA61C08D
:100AE00083E08093620310920F04CFCF80910F04B4
:100AF000803208F051C0E0910F0481E08E0F8093A6
:100B00000F048091BB00F0E0E151FC4F8083BDCF2A
:100B100085EC8093BC001092620380910F048032B8
:100B200030F4E0910F04F0E0E151FC4F108260914D
:100B30000F0470E0E091ED03F091EE038FEE93E08F
:100B4000199510920F0436C084E0809362031092CE
:100B5000EC031092EB03E091E903F091EA0319959D
:100B60008091EB03811105C081E08093EB0310922B
:100B7000C903E091EC0381E08E0F8093EC03F0E079
:100B8000E753FC4F80818093BB009091EC038091F0
:100B9000EB03981708F479CF85E88093BC000AC06E
:100BA00085EC8093BC001092620304C01092100484
:100BB0000E945B02FF91EF91BF91AF919F918F9146
:100BC0007F916F915F914F913F912F910F900BBE4D
:100BD0000F900FBE0F901F901895CF93FC01C4810A
:100BE00021E02093C803C093A703109264031092DE
:100BF00063038385682B85ED94E00E94E302809176
:100C00006303813208F046C0909162039111FCCFDA
:100C100092E09093620391E0909361039FEF909331
:100C200010041092320480933104A8EAB3E021E169
:100C300034E0F9019E2F921B981718F49D9191931F
:100C4000F9CF1092330480913304CC0FC82BC0939A
:100C5000330480916003813061F4109260038091CD
:100C600033048093BB008091BC0083FDF8CF85ECFA
:100C700001C085EE8093BC00809162038230E1F375
:100C8000809110048F3F31F080911004803211F078
:100C90008091100410926403109263031092C803B1
:100CA000CF9108950F931F93CF938C01C62F0E946D
:100CB000ED056C2F6460C8010E94ED056C2F6B7F01
:100CC000C8010E94ED0583EC90E00197F1F7CF9108
:100CD0001F910F910895FF920F931F93CF93DF936E
:100CE0001F92CDB7DEB78C01F62E962F907F692F1D
:100CF000642BC80149830E94520680E1F89EB0012E
:100D000011244981642BC8010F90DF91CF911F916D
:100D10000F91FF900C94520641E00E946B0681E017
:100D200090E008951F920F920FB60F9211240BB608
:100D30000F922F933F934F935F936F937F938F9374
:100D40009F93AF93BF93EF93FF93E0916703F0916D
:100D500068031995FF91EF91BF91AF919F918F918A
:100D60007F916F915F914F913F912F910F900BBEAB
:100D70000F900FBE0F901F90189560E085E20E94C3
:100D80008A0760E084E20E948A0760E087E20E94AE
:100D90008A0760E088E20E948A0760E089E20C949A
:100DA0008A0761E08CE00E948A0761E087E20E9486
:100DB0008A0760E084E20E948A0761E088E20E947C
:100DC0008A0761E08FE20C948A0761E08CE00E9460
:100DD0008A0761E084E20E948A0761E089E20E945A
:100DE0008A0761E087E20E948A0760E08FE20C9444
:100DF0008A073FB7F8948091F4049091F504A0918C
:100E0000F604B091F70426B5A89B05C02F3F19F052
:100E10000196A11DB11D3FBFBA2FA92F982F88277A
:100E2000820F911DA11DB11DBC01CD0142E0660FD5
:100E3000771F881F991F4A95D1F708950895DC01FF
:100E4000ED91FC910190F081E02D1994CF92DF9209
:100E5000EF92FF920F931F93CF93DF936C017A0170
:100E60008B01C0E0D0E0CE15DF0589F0D8016D918F
:100E70008D01D601ED91FC910190F081E02DC6012C
:100E80001995892B11F47E0102C02196ECCFC70180
:100E9000DF91CF911F910F91FF90EF90DF90CF9056
:100EA0000895CF93DF93CDB7DEB728970FB6F894A8
:100EB000DEBF0FBECDBF98E0E1E5F2E0DE011196A6
:100EC00001900D929A95E1F79091F004981710F423
:100ED0008FEF890FFE013196E80FF11DE80FF11D2C
:100EE0006081606840E087EE94E028960FB6F89441
:100EF000DEBF0FBECDBFDF91CF910C946B0640E0FB
:100F000061E087EE94E00E946B068BE39FE101971E
:100F1000F1F70895362F90E0FC01EC59FD4F449114
:100F2000FC01E25EFD4F2491FC01E852FE4F9491DA
:100F3000992309F46BC0442309F455C050E0FA0129
:100F40003197E231F10508F04EC08827EE58FF4F87
:100F50008F4F0C94DC15809180008F7707C08091B3
:100F600080008F7D03C080918000877F8093800008
:100F70003AC084B58F7702C084B58F7D84BD33C0FD
:100F80008091B0008F7703C08091B0008F7D8093F7
:100F9000B00029C0809190008F7707C080919000A9
:100FA0008F7D03C080919000877F809390001BC04D
:100FB0008091A0008F7707C08091A0008F7D03C033
:100FC0008091A000877F8093A0000DC080912001B8
:100FD0008F7707C0809120018F7D03C08091200111
:100FE000877F80932001E92FF0E0EE0FFF1FE2548E
:100FF000FE4FA591B4918FB7F894EC91311103C0D5
:1010000020952E2301C02E2B2C938FBF0895CF93B4
:10101000DF9390E0FC01E25EFD4F2491FC01E85279
:10102000FE4F8491882361F190E0880F991FFC01A5
:10103000EC55FE4FC591D491FC01E254FE4FA591B1
:10104000B491611109C09FB7F894888120958223DB
:101050008883EC912E230BC0623061F49FB7F89423
:101060003881822F809583238883EC912E2B2C93BB
:101070009FBF06C08FB7F894E8812E2B28838FBFBF
:10108000DF91CF9108958F929F92AF92BF92CF92AE
:10109000DF92EF92FF926B017C010E94F9064B01F7
:1010A0005C01C114D104E104F104F1F00E94F906DD
:1010B000DC01CB0188199909AA09BB09883E934034
:1010C000A105B10570F321E0C21AD108E108F108C9
:1010D00088EE880E83E0981EA11CB11CC114D104B7
:1010E000E104F10419F7DDCFFF90EF90DF90CF908E
:1010F000BF90AF909F908F9008951F920F920FB660
:101100000F9211242F933F938F939F93AF93BF938D
:101110008091340490913504A0913604B091370445
:101120003091F30423E0230F2D3720F40196A11D05
:10113000B11D05C026E8230F0296A11DB11D209305
:10114000F3048093340490933504A0933604B09351
:1011500037048091F4049091F504A091F604B091C5
:10116000F7040196A11DB11D8093F4049093F5043A
:10117000A093F604B093F704BF91AF919F918F9124
:101180003F912F910F900FBE0F901F9018951F92B7
:101190000F920FB60F9211240BB60F922F933F931D
:1011A0004F935F936F937F938F939F93AF93BF936F
:1011B000EF93FF93E0911502F09116021995FF91BC
:1011C000EF91BF91AF919F918F917F916F915F91BF
:1011D0004F913F912F910F900BBE0F900FBE0F902C
:1011E0001F9018951F920F920FB60F9211240BB6F5
:1011F0000F922F933F934F935F936F937F938F93B0
:101200009F93AF93BF93EF93FF93E0911302F091FD
:1012100014021995FF91EF91BF91AF919F918F911A
:101220007F916F915F914F913F912F910F900BBEE6
:101230000F900FBE0F901F9018951F920F920FB630
:101240000F9211240BB60F922F933F934F935F93FE
:101250006F937F938F939F93AF93BF93EF93FF937E
:10126000E0910902F0910A021995FF91EF91BF9167
:10127000AF919F918F917F916F915F914F913F912E
:101280002F910F900BBE0F900FBE0F901F901895CF
:101290001F920F920FB60F9211240BB60F922F933D
:1012A0003F934F935F936F937F938F939F93AF93EE
:1012B000BF93EF93FF93E0910702F0910802199515
:1012C000FF91EF91BF91AF919F918F917F916F911E
:1012D0005F914F913F912F910F900BBE0F900FBEDA
:1012E0000F901F9018951F920F920FB60F92112416
:1012F0000BB60F922F933F934F935F936F937F9310
:101300008F939F93AF93BF93EF93FF93E09111025D
:10131000F09112021995FF91EF91BF91AF919F91BA
:101320008F917F916F915F914F913F912F910F908E
:101330000BBE0F900FBE0F901F9018951F920F922B
:101340000FB60F9211240BB60F922F933F934F932A
:101350005F936F937F938F939F93AF93BF93EF931D
:10136000FF93E0910F02F09110021995FF91EF9118
:10137000BF91AF919F918F917F916F915F914F91AD
:101380003F912F910F900BBE0F900FBE0F901F90AB
:1013900018951F920F920FB60F9211240BB60F9251
:1013A0002F933F934F935F936F937F938F939F936D
:1013B000AF93BF93EF93FF93E0910D02F0910E0274
:1013C0001995FF91EF91BF91AF919F918F917F916F
:1013D0006F915F914F913F912F910F900BBE0F90A6
:1013E0000FBE0F901F9018951F920F920FB60F927D
:1013F00011240BB60F922F933F934F935F936F93EC
:101400007F938F939F93AF93BF93EF93FF93E0915D
:101410000B02F0910C021995FF91EF91BF91AF91E2
:101420009F918F917F916F915F914F913F912F91FC
:101430000F900BBE0F900FBE0F901F901895FC01E0
:1014400024813581232B31F421E061157105A1F050
:10145000FB0108C0FC01808191816115710531F4A7
:1014600021E0FC018081882339F005C00E94081822
:1014700021E0892B09F020E0822F08950F931F931C
:10148000CF93DF93EC0188819981009729F02A811D
:101490003B812617370788F48B016F5F7F4F0E94CF
:1014A0001117009761F0998388831B830A832C812D
:1014B0003D81232B11F4FC01108281E001C080E00A
:1014C000DF91CF911F910F910895EF92FF920F93AB
:1014D0001F93CF93DF93EC017B018A01BA010E9435
:1014E0003E0A2881398181110DC02115310519F07D
:1014F000C9010E947916198218821D821C821B82E2
:101500001A8206C01D830C83B701C9010E941118FD
:10151000CE01DF91CF911F910F91FF90EF90089531
:1015200040E050E06FEC72E081EE94E00E94650ACA
:1015300081EE94E008956115710579F0FB01019049
:101540000020E9F73197AF01461B570BDC01ED9105
:10155000FC910280F381E02D199480E090E00895E1
:10156000CF93DF93BC0188E394E00E949B0AEC01D7
:101570006DEC72E088E394E00E949B0A8C0F9D1F43
:10158000DF91CF9108954F925F926F927F92EF9289
:10159000FF920F931F93CF93DF93CDB7DEB7A19741
:1015A0000FB6F894DEBF0FBECDBF7C01FA01CB01B0
:1015B00019A2223008F42AE08E010F5D1F4F422E3F
:1015C000512C612C712CBF01A30192010E94BA150C
:1015D000F901CA01015011096A3014F4605D01C0BB
:1015E000695CD8016C93232B242B252B61F7B80160
:1015F000C7010E949B0AA1960FB6F894DEBF0FBEEA
:10160000CDBFDF91CF911F910F91FF90EF907F9011
:101610006F905F904F900895CF92DF92EF92FF927C
:10162000CF93DF93AB01BC0177FF1DC06A017B0143
:101630006DE288E394E00E941F07EC0144275527E0
:10164000BA014C195D096E097F092AE088E394E02C
:101650000E94C30A8C0F9D1FDF91CF91FF90EF90E6
:10166000DF90CF9008952AE088E394E0DF91CF9156
:10167000FF90EF90DF90CF900C94C30ACF93DF934D
:10168000BC01990F880B990B0E940C0BEC016DECBF
:1016900072E088E394E00E949B0A8C0F9D1FDF910B
:1016A000CF910895CF93DF930E940C0BEC016DEC6A
:1016B00072E088E394E00E949B0A8C0F9D1FDF91EB
:1016C000CF910895CF93DF93AC0160E070E02AE002
:1016D00088E394E00E94C30AEC016DEC72E088E3B9
:1016E00094E00E949B0A8C0F9D1FDF91CF9108957B
:1016F0004F925F926F927F928F929F92AF92BF9222
:10170000CF92DF92EF92FF92CF93DF93EC016A01C9
:101710007B01B22E9A01AB01C701B6010E94B5153B
:10172000882319F064E573E027C026013701E894A7
:1017300077F82FEF3FEF4FE75FE7C301B2010E9459
:10174000B51581110DC02FEF3FEF4FE75FE7C301E4
:10175000B2010E947E1318161CF468E573E00CC0F9
:101760002FEF3FEF4FE75FE4C701B6010E94B015CE
:1017700018169CF46CE573E0CE01DF91CF91FF90D9
:10178000EF90DF90CF90BF90AF909F908F907F9021
:101790006F905F904F900C949B0A2FEF3FEF4FE7B5
:1017A0005FECC701B6010E947E1387FDE3CF20E006
:1017B00030E0A901C701B6010E947E1387FF0AC06D
:1017C0006DE2CE010E941F074C01F7FAF094F7F882
:1017D000F09402C0812C912CA12C60E070E080E09C
:1017E0009FE3AB1441F020E030E040E251E40E947E
:1017F0000F15A394F6CF9B01AC01C701B6010E945F
:10180000A3142B013C010E9481156B017C010E94F5
:1018100083139B01AC01C301B2010E94A2142B01EE
:101820003C012AE0B701A601CE010E94C30A7C0157
:10183000E80CF91CBB2031F06EE2CE010E941F07BC
:10184000E80EF91EDB2CDD2029F120E030E040E23B
:1018500051E4C301B2010E94E4132B013C010E9438
:1018600081154B01A12CB12C2AE0B501A401CE01B8
:101870000E94C30AE80EF91EC501B4010E94831339
:101880009B01AC01C301B2010E94A2142B013C01D7
:10189000DA94D9CFC701DF91CF91FF90EF90DF901D
:1018A000CF90BF90AF909F908F907F906F905F9000
:1018B0004F9008950C949B0ACF93DF93CDB7DEB77A
:1018C0002A970FB6F894DEBF0FBECDBF789484B5CB
:1018D000826084BD84B5816084BD85B5826085BD2C
:1018E00085B5816085BD80916E00816080936E00BA
:1018F00010928100809181008260809381008091AC
:10190000810081608093810080918000816080935C
:1019100080008091B10084608093B1008091B0001C
:1019200081608093B00080919100826080939100EB
:1019300080919100816080939100809190008160FE
:10194000809390008091A10082608093A10080919B
:10195000A10081608093A1008091A00081608093AC
:10196000A00080912101826080932101809121015A
:10197000816080932101809120018160809320010A
:1019800080917A00846080937A0080917A008260EE
:1019900080937A0080917A00816080937A008091B0
:1019A0007A00806880937A001092C100E091480428
:1019B000F091490482E08083E0914404F091450471
:1019C0001082E0914604F09147048FEC80831092DE
:1019D0005004E0914C04F0914D0486E08083E09146
:1019E0004A04F0914B04808180618083E0914A0435
:1019F000F0914B04808188608083E0914A04F091EB
:101A00004B04808180688083E0914A04F0914B040C
:101A100080818F7D808385E992E00E94B00A8DE00D
:101A200090E00E94620B8DE090E09093830380939E
:101A30008203109286031092850310928A031092FB
:101A4000890380E090E02091890330918A032D3052
:101A5000310510F5E0918903F0918A03EE0FFF1F25
:101A6000E95CFD4F208131818217930750F4E091AA
:101A70008903F0918A03EE0FFF1FE95CFD4F80811F
:101A800091812091890330918A032F5F3F4F3093DA
:101A90008A0320938903D7CF90938603809385038D
:101AA0000E94620B0FB6F894A8958091600088613F
:101AB00080936000109260000FBE99E288E10FB63B
:101AC000F894A895809360000FBE909360001092E8
:101AD0008A031092890380E1809381001092800034
:101AE00081E080937F0320E43FE130937E032093E5
:101AF0007D03309387002093860091E190938100CD
:101B000026EB33E0309368032093670380936F00E4
:101B1000109266031092650310926403109263039F
:101B200010926203809361031092600361E084E18C
:101B30000E948A0761E085E10E948A078091B900CE
:101B40008E7F8093B9008091B9008D7F8093B9001A
:101B500088E48093B80085E48093BC001092EC0484
:101B60008091F004823018F098E09093EC0490910A
:101B7000F104992339F0813029F48091EC048460D8
:101B80008093EC0462E370E080E090E00E94430800
:101B90006091F20487EE94E00E94ED0568EE73E038
:101BA00080E090E00E94430860E387EE94E00E94AA
:101BB00052060BE416E4C8010197F1F760E387EEE3
:101BC00094E00E945206C8010197F1F760E387EEA6
:101BD00094E00E94520683E592E00197F1F760E2FB
:101BE00087EE94E00E9452066091EC04606240E04F
:101BF00087EE94E00E946B0684E08093ED0440E061
:101C00006CE087EE94E00E946B060E947F0782E002
:101C10008093EE0440E066E087EE94E00E946B065D
:101C200040E062E087EE94E00E946B068BE39FE168
:101C30000197F1F7109272031092730310927403DC
:101C40001092750368EC70E081EE94E00E943E0A09
:101C500084EF91E090937C0380937B0390937A03CD
:101C60008093790360E084E00E94070860E084E0EC
:101C70000E948A0786E193E090930A02809309020A
:101C800080916A008C6080936A00ED9A61E083E243
:101C90000E94070860E083E20E948A0761E086E212
:101CA0000E94070860E086E20E948A0761E089E2FC
:101CB0000E94070860E089E20E948A0761E08FE2E3
:101CC0000E94070860E08FE20E948A0761E087E2D5
:101CD0000E94070860E087E20E948A0761E08CE0CA
:101CE0000E94070860E08CE00E948A0761E088E2B9
:101CF0000E94070860E088E20E948A0761E084E2AF
:101D00000E94070860E084E20E948A0761E085E2A1
:101D10000E94070860E085E20E948A07109269032A
:101D200010928D031092780380E00E94510760EAC0
:101D300072E087EE94E00E945A0C81E00E94510705
:101D400065E972E087EE94E00E945A0C60ED77E05E
:101D500080E090E00E9443080E947F0760916E033C
:101D600070916F0380917003909171032091000234
:101D70003091010240910202509103022F83388773
:101D800049875A870E9485132F81388549855A854E
:101D90000E94E41360938E0370938F0380939003EB
:101DA0009093910380E00E94510740918E035091DF
:101DB0008F03609190037091910322E087EE94E08D
:101DC0000E94780B62EB72E087EE94E00E945A0C5E
:101DD00081E00E94510765EB72E087EE94E00E947B
:101DE0005A0C81E08093040211E000E150E4C52E1A
:101DF0005FE1D52E61E1962E74EFA72EBB24B3943C
:101E00001A8219821C821B821E821D826091E1044B
:101E10007091E2046115710541F04091E504509123
:101E2000E604CE0101960E94650A67EB72E0CE01DE
:101E300001960E941F0A882321F0109304020E9439
:101E4000900A6DEB72E0CE0101960E941F0A882372
:101E500021F0109204020E94900A64EC72E0CE011C
:101E600001960E941F0A81112AC068EC72E0CE011F
:101E700001960E941F0A882309F4C9C010928100AC
:101E8000109285001092840080917F03806180937E
:101E9000810080E1809381001092800081E0809336
:101EA0007F0380E49FE190937E0380937D03909372
:101EB00087008093860081E1809381009DC010920D
:101EC0008100109285001092840080917F038061D0
:101ED00080938100009381001092800010937F0313
:101EE000D0927E03C0927D03D0928700C09286007C
:101EF000909281008091720390917303A09174037A
:101F0000B0917503892B8A2B8B2B09F4AECF60918E
:101F100072037091730380917403909175030E9412
:101F2000520B61E086E20E948A0780916E039091D5
:101F30006F03A0917003B09171038C399F4FAF4F25
:101F4000BF4FC1F60093810060E086E20E948A07DD
:101F500060916E0370916F03809170039091710393
:101F6000209100023091010240910202509103023F
:101F70002F83388749875A870E9485132F81388598
:101F800049855A850E94E41360938E0370938F03F2
:101F9000809390039093910340918E0350918F030F
:101FA000609190037091910322E088E394E00E9495
:101FB000780B6DEC72E088E394E00E949B0A6091DC
:101FC00072037091730380917403909175030E9462
:101FD000520B1092720310927303109274031092BA
:101FE000750310926E0310926F031092700310929B
:101FF00071030E94900A7ECF609172037091730307
:1020000080917403909175030E94520BF5CF60ED9F
:1020100072E0CE0101960E941F0A882309F442C093
:10202000B0927C03A0927B03B0927A03A0927903D2
:102030004091E5045091E6046091E1047091E2045E
:1020400088E394E00E9426076DEC72E088E394E058
:102050000E949B0A65ED72E088E394E00E945A0CAE
:1020600060917B0370917C03072E000C880B990B09
:102070000E940C0B65ED72E088E394E00E945A0C1C
:102080006091790370917A03072E000C880B990BED
:102090000E940C0B65ED72E088E394E00E945A0CFC
:1020A0000E94900A89819A810E94791668ED72E0F7
:1020B00081EE94E00E941F0A8823D1F185EE92E020
:1020C0000E94B00A1092040210939303109392039B
:1020D000109277031092760310927203109273039A
:1020E000109274031092750310928E0310928F0356
:1020F000109290031092910310938D0310926E032F
:1021000010926F03109270031092710310926A0381
:1021100010926B0310926C0310926D0310928C035B
:1021200010928B0310928A03109289030E94900AE6
:1021300064EF72E081EE94E00E941F0A8823F1F1BF
:1021400082E093E00E94B00A10920402109393037D
:102150001093880310928A031092890310927703D8
:10216000109276031092720310927303109274030C
:102170001092750310928C0310928B0310928E03B1
:1021800010928F03109290031092910310938D037D
:1021900010926E0310926F031092700310927103ED
:1021A00010926A0310926B0310926C0310926D03ED
:1021B00010928C0310928B030E94900A8091690305
:1021C0008111F4C180918D038111F0C1809193033D
:1021D000882309F4A9C02091760330917703E09118
:1021E0008903F0918A03EE0FFF1FE95CFD4F8081A8
:1021F00091818217930708F097C02091890330914D
:102200008A0380918203909183038217930708F4D5
:102210008BC0E0908903F0908A030197E816F906D5
:1022200008F008C260E173E088E394E00E945A0C71
:10223000F701EE0FFF1FE15EFD4F60807180B3017B
:10224000072C000C880B990B0E940C0B62E273E0C8
:1022500088E394E00E945A0CF701EE0FFF1FE35E43
:10226000FD4FE080F180B7010F2C000C880B990B1B
:102270000E940C0B60E273E088E394E00E945A0C29
:10228000C3018E199F0990938103809380030E945C
:102290003E0B8091800390918103181619060CF073
:1022A000C6C11092870364E273E088E394E00E9461
:1022B0005A0C8091890390918A030E94620B68E214
:1022C00073E088E394E00E945A0CE0918903F09156
:1022D0008A03EE0FFF1FE95CFD4F808191810E9410
:1022E0003E0B8091890390918A03019690938A0313
:1022F00080938903109384031092720310927303E6
:10230000109274031092750380918803882341F022
:1023100010926E0310926F0310927003109271036B
:1023200061E085E20E948A0780918803882309F48E
:10233000C5C08091870390918403992309F4BCC0A0
:10234000882379F10E94E50680916E0390916F03D6
:10235000A0917003B0917103181619061A061B0696
:1023600074F480916E0390916F03A0917003B0910B
:102370007103181619061A061B0684F09FC0809177
:102380006E0390916F03A0917003B09171031816C2
:1023900019061A061B0609F00CF490C067E373E0F7
:1023A0002EC00E94D10680916E0390916F03A09180
:1023B0007003B0917103181619061A061B0674F4FF
:1023C00080916E0390916F03A0917003B09171039F
:1023D000181619061A061B0684F070C080916E0349
:1023E00090916F03A0917003B091710318161906B4
:1023F0001A061B0609F00CF461C06DE373E088E374
:1024000094E00E945A0C0E94BD06109284038091B1
:102410006E0390916F03A0917003B0917103181631
:1024200019061A061B064CF480916E0390916F03F7
:10243000A0917003B09171030FC080916E039091D1
:102440006F03A0917003B0917103B095A095909522
:1024500081959F4FAF4FBF4F0297A105B10574F112
:1024600020918B0330918C0380916E0390916F03C8
:10247000A0917003B0917103181619061A061B0675
:102480004CF480916E0390916F03A0917003B09112
:1024900071030BC080916E0390916F03A091700344
:1024A000B0917103919581959109820F931F90933B
:1024B0008C0380938B0302C00E94BD06809192031F
:1024C000882389F18091870390918403992349F1AE
:1024D000882391F00E94E506809172039091730326
:1024E000A0917403B0917503893C9105A105B105D4
:1024F000D4F087E393E011C00E94D106809172036B
:1025000090917303A0917403B0917503893C910578
:10251000A105B10544F08DE393E00E94B00A10924A
:1025200084030E94BD062091760330917703809149
:102530008503909186038217930758F510927703CD
:1025400010927603109293031092880310929203D4
:1025500060E08FE20E948A0783E493E00E94B00A61
:1025600080918B0390918C030E943E0B0E94BD06CC
:102570000E947F0780E00E9451076EE473E087EEBF
:1025800094E00E945A0C60ED77E080E090E00E94B9
:10259000430880918803811105C0809192038823AC
:1025A00009F44BC0A8950E9426042ACC0E947F07FC
:1025B00060916A0370916B0380916C0390916D033D
:1025C00020910002309101024091020250910302D9
:1025D0002F83388749875A870E9485132F81388532
:1025E00049855A850E94E41360938E0370938F038C
:1025F000809390039093910380E00E945107409153
:102600008E0350918F03609190037091910322E0AB
:1026100087EE94E00E94780B62EB72E087EE94E024
:102620000E945A0C1092690310928D03CFCD892B12
:1026300009F439CE1093870336CE0E94BD06B2CF7F
:102640008091E1049091E2040C947916E8E3F4E0BF
:102650001382128288EE93E0A0E0B0E08483958339
:10266000A683B7832DE532E03183208325EC30E06B
:102670003587248724EC30E03787268720EC30E04C
:10268000318B208B21EC30E0338B228B22EC30E03D
:10269000358B248B26EC30E0378B268B118E128EF7
:1026A000138E148EE5EDF4E01382128284839583F9
:1026B000A683B7838FE692E091838083E7EEF4E010
:1026C0001382128281E892E09183808387E284837F
:1026D00084E1808784E08187128688E08387E1EE49
:1026E000F4E011821082138212821582148240E07B
:1026F00050E06FEC72E0CF010C94650A0E94C013A9
:1027000008F481E00895E89409C097FB3EF49095A1
:102710008095709561957F4F8F4F9F4F9923A9F0BA
:10272000F92F96E9BB279395F69587957795679549
:10273000B795F111F8CFFAF4BB0F11F460FF1BC08D
:102740006F5F7F4F8F4F9F4F16C0882311F096E920
:1027500011C0772321F09EE8872F762F05C06623CE
:1027600071F096E8862F70E060E02AF09A95660F87
:10277000771F881FDAF7880F9695879597F9089540
:10278000990F0008550FAA0BE0E8FEEF1616170682
:10279000E807F907C0F012161306E407F50798F0EA
:1027A000621B730B840B950B39F40A2661F0232B03
:1027B000242B252B21F408950A2609F4A140A6957F
:1027C0008FEF811D811D08950E94F7130C946814EA
:1027D0000E945A1438F00E94611420F0952311F0E1
:1027E0000C9451140C94571411240C949C140E94B2
:1027F000791470F3959FC1F3950F50E0551F629FB8
:10280000F001729FBB27F00DB11D639FAA27F00D49
:10281000B11DAA1F649F6627B00DA11D661F829F70
:102820002227B00DA11D621F739FB00DA11D621F55
:10283000839FA00D611D221F749F3327A00D611D72
:10284000231F849F600D211D822F762F6A2F112454
:102850009F5750409AF0F1F088234AF0EE0FFF1F87
:10286000BB1F661F771F881F91505040A9F79E3FDE
:10287000510580F00C9451140C949C145F3FE4F3C8
:10288000983ED4F3869577956795B795F795E79534
:102890009F5FC1F7FE2B880F911D9695879597F93D
:1028A000089597F99F6780E870E060E008959FEFD2
:1028B00080EC089500240A941616170618060906D7
:1028C000089500240A9412161306140605060895A6
:1028D000092E0394000C11F4882352F0BB0F40F42E
:1028E000BF2B11F460FF04C06F5F7F4F8F4F9F4F6E
:1028F000089557FD9058440F551F59F05F3F71F0F0
:102900004795880F97FB991F61F09F3F79F0879556
:102910000895121613061406551FF2CF4695F1DFDF
:1029200008C0161617061806991FF1CF869571056F
:10293000610508940895E894BB2766277727CB01A3
:1029400097F908955058BB27AA270E94BA140C94EF
:1029500068140E945A1438F00E94611420F039F46F
:102960009F3F19F426F40C9457140EF4E095E7FBFE
:102970000C945114E92F0E94791458F3BA17620786
:1029800073078407950720F079F4A6F50C949B143F
:102990000EF4E0950B2EBA2FA02D0B01B90190017A
:1029A0000C01CA01A0011124FF27591B99F0593FBE
:1029B00050F4503E68F11A16F040A22F232F342F06
:1029C0004427585FF3CF469537952795A795F04054
:1029D0005395C9F77EF41F16BA0B620B730B840B69
:1029E000BAF09150A1F0FF0FBB1F661F771F881F21
:1029F000C2F70EC0BA0F621F731F841F48F4879579
:102A000077956795B795F7959E3F08F0B0CF93956A
:102A1000880F08F09927EE0F9795879508950E94E3
:102A200023150C9468140E94611458F00E945A14E3
:102A300040F029F45F3F29F00C94511451110C948B
:102A40009C140C9457140E94791468F39923B1F3E1
:102A5000552391F3951B550BBB27AA2762177307C4
:102A6000840738F09F5F5F4F220F331F441FAA1F58
:102A7000A9F335D00E2E3AF0E0E832D09150504014
:102A8000E695001CCAF72BD0FE2F29D0660F771FC2
:102A9000881FBB1F261737074807AB07B0E809F0A8
:102AA000BB0B802DBF01FF2793585F4F3AF09E3F2D
:102AB000510578F00C9451140C949C145F3FE4F38E
:102AC000983ED4F3869577956795B795F7959F5F70
:102AD000C9F7880F911D9695879597F90895E1E0BC
:102AE000660F771F881FBB1F621773078407BA071B
:102AF00020F0621B730B840BBA0BEE1F88F7E09576
:102B000008950E94811488F09F5798F0B92F992753
:102B1000B751B0F0E1F0660F771F881F991F1AF0C8
:102B2000BA95C9F714C0B13091F00E949B14B1E07E
:102B300008950C949B14672F782F8827B85F39F07D
:102B4000B93FCCF3869577956795B395D9F73EF461
:102B500090958095709561957F4F8F4F9F4F089509
:102B60000E94C01308F48FEF08950E94C013880BD1
:102B7000990B0895A1E21A2EAA1BBB1BFD010DC0E3
:102B8000AA1FBB1FEE1FFF1FA217B307E407F5071D
:102B900020F0A21BB30BE40BF50B661F771F881FF9
:102BA000991F1A9469F760957095809590959B018F
:102BB000AC01BD01CF010895EE0FFF1F881F8BBF31
:102BC0000790F691E02D1994CF93DF938230910511
:102BD00010F482E090E0E091FA04F091FB0420E030
:102BE00030E0C0E0D0E0309711F1408151814817CA
:102BF0005907C0F04817590761F4828193812097E3
:102C000019F09B838A832BC09093FB048093FA0472
:102C100026C02115310519F04217530718F49A01FF
:102C2000BE01DF01EF010280F381E02DDCCF211531
:102C3000310509F1281B390B2430310590F4129627
:102C40008D919C9113976115710521F0FB01938380
:102C5000828304C09093FB048093FA04FD013296B2
:102C600044C0FD01E20FF31F81939193225031097B
:102C70002D933C933AC02091F8043091F904232B12
:102C800041F42091190230911A023093F9042093F3
:102C9000F80420911702309118022115310541F4F2
:102CA0002DB73EB740911B0250911C02241B350BDF
:102CB000E091F804F091F904E217F307A0F42E1B59
:102CC0003F0B2817390778F0AC014E5F5F4F241790
:102CD000350748F04E0F5F1F5093F9044093F804F6
:102CE0008193919302C0E0E0F0E0CF01DF91CF91BA
:102CF00008950F931F93CF93DF93009709F48CC02F
:102D0000FC013297138212820091FA041091FB04A5
:102D10000115110581F420813181820F931F2091CB
:102D2000F8043091F9042817390779F5F093F9047C
:102D3000E093F80471C0D80140E050E0AE17BF073F
:102D400050F412962D913C911397AD012115310548
:102D500009F1D901F3CF9D01DA0133832283608128
:102D60007181860F971F8217930769F4EC01288100
:102D70003981260F371F2E5F3F4F318320838A8191
:102D80009B8193838283452B29F4F093FB04E0938A
:102D9000FA0442C01396FC93EE931297ED01499109
:102DA00059919E01240F351FE217F30771F48081BA
:102DB0009181840F951F029611969C938E93828128
:102DC000938113969C938E931297E0E0F0E0D801E4
:102DD00012968D919C911397009719F0F8018C0130
:102DE000F6CF8D919C9198012E5F3F4F820F931FDC
:102DF0002091F8043091F9042817390769F43097C5
:102E000029F41092FB041092FA0402C01382128279
:102E10001093F9040093F804DF91CF911F910F9163
:102E200008956F927F928F929F92AF92BF92CF92AE
:102E3000DF92EF92FF920F931F93CF93DF93EC01FA
:102E4000009789F4CB01DF91CF911F910F91FF90F3
:102E5000EF90DF90CF90BF90AF909F908F907F903A
:102E60006F900C94E415FC01E60FF71F9C012250B3
:102E70003109E217F30708F4ACC0D9010D911C9198
:102E8000119706171707B0F00530110508F49FC019
:102E9000C80104978617970708F499C002501109D2
:102EA000061B170B019311936D937C93CF010E9426
:102EB00079168DC05B01A01AB10A4C01800E911EDB
:102EC000A091FA04B091FB0440E050E0E12CF12C19
:102ED000109709F44AC0A815B905D1F56D907C90FA
:102EE0001197630182E0C80ED11CCA14DB0480F183
:102EF000A3014A195B096A0182E0C80ED11C12962F
:102F0000BC9012971396AC91B5E0CB16D10440F06B
:102F1000B282A38351834083D9016D937C930AC00D
:102F20000E5F1F4FC301800F911FF90191838083B2
:102F3000EB2DFA2FE114F10431F0D7011396FC9335
:102F4000EE93129744C0F093FB04E093FA043FC061
:102F50008D919C9111974817590708F4AC017D0198
:102F600012960D90BC91A02DB3CF8091F804909152
:102F7000F90488159905E1F446175707C8F48091BC
:102F8000170290911802009741F48DB79EB74091B7
:102F90001B0250911C02841B950BE817F907C8F41B
:102FA000F093F904E093F804F901718360830FC092
:102FB000CB010E94E4157C01009759F0A801BE01E5
:102FC0000E94FF17CE010E947916C70104C0CE01EE
:102FD00002C080E090E0DF91CF911F910F91FF90B0
:102FE000EF90DF90CF90BF90AF909F908F907F90A9
:102FF0006F90089581E090E0F8940C941818FB010C
:10300000DC0102C001900D9241505040D8F7089564
:10301000FB01DC018D91019080190110D9F3990B0E
:103020000895FB01DC0101900D920020E1F7089565
:1030300011E0C6E5D1E000E006C0802FFE010E944D
:10304000DC152196011DC735D10780E00807A9F7D7
:04305000F894FFCF22
:1030540014AE273F0101011E071E071E071E071E8F
:10306400071E071E071E070000FC0480008F021EB7
:1030740005AD073C0ACB0C5A0FE9115A0FCB0C3C97
:103084000AAD071E058F020000EB08D6112522EDBC
:103094002D3C388C43B75B0A675E712D7D878D723A
:1030A40096000040001400540000000000F20126C5
:1030B4000794013902C501A301B70100000000E330
:1030C40002B30213038D02AB029C028E02000000C5
:1030D400008C0626071303120300000000D3032606
:1030E40007130312034269656E76656E69646F00A7
:1030F40050726F6772616D6120526F6C61646F72A0
:1031040061006D6D00680070776D6F6E0070776D93
:103114006F66660076656C0074656D70000D0A005C
:103124006365726F000A0D00727574696E6174696B
:10313400656D706F00436F6D656E7A6F20527574A4
:10314400696E6100727574696E61656E636F646542
:103154007200527574696E61456E636F64657200C6
:103164006469666572656E63696173526164696FEF
:103174003D002D00693D20005469656D706F416309
:103184007475616C3D200053756269720042616A16
:103194006172005465726D696E616D6F7300616375
:1031A40061626F006E616E00696E66006F76660024
:00000001FF
