:100000000C9457010C94F4090C94C9090C949E09A2
:100010000C9473090C9448090C941D090C94F20873
:100020000C94C7080C9488010C9488010C948801E6
:100030000C9488010C9488010C9488010C9488011C
:100040000C9488010C9488010C9488010C9488010C
:100050000C9492060C9488010C9488010C947D08F1
:100060000C9488010C9485040C945B040C94880116
:100070000C9488010C9488010C9488010C948801DC
:100080000C9488010C9488010C9488010C948801CC
:100090000C9488010C9488010C9488010C94BB0486
:1000A0000C9488010C9488010C9488010C948801AC
:1000B0000C9488010C9488010C9488010C9488019C
:1000C0000C9488010C9488010C9488010C9488018C
:1000D0000C9488010C9488010C9488010C9488017C
:1000E0000C948801B907BC07AB07AF07B307F30748
:1000F000C007C407CA07CE07D207D807DC07E00746
:10010000F307E607EA07EE070C94AB070C94E60743
:100110000C94EE070C94BC070C94EA070C948A012B
:100120000C94CE070C94B9070C94C0070C94DC0710
:100130000C9413030C9407130C94CA070C94D30368
:100140000C94BB010C9426070C94C4070C94AF07C5
:100150000C94B3070C948C060C9412030C94E007D7
:100160000C948E020C9499010C94D2070C941E07E7
:100170000C9439020C94B6030C949C020C948D02DE
:100180000C94E3020C94D8070C94AD010C94160364
:100190000C94B3020C9401130C94F3070C94AB026F
:1001A0000C94F20100002100240027002A002D00F9
:1001B0003000330001010000040107010A010000C2
:1001C0002200250028002B002E00310034000201FF
:1001D0000000050108010B010505050507050808D4
:1001E0000808020202020A0A0808040404040101C1
:1001F00001010101010103030303030303030407D6
:1002000007070C0C0C0C0C0C0C0C0202020206066C
:100210000606060606060B0B0B0B0B0B0B0B01025F
:100220001020200808102040102040800201020108
:1002300008040201010204081020408080402010C0
:100240000804020180040201804020100804020119
:100250000804020101020408102040800102040881
:100260001020408000000A0B02090C0D0E08070345
:100270000401000000000000000000000000000079
:10028000000000000000000000000000000000006E
:10029000121110000000000000000000000000002B
:1002A00000000000000000000000071301131124EB
:1002B0001FBECFEFD1E2DEBFCDBF00E00CBF25E017
:1002C000AEE6B3E001C01D92AF30B207E1F713E034
:1002D000A0E0B2E0E6E1F0E300E00BBF02C007906F
:1002E0000D92AE36B107D9F711E0C6E5D1E000E0D6
:1002F00006C021970109802FFE010E94BD15C5355A
:10030000D10780E00807A9F70E94360C0C94F91772
:100310000C940000FC01538D448D252F30E0842F78
:1003200090E0821B930B541710F0CF96089501971D
:100330000895FC01918D828D981761F0828DDF0107
:10034000A80FB11D5D968C91928D9F5F9F73928FC8
:1003500090E008958FEF9FEF0895FC01918D828DBD
:10036000981731F0828DE80FF11D858D90E008958A
:100370008FEF9FEF0895FC01918D228D892F90E0E2
:10038000805C9F4F821B91098F73992708958BE49E
:1003900094E00E94BB0121E0892B09F420E0822F28
:1003A0000895FC01848DDF01A80FB11DA35ABF4F32
:1003B0002C91848D90E001968F739927848FA68964
:1003C000B7892C93A089B1898C9180648C93938D8B
:1003D000848D981306C00288F389E02D80818F7D7B
:1003E00080830895EF92FF920F931F93CF93DF9333
:1003F000EC0181E0888F9B8D8C8D981305C0E88976
:10040000F989808185FD24C0F62E0B8D10E00F5FE9
:100410001F4F0F731127E02E8C8DE8120CC00FB602
:1004200007FCFACFE889F989808185FFF5CFCE01F5
:100430000E94D101F1CF8B8DFE01E80FF11DE35A2F
:10044000FF4FF0820B8FEA89FB898081806207C0B1
:10045000EE89FF896083E889F989808180648083DF
:1004600081E090E0DF91CF911F910F91FF90EF908D
:100470000895CF93DF93EC01888D8823C9F0EA8932
:10048000FB89808185FD05C0A889B9898C9186FD8D
:100490000FC00FB607FCF5CF808185FFF2CFA8898A
:1004A000B9898C9185FFEDCFCE010E94D101E7CFB4
:1004B000DF91CF91089585ED8093BC008091BC00C1
:1004C00084FDFCCF1092700308954091FE03262F07
:1004D00030E0240F311D21323105DCF4209170030E
:1004E0002430C9F4FC0180E090E0861758F4309184
:1004F000FE032191DC01A452BC4FA30FB11D2C932C
:100500000196F3CF8091FE03680F6093FE0380E0B5
:10051000089581E0089582E00895089581E090E0D3
:100520003091740320917303321710F480E090E04F
:100530009195819591090895809174039091730329
:10054000891730F48F5F8093740380E090E0089502
:100550008FEF9FEF08958091730390E020917403D3
:10056000821B91090895CF92DF92EF92FF920F9331
:100570001F93CF93DF937C01262F972F8A018091C1
:10058000DB03882391F0C62FD72F6E01C40ED51E32
:10059000CC15DD0571F06991D701ED91FC910190C9
:1005A000F081E02DC7011995F3CF642F822F0E94AF
:1005B0006502C801DF91CF911F910F91FF90EF90DD
:1005C000DF90CF900895CF93DF931F92CDB7DEB722
:1005D00069832091DB032223D1F020917103203223
:1005E00040F021E030E0FC013383228380E090E0A2
:1005F00015C080917203E82FF0E0E554FC4F99811B
:1006000090838F5F809372038093710305C061E0D4
:10061000CE0101960E94650281E090E00F90DF918B
:10062000CF910895089580E090E008950F931F936F
:1006300082B385FB882780F98093B8032FB7F8949D
:100640008091470490914804A0914904B0914A04D4
:100650002FBF4091B4035091B5036091B6037091E0
:10066000B703841B950BA60BB70B8093B003909335
:10067000B103A093B203B093B3032FB7F894809162
:10068000470490914804A0914904B0914A042FBFB7
:100690008093B4039093B503A093B603B093B703CC
:1006A0008091B0039091B103A091B203B091B303D4
:1006B0000397A105B10520F081E08093060202C0F6
:1006C0001092060280910602882309F44CC08091A2
:1006D000B803811103C081E090E002C08FEF9FEF6B
:1006E00040917C0350917D0360917E0370917F0364
:1006F000092E000CAA0BBB0B8A019B01081B190BCE
:100700002A0B3B0B00937C0310937D0320937E0305
:1007100030937F038091B803811103C081E090E0A2
:1007200002C08FEF9FEF4091780350917903609161
:100730007A0370917B03092E000CAA0BBB0B8A0174
:100740009B01081B190B2A0B3B0B0093780310939A
:10075000790320937A0330937B039091770381E0B0
:100760008927809377031F910F91089580918403C7
:1007700090918503019690938503809384038091E3
:10078000800390918103A0918203B091830301962D
:10079000A11DB11D8093800390938103A0938203D8
:1007A000B093830308950E94DB17FF920F931F936A
:1007B000CF93DF931F921F92CDB7DEB78BE494E007
:1007C0000E94BB01892BD1F18BE494E00E94990136
:1007D000F82E89831A820091F8041091F9040F5FB2
:1007E0001F4FB80184EF94E00E943E0A882399F0DD
:1007F0002091F4043091F5048091F8049091F9046B
:10080000BE016F5F7F4F820F931F0E94F2171093FC
:10081000F9040093F8048DE0F81204C081E080939D
:10082000B9030CC080E2F81209C00F900F90DF915D
:10083000CF911F910F91FF900C94900A0F900F9001
:10084000DF91CF911F910F91FF9008950E94C701F2
:10085000811125C080E090E0892B41F080E090E09C
:10086000892B21F00E94000081111CC080E090E0E3
:10087000892B41F080E090E0892B21F00E9400005C
:10088000811113C080E090E0892BA1F080E090E01E
:10089000892B81F00E94000081110AC008950E94F6
:1008A000D503D8CF0E940000E1CF0E940000EACF1C
:1008B0000C94000008951F920F920FB60F9211240E
:1008C0000BB60F922F933F934F935F936F937F934A
:1008D0008F939F93AF93BF93EF93FF938BE494E039
:1008E0000E94D101FF91EF91BF91AF919F918F91A4
:1008F0007F916F915F914F913F912F910F900BBE20
:100900000F900FBE0F901F9018951F920F920FB669
:100910000F9211240BB60F922F938F939F93EF9307
:10092000FF93E0915B04F0915C048081E0916104AD
:10093000F091620482FD12C09081809164048F5F07
:100940008F7320916504821751F0E0916404F0E008
:10095000E55BFB4F958F8093640401C08081FF911C
:10096000EF919F918F912F910F900BBE0F900FBE23
:100970000F901F9018951F920F920FB60F9211248F
:100980000BB60F922F933F934F935F936F937F9389
:100990008F939F93AF93BF93EF93FF938091B90091
:1009A000887F803609F49CC068F5883209F45BC002
:1009B00090F4803109F454C038F4882309F4F6C067
:1009C000883009F44DC0F6C0883109F44CC080323B
:1009D00009F45DC0EFC0803409F468C048F4803386
:1009E00009F455C0883309F0E5C080932304D8C0CA
:1009F000803509F44FC0883509F45DC0883409F0AA
:100A0000D9C0D6C0883909F4C7C0A8F4883709F41A
:100A100067C038F4883609F463C0803709F460C0D1
:100A2000C9C0883809F4B8C0803909F45FC080387B
:100A300009F0C0C05BC0803B09F486C038F4803A3E
:100A400009F466C0883A09F47FC0B4C0803C09F458
:100A5000A7C0883C09F4A4C0883B09F48AC0AAC096
:100A60008091460410C090914504809144049817E9
:100A700070F5E091450481E08E0F80934504F0E02D
:100A8000EC5DFB4F80818093BB0085EC86C080933A
:100A900023048EC0E091450481E08E0F80934504CD
:100AA0008091BB00F0E0EC5DFB4F808390914504AA
:100AB000809144046EC0E091450481E08E0F8093E4
:100AC00045048091BB00F0E0EC5DFB4F808380919A
:100AD0006F0381116DC081E080936E0384EA61C071
:100AE00083E08093700310922204CFCF8091220480
:100AF000803208F051C0E091220481E08E0F809393
:100B000022048091BB00F0E0EE5FFB4F8083BDCFFD
:100B100085EC8093BC001092700380912204803297
:100B200030F4E0912204F0E0EE5FFB4F1082609120
:100B3000220470E0E0910004F091010482E094E06E
:100B400019951092220436C084E0809370031092AD
:100B5000FF031092FE03E091FC03F091FD03199551
:100B60008091FE03811105C081E08093FE03109205
:100B7000DC03E091FF0381E08E0F8093FF03F0E040
:100B8000E452FC4F80818093BB009091FF038091E1
:100B9000FE03981708F479CF85E88093BC000AC05B
:100BA00085EC8093BC001092700304C01092230463
:100BB0000E945B02FF91EF91BF91AF919F918F9146
:100BC0007F916F915F914F913F912F910F900BBE4D
:100BD0000F900FBE0F901F901895CF93FC01C4810A
:100BE00021E02093DB03C093BA03109272031092AA
:100BF00071038385682B88EE94E00E94E302809164
:100C00007103813208F046C0909170039111FCCFBE
:100C100092E09093700391E090936F039FEF909315
:100C200023041092450480934404ABEBB3E024E228
:100C300034E0F9019E2F921B981718F49D9191931F
:100C4000F9CF1092460480914604CC0FC82BC09374
:100C5000460480916E03813061F410926E0380919E
:100C600046048093BB008091BC0083FDF8CF85ECE7
:100C700001C085EE8093BC00809170038230E1F367
:100C8000809123048F3F31F080912304803211F052
:100C90008091230410927203109271031092DB036F
:100CA000CF9108950F931F93CF938C01C62F0E946D
:100CB000ED056C2F6460C8010E94ED056C2F6B7F01
:100CC000C8010E94ED0583EC90E00197F1F7CF9108
:100CD0001F910F910895FF920F931F93CF93DF936E
:100CE0001F92CDB7DEB78C01F62E962F907F692F1D
:100CF000642BC80149830E94520680E1F89EB0012E
:100D000011244981642BC8010F90DF91CF911F916D
:100D10000F91FF900C94520641E00E946B0681E017
:100D200090E008951F920F920FB60F9211240BB608
:100D30000F922F933F934F935F936F937F938F9374
:100D40009F93AF93BF93EF93FF93E0917503F0915F
:100D500076031995FF91EF91BF91AF919F918F917C
:100D60007F916F915F914F913F912F910F900BBEAB
:100D70000F900FBE0F901F90189560E085E20E94C3
:100D80008A0760E084E20E948A0760E08CE00E94AB
:100D90008A0760E087E20E948A0760E086E20C949E
:100DA0008A0761E08BE00E948A0761E08CE00E9484
:100DB0008A0760E084E20E948A0761E087E20E947D
:100DC0008A0761E08FE20C948A0761E08BE00E9461
:100DD0008A0761E084E20E948A0761E086E20E945D
:100DE0008A0761E08CE00E948A0760E08FE20C9441
:100DF0008A073FB7F8948091070590910805A09164
:100E00000905B0910A0526B5A89B05C02F3F19F02A
:100E10000196A11DB11D3FBFBA2FA92F982F88277A
:100E2000820F911DA11DB11DBC01CD0142E0660FD5
:100E3000771F881F991F4A95D1F708950895DC01FF
:100E4000ED91FC910190F081E02D1994CF92DF9209
:100E5000EF92FF920F931F93CF93DF936C017A0170
:100E60008B01C0E0D0E0CE15DF0589F0D8016D918F
:100E70008D01D601ED91FC910190F081E02DC6012C
:100E80001995892B11F47E0102C02196ECCFC70180
:100E9000DF91CF911F910F91FF90EF90DF90CF9056
:100EA0000895CF93DF93CDB7DEB728970FB6F894A8
:100EB000DEBF0FBECDBF98E0E9E8F2E0DE0111969B
:100EC00001900D929A95E1F790910305981710F40F
:100ED0008FEF890FFE013196E80FF11DE80FF11D2C
:100EE0006081606840E08AEF94E028960FB6F8943D
:100EF000DEBF0FBECDBFDF91CF910C946B0640E0FB
:100F000061E08AEF94E00E946B068BE39FE101971A
:100F1000F1F70895362F90E0FC01EC59FD4F449114
:100F2000FC01E25EFD4F2491FC01E852FE4F9491DA
:100F3000992309F46BC0442309F455C050E0FA0129
:100F40003197E231F10508F04EC08827EE58FF4F87
:100F50008F4F0C94BD15809180008F7707C08091D2
:100F600080008F7D03C080918000877F8093800008
:100F70003AC084B58F7702C084B58F7D84BD33C0FD
:100F80008091B0008F7703C08091B0008F7D8093F7
:100F9000B00029C0809190008F7707C080919000A9
:100FA0008F7D03C080919000877F809390001BC04D
:100FB0008091A0008F7707C08091A0008F7D03C033
:100FC0008091A000877F8093A0000DC080912001B8
:100FD0008F7707C0809120018F7D03C08091200111
:100FE000877F80932001E92FF0E0EE0FFF1FE2548E
:100FF000FE4FA591B4918FB7F894EC91311103C0D5
:1010000020952E2301C02E2B2C938FBF0895CF93B4
:10101000DF9390E0FC01E25EFD4F2491FC01E85279
:10102000FE4F8491882361F190E0880F991FFC01A5
:10103000EC55FE4FC591D491FC01E254FE4FA591B1
:10104000B491611109C09FB7F894888120958223DB
:101050008883EC912E230BC0623061F49FB7F89423
:101060003881822F809583238883EC912E2B2C93BB
:101070009FBF06C08FB7F894E8812E2B28838FBFBF
:10108000DF91CF9108958F929F92AF92BF92CF92AE
:10109000DF92EF92FF926B017C010E94F9064B01F7
:1010A0005C01C114D104E104F104F1F00E94F906DD
:1010B000DC01CB0188199909AA09BB09883E934034
:1010C000A105B10570F321E0C21AD108E108F108C9
:1010D00088EE880E83E0981EA11CB11CC114D104B7
:1010E000E104F10419F7DDCFFF90EF90DF90CF908E
:1010F000BF90AF909F908F9008951F920F920FB660
:101100000F9211242F933F938F939F93AF93BF938D
:101110008091470490914804A0914904B0914A04F9
:101120003091060523E0230F2D3720F40196A11DF1
:10113000B11D05C026E8230F0296A11DB11D209305
:1011400006058093470490934804A0934904B09304
:101150004A048091070590910805A0910905B09176
:101160000A050196A11DB11D8093070590930805FE
:10117000A0930905B0930A05BF91AF919F918F91FC
:101180003F912F910F900FBE0F901F9018951F92B7
:101190000F920FB60F9211240BB60F922F933F931D
:1011A0004F935F936F937F938F939F93AF93BF936F
:1011B000EF93FF93E0911502F09116021995FF91BC
:1011C000EF91BF91AF919F918F917F916F915F91BF
:1011D0004F913F912F910F900BBE0F900FBE0F902C
:1011E0001F9018951F920F920FB60F9211240BB6F5
:1011F0000F922F933F934F935F936F937F938F93B0
:101200009F93AF93BF93EF93FF93E0911302F091FD
:1012100014021995FF91EF91BF91AF919F918F911A
:101220007F916F915F914F913F912F910F900BBEE6
:101230000F900FBE0F901F9018951F920F920FB630
:101240000F9211240BB60F922F933F934F935F93FE
:101250006F937F938F939F93AF93BF93EF93FF937E
:10126000E0910902F0910A021995FF91EF91BF9167
:10127000AF919F918F917F916F915F914F913F912E
:101280002F910F900BBE0F900FBE0F901F901895CF
:101290001F920F920FB60F9211240BB60F922F933D
:1012A0003F934F935F936F937F938F939F93AF93EE
:1012B000BF93EF93FF93E0910702F0910802199515
:1012C000FF91EF91BF91AF919F918F917F916F911E
:1012D0005F914F913F912F910F900BBE0F900FBEDA
:1012E0000F901F9018951F920F920FB60F92112416
:1012F0000BB60F922F933F934F935F936F937F9310
:101300008F939F93AF93BF93EF93FF93E09111025D
:10131000F09112021995FF91EF91BF91AF919F91BA
:101320008F917F916F915F914F913F912F910F908E
:101330000BBE0F900FBE0F901F9018951F920F922B
:101340000FB60F9211240BB60F922F933F934F932A
:101350005F936F937F938F939F93AF93BF93EF931D
:10136000FF93E0910F02F09110021995FF91EF9118
:10137000BF91AF919F918F917F916F915F914F91AD
:101380003F912F910F900BBE0F900FBE0F901F90AB
:1013900018951F920F920FB60F9211240BB60F9251
:1013A0002F933F934F935F936F937F938F939F936D
:1013B000AF93BF93EF93FF93E0910D02F0910E0274
:1013C0001995FF91EF91BF91AF919F918F917F916F
:1013D0006F915F914F913F912F910F900BBE0F90A6
:1013E0000FBE0F901F9018951F920F920FB60F927D
:1013F00011240BB60F922F933F934F935F936F93EC
:101400007F938F939F93AF93BF93EF93FF93E0915D
:101410000B02F0910C021995FF91EF91BF91AF91E2
:101420009F918F917F916F915F914F913F912F91FC
:101430000F900BBE0F900FBE0F901F901895FC01E0
:1014400024813581232B31F421E061157105A1F050
:10145000FB0108C0FC01808191816115710531F4A7
:1014600021E0FC018081882339F005C00E94E91742
:1014700021E0892B09F020E0822F08950F931F931C
:10148000CF93DF93EC0188819981009729F02A811D
:101490003B812617370788F48B016F5F7F4F0E94CF
:1014A000F216009761F0998388831B830A832C814D
:1014B0003D81232B11F4FC01108281E001C080E00A
:1014C000DF91CF911F910F910895EF92FF920F93AB
:1014D0001F93CF93DF93EC017B018A01BA010E9435
:1014E0003E0A2881398181110DC02115310519F07D
:1014F000C9010E945A16198218821D821C821B8201
:101500001A8206C01D830C83B701C9010E94F2171D
:10151000CE01DF91CF911F910F91FF90EF90089531
:1015200040E050E06AED72E084EF94E00E94650ACA
:1015300084EF94E008956115710579F0FB01019045
:101540000020E9F73197AF01461B570BDC01ED9105
:10155000FC910280F381E02D199480E090E00895E1
:10156000CF93DF93BC018BE494E00E949B0AEC01D3
:1015700068ED72E08BE494E00E949B0A8C0F9D1F43
:10158000DF91CF9108954F925F926F927F92EF9289
:10159000FF920F931F93CF93DF93CDB7DEB7A19741
:1015A0000FB6F894DEBF0FBECDBF7C01FA01CB01B0
:1015B00019A2223008F42AE08E010F5D1F4F422E3F
:1015C000512C612C712CBF01A30192010E949B152B
:1015D000F901CA01015011096A3014F4605D01C0BB
:1015E000695CD8016C93232B242B252B61F7B80160
:1015F000C7010E949B0AA1960FB6F894DEBF0FBEEA
:10160000CDBFDF91CF911F910F91FF90EF907F9011
:101610006F905F904F900895CF92DF92EF92FF927C
:101620000F931F93CF93DF9377FF1DC06A017B0158
:10163000EC016DE20E941F078C0144275527BA0177
:101640004C195D096E097F092AE0CE010E94C30A88
:10165000800F911FDF91CF911F910F91FF90EF901D
:10166000DF90CF9008952AE0DF91CF911F910F91E5
:10167000FF90EF90DF90CF900C94C30ACF93DF934D
:10168000AB01BC018BE494E00E940C0BEC0168ED13
:1016900072E08BE494E00E949B0A8C0F9D1FDF9107
:1016A000CF9108954F925F926F927F928F929F9207
:1016B000AF92BF92CF92DF92EF92FF92CF93DF93E0
:1016C000EC016A017B01B22E9A01AB01C701B601A0
:1016D0000E949615882319F062E673E027C0260160
:1016E0003701E89477F82FEF3FEF4FE75FE7C3014B
:1016F000B2010E94961581110DC02FEF3FEF4FE709
:101700005FE7C301B2010E945F1318161CF466E67E
:1017100073E00CC02FEF3FEF4FE75FE4C701B60166
:101720000E94911518169CF46AE673E0CE01DF91D1
:10173000CF91FF90EF90DF90CF90BF90AF909F90B0
:101740008F907F906F905F904F900C949B0A2FEF3B
:101750003FEF4FE75FECC701B6010E945F1387FDC3
:10176000E3CF20E030E0A901C701B6010E945F137A
:1017700087FF0AC06DE2CE010E941F074C01F7FAF5
:10178000F094F7F8F09402C0812C912CA12C60E029
:1017900070E080E09FE3AB1441F020E030E040E2F5
:1017A00051E40E94F014A394F6CF9B01AC01C70151
:1017B000B6010E9484142B013C010E9462156B014A
:1017C0007C010E9464139B01AC01C301B2010E9421
:1017D00083142B013C012AE0B701A601CE010E942F
:1017E000C30A7C01E80CF91CBB2031F06EE2CE018B
:1017F0000E941F07E80EF91EDB2CDD2029F120E0F6
:1018000030E040E251E4C301B2010E94C5132B0154
:101810003C010E9462154B01A12CB12C2AE0B501BC
:10182000A401CE010E94C30AE80EF91EC501B4014D
:101830000E9464139B01AC01C301B2010E94831496
:101840002B013C01DA94D9CFC701DF91CF91FF90F2
:10185000EF90DF90CF90BF90AF909F908F907F9050
:101860006F905F904F9008950C949B0ACF93DF93F5
:10187000CDB7DEB72A970FB6F894DEBF0FBECDBF47
:10188000789484B5826084BD84B5816084BD85B55B
:10189000826085BD85B5816085BD80916E00816067
:1018A00080936E001092810080918100826080930D
:1018B000810080918100816080938100809180000F
:1018C0008160809380008091B10084608093B1003A
:1018D0008091B00081608093B0008091910082601F
:1018E000809391008091910081608093910080911C
:1018F00090008160809390008091A100826080932D
:10190000A1008091A10081608093A1008091A0003E
:1019100081608093A00080912101826080932101E9
:10192000809121018160809321018091200181605B
:101930008093200180917A00846080937A00809166
:101940007A00826080937A0080917A00816080932F
:101950007A0080917A00806880937A001092C100AA
:10196000E0915B04F0915C0482E08083E091570495
:10197000F09158041082E0915904F0915A048FECD0
:10198000808310926304E0915F04F091600486E02C
:101990008083E0915D04F0915E04808180618083AA
:1019A000E0915D04F0915E04808188608083E09125
:1019B0005D04F0915E04808180688083E0915D0425
:1019C000F0915E0480818F7D80838DEC92E00E9497
:1019D000B00A2AE04BE150E060E070E08BE494E074
:1019E0000E94C30A68ED72E08BE494E00E949B0AB7
:1019F0008BE190E090939503809394031092980369
:101A00001092970310929C0310929B0340E050E0C9
:101A100080919B0390919C034B9708F5E0919B0369
:101A2000F0919C03EE0FFF1FE35EFD4F80819181DB
:101A30004817590750F4E0919B03F0919C03EE0F77
:101A4000FF1FE35EFD4F4081518180919B03909188
:101A50009C03019690939C0380939B03D9CF509352
:101A600098034093970360E070E02AE08BE494E0F1
:101A70000E94C30A68ED72E08BE494E00E949B0A26
:101A800010929C0310929B0380E18093810010923E
:101A9000800081E08093910320E43FE13093900344
:101AA00020938F03309387002093860091E19093D9
:101AB000810026EB33E03093760320937503809307
:101AC0006F001092740310927303109272031092BD
:101AD00071031092700380936F0310926E0361E0A4
:101AE00084E10E948A0761E085E10E948A07809173
:101AF000B9008E7F8093B9008091B9008D7F80936B
:101B0000B90088E48093B80085E48093BC0010920B
:101B1000FF0480910305823018F098E09093FF0451
:101B200090910405992339F0813029F48091FF04C4
:101B300084608093FF0462E370E080E090E00E94A4
:101B40004308609105058AEF94E00E94ED0568EE78
:101B500073E080E090E00E94430860E38AEF94E045
:101B60000E9452060BE416E4C8010197F1F760E306
:101B70008AEF94E00E945206C8010197F1F760E3F2
:101B80008AEF94E00E94520683E592E00197F1F714
:101B900060E28AEF94E00E9452066091FF04606266
:101BA00040E08AEF94E00E946B0684E08093000599
:101BB00040E06CE08AEF94E00E946B060E947F0791
:101BC00082E08093010540E066E08AEF94E00E94A5
:101BD0006B0640E062E08AEF94E00E946B068BE3C4
:101BE0009FE10197F1F71092800310928103109208
:101BF00082031092830368EC70E084EF94E00E940B
:101C00003E0A84EF91E090938E0380938D0390932E
:101C10008C0380938B0360E086E00E94070860E0FD
:101C200086E00E948A0760E084E00E94070860E086
:101C300084E00E948A0786E193E0909308028093F3
:101C4000070280916A00836080936A00EC9A61E0E9
:101C500082E20E94070860E082E20E948A0761E057
:101C600083E20E94070860E083E20E948A0761E045
:101C700086E20E94070860E086E20E948A0761E02F
:101C80008FE20E94070860E08FE20E948A0761E00D
:101C90008CE00E94070860E08CE00E948A0761E007
:101CA0008BE00E94070860E08BE00E948A0761E0F9
:101CB00087E20E94070860E087E20E948A0761E0ED
:101CC00084E20E94070860E084E20E948A0761E0E3
:101CD00085E20E94070860E085E20E948A07109270
:101CE000770310929F031092860380E00E945107B1
:101CF0006BED72E08AEF94E00E94340C81E00E9468
:101D000051076DEC72E08AEF94E00E94340C60EDB4
:101D100077E080E090E00E9443080E947F07609196
:101D20007C0370917D0380917E0390917F032091CD
:101D300000023091010240910202509103022F8370
:101D4000388749875A870E9466132F8138854985CD
:101D50005A850E94C5136093A0037093A1038093DA
:101D6000A2039093A30380E00E9451074091A00337
:101D70005091A1036091A2037091A30322E08AEF26
:101D800094E00E94520B6DEE72E08AEF94E00E94A4
:101D9000340C81E00E9451074091870350918803E1
:101DA0006091890370918A038AEF94E00E940C0B82
:101DB00081E08093040211E000E150E4E52E5FE150
:101DC000F52E61E1B62E74EFC72EDD24D3941A826E
:101DD00019821C821B821E821D826091F404709104
:101DE000F5046115710541F04091F8045091F90432
:101DF000CE0101960E94650A60EF72E0CE01019665
:101E00000E941F0A882321F0109304020E94900A66
:101E100066EF72E0CE0101960E941F0A882321F02E
:101E2000109204020E94900A6DEF72E0CE010196BA
:101E30000E941F0A81112AC061E073E0CE01019661
:101E40000E941F0A882309F4C9C0109281001092D1
:101E500085001092840080919103806180938100BD
:101E600080E1809381001092800081E08093910353
:101E700080E49FE19093900380938F039093870079
:101E80008093860081E1809381009DC01092810043
:101E9000109285001092840080919103806180935C
:101EA0008100009381001092800010939103F092C2
:101EB0009003E0928F03F0928700E0928600B09248
:101EC00081008091800390918103A0918203B09161
:101ED0008303892B8A2B8B2B09F4AECF609180036F
:101EE0007091810380918203909183030E943E0B45
:101EF00061E083E20E948A0780917C0390917D03D8
:101F0000A0917E03B0917F038C399F4FAF4FBF4F9D
:101F1000C1F60093810060E083E20E948A0760912D
:101F20007C0370917D0380917E0390917F032091CB
:101F300000023091010240910202509103022F836E
:101F4000388749875A870E9466132F8138854985CB
:101F50005A850E94C5136093A0037093A1038093D8
:101F6000A2039093A3034091A0035091A103609119
:101F7000A2037091A30322E08BE494E00E94520B31
:101F800068ED72E08BE494E00E949B0A609180030C
:101F90007091810380918203909183030E943E0B94
:101FA0001092800310928103109282031092830397
:101FB00010927C0310927D0310927E0310927F0397
:101FC0000E94900A7ECF609180037091810380917E
:101FD0008203909183030E943E0BF5CF66E073E08D
:101FE000CE0101960E941F0A882309F446C0D092B0
:101FF0008E03C0928D03D0928C03C0928B034091CC
:10200000F8045091F9046091F4047091F5048BE4A4
:1020100094E00E94260768ED72E08BE494E00E9451
:102020009B0A6BE073E08BE494E00E94340C4091D7
:102030008D0350918E03052E000C660B770B8BE4FD
:1020400094E00E940C0B6BE073E08BE494E00E9440
:10205000340C40918B0350918C03052E000C660BC1
:10206000770B8BE494E00E940C0B6BE073E08BE445
:1020700094E00E94340C0E94900A6EE073E0CE015E
:1020800001960E941F0A882309F463C061E085E27B
:102090000E948A0761E086E20E948A0768E873E18D
:1020A00080E090E00E94430860E086E20E948A0798
:1020B00060E085E20E948A070E947F0760917C03AE
:1020C00070917D0380917E0390917F0320910002A7
:1020D0003091010240910202509103022F83388710
:1020E00049875A870E9466132F81388549855A850A
:1020F0000E94C5136093A0037093A1038093A20371
:102100009093A30380E00E9451074091A003509157
:10211000A1036091A2037091A30322E08AEF94E0EF
:102120000E94520B6DEE72E08AEF94E00E94340C34
:1021300081E00E945107409187035091880360918C
:10214000890370918A038AEF94E00E940C0B0E942D
:10215000900A89819A810E945A1663E173E084EFA4
:1021600094E00E941F0A8823D1F180E293E00E944C
:10217000B00A109204021093A5031093A4031092C6
:1021800085031092840310928003109281031092B1
:102190008203109283031092A0031092A103109265
:1021A000A2031092A30310939F0310927C0310923A
:1021B0007D0310927E0310927F0310927803109299
:1021C000790310927A0310927B0310929E0310926F
:1021D0009D0310929C0310929B030E94900A6FE251
:1021E00073E084EF94E00E941F0A8823F1F18DE3ED
:1021F00093E00E94B00A109204021093A50310937A
:102200009A0310929C0310929B03109285031092E4
:102210008403109280031092810310928203109223
:10222000830310929E0310929D031092A0031092BC
:10223000A1031092A2031092A30310939F03109284
:102240007C0310927D0310927E0310927F03109204
:1022500078031092790310927A0310927B03109204
:102260009E0310929D030E94900A80917703811132
:1022700084C180919F03811180C18091A50388232F
:1022800009F43FC02091840330918503E0919B03C2
:10229000F0919C03EE0FFF1FE35EFD4F8081918163
:1022A0008217930770F520919B0330919C038091D6
:1022B0009403909195032817390718F580919B0393
:1022C00090919C03019690939C0380939B031093A1
:1022D0009603109280031092810310928203109251
:1022E000830380919A03882341F010927C0310921B
:1022F0007D0310927E0310927F0361E085E20E94CD
:102300008A0780919B0390919C03209194033091C4
:10231000950382179307F8F4DC01AA0FBB1FAB5A91
:10232000BD4F880F991FFC01ED5AFD4F8D919C9177
:1023300020813181821B930B9093930380939203AE
:10234000181619061CF4109299030BC0892B49F03A
:102350001093990306C010929A0310929903109259
:10236000A40380919A03882309F49FC08091990364
:1023700090919603992309F496C0882349F06BE461
:1023800073E08BE494E00E94340C0E94E50608C0E0
:1023900061E573E08BE494E00E94340C0E94D10666
:1023A00080917C0390917D03A0917E03B0917F0387
:1023B000181619061A061B0674F480917C03909176
:1023C0007D03A0917E03B0917F03181619061A06AB
:1023D0001B0684F06AC080917C0390917D03A091DC
:1023E0007E03B0917F03181619061A061B0609F022
:1023F0000CF45BC00E94BD061092960380917C0392
:1024000090917D03A0917E03B0917F031816190669
:102410001A061B064CF480917C0390917D03A091D9
:102420007E03B0917F030FC080917C0390917D0368
:10243000A0917E03B0917F03B095A0959095819572
:102440009F4FAF4FBF4F0297A105B10574F1209187
:102450009D0330919E0380917C0390917D03A09118
:102460007E03B0917F03181619061A061B064CF45A
:1024700080917C0390917D03A0917E03B0917F03B6
:102480000BC080917C0390917D03A0917E03B0915D
:102490007F03919581959109820F931F90939E03DD
:1024A00080939D0302C00E94BD068091A4038823EF
:1024B00049F18091990390919603992309F188231A
:1024C00049F06BE473E08BE494E00E94340C0E94CA
:1024D000E50608C061E573E08BE494E00E94340CEB
:1024E0000E94D1068091800390918103A091820384
:1024F000B09183038D97A105B10524F01092960346
:102500000E94BD062091840330918503809197033A
:10251000909198038217930720F5109285031092EB
:1025200084031092A50310929A031092A40360E012
:102530008FE20E948A0787E593E00E94B00A4091EB
:102540009D0350919E03052E000C660B770B8BE4C8
:1025500094E00E940C0B68ED72E08BE494E00E9422
:102560009B0A80919A03811105C08091A40388235E
:1025700009F444C00E9426042ACC0E947F0760917F
:1025800078037091790380917A0390917B03209175
:1025900000023091010240910202509103022F8308
:1025A000388749875A870E9466132F813885498565
:1025B0005A850E94C5136093A0037093A103809372
:1025C000A2039093A30380E00E9451074091A003CF
:1025D0005091A1036091A2037091A30322E08AEFBE
:1025E00094E00E94520B6DEE72E08AEF94E00E943C
:1025F000340C1092770310929F033FCE0E94BD06C9
:10260000B9CF8091F4049091F5040C945A16EBE440
:10261000F4E01382128288EE93E0A0E0B0E08483BD
:102620009583A683B78325E932E03183208325ECA7
:1026300030E03587248724EC30E03787268720EC8C
:1026400030E0318B208B21EC30E0338B228B22EC7D
:1026500030E0358B248B26EC30E0378B268B118EC7
:10266000128E138E148EE8EEF4E0138212828483AD
:102670009583A683B78387EA92E091838083EAEF0C
:10268000F4E01382128289EB92E09183808387E2E7
:10269000848384E1808784E08187128688E0838751
:1026A000E4EFF4E011821082138212821582148208
:1026B00040E050E06AED72E0CF010C94650A0E94A0
:1026C000A11308F481E00895E89409C097FB3EF453
:1026D00090958095709561957F4F8F4F9F4F99236F
:1026E000A9F0F92F96E9BB279395F69587957795ED
:1026F0006795B795F111F8CFFAF4BB0F11F460FFAD
:102700001BC06F5F7F4F8F4F9F4F16C0882311F004
:1027100096E911C0772321F09EE8872F762F05C018
:10272000662371F096E8862F70E060E02AF09A95B3
:10273000660F771F881FDAF7880F9695879597F9A8
:102740000895990F0008550FAA0BE0E8FEEF161642
:102750001706E807F907C0F012161306E407F50795
:1027600098F0621B730B840B950B39F40A2661F009
:10277000232B242B252B21F408950A2609F4A140AC
:10278000A6958FEF811D811D08950E94D8130C948A
:1027900049140E943B1438F00E94421420F0952303
:1027A00011F00C9432140C94381411240C947D14F0
:1027B0000E945A1470F3959FC1F3950F50E0551F76
:1027C000629FF001729FBB27F00DB11D639FAA2786
:1027D000F00DB11DAA1F649F6627B00DA11D661FD5
:1027E000829F2227B00DA11D621F739FB00DA11DF6
:1027F000621F839FA00D611D221F749F3327A00DB0
:10280000611D231F849F600D211D822F762F6A2F4B
:1028100011249F5750409AF0F1F088234AF0EE0FB0
:10282000FF1FBB1F661F771F881F91505040A9F7DD
:102830009E3F510580F00C9432140C947D145F3F40
:10284000E4F3983ED4F3869577956795B795F79519
:10285000E7959F5FC1F7FE2B880F911D9695879591
:1028600097F9089597F99F6780E870E060E0089510
:102870009FEF80EC089500240A9416161706180698
:102880000906089500240A94121613061406050674
:102890000895092E0394000C11F4882352F0BB0F05
:1028A00040F4BF2B11F460FF04C06F5F7F4F8F4F68
:1028B0009F4F089557FD9058440F551F59F05F3FA3
:1028C00071F04795880F97FB991F61F09F3F79F052
:1028D00087950895121613061406551FF2CF4695D4
:1028E000F1DF08C0161617061806991FF1CF869556
:1028F0007105610508940895E894BB27662777273A
:10290000CB0197F908955058BB27AA270E949B1422
:102910000C9449140E943B1438F00E94421420F099
:1029200039F49F3F19F426F40C9438140EF4E09512
:10293000E7FB0C943214E92F0E945A1458F3BA178B
:10294000620773078407950720F079F4A6F50C94C5
:102950007C140EF4E0950B2EBA2FA02D0B01B901BB
:1029600090010C01CA01A0011124FF27591B99F005
:10297000593F50F4503E68F11A16F040A22F232F11
:10298000342F4427585FF3CF469537952795A79561
:10299000F0405395C9F77EF41F16BA0B620B730B08
:1029A000840BBAF09150A1F0FF0FBB1F661F771F79
:1029B000881FC2F70EC0BA0F621F731F841F48F42E
:1029C000879577956795B795F7959E3F08F0B0CFB7
:1029D0009395880F08F09927EE0F9795879508959E
:1029E0000E9404150C9449140E94421458F00E944D
:1029F0003B1440F029F45F3F29F00C94321451113C
:102A00000C947D140C9438140E945A1468F3992382
:102A1000B1F3552391F3951B550BBB27AA276217DA
:102A20007307840738F09F5F5F4F220F331F441FE7
:102A3000AA1FA9F335D00E2E3AF0E0E832D091501B
:102A40005040E695001CCAF72BD0FE2F29D0660F08
:102A5000771F881FBB1F261737074807AB07B0E84B
:102A600009F0BB0B802DBF01FF2793585F4F3AF051
:102A70009E3F510578F00C9432140C947D145F3F06
:102A8000E4F3983ED4F3869577956795B795F795D7
:102A90009F5FC9F7880F911D9695879597F90895BF
:102AA000E1E0660F771F881FBB1F6217730784075B
:102AB000BA0720F0621B730B840BBA0BEE1F88F76A
:102AC000E09508950E94621488F09F5798F0B92FFE
:102AD0009927B751B0F0E1F0660F771F881F991F53
:102AE0001AF0BA95C9F714C0B13091F00E947C1465
:102AF000B1E008950C947C14672F782F8827B85F75
:102B000039F0B93FCCF3869577956795B395D9F7AA
:102B10003EF490958095709561957F4F8F4F9F4FB4
:102B200008950E94A11308F48FEF08950E94A11345
:102B3000880B990B0895A1E21A2EAA1BBB1BFD015D
:102B40000DC0AA1FBB1FEE1FFF1FA217B307E4078C
:102B5000F50720F0A21BB30BE40BF50B661F771FE4
:102B6000881F991F1A9469F76095709580959095C4
:102B70009B01AC01BD01CF010895EE0FFF1F881F1F
:102B80008BBF0790F691E02D1994CF93DF9382309D
:102B9000910510F482E090E0E0910D05F0910E05B2
:102BA00020E030E0C0E0D0E0309711F14081518169
:102BB00048175907C0F04817590761F4828193817B
:102BC000209719F09B838A832BC090930E058093E6
:102BD0000D0526C02115310519F04217530718F4C9
:102BE0009A01BE01DF01EF010280F381E02DDCCF0D
:102BF0002115310509F1281B390B2430310590F4DA
:102C000012968D919C9113976115710521F0FB012E
:102C10009383828304C090930E0580930D05FD017C
:102C2000329644C0FD01E20FF31F8193919322502D
:102C300031092D933C933AC020910B0530910C053E
:102C4000232B41F42091190230911A0230930C0584
:102C500020930B05209117023091180221153105A0
:102C600041F42DB73EB740911B0250911C02241B2A
:102C7000350BE0910B05F0910C05E217F307A0F47A
:102C80002E1B3F0B2817390778F0AC014E5F5F4FC2
:102C90002417350748F04E0F5F1F50930C054093E3
:102CA0000B058193919302C0E0E0F0E0CF01DF914A
:102CB000CF9108950F931F93CF93DF93009709F45B
:102CC0008CC0FC0132971382128200910D05109185
:102CD0000E050115110581F420813181820F931FAA
:102CE00020910B0530910C052817390779F5F093E1
:102CF0000C05E0930B0571C0D80140E050E0AE1721
:102D0000BF0750F412962D913C911397AD012115F8
:102D1000310509F1D901F3CF9D01DA013383228313
:102D200060817181860F971F8217930769F4EC0108
:102D300028813981260F371F2E5F3F4F3183208333
:102D40008A819B8193838283452B29F4F0930E051E
:102D5000E0930D0542C01396FC93EE931297ED019C
:102D6000499159919E01240F351FE217F30771F421
:102D700080819181840F951F029611969C938E936A
:102D80008281938113969C938E931297E0E0F0E0FA
:102D9000D80112968D919C911397009719F0F80124
:102DA0008C01F6CF8D919C9198012E5F3F4F820F41
:102DB000931F20910B0530910C052817390769F4F2
:102DC000309729F410920E0510920D0502C013825F
:102DD000128210930C0500930B05DF91CF911F9188
:102DE0000F9108956F927F928F929F92AF92BF92B0
:102DF000CF92DF92EF92FF920F931F93CF93DF93C7
:102E0000EC01009789F4CB01DF91CF911F910F91D5
:102E1000FF90EF90DF90CF90BF90AF909F908F90FA
:102E20007F906F900C94C515FC01E60FF71F9C0175
:102E300022503109E217F30708F4ACC0D9010D9113
:102E40001C91119706171707B0F00530110508F40B
:102E50009FC0C80104978617970708F499C00250CD
:102E60001109061B170B019311936D937C93CF01EE
:102E70000E945A168DC05B01A01AB10A4C01800E47
:102E8000911EA0910D05B0910E0540E050E0E12C9F
:102E9000F12C109709F44AC0A815B905D1F56D9029
:102EA0007C901197630182E0C80ED11CCA14DB0428
:102EB00080F1A3014A195B096A0182E0C80ED11CA6
:102EC0001296BC9012971396AC91B5E0CB16D10434
:102ED00040F0B282A38351834083D9016D937C93E8
:102EE0000AC00E5F1F4FC301800F911FF90191832C
:102EF0008083EB2DFA2FE114F10431F0D701139602
:102F0000FC93EE93129744C0F0930E05E0930D05E9
:102F10003FC08D919C9111974817590708F4AC0157
:102F20007D0112960D90BC91A02DB3CF80910B0521
:102F300090910C0588159905E1F446175707C8F4D8
:102F40008091170290911802009741F48DB79EB7B7
:102F500040911B0250911C02841B950BE817F90746
:102F6000C8F4F0930C05E0930B05F90171836083BD
:102F70000FC0CB010E94C5157C01009759F0A80134
:102F8000BE010E94E017CE010E945A16C70104C07C
:102F9000CE0102C080E090E0DF91CF911F910F91B0
:102FA000FF90EF90DF90CF90BF90AF909F908F9069
:102FB0007F906F90089581E090E0F8940C94F91759
:102FC000FB01DC0102C001900D9241505040D8F746
:102FD0000895FB01DC018D91019080190110D9F356
:102FE000990B0895FB01DC0101900D920020E1F79F
:102FF000089511E0C6E5D1E000E006C0802FFE0193
:103000000E94BD152196011DC735D10780E0080734
:06301000A9F7F894FFCFC0
:1030160014AE273F0101011E071E071E071E071ECD
:10302600071E071E071E0700000F0580000000ECA4
:1030360009A012D917AB1C23214B2530290B2B9C39
:103046002E00323F3564387A3EFE422249534CA365
:103056004F1C53C656B158B65C0561A865AC6A1ECE
:103066007034791E05D60684083C0AF40BA20D5A64
:103076000F1211C01278143016DE1796194E1B96D1
:1030860019DE1730167814C01212115A0FA20DF459
:103096000B3C0A8408D6061E0500004000140054A6
:1030A6000000000000F20126078A013902BB0199DF
:1030B60001AD0100000000E302B30213038D02AB71
:1030C600029C028E02000000008C062607130312E3
:1030D6000300000000D303260713031203426965A9
:1030E6006E76656E69646F000D0A0050726F6772C6
:1030F600616D6120526F6C61646F7261006D6D006D
:1031060070776D6F6E0070776D6F66660076656CB2
:103116000074656D70006365726F000A0D0074655A
:10312600737400727574696E617469656D706F0091
:10313600436F6D656E7A6F20527574696E610072A9
:103146007574696E61656E636F646572005275743D
:10315600696E61456E636F6465720053756269726C
:103166000042616A6172005465726D696E616D6FCD
:0E31760073006E616E00696E66006F76660013
:00000001FF
