:100000000C946A010C94140A0C94E9090C94BE092E
:100010000C9493090C9468090C943D090C941209F2
:100020000C94E7080C949B010C949B010C949B018D
:100030000C949B010C949B010C949B010C949B01D0
:100040000C949B010C949B010C949B010C949B01C0
:100050000C94BC060C949B010C949B010C949D0881
:100060000C949B010C94AF040C9485040C949B019C
:100070000C949B010C949B010C949B010C949B0190
:100080000C949B010C949B010C949B010C949B0180
:100090000C949B010C949B010C949B010C94E50423
:1000A0000C949B010C949B010C949B010C949B0160
:1000B0000C949B010C949B010C949B010C949B0150
:1000C0000C949B010C949B010C949B010C949B0140
:1000D0000C949B010C949B010C949B010C949B0130
:1000E0000C949B0102070507F406F806FE063C0780
:1000F00009070D07130717071B07210725072907FE
:100100003C072F07330737070C9421070C94F80698
:100110000C94B6060C94F4060C9435040C94FE066C
:100120000C940D070C9409070C94CF030C9429032D
:100130000C94D5100C942F070C9446030C9437079D
:100140000C9402070C9425030C941B070C944C028E
:100150000C943C070C946A070C9426030C946207D9
:100160000C949D010C94AC010C9425070C94A102F5
:100170000C94C0010C9429070C94F6020C94CE0147
:100180000C94C6020C94AF020C9417070C94CF1079
:100190000C9433070C9405070C94A0020C94FA03FA
:1001A0000C9413070C94BE020C9447030C940502A4
:1001B00000002100240027002A002D003000330019
:1001C00001010000040107010A01000022002500CE
:1001D00028002B002E003100340002010000050130
:1001E00008010B01000020002300260029002C003C
:1001F0002F0032000001000003010601090105057E
:100200000505070508080808020202020A0A08088C
:1002100004040404010101010101010103030303BA
:1002200003030303040707070C0C0C0C0C0C0C0C49
:100230000202020206060606060606060B0B0B0B5A
:100240000B0B0B0B0102102020080810204010207F
:10025000408002010201080402010102040810208A
:100260004080804020100804020180040201804088
:1002700020100804020108040201010204081020F1
:100280004080010204081020408000000A0B02098F
:100290000C0D0E0807030401000000000000000020
:1002A000000000000000000000000000000000004E
:1002B000000000000000121110000000000000000B
:1002C000000000000000000000000000000000002E
:1002D000D510CF1011241FBECFEFD1E2DEBFCDBFAE
:1002E00000E00CBF24E0A4EAB2E001C01D92AA32F3
:1002F000B207E1F712E0A0E0B2E0E2EBFBE200E0DF
:100300000BBF02C007900D92A43AB107D9F711E0D4
:10031000C9E6D1E000E006C021970109802FFE0167
:100320000E948B13C836D10780E00807A9F70E9406
:10033000430C0C94C7150C940000FC01538D448DA4
:10034000252F30E0842F90E0821B930B541710F080
:10035000CF96089501970895FC01918D828D98178D
:1003600061F0828DDF01A80FB11D5D968C91928D99
:100370009F5F9F73928F90E008958FEF9FEF089596
:10038000FC01918D828D981731F0828DE80FF11D5F
:10039000858D90E008958FEF9FEF0895FC01918D7A
:1003A000228D892F90E0805C9F4F821B91098F7373
:1003B0009927089582E693E00E94CE0121E0892BDF
:1003C00009F420E0822F0895FC01848DDF01A80F3D
:1003D000B11DA35ABF4F2C91848D90E001968F736D
:1003E0009927848FA689B7892C93A089B1898C918C
:1003F00080648C93938D848D981306C00288F38952
:10040000E02D80818F7D80830895EF92FF920F937E
:100410001F93CF93DF93EC0181E0888F9B8D8C8DB0
:10042000981305C0E889F989808185FD24C0F62EDE
:100430000B8D10E00F5F1F4F0F731127E02E8C8D77
:10044000E8120CC00FB607FCFACFE889F989808161
:1004500085FFF5CFCE010E94E401F1CF8B8DFE0127
:10046000E80FF11DE35AFF4FF0820B8FEA89FB89F9
:100470008081806207C0EE89FF896083E889F989FD
:1004800080818064808381E090E0DF91CF911F9133
:100490000F91FF90EF900895CF93DF93EC01888D3B
:1004A0008823C9F0EA89FB89808185FD05C0A88978
:1004B000B9898C9186FD0FC00FB607FCF5CF8081FE
:1004C00085FFF2CFA889B9898C9185FFEDCFCE0148
:1004D0000E94E401E7CFDF91CF91089585ED8093ED
:1004E000BC008091BC0084FDFCCF1092A602089550
:1004F00040911903262F30E0240F311D21323105A0
:10050000DCF42091A6022430C9F4FC0180E090E0E4
:10051000861758F4309119032191DC01A950BD4F81
:10052000A30FB11D2C930196F3CF80911903680F8F
:100530006093190380E0089581E0089582E00895B2
:10054000089581E090E03091AA022091A90232172B
:1005500010F480E090E09195819591090895809143
:10056000AA029091A902891730F48F5F8093AA02A2
:1005700080E090E008958FEF9FEF08958091A902A9
:1005800090E02091AA02821B91090895CF92DF92F8
:10059000EF92FF920F931F93CF93DF937C01262F4F
:1005A000972F8A018091F602882391F0C62FD72FCA
:1005B0006E01C40ED51ECC15DD0571F06991D70111
:1005C000ED91FC910190F081E02DC7011995F3CFD9
:1005D000642F822F0E947802C801DF91CF911F9172
:1005E0000F91FF90EF90DF90CF900895CF93DF931E
:1005F0001F92CDB7DEB769832091F6022223D1F096
:100600002091A702203240F021E030E0FC0133834A
:10061000228380E090E015C08091A802E82FF0E0EE
:10062000EA52FD4F998190838F5F8093A802809357
:10063000A70205C061E0CE0101960E94780281E028
:1006400090E00F90DF91CF910895089580E090E0C1
:1006500008958091D2029091D30201969093D30293
:100660008093D2028091AD029091AE02A091AF0230
:10067000B091B0020196A11DB11D8093AD0290937F
:10068000AE02A093AF02B093B002089508950E9405
:10069000A915FF920F931F93CF93DF931F921F9281
:1006A000CDB7DEB782E693E00E94CE01892BD1F16F
:1006B00082E693E00E94AC01F82E89831A820091B1
:1006C0000F04109110040F5F1F4FB8018BE094E0EE
:1006D0000E945E0A882399F020910B0430910C044B
:1006E00080910F0490911004BE016F5F7F4F820FC5
:1006F000931F0E94C0151093100400930F048DE007
:10070000F81204C081E08093D4020CC080E2F81299
:1007100009C00F900F90DF91CF911F910F91FF9023
:100720000C94B00A0F900F90DF91CF911F910F9111
:10073000FF9008950E94DA01811125C080E090E0C9
:10074000892B41F080E090E0892B21F00E9400008D
:1007500081111CC080E090E0892B41F080E090E0A6
:10076000892B21F00E940000811113C080E090E0ED
:10077000892BA1F080E090E0892B81F00E9400009D
:1007800081110AC008950E944903D8CF0E94000039
:10079000E1CF0E940000EACF0C9400000895CF93AF
:1007A000DF93CAE0D0E083E10E94CE0721E0892BED
:1007B00009F420E02093D1022197A9F78091D1027A
:1007C0008823A9F081E08093BB021092B5021092B9
:1007D000B6021092B7021092B8029091B90298270F
:1007E0009093B9029091BA0289278093BA02DF915F
:1007F000CF91089583E00E94CE0721E0892B09F470
:1008000020E02093D1028091D102882369F180B148
:1008100085FB882780F98093D0028091D0028111D6
:1008200003C081E090E002C08FEF9FEF4091B102E2
:100830005091B2026091B3027091B402092E000C83
:10084000AA0BBB0B840F951FA61FB71F8093B10285
:100850009093B202A093B302B093B4029091B90204
:1008600081E089278093B90208950F931F9382E056
:100870000E94CE0721E0892B09F420E02093D102C9
:100880008091D1028823F1F180B183FB882780F920
:100890008093CF028091CF02811103C081E090E06C
:1008A00002C08FEF9FEF4091B5025091B602609168
:1008B000B7027091B802092E000CAA0BBB0B8A017B
:1008C0009B01081B190B2A0B3B0B0093B5021093DD
:1008D000B6022093B7023093B8029091BA0281E039
:1008E00089278093BA028091B5029091B602A091B7
:1008F000B702B091B8028C399F4FAF4FBF4F11F480
:10090000109204021F910F9108951F920F920FB63B
:100910000F9211240BB60F922F933F934F935F9337
:100920006F937F938F939F93AF93BF93EF93FF93B7
:1009300082E693E00E94E401FF91EF91BF91AF91B5
:100940009F918F917F916F915F914F913F912F91E7
:100950000F900BBE0F900FBE0F901F9018951F9217
:100960000F920FB60F9211240BB60F922F938F9305
:100970009F93EF93FF93E0917203F0917303808153
:10098000E0917803F091790382FD12C0908180910B
:100990007B038F5F8F7320917C03821751F0E0916E
:1009A0007B03F0E0EE59FC4F958F80937B0301C0F1
:1009B0008081FF91EF919F918F912F910F900BBEAE
:1009C0000F900FBE0F901F9018951F920F920FB6A9
:1009D0000F9211240BB60F922F933F934F935F9377
:1009E0006F937F938F939F93AF93BF93EF93FF93F7
:1009F0008091B900887F803609F49CC068F5883200
:100A000009F45BC090F4803109F454C038F48823B1
:100A100009F4F6C0883009F44DC0F6C0883109F4F5
:100A20004CC0803209F45DC0EFC0803409F468C066
:100A300048F4803309F455C0883309F0E5C0809349
:100A40003E03D8C0803509F44FC0883509F45DC035
:100A5000883409F0D9C0D6C0883909F4C7C0A8F4D1
:100A6000883709F467C038F4883609F463C08037E2
:100A700009F460C0C9C0883809F4B8C0803909F4E5
:100A80005FC0803809F0C0C05BC0803B09F486C0FD
:100A900038F4803A09F466C0883A09F47FC0B4C0DB
:100AA000803C09F4A7C0883C09F4A4C0883B09F441
:100AB0008AC0AAC08091610310C0909160038091A8
:100AC0005F03981770F5E091600381E08E0F8093CB
:100AD0006003F0E0E15CFC4F80818093BB0085EC1B
:100AE00086C080933E038EC0E091600381E08E0F4C
:100AF000809360038091BB00F0E0E15CFC4F808359
:100B00009091600380915F036EC0E091600381E08B
:100B10008E0F809360038091BB00F0E0E15CFC4F9E
:100B200080838091A50281116DC081E08093A40231
:100B300084EA61C083E08093A60210923D03CFCF88
:100B400080913D03803208F051C0E0913D0381E087
:100B50008E0F80933D038091BB00F0E0E35EFC4F7D
:100B60008083BDCF85EC8093BC001092A60280915B
:100B70003D03803230F4E0913D03F0E0E35EFC4F52
:100B8000108260913D0370E0E0911B03F0911C0323
:100B90008DE193E0199510923D0336C084E0809377
:100BA000A60210921A0310921903E0911703F09114
:100BB0001803199580911903811105C081E0809374
:100BC00019031092F702E0911A0381E08E0F8093CF
:100BD0001A03F0E0E950FD4F80818093BB009091B3
:100BE0001A0380911903981708F479CF85E8809348
:100BF000BC000AC085EC8093BC001092A60204C021
:100C000010923E030E946E02FF91EF91BF91AF914F
:100C10009F918F917F916F915F914F913F912F9114
:100C20000F900BBE0F900FBE0F901F901895CF9393
:100C3000FC01C48121E02093F602C093D5021092FA
:100C4000A8021092A7028385682B8FEF93E00E9481
:100C5000F6028091A702813208F046C09091A60268
:100C60009111FCCF92E09093A60291E09093A5029F
:100C70009FEF90933E031092600380935F03A6ED75
:100C8000B2E02FE333E0F9019E2F921B981718F47E
:100C90009D919193F9CF1092610380916103CC0FE4
:100CA000C82BC09361038091A402813061F410923B
:100CB000A402809161038093BB008091BC0083FDFE
:100CC000F8CF85EC01C085EE8093BC008091A60230
:100CD0008230E1F380913E038F3F31F080913E03FB
:100CE000803211F080913E031092A8021092A70268
:100CF0001092F602CF9108950F931F93CF938C011A
:100D0000C62F0E9417066C2F6460C8010E94170648
:100D10006C2F6B7FC8010E94170683EC90E001974F
:100D2000F1F7CF911F910F910895FF920F931F93A9
:100D3000CF93DF931F92CDB7DEB78C01F62E962F9F
:100D4000907F692F642BC80149830E947C0680E153
:100D5000F89EB00111244981642BC8010F90DF91E6
:100D6000CF911F910F91FF900C947C0641E00E945F
:100D7000950681E090E008951F920F920FB60F92B2
:100D800011240BB60F922F933F934F935F936F9362
:100D90007F938F939F93AF93BF93EF93FF93E091D4
:100DA000AB02F091AC021995FF91EF91BF91AF9119
:100DB0009F918F917F916F915F914F913F912F9173
:100DC0000F900BBE0F900FBE0F901F90189590E0E4
:100DD000FC013197E231F10508F04EC08827EE584A
:100DE000FF4F8F4F0C948B13809180008F7703C03F
:100DF000809180008F7D8093800008958091800095
:100E0000877FF9CF84B58F7702C084B58F7D84BD8D
:100E100008958091B0008F7703C08091B0008F7DDE
:100E20008093B0000895809190008F7707C08091E3
:100E300090008F7D03C080919000877F8093900009
:100E400008958091A0008F7707C08091A0008F7DCA
:100E500003C08091A000877F8093A00008958091B7
:100E600020018F7707C0809120018F7D03C0809182
:100E70002001877F8093200108953FB7F8948091E7
:100E8000220490912304A0912404B091250426B556
:100E9000A89B05C02F3F19F00196A11DB11D3FBFB2
:100EA000BA2FA92F982F8827820F911DA11DB11D40
:100EB000BC01CD0142E0660F771F881F991F4A953C
:100EC000D1F708950895DC01ED91FC910190F08136
:100ED000E02D1994CF92DF92EF92FF920F931F9320
:100EE000CF93DF936C017A018B01C0E0D0E0CE1587
:100EF000DF0589F0D8016D918D01D601ED91FC914E
:100F00000190F081E02DC6011995892B11F47E0125
:100F100002C02196ECCFC701DF91CF911F910F91B5
:100F2000FF90EF90DF90CF90089540E061E081E185
:100F300094E00E9495068BE39FE10197F1F70895F5
:100F4000CF93DF93CDB7DEB728970FB6F894DEBF07
:100F50000FBECDBF98E0EBE1F2E0DE01119601900B
:100F60000D929A95E1F790911A04981710F48FEF6B
:100F7000890FFE013196E80FF11DE80FF11D608128
:100F8000606840E081E194E028960FB6F894DEBFF7
:100F90000FBECDBFDF91CF910C949506CF93DF9319
:100FA000282F30E0F901E657FD4F8491F901EC5B01
:100FB000FD4FD491F901E250FE4FC491CC2391F042
:100FC00081110E94E706EC2FF0E0EE0FFF1FEC51BD
:100FD000FE4FA591B491EC91ED2381E090E021F4D6
:100FE00080E002C080E090E0DF91CF9108951F93F0
:100FF000CF93DF93282F30E0F901E657FD4F84911E
:10100000F901EC5BFD4FD491F901E250FE4FC49120
:10101000CC23C9F0162F81110E94E706EC2FF0E0D7
:10102000EE0FFF1FE653FE4FA591B4918FB7F894D2
:10103000111105C09C91ED2FE095E92302C0EC91C0
:10104000ED2BEC938FBFDF91CF911F910895CF933C
:10105000DF9390E0FC01EC5BFD4F2491FC01E2503A
:10106000FE4F8491882361F190E0880F991FFC0165
:10107000E055FE4FC591D491FC01E653FE4FA5917A
:10108000B491611109C09FB7F8948881209582239B
:101090008883EC912E230BC0623061F49FB7F894E3
:1010A0003881822F809583238883EC912E2B2C937B
:1010B0009FBF06C08FB7F894E8812E2B28838FBF7F
:1010C000DF91CF9108958F929F92AF92BF92CF926E
:1010D000DF92EF92FF926B017C010E943D074B0172
:1010E0005C01C114D104E104F104F1F00E943D0758
:1010F000DC01CB0188199909AA09BB09883E9340F4
:10110000A105B10570F321E0C21AD108E108F10888
:1011100088EE880E83E0981EA11CB11CC114D10476
:10112000E104F10419F7DDCFFF90EF90DF90CF904D
:10113000BF90AF909F908F9008951F920F920FB61F
:101140000F9211242F933F938F939F93AF93BF934D
:1011500080911E0490911F04A0912004B09121045D
:1011600030911D0423E0230F2D3720F40196A11D9B
:10117000B11D05C026E8230F0296A11DB11D2093C5
:101180001D0480931E0490931F04A0932004B09329
:1011900021048091220490912304A0912404B09111
:1011A00025040196A11DB11D809322049093230470
:1011B000A0932404B0932504BF91AF919F918F9188
:1011C0003F912F910F900FBE0F901F9018951F9277
:1011D0000F920FB60F9211240BB60F922F933F93DD
:1011E0004F935F936F937F938F939F93AF93BF932F
:1011F000EF93FF93E0911302F09114021995FF9180
:10120000EF91BF91AF919F918F917F916F915F917E
:101210004F913F912F910F900BBE0F900FBE0F90EB
:101220001F9018951F920F920FB60F9211240BB6B4
:101230000F922F933F934F935F936F937F938F936F
:101240009F93AF93BF93EF93FF93E0911102F091BF
:1012500012021995FF91EF91BF91AF919F918F91DC
:101260007F916F915F914F913F912F910F900BBEA6
:101270000F900FBE0F901F9018951F920F920FB6F0
:101280000F9211240BB60F922F933F934F935F93BE
:101290006F937F938F939F93AF93BF93EF93FF933E
:1012A000E0910702F09108021995FF91EF91BF912B
:1012B000AF919F918F917F916F915F914F913F91EE
:1012C0002F910F900BBE0F900FBE0F901F9018958F
:1012D0001F920F920FB60F9211240BB60F922F93FD
:1012E0003F934F935F936F937F938F939F93AF93AE
:1012F000BF93EF93FF93E0910502F09106021995D9
:10130000FF91EF91BF91AF919F918F917F916F91DD
:101310005F914F913F912F910F900BBE0F900FBE99
:101320000F901F9018951F920F920FB60F921124D5
:101330000BB60F922F933F934F935F936F937F93CF
:101340008F939F93AF93BF93EF93FF93E0910F021F
:10135000F09110021995FF91EF91BF91AF919F917C
:101360008F917F916F915F914F913F912F910F904E
:101370000BBE0F900FBE0F901F9018951F920F92EB
:101380000FB60F9211240BB60F922F933F934F93EA
:101390005F936F937F938F939F93AF93BF93EF93DD
:1013A000FF93E0910D02F0910E021995FF91EF91DC
:1013B000BF91AF919F918F917F916F915F914F916D
:1013C0003F912F910F900BBE0F900FBE0F901F906B
:1013D00018951F920F920FB60F9211240BB60F9211
:1013E0002F933F934F935F936F937F938F939F932D
:1013F000AF93BF93EF93FF93E0910B02F0910C0238
:101400001995FF91EF91BF91AF919F918F917F912E
:101410006F915F914F913F912F910F900BBE0F9065
:101420000FBE0F901F9018951F920F920FB60F923C
:1014300011240BB60F922F933F934F935F936F93AB
:101440007F938F939F93AF93BF93EF93FF93E0911D
:101450000902F0910A021995FF91EF91BF91AF91A6
:101460009F918F917F916F915F914F913F912F91BC
:101470000F900BBE0F900FBE0F901F901895FC01A0
:1014800024813581232B31F421E061157105A1F010
:10149000FB0108C0FC01808191816115710531F467
:1014A00021E0FC018081882339F005C00E94B71536
:1014B00021E0892B09F020E0822F08950F931F93DC
:1014C000CF93DF93EC0188819981009729F02A81DD
:1014D0003B812617370788F48B016F5F7F4F0E948F
:1014E000C014009761F0998388831B830A832C8141
:1014F0003D81232B11F4FC01108281E001C080E0CA
:10150000DF91CF911F910F910895EF92FF920F936A
:101510001F93CF93DF93EC017B018A01BA010E94F4
:101520005E0A2881398181110DC02115310519F01C
:10153000C9010E942814198218821D821C821B82F4
:101540001A8206C01D830C83B701C9010E94C01511
:10155000CE01DF91CF911F910F91FF90EF900895F1
:1015600040E050E061E672E08BE094E00E94850A82
:101570008BE094E008956115710579F0FB0101900D
:101580000020E9F73197AF01461B570BDC01ED91C5
:10159000FC910280F381E02D199480E090E00895A1
:1015A0004F925F926F927F92EF92FF920F931F93F1
:1015B000CF93DF93CDB7DEB7A1970FB6F894DEBF18
:1015C0000FBECDBF7C01FA01CB0119A2223008F475
:1015D0002AE08E010F5D1F4F422E512C612C712C81
:1015E000BF01A30192010E946913F901CA010150D0
:1015F00011096A3014F4605D01C0695CD8016C9314
:10160000232B242B252B61F7B801C7010E94BB0AAD
:10161000A1960FB6F894DEBF0FBECDBFDF91CF917C
:101620001F910F91FF90EF907F906F905F904F9080
:101630000895CF92DF92EF92FF920F931F93CF9373
:10164000DF9377FF1DC06A017B01EC016DE20E9410
:1016500063078C0144275527BA014C195D096E09AF
:101660007F092AE0CE010E94D00A800F911FDF91EE
:10167000CF911F910F91FF90EF90DF90CF90089541
:101680002AE0DF91CF911F910F91FF90EF90DF90B3
:10169000CF900C94D00ACF93DF93AB01BC0182E6CC
:1016A00093E00E94190BEC016FE572E082E693E093
:1016B0000E94BB0A8C0F9D1FDF91CF9108954F921E
:1016C0005F926F927F928F929F92AF92BF92CF92D2
:1016D000DF92EF92FF92CF93DF93EC016A017B01DF
:1016E000B22E9A01AB01C701B6010E946413882390
:1016F00019F068E972E027C026013701E89477F80D
:101700002FEF3FEF4FE75FE7C301B2010E94641381
:1017100081110DC02FEF3FEF4FE75FE7C301B2012B
:101720000E942D1118161CF46CE972E00CC02FEF0A
:101730003FEF4FE75FE4C701B6010E945F13181641
:101740009CF460EA72E0CE01DF91CF91FF90EF90C0
:10175000DF90CF90BF90AF909F908F907F906F90D1
:101760005F904F900C94BB0A2FEF3FEF4FE75FEC79
:10177000C701B6010E942D1187FDE3CF20E030E0C4
:10178000A901C701B6010E942D1187FF0AC06DE2B1
:10179000CE010E9463074C01F7FAF094F7F8F09439
:1017A00002C0812C912CA12C60E070E080E09FE3CE
:1017B000AB1441F020E030E040E251E40E94BE1260
:1017C000A394F6CF9B01AC01C701B6010E9452124F
:1017D0002B013C010E9430136B017C010E943211ED
:1017E0009B01AC01C301B2010E9451122B013C01CB
:1017F0002AE0B701A601CE010E94D00A7C01E80CC4
:10180000F91CBB2031F06EE2CE010E946307E80EA6
:10181000F91EDB2CDD2029F120E030E040E251E42C
:10182000C301B2010E9493112B013C010E943013AD
:101830004B01A12CB12C2AE0B501A401CE010E94DC
:10184000D00AE80EF91EC501B4010E9432119B01B5
:10185000AC01C301B2010E9451122B013C01DA9488
:10186000D9CFC701DF91CF91FF90EF90DF90CF905C
:10187000BF90AF909F908F907F906F905F904F90B0
:1018800008950C94BB0ACF93DF93CDB7DEB72A97A8
:101890000FB6F894DEBF0FBECDBF789484B58260DA
:1018A00084BD84B5816084BD85B5826085BD85B504
:1018B000816085BD80916E00816080936E00109282
:1018C00081008091810082608093810080918100FD
:1018D000816080938100809180008160809380008E
:1018E0008091B10084608093B1008091B0008160EC
:1018F0008093B000809191008260809391008091EC
:10190000910081608093910080919000816080932C
:1019100090008091A10082608093A1008091A1003D
:1019200081608093A1008091A00081608093A000DD
:101930008091210182608093210180912101816049
:10194000809321018091200181608093200180910A
:101950007A00846080937A0080917A00826080931C
:101960007A0080917A00816080937A0080917A0079
:10197000806880937A001092C100E0917203F09128
:10198000730382E08083E0916E03F0916F03108215
:10199000E0917003F09171038FEC808310927A03D1
:1019A000E0917603F091770386E08083E091740301
:1019B000F0917503808180618083E0917403F091E0
:1019C0007503808188608083E0917403F0917503D2
:1019D000808180688083E0917403F0917503808139
:1019E0008F7D80832AE04BE150E060E070E082E68A
:1019F00093E00E94D00A6FE572E082E693E00E94D5
:101A0000BB0A62E672E082E693E00E94BB0A6FE5E1
:101A100072E082E693E00E94BB0A80E1809381003D
:101A20001092800081E08093C30220E43FE1309374
:101A3000C2022093C102309387002093860091E177
:101A40009093810029E233E03093AC022093AB0203
:101A500080936F001092AA021092A9021092A8021D
:101A60001092A7021092A6028093A5021092A402DF
:101A700061E084E10E94F70761E085E10E94F707D9
:101A80008091B9008E7F8093B9008091B9008D7FDD
:101A90008093B90088E48093B80085E48093BC000B
:101AA0001092160480911A04823018F098E09093F6
:101AB000160490911B04992339F0813029F4809108
:101AC000160484608093160462E370E080E090E086
:101AD0000E94630860911C0481E194E00E94170653
:101AE00068EE73E080E090E00E94630860E381E1CB
:101AF00094E00E947C060BE416E4C8010197F1F71C
:101B000060E381E194E00E947C06C8010197F1F74F
:101B100060E381E194E00E947C0683E592E0019716
:101B2000F1F760E281E194E00E947C066091160486
:101B3000606240E081E194E00E94950684E0809339
:101B4000170440E06CE081E194E00E9495060E9459
:101B5000950782E08093180440E066E081E194E01C
:101B60000E94950640E062E081E194E00E949506C3
:101B70008BE39FE10197F1F780E180938100109260
:101B8000AD021092AE021092AF021092B00268EC59
:101B900070E08BE094E00E945E0A84EF91E0909305
:101BA000C0028093BF029093BE028093BD0260E0AA
:101BB00088E10E94270860E088E10E94F70760E062
:101BC00089E10E94270860E089E10E94F70785E328
:101BD00094E0909306028093050280916A008360EE
:101BE00080936A00EC9A60E08AE10E94270860E036
:101BF0008AE10E94F70760E08BE10E94270860E01D
:101C00008BE10E94F7078AEF93E09093080280939C
:101C1000070280916A008C6080936A00ED9A8FECD5
:101C200093E090930E0280930D028091690080638F
:101C300080936900EA9A86E493E09093100280937F
:101C40000F0280916900806C80936900EB9A61E0DB
:101C50008CE10E94270860E08CE10E94F70761E0B8
:101C60008DE10E94270860E08DE10E94F70761E0A6
:101C70008EE10E94270860E08EE10E94F70761E094
:101C80008FE10E94270860E08FE10E94F70761E082
:101C900088E20E94270860E088E20E94F70710921D
:101CA000BA021092B9021092BC0280E00E94A00712
:101CB0006DE672E081E194E00E94410C81E00E94B7
:101CC000A00762E672E081E194E00E94410C60EDC1
:101CD00077E080E090E00E9463080E9495076091A1
:101CE000B5027091B6028091B7029091B80220912E
:101CF00000023091010240910202509103022F83B1
:101D0000388749875A870E9434112F813885498541
:101D10005A850E9493116093C4027093C502809308
:101D2000C6029093C70280E00E94A0074091C402BF
:101D30005091C5026091C6027091C70222E081E114
:101D400094E00E945F0B6FE772E081E194E00E94F3
:101D5000410C81E00E94A0074091B1025091B20273
:101D60006091B3027091B40281E194E00E94190B7A
:101D700080E1D82ECC24C39400E41FE191E1B92E78
:101D800024EFE22EFF24F3941A8219821C821B8214
:101D90001E821D8260910B0470910C046115710507
:101DA00041F040910F0450911004CE0101960E9421
:101DB000850A62E872E0CE0101960E943F0A811115
:101DC0002AC066E872E0CE0101960E943F0A88238D
:101DD00009F4C9C01092810010928500109284000D
:101DE0008091C30280618093810080E180938100B3
:101DF0001092800081E08093C30280E49FE1909381
:101E0000C2028093C102909387008093860081E193
:101E1000809381009DC010928100109285001092E5
:101E200084008091C302806180938100D092810000
:101E300010928000C092C3021093C2020093C102AC
:101E40001093870000938600B09281008091AD02CC
:101E50009091AE02A091AF02B091B002892B8A2B73
:101E60008B2B09F4AECF6091AD027091AE028091E0
:101E7000AF029091B0020E944B0B61E08DE10E9495
:101E8000F7078091B5029091B602A091B702B09188
:101E9000B8028C399F4FAF4FBF4FC1F6D09281002F
:101EA00060E08DE10E94F7076091B5027091B60283
:101EB0008091B7029091B802209100023091010206
:101EC00040910202509103022F83388749875A8735
:101ED0000E9434112F81388549855A850E949311BB
:101EE0006093C4027093C5028093C6029093C702A8
:101EF0004091C4025091C5026091C6027091C70220
:101F000022E082E693E00E945F0B6FE572E082E6DA
:101F100093E00E94BB0A6091AD027091AE02809185
:101F2000AF029091B0020E944B0B1092AD02109242
:101F3000AE021092AF021092B0021092B50210924F
:101F4000B6021092B7021092B8020E94B00A7ECF79
:101F50006091AD027091AE028091AF029091B0029B
:101F60000E944B0BF5CF6BE872E0CE0101960E9408
:101F70003F0A882309F446C0F092C002E092BF02F3
:101F8000F092BE02E092BD0240910F045091100405
:101F900060910B0470910C0482E693E00E946A0742
:101FA0006FE572E082E693E00E94BB0A60E972E0AE
:101FB00082E693E00E94410C4091BF025091C00222
:101FC000052E000C660B770B82E693E00E94190B3E
:101FD00060E972E082E693E00E94410C4091BD020C
:101FE0005091BE02052E000C660B770B82E693E043
:101FF0000E94190B60E972E082E693E00E94410CB6
:102000000E94B00A63E972E0CE0101960E943F0A85
:10201000882309F463C061E088E20E94F70761E069
:102020008EE10E94F70768E873E180E090E00E948B
:10203000630860E08EE10E94F70760E088E20E949A
:10204000F7070E9495076091B5027091B6028091E2
:10205000B7029091B80220910002309101024091A4
:102060000202509103022F83388749875A870E94C2
:1020700034112F81388549855A850E9493116093C8
:10208000C4027093C5028093C6029093C70280E099
:102090000E94A0074091C4025091C5026091C602FF
:1020A0007091C70222E081E194E00E945F0B6FE72C
:1020B00072E081E194E00E94410C81E00E94A0075F
:1020C0004091B1025091B2026091B3027091B4029A
:1020D00081E194E00E94190B0E94B00A89819A81E3
:1020E0000E9428148091BB028091BA02811107C01E
:1020F0008091B902811103C00E949A0345CE0E94CB
:1021000095076091B5027091B6028091B7029091E7
:10211000B8022091000230910102409102025091D8
:1021200003022F83388749875A870E9434112F81F1
:10213000388549855A850E9493116093C402709333
:10214000C5028093C6029093C70280E00E94A00758
:102150004091C4025091C5026091C6027091C702BD
:1021600022E081E194E00E945F0B6FE772E081E181
:1021700094E00E94410C81E00E94A0074091B102CE
:102180005091B2026091B3027091B40281E194E087
:102190000E94190B1092BA021092B902ADCF809131
:1021A0000B0490910C040C942814E2E6F3E01382E3
:1021B000128288EE93E0A0E0B0E084839583A6834A
:1021C000B78327E232E03183208325EC30E0358786
:1021D000248724EC30E03787268720EC30E0318BF1
:1021E000208B21EC30E0338B228B22EC30E0358BDE
:1021F000248B26EC30E0378B268B118E128E138EBB
:10220000148EEFEFF3E01382128284839583A6830A
:10221000B78389E392E091838083E1E1F4E0138264
:1022200012828BE492E09183808387E2848384E14D
:10223000808784E08187128688E08387EBE0F4E082
:1022400011821082138212821582148240E050E0C3
:1022500061E672E0CF010C94850A0E946F1108F4C8
:1022600081E00895E89409C097FB3EF4909580952D
:10227000709561957F4F8F4F9F4F9923A9F0F92F4C
:1022800096E9BB279395F695879577956795B795CA
:10229000F111F8CFFAF4BB0F11F460FF1BC06F5FB0
:1022A0007F4F8F4F9F4F16C0882311F096E911C0C2
:1022B000772321F09EE8872F762F05C0662371F0E3
:1022C00096E8862F70E060E02AF09A95660F771FF7
:1022D000881FDAF7880F9695879597F90895990FD3
:1022E0000008550FAA0BE0E8FEEF16161706E807E0
:1022F000F907C0F012161306E407F50798F0621B01
:10230000730B840B950B39F40A2661F0232B242BD5
:10231000252B21F408950A2609F4A140A6958FEFF4
:10232000811D811D08950E94A6110C9417120E9410
:10233000091238F00E94101220F0952311F00C942D
:1023400000120C94061211240C944B120E942812B5
:1023500070F3959FC1F3950F50E0551F629FF001F8
:10236000729FBB27F00DB11D639FAA27F00DB11D11
:10237000AA1F649F6627B00DA11D661F829F22279A
:10238000B00DA11D621F739FB00DA11D621F839F21
:10239000A00D611D221F749F3327A00D611D231FF7
:1023A000849F600D211D822F762F6A2F11249F5745
:1023B00050409AF0F1F088234AF0EE0FFF1FBB1F48
:1023C000661F771F881F91505040A9F79E3F510507
:1023D00080F00C9400120C944B125F3FE4F3983E93
:1023E000D4F3869577956795B795F795E7959F5FB1
:1023F000C1F7FE2B880F911D9695879597F9089543
:1024000097F99F6780E870E060E008959FEF80ECA7
:10241000089500240A94161617061806090608954A
:1024200000240A9412161306140605060895092EB0
:102430000394000C11F4882352F0BB0F40F4BF2B1F
:1024400011F460FF04C06F5F7F4F8F4F9F4F08955F
:1024500057FD9058440F551F59F05F3F71F0479555
:10246000880F97FB991F61F09F3F79F0879508953A
:10247000121613061406551FF2CF4695F1DF08C059
:10248000161617061806991FF1CF86957105610576
:1024900008940895E894BB2766277727CB0197F91E
:1024A00008955058BB27AA270E9469120C9417124E
:1024B0000E94091238F00E94101220F039F49F3F58
:1024C00019F426F40C9406120EF4E095E7FB0C9434
:1024D0000012E92F0E94281258F3BA1762077307F7
:1024E0008407950720F079F4A6F50C944A120EF4AF
:1024F000E0950B2EBA2FA02D0B01B90190010C0114
:10250000CA01A0011124FF27591B99F0593F50F42B
:10251000503E68F11A16F040A22F232F342F442783
:10252000585FF3CF469537952795A795F04053957B
:10253000C9F77EF41F16BA0B620B730B840BBAF04B
:102540009150A1F0FF0FBB1F661F771F881FC2F7B6
:102550000EC0BA0F621F731F841F48F487957795CA
:102560006795B795F7959E3F08F0B0CF9395880F84
:1025700008F09927EE0F9795879508950E94D2123B
:102580000C9417120E94101258F00E94091240F089
:1025900029F45F3F29F00C94001251110C944B1256
:1025A0000C9406120E94281268F39923B1F3552364
:1025B00091F3951B550BBB27AA2762177307840756
:1025C00038F09F5F5F4F220F331F441FAA1FA9F3EC
:1025D00035D00E2E3AF0E0E832D091505040E695DA
:1025E000001CCAF72BD0FE2F29D0660F771F881F3B
:1025F000BB1F261737074807AB07B0E809F0BB0B2E
:10260000802DBF01FF2793585F4F3AF09E3F510541
:1026100078F00C9400120C944B125F3FE4F3983E58
:10262000D4F3869577956795B795F7959F5FC9F72A
:10263000880F911D9695879597F90895E1E0660FAB
:10264000771F881FBB1F621773078407BA0720F024
:10265000621B730B840BBA0BEE1F88F7E09508958D
:102660000E94301288F09F5798F0B92F9927B751E0
:10267000B0F0E1F0660F771F881F991F1AF0BA9526
:10268000C9F714C0B13091F00E944A12B1E0089528
:102690000C944A12672F782F8827B85F39F0B93F1A
:1026A000CCF3869577956795B395D9F73EF49095D9
:1026B0008095709561957F4F8F4F9F4F08950E9431
:1026C0006F1108F48FEF08950E946F11880B990B1A
:1026D0000895A1E21A2EAA1BBB1BFD010DC0AA1F63
:1026E000BB1FEE1FFF1FA217B307E407F50720F07B
:1026F000A21BB30BE40BF50B661F771F881F991FF6
:102700001A9469F760957095809590959B01AC013E
:10271000BD01CF010895EE0FFF1F881F8BBF0790EB
:10272000F691E02D1994CF93DF938230910510F448
:1027300082E090E0E0912804F091290420E030E06C
:10274000C0E0D0E0309711F140815181481759071E
:10275000C0F04817590761F482819381209719F0DE
:102760009B838A832BC0909329048093280426C0DE
:102770002115310519F04217530718F49A01BE01CB
:10278000DF01EF010280F381E02DDCCF211531055F
:1027900009F1281B390B2430310590F412968D91E4
:1027A0009C9113976115710521F0FB01938382833E
:1027B00004C09093290480932804FD01329644C0FC
:1027C000FD01E20FF31F81939193225031092D9364
:1027D0003C933AC02091260430912704232B41F4E6
:1027E0002091170230911802309327042093260479
:1027F00020911502309116022115310541F42DB7B3
:102800003EB74091190250911A02241B350BE091FA
:102810002604F0912704E217F307A0F42E1B3F0BC8
:102820002817390778F0AC014E5F5F4F2417350742
:1028300048F04E0F5F1F5093270440932604819366
:10284000919302C0E0E0F0E0CF01DF91CF910895D5
:102850000F931F93CF93DF93009709F48CC0FC0173
:1028600032971382128200912804109129040115D5
:10287000110581F420813181820F931F209126045C
:10288000309127042817390779F5F0932704E0934E
:10289000260471C0D80140E050E0AE17BF0750F4E5
:1028A00012962D913C911397AD012115310509F137
:1028B000D901F3CF9D01DA013383228360817181D5
:1028C000860F971F8217930769F4EC0128813981DD
:1028D000260F371F2E5F3F4F318320838A819B81D4
:1028E00093838283452B29F4F0932904E0932804F1
:1028F00042C01396FC93EE931297ED0149915991C2
:102900009E01240F351FE217F30771F48081918136
:10291000840F951F029611969C938E9382819381CA
:1029200013969C938E931297E0E0F0E0D8011296F4
:102930008D919C911397009719F0F8018C01F6CFB7
:102940008D919C9198012E5F3F4F820F931F209194
:102950002604309127042817390769F4309729F4A1
:10296000109229041092280402C01382128210933C
:10297000270400932604DF91CF911F910F910895B2
:102980006F927F928F929F92AF92BF92CF92DF927F
:10299000EF92FF920F931F93CF93DF93EC01009779
:1029A00089F4CB01DF91CF911F910F91FF90EF90B0
:1029B000DF90CF90BF90AF909F908F907F906F905F
:1029C0000C949313FC01E60FF71F9C012250310970
:1029D000E217F30708F4ACC0D9010D911C911197CF
:1029E00006171707B0F00530110508F49FC0C8019D
:1029F00004978617970708F499C002501109061B1F
:102A0000170B019311936D937C93CF010E942814AF
:102A10008DC05B01A01AB10A4C01800E911EA091DD
:102A20002804B091290440E050E0E12CF12C1097EB
:102A300009F44AC0A815B905D1F56D907C9011979D
:102A4000630182E0C80ED11CCA14DB0480F1A3012B
:102A50004A195B096A0182E0C80ED11C1296BC902B
:102A600012971396AC91B5E0CB16D10440F0B28228
:102A7000A38351834083D9016D937C930AC00E5F79
:102A80001F4FC301800F911FF90191838083EB2DAC
:102A9000FA2FE114F10431F0D7011396FC93EE9371
:102AA000129744C0F0932904E09328043FC08D910D
:102AB0009C9111974817590708F4AC017D011296B3
:102AC0000D90BC91A02DB3CF809126049091270446
:102AD00088159905E1F446175707C8F48091150247
:102AE00090911602009741F48DB79EB7409119025C
:102AF00050911A02841B950BE817F907C8F4F0935C
:102B00002704E0932604F901718360830FC0CB0191
:102B10000E9493137C01009759F0A801BE010E9406
:102B2000AE15CE010E942814C70104C0CE0102C018
:102B300080E090E0DF91CF911F910F91FF90EF9097
:102B4000DF90CF90BF90AF909F908F907F906F90CD
:102B5000089581E090E0F8940C94C715FB01DC0126
:102B600002C001900D9241505040D8F70895FB01EA
:102B7000DC018D91019080190110D9F3990B089512
:102B8000FB01DC0101900D920020E1F7089511E0B6
:102B9000C9E6D1E000E006C0802FFE010E948B1341
:102BA0002196011DCA36D10780E00807A9F7F894DD
:022BB000FFCF55
:102BB2005F0C153F016207620762076207620762E4
:102BC200076207620700002A048000000040001428
:102BD2000054000000000005026A079D014C02CE6D
:102BE20001AC01C00100000000F602C6022603A0EB
:102BF20002BE02AF02A10200000000B6066A07266A
:102C02000325030000000047036A07260325030D7E
:102C12000A004269656E76656E69646F0050726F74
:102C22006772616D6120526F6C61646F7261006DD9
:102C32006D0076656C0074656D70006365726F007F
:102C42000A0D0074657374006E616E00696E660031
:042C52006F76660033
:00000001FF
